{
	"data": {
		"bytecode": {
			"linkReferences": {},
			"object": "60c06040523480156200001157600080fd5b50604051620017c6380380620017c683398101604081905262000034916200011a565b826001600160a01b038116620000905760405162461bcd60e51b815260206004820152601c60248201527f4d50433a206d706320697320746865207a65726f206164647265737300000000604482015260640160405180910390fd5b600080546001600160a01b0319166001600160a01b03831690811782556040514281529091907f581f388e3dd32e1bbf62a290f509c8245f9d0b71ef82614fb2b967ad0a10d5b99060200160405180910390a3506001600160a01b039182166080521660a0525062000164565b80516001600160a01b03811681146200011557600080fd5b919050565b6000806000606084860312156200013057600080fd5b6200013b84620000fd565b92506200014b60208501620000fd565b91506200015b60408501620000fd565b90509250925092565b60805160a051611620620001a66000396000610155015260008181610116015281816106a60152818161077c01528181610c270152610c6a01526116206000f3fe608060405234801561001057600080fd5b506004361061009e5760003560e01c8063703d2bb711610066578063703d2bb714610111578063ad5c464814610150578063b63b38d014610177578063f75c26641461017f578063f830e7b41461019257600080fd5b80630565bb67146100a3578063160f1053146100b857806338ed1739146100d45780635b7b018c146100f45780636a42b8f814610107575b600080fd5b6100b66100b13660046110ff565b6101a5565b005b6100c160025481565b6040519081526020015b60405180910390f35b6100e76100e2366004611188565b610395565b6040516100cb919061122a565b6100b661010236600461126e565b6103e4565b6100c16202a30081565b6101387f000000000000000000000000000000000000000000000000000000000000000081565b6040516001600160a01b0390911681526020016100cb565b6101387f000000000000000000000000000000000000000000000000000000000000000081565b6100b66104fc565b600054610138906001600160a01b031681565b600154610138906001600160a01b031681565b60006101b46004828486611292565b6101bd916112bc565b90506001600160e01b031981166338ed173960e01b1415610311576000808080806101eb876004818b611292565b8101906101f89190611302565b945094509450945094508885111561026b5760405162461bcd60e51b815260206004820152602b60248201527f4d756c7469636861696e547261646550726f78793a207377617020616d6f756e60448201526a3a103430b99032b93937b960a91b60648201526084015b60405180910390fd5b896001600160a01b031683600081518110610288576102886113f5565b60200260200101516001600160a01b0316146102f95760405162461bcd60e51b815260206004820152602a60248201527f4d756c7469636861696e547261646550726f78793a207377617020746f6b656e604482015269103430b99032b93937b960b11b6064820152608401610262565b610306858585858561064e565b50505050505061038e565b60405162461bcd60e51b815260206004820152604660248201527f4d756c7469636861696e547261646550726f78793a205468697320747261646560448201527f50726f7879206e6f7420737570706f727420746f20706172736520706172616d60648201526520646174612160d01b608482015260a401610262565b5050505050565b60606103d9878787878080602002602001604051908101604052809392919081815260200183836020028082843760009201919091525089925088915061064e9050565b979650505050505050565b6000546001600160a01b0316331461042e5760405162461bcd60e51b815260206004820152600d60248201526c4d50433a206f6e6c79206d706360981b6044820152606401610262565b6001600160a01b0381166104845760405162461bcd60e51b815260206004820152601c60248201527f4d50433a206d706320697320746865207a65726f2061646472657373000000006044820152606401610262565b600180546001600160a01b0319166001600160a01b0383161790556104ac6202a30042611421565b60028190556001546000546040519283526001600160a01b03918216929116907f581f388e3dd32e1bbf62a290f509c8245f9d0b71ef82614fb2b967ad0a10d5b99060200160405180910390a350565b6001546001600160a01b031633148061053557506000546001600160a01b03163314801561053557506001546001600160a01b03163b15155b6105795760405162461bcd60e51b81526020600482015260156024820152744d50433a206f6e6c792070656e64696e67206d706360581b6044820152606401610262565b600060025411801561058d57506002544210155b6105d95760405162461bcd60e51b815260206004820152601960248201527f4d50433a2074696d65206265666f72652064656c61794d5043000000000000006044820152606401610262565b6001546000546040514281526001600160a01b0392831692909116907f8d32c9dd498e08090b44a0f77fe9ec0278851f9dffc4b430428411243e7df0769060200160405180910390a360018054600080546001600160a01b03199081166001600160a01b038416178255909116909155600255565b606081428110156106a15760405162461bcd60e51b815260206004820152601860248201527f556e69737761705632526f757465723a204558504952454400000000000000006044820152606401610262565b6106cc7f0000000000000000000000000000000000000000000000000000000000000000888761080b565b91508582600184516106de9190611439565b815181106106ee576106ee6113f5565b602002602001015110156107585760405162461bcd60e51b815260206004820152602b60248201527f556e69737761705632526f757465723a20494e53554646494349454e545f4f5560448201526a1514155517d05353d5539560aa1b6064820152608401610262565b6107f68560008151811061076e5761076e6113f5565b6020026020010151336107d67f0000000000000000000000000000000000000000000000000000000000000000896000815181106107ae576107ae6113f5565b60200260200101518a6001815181106107c9576107c96113f5565b6020026020010151610996565b856000815181106107e9576107e96113f5565b6020026020010151610a14565b610801828686610b44565b5095945050505050565b606060028251101561085f5760405162461bcd60e51b815260206004820152601e60248201527f556e697377617056324c6962726172793a20494e56414c49445f5041544800006044820152606401610262565b815167ffffffffffffffff811115610879576108796112ec565b6040519080825280602002602001820160405280156108a2578160200160208202803683370190505b50905082816000815181106108b9576108b96113f5565b60200260200101818152505060005b600183516108d69190611439565b81101561098e57600080610929878685815181106108f6576108f66113f5565b60200260200101518786600161090c9190611421565b8151811061091c5761091c6113f5565b6020026020010151610d3f565b91509150610951848481518110610942576109426113f5565b60200260200101518383610e09565b8461095d856001611421565b8151811061096d5761096d6113f5565b6020026020010181815250505050808061098690611450565b9150506108c8565b509392505050565b60405163e6a4390560e01b81526001600160a01b03838116600483015282811660248301526000919085169063e6a4390590604401602060405180830381865afa1580156109e8573d6000803e3d6000fd5b505050506040513d601f19601f82011682018060405250810190610a0c919061146b565b949350505050565b604080516001600160a01b0385811660248301528481166044830152606480830185905283518084039091018152608490920183526020820180516001600160e01b03166323b872dd60e01b1790529151600092839290881691610a7891906114b4565b6000604051808303816000865af19150503d8060008114610ab5576040519150601f19603f3d011682016040523d82523d6000602084013e610aba565b606091505b5091509150818015610ae4575080511580610ae4575080806020019051810190610ae491906114d0565b610b3c5760405162461bcd60e51b8152602060048201526024808201527f5472616e7366657248656c7065723a205452414e534645525f46524f4d5f46416044820152631253115160e21b6064820152608401610262565b505050505050565b60005b60018351610b559190611439565b811015610d3957600080848381518110610b7157610b716113f5565b602002602001015185846001610b879190611421565b81518110610b9757610b976113f5565b6020026020010151915091506000610baf8383610f1d565b509050600087610bc0866001611421565b81518110610bd057610bd06113f5565b60200260200101519050600080836001600160a01b0316866001600160a01b031614610bfe57826000610c02565b6000835b91509150600060028a51610c169190611439565b8810610c225788610c63565b610c637f0000000000000000000000000000000000000000000000000000000000000000878c610c538c6002611421565b815181106107c9576107c96113f5565b9050610c907f00000000000000000000000000000000000000000000000000000000000000008888610996565b6001600160a01b031663022c0d9f84848460006040519080825280601f01601f191660200182016040528015610ccd576020820181803683370190505b506040518563ffffffff1660e01b8152600401610ced94939291906114f2565b600060405180830381600087803b158015610d0757600080fd5b505af1158015610d1b573d6000803e3d6000fd5b50505050505050505050508080610d3190611450565b915050610b47565b50505050565b6000806000610d4e8585610f1d565b509050600080610d5f888888610996565b6001600160a01b0316630902f1ac6040518163ffffffff1660e01b8152600401606060405180830381865afa158015610d9c573d6000803e3d6000fd5b505050506040513d601f19601f82011682018060405250810190610dc09190611559565b506001600160701b031691506001600160701b03169150826001600160a01b0316876001600160a01b031614610df7578082610dfa565b81815b90999098509650505050505050565b6000808411610e6e5760405162461bcd60e51b815260206004820152602b60248201527f556e697377617056324c6962726172793a20494e53554646494349454e545f4960448201526a1394155517d05353d5539560aa1b6064820152608401610262565b600083118015610e7e5750600082115b610edb5760405162461bcd60e51b815260206004820152602860248201527f556e697377617056324c6962726172793a20494e53554646494349454e545f4c604482015267495155494449545960c01b6064820152608401610262565b6000610ee9856103e5611015565b90506000610ef78285611015565b90506000610f1183610f0b886103e8611015565b90611082565b90506103d981836115a9565b600080826001600160a01b0316846001600160a01b03161415610f905760405162461bcd60e51b815260206004820152602560248201527f556e697377617056324c6962726172793a204944454e544943414c5f41444452604482015264455353455360d81b6064820152608401610262565b826001600160a01b0316846001600160a01b031610610fb0578284610fb3565b83835b90925090506001600160a01b03821661100e5760405162461bcd60e51b815260206004820152601e60248201527f556e697377617056324c6962726172793a205a45524f5f4144445245535300006044820152606401610262565b9250929050565b60008115806110395750828261102b81836115cb565b925061103790836115a9565b145b61107c5760405162461bcd60e51b815260206004820152601460248201527364732d6d6174682d6d756c2d6f766572666c6f7760601b6044820152606401610262565b92915050565b60008261108f8382611421565b915081101561107c5760405162461bcd60e51b815260206004820152601460248201527364732d6d6174682d6164642d6f766572666c6f7760601b6044820152606401610262565b6001600160a01b03811681146110ec57600080fd5b50565b80356110fa816110d7565b919050565b6000806000806060858703121561111557600080fd5b8435611120816110d7565b935060208501359250604085013567ffffffffffffffff8082111561114457600080fd5b818701915087601f83011261115857600080fd5b81358181111561116757600080fd5b88602082850101111561117957600080fd5b95989497505060200194505050565b60008060008060008060a087890312156111a157600080fd5b8635955060208701359450604087013567ffffffffffffffff808211156111c757600080fd5b818901915089601f8301126111db57600080fd5b8135818111156111ea57600080fd5b8a60208260051b85010111156111ff57600080fd5b602083019650809550505050611217606088016110ef565b9150608087013590509295509295509295565b6020808252825182820181905260009190848201906040850190845b8181101561126257835183529284019291840191600101611246565b50909695505050505050565b60006020828403121561128057600080fd5b813561128b816110d7565b9392505050565b600080858511156112a257600080fd5b838611156112af57600080fd5b5050820193919092039150565b6001600160e01b031981358181169160048510156112e45780818660040360031b1b83161692505b505092915050565b634e487b7160e01b600052604160045260246000fd5b600080600080600060a0868803121561131a57600080fd5b853594506020808701359450604087013567ffffffffffffffff8082111561134157600080fd5b818901915089601f83011261135557600080fd5b813581811115611367576113676112ec565b8060051b604051601f19603f8301168101818110858211171561138c5761138c6112ec565b60405291825284820192508381018501918c8311156113aa57600080fd5b938501935b828510156113cf576113c0856110ef565b845293850193928501926113af565b8098505050505050506113e4606087016110ef565b949793965091946080013592915050565b634e487b7160e01b600052603260045260246000fd5b634e487b7160e01b600052601160045260246000fd5b600082198211156114345761143461140b565b500190565b60008282101561144b5761144b61140b565b500390565b60006000198214156114645761146461140b565b5060010190565b60006020828403121561147d57600080fd5b815161128b816110d7565b60005b838110156114a357818101518382015260200161148b565b83811115610d395750506000910152565b600082516114c6818460208701611488565b9190910192915050565b6000602082840312156114e257600080fd5b8151801515811461128b57600080fd5b84815283602082015260018060a01b0383166040820152608060608201526000825180608084015261152b8160a0850160208701611488565b601f01601f19169190910160a00195945050505050565b80516001600160701b03811681146110fa57600080fd5b60008060006060848603121561156e57600080fd5b61157784611542565b925061158560208501611542565b9150604084015163ffffffff8116811461159e57600080fd5b809150509250925092565b6000826115c657634e487b7160e01b600052601260045260246000fd5b500490565b60008160001904831182151516156115e5576115e561140b565b50029056fea264697066735822122022aaae685e9f060917bf3aa4a554ba8bb575329b12215e848b3489eac00e05e364736f6c634300080c0033",
			"opcodes": "PUSH1 0xC0 PUSH1 0x40 MSTORE CALLVALUE DUP1 ISZERO PUSH3 0x11 JUMPI PUSH1 0x0 DUP1 REVERT JUMPDEST POP PUSH1 0x40 MLOAD PUSH3 0x17C6 CODESIZE SUB DUP1 PUSH3 0x17C6 DUP4 CODECOPY DUP2 ADD PUSH1 0x40 DUP2 SWAP1 MSTORE PUSH3 0x34 SWAP2 PUSH3 0x11A JUMP JUMPDEST DUP3 PUSH1 0x1 PUSH1 0x1 PUSH1 0xA0 SHL SUB DUP2 AND PUSH3 0x90 JUMPI PUSH1 0x40 MLOAD PUSH3 0x461BCD PUSH1 0xE5 SHL DUP2 MSTORE PUSH1 0x20 PUSH1 0x4 DUP3 ADD MSTORE PUSH1 0x1C PUSH1 0x24 DUP3 ADD MSTORE PUSH32 0x4D50433A206D706320697320746865207A65726F206164647265737300000000 PUSH1 0x44 DUP3 ADD MSTORE PUSH1 0x64 ADD PUSH1 0x40 MLOAD DUP1 SWAP2 SUB SWAP1 REVERT JUMPDEST PUSH1 0x0 DUP1 SLOAD PUSH1 0x1 PUSH1 0x1 PUSH1 0xA0 SHL SUB NOT AND PUSH1 0x1 PUSH1 0x1 PUSH1 0xA0 SHL SUB DUP4 AND SWAP1 DUP2 OR DUP3 SSTORE PUSH1 0x40 MLOAD TIMESTAMP DUP2 MSTORE SWAP1 SWAP2 SWAP1 PUSH32 0x581F388E3DD32E1BBF62A290F509C8245F9D0B71EF82614FB2B967AD0A10D5B9 SWAP1 PUSH1 0x20 ADD PUSH1 0x40 MLOAD DUP1 SWAP2 SUB SWAP1 LOG3 POP PUSH1 0x1 PUSH1 0x1 PUSH1 0xA0 SHL SUB SWAP2 DUP3 AND PUSH1 0x80 MSTORE AND PUSH1 0xA0 MSTORE POP PUSH3 0x164 JUMP JUMPDEST DUP1 MLOAD PUSH1 0x1 PUSH1 0x1 PUSH1 0xA0 SHL SUB DUP2 AND DUP2 EQ PUSH3 0x115 JUMPI PUSH1 0x0 DUP1 REVERT JUMPDEST SWAP2 SWAP1 POP JUMP JUMPDEST PUSH1 0x0 DUP1 PUSH1 0x0 PUSH1 0x60 DUP5 DUP7 SUB SLT ISZERO PUSH3 0x130 JUMPI PUSH1 0x0 DUP1 REVERT JUMPDEST PUSH3 0x13B DUP5 PUSH3 0xFD JUMP JUMPDEST SWAP3 POP PUSH3 0x14B PUSH1 0x20 DUP6 ADD PUSH3 0xFD JUMP JUMPDEST SWAP2 POP PUSH3 0x15B PUSH1 0x40 DUP6 ADD PUSH3 0xFD JUMP JUMPDEST SWAP1 POP SWAP3 POP SWAP3 POP SWAP3 JUMP JUMPDEST PUSH1 0x80 MLOAD PUSH1 0xA0 MLOAD PUSH2 0x1620 PUSH3 0x1A6 PUSH1 0x0 CODECOPY PUSH1 0x0 PUSH2 0x155 ADD MSTORE PUSH1 0x0 DUP2 DUP2 PUSH2 0x116 ADD MSTORE DUP2 DUP2 PUSH2 0x6A6 ADD MSTORE DUP2 DUP2 PUSH2 0x77C ADD MSTORE DUP2 DUP2 PUSH2 0xC27 ADD MSTORE PUSH2 0xC6A ADD MSTORE PUSH2 0x1620 PUSH1 0x0 RETURN INVALID PUSH1 0x80 PUSH1 0x40 MSTORE CALLVALUE DUP1 ISZERO PUSH2 0x10 JUMPI PUSH1 0x0 DUP1 REVERT JUMPDEST POP PUSH1 0x4 CALLDATASIZE LT PUSH2 0x9E JUMPI PUSH1 0x0 CALLDATALOAD PUSH1 0xE0 SHR DUP1 PUSH4 0x703D2BB7 GT PUSH2 0x66 JUMPI DUP1 PUSH4 0x703D2BB7 EQ PUSH2 0x111 JUMPI DUP1 PUSH4 0xAD5C4648 EQ PUSH2 0x150 JUMPI DUP1 PUSH4 0xB63B38D0 EQ PUSH2 0x177 JUMPI DUP1 PUSH4 0xF75C2664 EQ PUSH2 0x17F JUMPI DUP1 PUSH4 0xF830E7B4 EQ PUSH2 0x192 JUMPI PUSH1 0x0 DUP1 REVERT JUMPDEST DUP1 PUSH4 0x565BB67 EQ PUSH2 0xA3 JUMPI DUP1 PUSH4 0x160F1053 EQ PUSH2 0xB8 JUMPI DUP1 PUSH4 0x38ED1739 EQ PUSH2 0xD4 JUMPI DUP1 PUSH4 0x5B7B018C EQ PUSH2 0xF4 JUMPI DUP1 PUSH4 0x6A42B8F8 EQ PUSH2 0x107 JUMPI JUMPDEST PUSH1 0x0 DUP1 REVERT JUMPDEST PUSH2 0xB6 PUSH2 0xB1 CALLDATASIZE PUSH1 0x4 PUSH2 0x10FF JUMP JUMPDEST PUSH2 0x1A5 JUMP JUMPDEST STOP JUMPDEST PUSH2 0xC1 PUSH1 0x2 SLOAD DUP2 JUMP JUMPDEST PUSH1 0x40 MLOAD SWAP1 DUP2 MSTORE PUSH1 0x20 ADD JUMPDEST PUSH1 0x40 MLOAD DUP1 SWAP2 SUB SWAP1 RETURN JUMPDEST PUSH2 0xE7 PUSH2 0xE2 CALLDATASIZE PUSH1 0x4 PUSH2 0x1188 JUMP JUMPDEST PUSH2 0x395 JUMP JUMPDEST PUSH1 0x40 MLOAD PUSH2 0xCB SWAP2 SWAP1 PUSH2 0x122A JUMP JUMPDEST PUSH2 0xB6 PUSH2 0x102 CALLDATASIZE PUSH1 0x4 PUSH2 0x126E JUMP JUMPDEST PUSH2 0x3E4 JUMP JUMPDEST PUSH2 0xC1 PUSH3 0x2A300 DUP2 JUMP JUMPDEST PUSH2 0x138 PUSH32 0x0 DUP2 JUMP JUMPDEST PUSH1 0x40 MLOAD PUSH1 0x1 PUSH1 0x1 PUSH1 0xA0 SHL SUB SWAP1 SWAP2 AND DUP2 MSTORE PUSH1 0x20 ADD PUSH2 0xCB JUMP JUMPDEST PUSH2 0x138 PUSH32 0x0 DUP2 JUMP JUMPDEST PUSH2 0xB6 PUSH2 0x4FC JUMP JUMPDEST PUSH1 0x0 SLOAD PUSH2 0x138 SWAP1 PUSH1 0x1 PUSH1 0x1 PUSH1 0xA0 SHL SUB AND DUP2 JUMP JUMPDEST PUSH1 0x1 SLOAD PUSH2 0x138 SWAP1 PUSH1 0x1 PUSH1 0x1 PUSH1 0xA0 SHL SUB AND DUP2 JUMP JUMPDEST PUSH1 0x0 PUSH2 0x1B4 PUSH1 0x4 DUP3 DUP5 DUP7 PUSH2 0x1292 JUMP JUMPDEST PUSH2 0x1BD SWAP2 PUSH2 0x12BC JUMP JUMPDEST SWAP1 POP PUSH1 0x1 PUSH1 0x1 PUSH1 0xE0 SHL SUB NOT DUP2 AND PUSH4 0x38ED1739 PUSH1 0xE0 SHL EQ ISZERO PUSH2 0x311 JUMPI PUSH1 0x0 DUP1 DUP1 DUP1 DUP1 PUSH2 0x1EB DUP8 PUSH1 0x4 DUP2 DUP12 PUSH2 0x1292 JUMP JUMPDEST DUP2 ADD SWAP1 PUSH2 0x1F8 SWAP2 SWAP1 PUSH2 0x1302 JUMP JUMPDEST SWAP5 POP SWAP5 POP SWAP5 POP SWAP5 POP SWAP5 POP DUP9 DUP6 GT ISZERO PUSH2 0x26B JUMPI PUSH1 0x40 MLOAD PUSH3 0x461BCD PUSH1 0xE5 SHL DUP2 MSTORE PUSH1 0x20 PUSH1 0x4 DUP3 ADD MSTORE PUSH1 0x2B PUSH1 0x24 DUP3 ADD MSTORE PUSH32 0x4D756C7469636861696E547261646550726F78793A207377617020616D6F756E PUSH1 0x44 DUP3 ADD MSTORE PUSH11 0x3A103430B99032B93937B9 PUSH1 0xA9 SHL PUSH1 0x64 DUP3 ADD MSTORE PUSH1 0x84 ADD JUMPDEST PUSH1 0x40 MLOAD DUP1 SWAP2 SUB SWAP1 REVERT JUMPDEST DUP10 PUSH1 0x1 PUSH1 0x1 PUSH1 0xA0 SHL SUB AND DUP4 PUSH1 0x0 DUP2 MLOAD DUP2 LT PUSH2 0x288 JUMPI PUSH2 0x288 PUSH2 0x13F5 JUMP JUMPDEST PUSH1 0x20 MUL PUSH1 0x20 ADD ADD MLOAD PUSH1 0x1 PUSH1 0x1 PUSH1 0xA0 SHL SUB AND EQ PUSH2 0x2F9 JUMPI PUSH1 0x40 MLOAD PUSH3 0x461BCD PUSH1 0xE5 SHL DUP2 MSTORE PUSH1 0x20 PUSH1 0x4 DUP3 ADD MSTORE PUSH1 0x2A PUSH1 0x24 DUP3 ADD MSTORE PUSH32 0x4D756C7469636861696E547261646550726F78793A207377617020746F6B656E PUSH1 0x44 DUP3 ADD MSTORE PUSH10 0x103430B99032B93937B9 PUSH1 0xB1 SHL PUSH1 0x64 DUP3 ADD MSTORE PUSH1 0x84 ADD PUSH2 0x262 JUMP JUMPDEST PUSH2 0x306 DUP6 DUP6 DUP6 DUP6 DUP6 PUSH2 0x64E JUMP JUMPDEST POP POP POP POP POP POP PUSH2 0x38E JUMP JUMPDEST PUSH1 0x40 MLOAD PUSH3 0x461BCD PUSH1 0xE5 SHL DUP2 MSTORE PUSH1 0x20 PUSH1 0x4 DUP3 ADD MSTORE PUSH1 0x46 PUSH1 0x24 DUP3 ADD MSTORE PUSH32 0x4D756C7469636861696E547261646550726F78793A2054686973207472616465 PUSH1 0x44 DUP3 ADD MSTORE PUSH32 0x50726F7879206E6F7420737570706F727420746F20706172736520706172616D PUSH1 0x64 DUP3 ADD MSTORE PUSH6 0x206461746121 PUSH1 0xD0 SHL PUSH1 0x84 DUP3 ADD MSTORE PUSH1 0xA4 ADD PUSH2 0x262 JUMP JUMPDEST POP POP POP POP POP JUMP JUMPDEST PUSH1 0x60 PUSH2 0x3D9 DUP8 DUP8 DUP8 DUP8 DUP1 DUP1 PUSH1 0x20 MUL PUSH1 0x20 ADD PUSH1 0x40 MLOAD SWAP1 DUP2 ADD PUSH1 0x40 MSTORE DUP1 SWAP4 SWAP3 SWAP2 SWAP1 DUP2 DUP2 MSTORE PUSH1 0x20 ADD DUP4 DUP4 PUSH1 0x20 MUL DUP1 DUP3 DUP5 CALLDATACOPY PUSH1 0x0 SWAP3 ADD SWAP2 SWAP1 SWAP2 MSTORE POP DUP10 SWAP3 POP DUP9 SWAP2 POP PUSH2 0x64E SWAP1 POP JUMP JUMPDEST SWAP8 SWAP7 POP POP POP POP POP POP POP JUMP JUMPDEST PUSH1 0x0 SLOAD PUSH1 0x1 PUSH1 0x1 PUSH1 0xA0 SHL SUB AND CALLER EQ PUSH2 0x42E JUMPI PUSH1 0x40 MLOAD PUSH3 0x461BCD PUSH1 0xE5 SHL DUP2 MSTORE PUSH1 0x20 PUSH1 0x4 DUP3 ADD MSTORE PUSH1 0xD PUSH1 0x24 DUP3 ADD MSTORE PUSH13 0x4D50433A206F6E6C79206D7063 PUSH1 0x98 SHL PUSH1 0x44 DUP3 ADD MSTORE PUSH1 0x64 ADD PUSH2 0x262 JUMP JUMPDEST PUSH1 0x1 PUSH1 0x1 PUSH1 0xA0 SHL SUB DUP2 AND PUSH2 0x484 JUMPI PUSH1 0x40 MLOAD PUSH3 0x461BCD PUSH1 0xE5 SHL DUP2 MSTORE PUSH1 0x20 PUSH1 0x4 DUP3 ADD MSTORE PUSH1 0x1C PUSH1 0x24 DUP3 ADD MSTORE PUSH32 0x4D50433A206D706320697320746865207A65726F206164647265737300000000 PUSH1 0x44 DUP3 ADD MSTORE PUSH1 0x64 ADD PUSH2 0x262 JUMP JUMPDEST PUSH1 0x1 DUP1 SLOAD PUSH1 0x1 PUSH1 0x1 PUSH1 0xA0 SHL SUB NOT AND PUSH1 0x1 PUSH1 0x1 PUSH1 0xA0 SHL SUB DUP4 AND OR SWAP1 SSTORE PUSH2 0x4AC PUSH3 0x2A300 TIMESTAMP PUSH2 0x1421 JUMP JUMPDEST PUSH1 0x2 DUP2 SWAP1 SSTORE PUSH1 0x1 SLOAD PUSH1 0x0 SLOAD PUSH1 0x40 MLOAD SWAP3 DUP4 MSTORE PUSH1 0x1 PUSH1 0x1 PUSH1 0xA0 SHL SUB SWAP2 DUP3 AND SWAP3 SWAP2 AND SWAP1 PUSH32 0x581F388E3DD32E1BBF62A290F509C8245F9D0B71EF82614FB2B967AD0A10D5B9 SWAP1 PUSH1 0x20 ADD PUSH1 0x40 MLOAD DUP1 SWAP2 SUB SWAP1 LOG3 POP JUMP JUMPDEST PUSH1 0x1 SLOAD PUSH1 0x1 PUSH1 0x1 PUSH1 0xA0 SHL SUB AND CALLER EQ DUP1 PUSH2 0x535 JUMPI POP PUSH1 0x0 SLOAD PUSH1 0x1 PUSH1 0x1 PUSH1 0xA0 SHL SUB AND CALLER EQ DUP1 ISZERO PUSH2 0x535 JUMPI POP PUSH1 0x1 SLOAD PUSH1 0x1 PUSH1 0x1 PUSH1 0xA0 SHL SUB AND EXTCODESIZE ISZERO ISZERO JUMPDEST PUSH2 0x579 JUMPI PUSH1 0x40 MLOAD PUSH3 0x461BCD PUSH1 0xE5 SHL DUP2 MSTORE PUSH1 0x20 PUSH1 0x4 DUP3 ADD MSTORE PUSH1 0x15 PUSH1 0x24 DUP3 ADD MSTORE PUSH21 0x4D50433A206F6E6C792070656E64696E67206D7063 PUSH1 0x58 SHL PUSH1 0x44 DUP3 ADD MSTORE PUSH1 0x64 ADD PUSH2 0x262 JUMP JUMPDEST PUSH1 0x0 PUSH1 0x2 SLOAD GT DUP1 ISZERO PUSH2 0x58D JUMPI POP PUSH1 0x2 SLOAD TIMESTAMP LT ISZERO JUMPDEST PUSH2 0x5D9 JUMPI PUSH1 0x40 MLOAD PUSH3 0x461BCD PUSH1 0xE5 SHL DUP2 MSTORE PUSH1 0x20 PUSH1 0x4 DUP3 ADD MSTORE PUSH1 0x19 PUSH1 0x24 DUP3 ADD MSTORE PUSH32 0x4D50433A2074696D65206265666F72652064656C61794D504300000000000000 PUSH1 0x44 DUP3 ADD MSTORE PUSH1 0x64 ADD PUSH2 0x262 JUMP JUMPDEST PUSH1 0x1 SLOAD PUSH1 0x0 SLOAD PUSH1 0x40 MLOAD TIMESTAMP DUP2 MSTORE PUSH1 0x1 PUSH1 0x1 PUSH1 0xA0 SHL SUB SWAP3 DUP4 AND SWAP3 SWAP1 SWAP2 AND SWAP1 PUSH32 0x8D32C9DD498E08090B44A0F77FE9EC0278851F9DFFC4B430428411243E7DF076 SWAP1 PUSH1 0x20 ADD PUSH1 0x40 MLOAD DUP1 SWAP2 SUB SWAP1 LOG3 PUSH1 0x1 DUP1 SLOAD PUSH1 0x0 DUP1 SLOAD PUSH1 0x1 PUSH1 0x1 PUSH1 0xA0 SHL SUB NOT SWAP1 DUP2 AND PUSH1 0x1 PUSH1 0x1 PUSH1 0xA0 SHL SUB DUP5 AND OR DUP3 SSTORE SWAP1 SWAP2 AND SWAP1 SWAP2 SSTORE PUSH1 0x2 SSTORE JUMP JUMPDEST PUSH1 0x60 DUP2 TIMESTAMP DUP2 LT ISZERO PUSH2 0x6A1 JUMPI PUSH1 0x40 MLOAD PUSH3 0x461BCD PUSH1 0xE5 SHL DUP2 MSTORE PUSH1 0x20 PUSH1 0x4 DUP3 ADD MSTORE PUSH1 0x18 PUSH1 0x24 DUP3 ADD MSTORE PUSH32 0x556E69737761705632526F757465723A20455850495245440000000000000000 PUSH1 0x44 DUP3 ADD MSTORE PUSH1 0x64 ADD PUSH2 0x262 JUMP JUMPDEST PUSH2 0x6CC PUSH32 0x0 DUP9 DUP8 PUSH2 0x80B JUMP JUMPDEST SWAP2 POP DUP6 DUP3 PUSH1 0x1 DUP5 MLOAD PUSH2 0x6DE SWAP2 SWAP1 PUSH2 0x1439 JUMP JUMPDEST DUP2 MLOAD DUP2 LT PUSH2 0x6EE JUMPI PUSH2 0x6EE PUSH2 0x13F5 JUMP JUMPDEST PUSH1 0x20 MUL PUSH1 0x20 ADD ADD MLOAD LT ISZERO PUSH2 0x758 JUMPI PUSH1 0x40 MLOAD PUSH3 0x461BCD PUSH1 0xE5 SHL DUP2 MSTORE PUSH1 0x20 PUSH1 0x4 DUP3 ADD MSTORE PUSH1 0x2B PUSH1 0x24 DUP3 ADD MSTORE PUSH32 0x556E69737761705632526F757465723A20494E53554646494349454E545F4F55 PUSH1 0x44 DUP3 ADD MSTORE PUSH11 0x1514155517D05353D55395 PUSH1 0xAA SHL PUSH1 0x64 DUP3 ADD MSTORE PUSH1 0x84 ADD PUSH2 0x262 JUMP JUMPDEST PUSH2 0x7F6 DUP6 PUSH1 0x0 DUP2 MLOAD DUP2 LT PUSH2 0x76E JUMPI PUSH2 0x76E PUSH2 0x13F5 JUMP JUMPDEST PUSH1 0x20 MUL PUSH1 0x20 ADD ADD MLOAD CALLER PUSH2 0x7D6 PUSH32 0x0 DUP10 PUSH1 0x0 DUP2 MLOAD DUP2 LT PUSH2 0x7AE JUMPI PUSH2 0x7AE PUSH2 0x13F5 JUMP JUMPDEST PUSH1 0x20 MUL PUSH1 0x20 ADD ADD MLOAD DUP11 PUSH1 0x1 DUP2 MLOAD DUP2 LT PUSH2 0x7C9 JUMPI PUSH2 0x7C9 PUSH2 0x13F5 JUMP JUMPDEST PUSH1 0x20 MUL PUSH1 0x20 ADD ADD MLOAD PUSH2 0x996 JUMP JUMPDEST DUP6 PUSH1 0x0 DUP2 MLOAD DUP2 LT PUSH2 0x7E9 JUMPI PUSH2 0x7E9 PUSH2 0x13F5 JUMP JUMPDEST PUSH1 0x20 MUL PUSH1 0x20 ADD ADD MLOAD PUSH2 0xA14 JUMP JUMPDEST PUSH2 0x801 DUP3 DUP7 DUP7 PUSH2 0xB44 JUMP JUMPDEST POP SWAP6 SWAP5 POP POP POP POP POP JUMP JUMPDEST PUSH1 0x60 PUSH1 0x2 DUP3 MLOAD LT ISZERO PUSH2 0x85F JUMPI PUSH1 0x40 MLOAD PUSH3 0x461BCD PUSH1 0xE5 SHL DUP2 MSTORE PUSH1 0x20 PUSH1 0x4 DUP3 ADD MSTORE PUSH1 0x1E PUSH1 0x24 DUP3 ADD MSTORE PUSH32 0x556E697377617056324C6962726172793A20494E56414C49445F504154480000 PUSH1 0x44 DUP3 ADD MSTORE PUSH1 0x64 ADD PUSH2 0x262 JUMP JUMPDEST DUP2 MLOAD PUSH8 0xFFFFFFFFFFFFFFFF DUP2 GT ISZERO PUSH2 0x879 JUMPI PUSH2 0x879 PUSH2 0x12EC JUMP JUMPDEST PUSH1 0x40 MLOAD SWAP1 DUP1 DUP3 MSTORE DUP1 PUSH1 0x20 MUL PUSH1 0x20 ADD DUP3 ADD PUSH1 0x40 MSTORE DUP1 ISZERO PUSH2 0x8A2 JUMPI DUP2 PUSH1 0x20 ADD PUSH1 0x20 DUP3 MUL DUP1 CALLDATASIZE DUP4 CALLDATACOPY ADD SWAP1 POP JUMPDEST POP SWAP1 POP DUP3 DUP2 PUSH1 0x0 DUP2 MLOAD DUP2 LT PUSH2 0x8B9 JUMPI PUSH2 0x8B9 PUSH2 0x13F5 JUMP JUMPDEST PUSH1 0x20 MUL PUSH1 0x20 ADD ADD DUP2 DUP2 MSTORE POP POP PUSH1 0x0 JUMPDEST PUSH1 0x1 DUP4 MLOAD PUSH2 0x8D6 SWAP2 SWAP1 PUSH2 0x1439 JUMP JUMPDEST DUP2 LT ISZERO PUSH2 0x98E JUMPI PUSH1 0x0 DUP1 PUSH2 0x929 DUP8 DUP7 DUP6 DUP2 MLOAD DUP2 LT PUSH2 0x8F6 JUMPI PUSH2 0x8F6 PUSH2 0x13F5 JUMP JUMPDEST PUSH1 0x20 MUL PUSH1 0x20 ADD ADD MLOAD DUP8 DUP7 PUSH1 0x1 PUSH2 0x90C SWAP2 SWAP1 PUSH2 0x1421 JUMP JUMPDEST DUP2 MLOAD DUP2 LT PUSH2 0x91C JUMPI PUSH2 0x91C PUSH2 0x13F5 JUMP JUMPDEST PUSH1 0x20 MUL PUSH1 0x20 ADD ADD MLOAD PUSH2 0xD3F JUMP JUMPDEST SWAP2 POP SWAP2 POP PUSH2 0x951 DUP5 DUP5 DUP2 MLOAD DUP2 LT PUSH2 0x942 JUMPI PUSH2 0x942 PUSH2 0x13F5 JUMP JUMPDEST PUSH1 0x20 MUL PUSH1 0x20 ADD ADD MLOAD DUP4 DUP4 PUSH2 0xE09 JUMP JUMPDEST DUP5 PUSH2 0x95D DUP6 PUSH1 0x1 PUSH2 0x1421 JUMP JUMPDEST DUP2 MLOAD DUP2 LT PUSH2 0x96D JUMPI PUSH2 0x96D PUSH2 0x13F5 JUMP JUMPDEST PUSH1 0x20 MUL PUSH1 0x20 ADD ADD DUP2 DUP2 MSTORE POP POP POP POP DUP1 DUP1 PUSH2 0x986 SWAP1 PUSH2 0x1450 JUMP JUMPDEST SWAP2 POP POP PUSH2 0x8C8 JUMP JUMPDEST POP SWAP4 SWAP3 POP POP POP JUMP JUMPDEST PUSH1 0x40 MLOAD PUSH4 0xE6A43905 PUSH1 0xE0 SHL DUP2 MSTORE PUSH1 0x1 PUSH1 0x1 PUSH1 0xA0 SHL SUB DUP4 DUP2 AND PUSH1 0x4 DUP4 ADD MSTORE DUP3 DUP2 AND PUSH1 0x24 DUP4 ADD MSTORE PUSH1 0x0 SWAP2 SWAP1 DUP6 AND SWAP1 PUSH4 0xE6A43905 SWAP1 PUSH1 0x44 ADD PUSH1 0x20 PUSH1 0x40 MLOAD DUP1 DUP4 SUB DUP2 DUP7 GAS STATICCALL ISZERO DUP1 ISZERO PUSH2 0x9E8 JUMPI RETURNDATASIZE PUSH1 0x0 DUP1 RETURNDATACOPY RETURNDATASIZE PUSH1 0x0 REVERT JUMPDEST POP POP POP POP PUSH1 0x40 MLOAD RETURNDATASIZE PUSH1 0x1F NOT PUSH1 0x1F DUP3 ADD AND DUP3 ADD DUP1 PUSH1 0x40 MSTORE POP DUP2 ADD SWAP1 PUSH2 0xA0C SWAP2 SWAP1 PUSH2 0x146B JUMP JUMPDEST SWAP5 SWAP4 POP POP POP POP JUMP JUMPDEST PUSH1 0x40 DUP1 MLOAD PUSH1 0x1 PUSH1 0x1 PUSH1 0xA0 SHL SUB DUP6 DUP2 AND PUSH1 0x24 DUP4 ADD MSTORE DUP5 DUP2 AND PUSH1 0x44 DUP4 ADD MSTORE PUSH1 0x64 DUP1 DUP4 ADD DUP6 SWAP1 MSTORE DUP4 MLOAD DUP1 DUP5 SUB SWAP1 SWAP2 ADD DUP2 MSTORE PUSH1 0x84 SWAP1 SWAP3 ADD DUP4 MSTORE PUSH1 0x20 DUP3 ADD DUP1 MLOAD PUSH1 0x1 PUSH1 0x1 PUSH1 0xE0 SHL SUB AND PUSH4 0x23B872DD PUSH1 0xE0 SHL OR SWAP1 MSTORE SWAP2 MLOAD PUSH1 0x0 SWAP3 DUP4 SWAP3 SWAP1 DUP9 AND SWAP2 PUSH2 0xA78 SWAP2 SWAP1 PUSH2 0x14B4 JUMP JUMPDEST PUSH1 0x0 PUSH1 0x40 MLOAD DUP1 DUP4 SUB DUP2 PUSH1 0x0 DUP7 GAS CALL SWAP2 POP POP RETURNDATASIZE DUP1 PUSH1 0x0 DUP2 EQ PUSH2 0xAB5 JUMPI PUSH1 0x40 MLOAD SWAP2 POP PUSH1 0x1F NOT PUSH1 0x3F RETURNDATASIZE ADD AND DUP3 ADD PUSH1 0x40 MSTORE RETURNDATASIZE DUP3 MSTORE RETURNDATASIZE PUSH1 0x0 PUSH1 0x20 DUP5 ADD RETURNDATACOPY PUSH2 0xABA JUMP JUMPDEST PUSH1 0x60 SWAP2 POP JUMPDEST POP SWAP2 POP SWAP2 POP DUP2 DUP1 ISZERO PUSH2 0xAE4 JUMPI POP DUP1 MLOAD ISZERO DUP1 PUSH2 0xAE4 JUMPI POP DUP1 DUP1 PUSH1 0x20 ADD SWAP1 MLOAD DUP2 ADD SWAP1 PUSH2 0xAE4 SWAP2 SWAP1 PUSH2 0x14D0 JUMP JUMPDEST PUSH2 0xB3C JUMPI PUSH1 0x40 MLOAD PUSH3 0x461BCD PUSH1 0xE5 SHL DUP2 MSTORE PUSH1 0x20 PUSH1 0x4 DUP3 ADD MSTORE PUSH1 0x24 DUP1 DUP3 ADD MSTORE PUSH32 0x5472616E7366657248656C7065723A205452414E534645525F46524F4D5F4641 PUSH1 0x44 DUP3 ADD MSTORE PUSH4 0x12531151 PUSH1 0xE2 SHL PUSH1 0x64 DUP3 ADD MSTORE PUSH1 0x84 ADD PUSH2 0x262 JUMP JUMPDEST POP POP POP POP POP POP JUMP JUMPDEST PUSH1 0x0 JUMPDEST PUSH1 0x1 DUP4 MLOAD PUSH2 0xB55 SWAP2 SWAP1 PUSH2 0x1439 JUMP JUMPDEST DUP2 LT ISZERO PUSH2 0xD39 JUMPI PUSH1 0x0 DUP1 DUP5 DUP4 DUP2 MLOAD DUP2 LT PUSH2 0xB71 JUMPI PUSH2 0xB71 PUSH2 0x13F5 JUMP JUMPDEST PUSH1 0x20 MUL PUSH1 0x20 ADD ADD MLOAD DUP6 DUP5 PUSH1 0x1 PUSH2 0xB87 SWAP2 SWAP1 PUSH2 0x1421 JUMP JUMPDEST DUP2 MLOAD DUP2 LT PUSH2 0xB97 JUMPI PUSH2 0xB97 PUSH2 0x13F5 JUMP JUMPDEST PUSH1 0x20 MUL PUSH1 0x20 ADD ADD MLOAD SWAP2 POP SWAP2 POP PUSH1 0x0 PUSH2 0xBAF DUP4 DUP4 PUSH2 0xF1D JUMP JUMPDEST POP SWAP1 POP PUSH1 0x0 DUP8 PUSH2 0xBC0 DUP7 PUSH1 0x1 PUSH2 0x1421 JUMP JUMPDEST DUP2 MLOAD DUP2 LT PUSH2 0xBD0 JUMPI PUSH2 0xBD0 PUSH2 0x13F5 JUMP JUMPDEST PUSH1 0x20 MUL PUSH1 0x20 ADD ADD MLOAD SWAP1 POP PUSH1 0x0 DUP1 DUP4 PUSH1 0x1 PUSH1 0x1 PUSH1 0xA0 SHL SUB AND DUP7 PUSH1 0x1 PUSH1 0x1 PUSH1 0xA0 SHL SUB AND EQ PUSH2 0xBFE JUMPI DUP3 PUSH1 0x0 PUSH2 0xC02 JUMP JUMPDEST PUSH1 0x0 DUP4 JUMPDEST SWAP2 POP SWAP2 POP PUSH1 0x0 PUSH1 0x2 DUP11 MLOAD PUSH2 0xC16 SWAP2 SWAP1 PUSH2 0x1439 JUMP JUMPDEST DUP9 LT PUSH2 0xC22 JUMPI DUP9 PUSH2 0xC63 JUMP JUMPDEST PUSH2 0xC63 PUSH32 0x0 DUP8 DUP13 PUSH2 0xC53 DUP13 PUSH1 0x2 PUSH2 0x1421 JUMP JUMPDEST DUP2 MLOAD DUP2 LT PUSH2 0x7C9 JUMPI PUSH2 0x7C9 PUSH2 0x13F5 JUMP JUMPDEST SWAP1 POP PUSH2 0xC90 PUSH32 0x0 DUP9 DUP9 PUSH2 0x996 JUMP JUMPDEST PUSH1 0x1 PUSH1 0x1 PUSH1 0xA0 SHL SUB AND PUSH4 0x22C0D9F DUP5 DUP5 DUP5 PUSH1 0x0 PUSH1 0x40 MLOAD SWAP1 DUP1 DUP3 MSTORE DUP1 PUSH1 0x1F ADD PUSH1 0x1F NOT AND PUSH1 0x20 ADD DUP3 ADD PUSH1 0x40 MSTORE DUP1 ISZERO PUSH2 0xCCD JUMPI PUSH1 0x20 DUP3 ADD DUP2 DUP1 CALLDATASIZE DUP4 CALLDATACOPY ADD SWAP1 POP JUMPDEST POP PUSH1 0x40 MLOAD DUP6 PUSH4 0xFFFFFFFF AND PUSH1 0xE0 SHL DUP2 MSTORE PUSH1 0x4 ADD PUSH2 0xCED SWAP5 SWAP4 SWAP3 SWAP2 SWAP1 PUSH2 0x14F2 JUMP JUMPDEST PUSH1 0x0 PUSH1 0x40 MLOAD DUP1 DUP4 SUB DUP2 PUSH1 0x0 DUP8 DUP1 EXTCODESIZE ISZERO DUP1 ISZERO PUSH2 0xD07 JUMPI PUSH1 0x0 DUP1 REVERT JUMPDEST POP GAS CALL ISZERO DUP1 ISZERO PUSH2 0xD1B JUMPI RETURNDATASIZE PUSH1 0x0 DUP1 RETURNDATACOPY RETURNDATASIZE PUSH1 0x0 REVERT JUMPDEST POP POP POP POP POP POP POP POP POP POP POP DUP1 DUP1 PUSH2 0xD31 SWAP1 PUSH2 0x1450 JUMP JUMPDEST SWAP2 POP POP PUSH2 0xB47 JUMP JUMPDEST POP POP POP POP JUMP JUMPDEST PUSH1 0x0 DUP1 PUSH1 0x0 PUSH2 0xD4E DUP6 DUP6 PUSH2 0xF1D JUMP JUMPDEST POP SWAP1 POP PUSH1 0x0 DUP1 PUSH2 0xD5F DUP9 DUP9 DUP9 PUSH2 0x996 JUMP JUMPDEST PUSH1 0x1 PUSH1 0x1 PUSH1 0xA0 SHL SUB AND PUSH4 0x902F1AC PUSH1 0x40 MLOAD DUP2 PUSH4 0xFFFFFFFF AND PUSH1 0xE0 SHL DUP2 MSTORE PUSH1 0x4 ADD PUSH1 0x60 PUSH1 0x40 MLOAD DUP1 DUP4 SUB DUP2 DUP7 GAS STATICCALL ISZERO DUP1 ISZERO PUSH2 0xD9C JUMPI RETURNDATASIZE PUSH1 0x0 DUP1 RETURNDATACOPY RETURNDATASIZE PUSH1 0x0 REVERT JUMPDEST POP POP POP POP PUSH1 0x40 MLOAD RETURNDATASIZE PUSH1 0x1F NOT PUSH1 0x1F DUP3 ADD AND DUP3 ADD DUP1 PUSH1 0x40 MSTORE POP DUP2 ADD SWAP1 PUSH2 0xDC0 SWAP2 SWAP1 PUSH2 0x1559 JUMP JUMPDEST POP PUSH1 0x1 PUSH1 0x1 PUSH1 0x70 SHL SUB AND SWAP2 POP PUSH1 0x1 PUSH1 0x1 PUSH1 0x70 SHL SUB AND SWAP2 POP DUP3 PUSH1 0x1 PUSH1 0x1 PUSH1 0xA0 SHL SUB AND DUP8 PUSH1 0x1 PUSH1 0x1 PUSH1 0xA0 SHL SUB AND EQ PUSH2 0xDF7 JUMPI DUP1 DUP3 PUSH2 0xDFA JUMP JUMPDEST DUP2 DUP2 JUMPDEST SWAP1 SWAP10 SWAP1 SWAP9 POP SWAP7 POP POP POP POP POP POP POP JUMP JUMPDEST PUSH1 0x0 DUP1 DUP5 GT PUSH2 0xE6E JUMPI PUSH1 0x40 MLOAD PUSH3 0x461BCD PUSH1 0xE5 SHL DUP2 MSTORE PUSH1 0x20 PUSH1 0x4 DUP3 ADD MSTORE PUSH1 0x2B PUSH1 0x24 DUP3 ADD MSTORE PUSH32 0x556E697377617056324C6962726172793A20494E53554646494349454E545F49 PUSH1 0x44 DUP3 ADD MSTORE PUSH11 0x1394155517D05353D55395 PUSH1 0xAA SHL PUSH1 0x64 DUP3 ADD MSTORE PUSH1 0x84 ADD PUSH2 0x262 JUMP JUMPDEST PUSH1 0x0 DUP4 GT DUP1 ISZERO PUSH2 0xE7E JUMPI POP PUSH1 0x0 DUP3 GT JUMPDEST PUSH2 0xEDB JUMPI PUSH1 0x40 MLOAD PUSH3 0x461BCD PUSH1 0xE5 SHL DUP2 MSTORE PUSH1 0x20 PUSH1 0x4 DUP3 ADD MSTORE PUSH1 0x28 PUSH1 0x24 DUP3 ADD MSTORE PUSH32 0x556E697377617056324C6962726172793A20494E53554646494349454E545F4C PUSH1 0x44 DUP3 ADD MSTORE PUSH8 0x4951554944495459 PUSH1 0xC0 SHL PUSH1 0x64 DUP3 ADD MSTORE PUSH1 0x84 ADD PUSH2 0x262 JUMP JUMPDEST PUSH1 0x0 PUSH2 0xEE9 DUP6 PUSH2 0x3E5 PUSH2 0x1015 JUMP JUMPDEST SWAP1 POP PUSH1 0x0 PUSH2 0xEF7 DUP3 DUP6 PUSH2 0x1015 JUMP JUMPDEST SWAP1 POP PUSH1 0x0 PUSH2 0xF11 DUP4 PUSH2 0xF0B DUP9 PUSH2 0x3E8 PUSH2 0x1015 JUMP JUMPDEST SWAP1 PUSH2 0x1082 JUMP JUMPDEST SWAP1 POP PUSH2 0x3D9 DUP2 DUP4 PUSH2 0x15A9 JUMP JUMPDEST PUSH1 0x0 DUP1 DUP3 PUSH1 0x1 PUSH1 0x1 PUSH1 0xA0 SHL SUB AND DUP5 PUSH1 0x1 PUSH1 0x1 PUSH1 0xA0 SHL SUB AND EQ ISZERO PUSH2 0xF90 JUMPI PUSH1 0x40 MLOAD PUSH3 0x461BCD PUSH1 0xE5 SHL DUP2 MSTORE PUSH1 0x20 PUSH1 0x4 DUP3 ADD MSTORE PUSH1 0x25 PUSH1 0x24 DUP3 ADD MSTORE PUSH32 0x556E697377617056324C6962726172793A204944454E544943414C5F41444452 PUSH1 0x44 DUP3 ADD MSTORE PUSH5 0x4553534553 PUSH1 0xD8 SHL PUSH1 0x64 DUP3 ADD MSTORE PUSH1 0x84 ADD PUSH2 0x262 JUMP JUMPDEST DUP3 PUSH1 0x1 PUSH1 0x1 PUSH1 0xA0 SHL SUB AND DUP5 PUSH1 0x1 PUSH1 0x1 PUSH1 0xA0 SHL SUB AND LT PUSH2 0xFB0 JUMPI DUP3 DUP5 PUSH2 0xFB3 JUMP JUMPDEST DUP4 DUP4 JUMPDEST SWAP1 SWAP3 POP SWAP1 POP PUSH1 0x1 PUSH1 0x1 PUSH1 0xA0 SHL SUB DUP3 AND PUSH2 0x100E JUMPI PUSH1 0x40 MLOAD PUSH3 0x461BCD PUSH1 0xE5 SHL DUP2 MSTORE PUSH1 0x20 PUSH1 0x4 DUP3 ADD MSTORE PUSH1 0x1E PUSH1 0x24 DUP3 ADD MSTORE PUSH32 0x556E697377617056324C6962726172793A205A45524F5F414444524553530000 PUSH1 0x44 DUP3 ADD MSTORE PUSH1 0x64 ADD PUSH2 0x262 JUMP JUMPDEST SWAP3 POP SWAP3 SWAP1 POP JUMP JUMPDEST PUSH1 0x0 DUP2 ISZERO DUP1 PUSH2 0x1039 JUMPI POP DUP3 DUP3 PUSH2 0x102B DUP2 DUP4 PUSH2 0x15CB JUMP JUMPDEST SWAP3 POP PUSH2 0x1037 SWAP1 DUP4 PUSH2 0x15A9 JUMP JUMPDEST EQ JUMPDEST PUSH2 0x107C JUMPI PUSH1 0x40 MLOAD PUSH3 0x461BCD PUSH1 0xE5 SHL DUP2 MSTORE PUSH1 0x20 PUSH1 0x4 DUP3 ADD MSTORE PUSH1 0x14 PUSH1 0x24 DUP3 ADD MSTORE PUSH20 0x64732D6D6174682D6D756C2D6F766572666C6F77 PUSH1 0x60 SHL PUSH1 0x44 DUP3 ADD MSTORE PUSH1 0x64 ADD PUSH2 0x262 JUMP JUMPDEST SWAP3 SWAP2 POP POP JUMP JUMPDEST PUSH1 0x0 DUP3 PUSH2 0x108F DUP4 DUP3 PUSH2 0x1421 JUMP JUMPDEST SWAP2 POP DUP2 LT ISZERO PUSH2 0x107C JUMPI PUSH1 0x40 MLOAD PUSH3 0x461BCD PUSH1 0xE5 SHL DUP2 MSTORE PUSH1 0x20 PUSH1 0x4 DUP3 ADD MSTORE PUSH1 0x14 PUSH1 0x24 DUP3 ADD MSTORE PUSH20 0x64732D6D6174682D6164642D6F766572666C6F77 PUSH1 0x60 SHL PUSH1 0x44 DUP3 ADD MSTORE PUSH1 0x64 ADD PUSH2 0x262 JUMP JUMPDEST PUSH1 0x1 PUSH1 0x1 PUSH1 0xA0 SHL SUB DUP2 AND DUP2 EQ PUSH2 0x10EC JUMPI PUSH1 0x0 DUP1 REVERT JUMPDEST POP JUMP JUMPDEST DUP1 CALLDATALOAD PUSH2 0x10FA DUP2 PUSH2 0x10D7 JUMP JUMPDEST SWAP2 SWAP1 POP JUMP JUMPDEST PUSH1 0x0 DUP1 PUSH1 0x0 DUP1 PUSH1 0x60 DUP6 DUP8 SUB SLT ISZERO PUSH2 0x1115 JUMPI PUSH1 0x0 DUP1 REVERT JUMPDEST DUP5 CALLDATALOAD PUSH2 0x1120 DUP2 PUSH2 0x10D7 JUMP JUMPDEST SWAP4 POP PUSH1 0x20 DUP6 ADD CALLDATALOAD SWAP3 POP PUSH1 0x40 DUP6 ADD CALLDATALOAD PUSH8 0xFFFFFFFFFFFFFFFF DUP1 DUP3 GT ISZERO PUSH2 0x1144 JUMPI PUSH1 0x0 DUP1 REVERT JUMPDEST DUP2 DUP8 ADD SWAP2 POP DUP8 PUSH1 0x1F DUP4 ADD SLT PUSH2 0x1158 JUMPI PUSH1 0x0 DUP1 REVERT JUMPDEST DUP2 CALLDATALOAD DUP2 DUP2 GT ISZERO PUSH2 0x1167 JUMPI PUSH1 0x0 DUP1 REVERT JUMPDEST DUP9 PUSH1 0x20 DUP3 DUP6 ADD ADD GT ISZERO PUSH2 0x1179 JUMPI PUSH1 0x0 DUP1 REVERT JUMPDEST SWAP6 SWAP9 SWAP5 SWAP8 POP POP PUSH1 0x20 ADD SWAP5 POP POP POP JUMP JUMPDEST PUSH1 0x0 DUP1 PUSH1 0x0 DUP1 PUSH1 0x0 DUP1 PUSH1 0xA0 DUP8 DUP10 SUB SLT ISZERO PUSH2 0x11A1 JUMPI PUSH1 0x0 DUP1 REVERT JUMPDEST DUP7 CALLDATALOAD SWAP6 POP PUSH1 0x20 DUP8 ADD CALLDATALOAD SWAP5 POP PUSH1 0x40 DUP8 ADD CALLDATALOAD PUSH8 0xFFFFFFFFFFFFFFFF DUP1 DUP3 GT ISZERO PUSH2 0x11C7 JUMPI PUSH1 0x0 DUP1 REVERT JUMPDEST DUP2 DUP10 ADD SWAP2 POP DUP10 PUSH1 0x1F DUP4 ADD SLT PUSH2 0x11DB JUMPI PUSH1 0x0 DUP1 REVERT JUMPDEST DUP2 CALLDATALOAD DUP2 DUP2 GT ISZERO PUSH2 0x11EA JUMPI PUSH1 0x0 DUP1 REVERT JUMPDEST DUP11 PUSH1 0x20 DUP3 PUSH1 0x5 SHL DUP6 ADD ADD GT ISZERO PUSH2 0x11FF JUMPI PUSH1 0x0 DUP1 REVERT JUMPDEST PUSH1 0x20 DUP4 ADD SWAP7 POP DUP1 SWAP6 POP POP POP POP PUSH2 0x1217 PUSH1 0x60 DUP9 ADD PUSH2 0x10EF JUMP JUMPDEST SWAP2 POP PUSH1 0x80 DUP8 ADD CALLDATALOAD SWAP1 POP SWAP3 SWAP6 POP SWAP3 SWAP6 POP SWAP3 SWAP6 JUMP JUMPDEST PUSH1 0x20 DUP1 DUP3 MSTORE DUP3 MLOAD DUP3 DUP3 ADD DUP2 SWAP1 MSTORE PUSH1 0x0 SWAP2 SWAP1 DUP5 DUP3 ADD SWAP1 PUSH1 0x40 DUP6 ADD SWAP1 DUP5 JUMPDEST DUP2 DUP2 LT ISZERO PUSH2 0x1262 JUMPI DUP4 MLOAD DUP4 MSTORE SWAP3 DUP5 ADD SWAP3 SWAP2 DUP5 ADD SWAP2 PUSH1 0x1 ADD PUSH2 0x1246 JUMP JUMPDEST POP SWAP1 SWAP7 SWAP6 POP POP POP POP POP POP JUMP JUMPDEST PUSH1 0x0 PUSH1 0x20 DUP3 DUP5 SUB SLT ISZERO PUSH2 0x1280 JUMPI PUSH1 0x0 DUP1 REVERT JUMPDEST DUP2 CALLDATALOAD PUSH2 0x128B DUP2 PUSH2 0x10D7 JUMP JUMPDEST SWAP4 SWAP3 POP POP POP JUMP JUMPDEST PUSH1 0x0 DUP1 DUP6 DUP6 GT ISZERO PUSH2 0x12A2 JUMPI PUSH1 0x0 DUP1 REVERT JUMPDEST DUP4 DUP7 GT ISZERO PUSH2 0x12AF JUMPI PUSH1 0x0 DUP1 REVERT JUMPDEST POP POP DUP3 ADD SWAP4 SWAP2 SWAP1 SWAP3 SUB SWAP2 POP JUMP JUMPDEST PUSH1 0x1 PUSH1 0x1 PUSH1 0xE0 SHL SUB NOT DUP2 CALLDATALOAD DUP2 DUP2 AND SWAP2 PUSH1 0x4 DUP6 LT ISZERO PUSH2 0x12E4 JUMPI DUP1 DUP2 DUP7 PUSH1 0x4 SUB PUSH1 0x3 SHL SHL DUP4 AND AND SWAP3 POP JUMPDEST POP POP SWAP3 SWAP2 POP POP JUMP JUMPDEST PUSH4 0x4E487B71 PUSH1 0xE0 SHL PUSH1 0x0 MSTORE PUSH1 0x41 PUSH1 0x4 MSTORE PUSH1 0x24 PUSH1 0x0 REVERT JUMPDEST PUSH1 0x0 DUP1 PUSH1 0x0 DUP1 PUSH1 0x0 PUSH1 0xA0 DUP7 DUP9 SUB SLT ISZERO PUSH2 0x131A JUMPI PUSH1 0x0 DUP1 REVERT JUMPDEST DUP6 CALLDATALOAD SWAP5 POP PUSH1 0x20 DUP1 DUP8 ADD CALLDATALOAD SWAP5 POP PUSH1 0x40 DUP8 ADD CALLDATALOAD PUSH8 0xFFFFFFFFFFFFFFFF DUP1 DUP3 GT ISZERO PUSH2 0x1341 JUMPI PUSH1 0x0 DUP1 REVERT JUMPDEST DUP2 DUP10 ADD SWAP2 POP DUP10 PUSH1 0x1F DUP4 ADD SLT PUSH2 0x1355 JUMPI PUSH1 0x0 DUP1 REVERT JUMPDEST DUP2 CALLDATALOAD DUP2 DUP2 GT ISZERO PUSH2 0x1367 JUMPI PUSH2 0x1367 PUSH2 0x12EC JUMP JUMPDEST DUP1 PUSH1 0x5 SHL PUSH1 0x40 MLOAD PUSH1 0x1F NOT PUSH1 0x3F DUP4 ADD AND DUP2 ADD DUP2 DUP2 LT DUP6 DUP3 GT OR ISZERO PUSH2 0x138C JUMPI PUSH2 0x138C PUSH2 0x12EC JUMP JUMPDEST PUSH1 0x40 MSTORE SWAP2 DUP3 MSTORE DUP5 DUP3 ADD SWAP3 POP DUP4 DUP2 ADD DUP6 ADD SWAP2 DUP13 DUP4 GT ISZERO PUSH2 0x13AA JUMPI PUSH1 0x0 DUP1 REVERT JUMPDEST SWAP4 DUP6 ADD SWAP4 JUMPDEST DUP3 DUP6 LT ISZERO PUSH2 0x13CF JUMPI PUSH2 0x13C0 DUP6 PUSH2 0x10EF JUMP JUMPDEST DUP5 MSTORE SWAP4 DUP6 ADD SWAP4 SWAP3 DUP6 ADD SWAP3 PUSH2 0x13AF JUMP JUMPDEST DUP1 SWAP9 POP POP POP POP POP POP POP PUSH2 0x13E4 PUSH1 0x60 DUP8 ADD PUSH2 0x10EF JUMP JUMPDEST SWAP5 SWAP8 SWAP4 SWAP7 POP SWAP2 SWAP5 PUSH1 0x80 ADD CALLDATALOAD SWAP3 SWAP2 POP POP JUMP JUMPDEST PUSH4 0x4E487B71 PUSH1 0xE0 SHL PUSH1 0x0 MSTORE PUSH1 0x32 PUSH1 0x4 MSTORE PUSH1 0x24 PUSH1 0x0 REVERT JUMPDEST PUSH4 0x4E487B71 PUSH1 0xE0 SHL PUSH1 0x0 MSTORE PUSH1 0x11 PUSH1 0x4 MSTORE PUSH1 0x24 PUSH1 0x0 REVERT JUMPDEST PUSH1 0x0 DUP3 NOT DUP3 GT ISZERO PUSH2 0x1434 JUMPI PUSH2 0x1434 PUSH2 0x140B JUMP JUMPDEST POP ADD SWAP1 JUMP JUMPDEST PUSH1 0x0 DUP3 DUP3 LT ISZERO PUSH2 0x144B JUMPI PUSH2 0x144B PUSH2 0x140B JUMP JUMPDEST POP SUB SWAP1 JUMP JUMPDEST PUSH1 0x0 PUSH1 0x0 NOT DUP3 EQ ISZERO PUSH2 0x1464 JUMPI PUSH2 0x1464 PUSH2 0x140B JUMP JUMPDEST POP PUSH1 0x1 ADD SWAP1 JUMP JUMPDEST PUSH1 0x0 PUSH1 0x20 DUP3 DUP5 SUB SLT ISZERO PUSH2 0x147D JUMPI PUSH1 0x0 DUP1 REVERT JUMPDEST DUP2 MLOAD PUSH2 0x128B DUP2 PUSH2 0x10D7 JUMP JUMPDEST PUSH1 0x0 JUMPDEST DUP4 DUP2 LT ISZERO PUSH2 0x14A3 JUMPI DUP2 DUP2 ADD MLOAD DUP4 DUP3 ADD MSTORE PUSH1 0x20 ADD PUSH2 0x148B JUMP JUMPDEST DUP4 DUP2 GT ISZERO PUSH2 0xD39 JUMPI POP POP PUSH1 0x0 SWAP2 ADD MSTORE JUMP JUMPDEST PUSH1 0x0 DUP3 MLOAD PUSH2 0x14C6 DUP2 DUP5 PUSH1 0x20 DUP8 ADD PUSH2 0x1488 JUMP JUMPDEST SWAP2 SWAP1 SWAP2 ADD SWAP3 SWAP2 POP POP JUMP JUMPDEST PUSH1 0x0 PUSH1 0x20 DUP3 DUP5 SUB SLT ISZERO PUSH2 0x14E2 JUMPI PUSH1 0x0 DUP1 REVERT JUMPDEST DUP2 MLOAD DUP1 ISZERO ISZERO DUP2 EQ PUSH2 0x128B JUMPI PUSH1 0x0 DUP1 REVERT JUMPDEST DUP5 DUP2 MSTORE DUP4 PUSH1 0x20 DUP3 ADD MSTORE PUSH1 0x1 DUP1 PUSH1 0xA0 SHL SUB DUP4 AND PUSH1 0x40 DUP3 ADD MSTORE PUSH1 0x80 PUSH1 0x60 DUP3 ADD MSTORE PUSH1 0x0 DUP3 MLOAD DUP1 PUSH1 0x80 DUP5 ADD MSTORE PUSH2 0x152B DUP2 PUSH1 0xA0 DUP6 ADD PUSH1 0x20 DUP8 ADD PUSH2 0x1488 JUMP JUMPDEST PUSH1 0x1F ADD PUSH1 0x1F NOT AND SWAP2 SWAP1 SWAP2 ADD PUSH1 0xA0 ADD SWAP6 SWAP5 POP POP POP POP POP JUMP JUMPDEST DUP1 MLOAD PUSH1 0x1 PUSH1 0x1 PUSH1 0x70 SHL SUB DUP2 AND DUP2 EQ PUSH2 0x10FA JUMPI PUSH1 0x0 DUP1 REVERT JUMPDEST PUSH1 0x0 DUP1 PUSH1 0x0 PUSH1 0x60 DUP5 DUP7 SUB SLT ISZERO PUSH2 0x156E JUMPI PUSH1 0x0 DUP1 REVERT JUMPDEST PUSH2 0x1577 DUP5 PUSH2 0x1542 JUMP JUMPDEST SWAP3 POP PUSH2 0x1585 PUSH1 0x20 DUP6 ADD PUSH2 0x1542 JUMP JUMPDEST SWAP2 POP PUSH1 0x40 DUP5 ADD MLOAD PUSH4 0xFFFFFFFF DUP2 AND DUP2 EQ PUSH2 0x159E JUMPI PUSH1 0x0 DUP1 REVERT JUMPDEST DUP1 SWAP2 POP POP SWAP3 POP SWAP3 POP SWAP3 JUMP JUMPDEST PUSH1 0x0 DUP3 PUSH2 0x15C6 JUMPI PUSH4 0x4E487B71 PUSH1 0xE0 SHL PUSH1 0x0 MSTORE PUSH1 0x12 PUSH1 0x4 MSTORE PUSH1 0x24 PUSH1 0x0 REVERT JUMPDEST POP DIV SWAP1 JUMP JUMPDEST PUSH1 0x0 DUP2 PUSH1 0x0 NOT DIV DUP4 GT DUP3 ISZERO ISZERO AND ISZERO PUSH2 0x15E5 JUMPI PUSH2 0x15E5 PUSH2 0x140B JUMP JUMPDEST POP MUL SWAP1 JUMP INVALID LOG2 PUSH5 0x6970667358 0x22 SLT KECCAK256 0x22 0xAA 0xAE PUSH9 0x5E9F060917BF3AA4A5 SLOAD 0xBA DUP12 0xB5 PUSH22 0x329B12215E848B3489EAC00E05E364736F6C63430008 0xC STOP CALLER "
		},
		"gasEstimates": {
			"creation": {
				"codeDepositCost": "1132800",
				"executionCost": "infinite",
				"totalCost": "infinite"
			},
			"external": {
				"SushiV2Factory()": "infinite",
				"WETH()": "infinite",
				"applyMPC()": "73012",
				"changeMPC(address)": "55021",
				"delay()": "273",
				"delayMPC()": "2307",
				"exec(address,uint256,bytes)": "infinite",
				"mpc()": "2403",
				"pendingMPC()": "2425",
				"swapExactTokensForTokens(uint256,uint256,address[],address,uint256)": "infinite"
			},
			"internal": {
				"_swap(uint256[] memory,address[] memory,address)": "infinite",
				"_swapExactTokensForTokens(uint256,uint256,address[] memory,address,uint256)": "infinite"
			}
		},
		"methodIdentifiers": {
			"SushiV2Factory()": "703d2bb7",
			"WETH()": "ad5c4648",
			"applyMPC()": "b63b38d0",
			"changeMPC(address)": "5b7b018c",
			"delay()": "6a42b8f8",
			"delayMPC()": "160f1053",
			"exec(address,uint256,bytes)": "0565bb67",
			"mpc()": "f75c2664",
			"pendingMPC()": "f830e7b4",
			"swapExactTokensForTokens(uint256,uint256,address[],address,uint256)": "38ed1739"
		}
	},
	"abi": [
		{
			"inputs": [
				{
					"internalType": "address",
					"name": "mpc_",
					"type": "address"
				},
				{
					"internalType": "address",
					"name": "sushiV2Factory_",
					"type": "address"
				},
				{
					"internalType": "address",
					"name": "weth_",
					"type": "address"
				}
			],
			"stateMutability": "nonpayable",
			"type": "constructor"
		},
		{
			"anonymous": false,
			"inputs": [
				{
					"indexed": false,
					"internalType": "bytes",
					"name": "data",
					"type": "bytes"
				}
			],
			"name": "EventLog",
			"type": "event"
		},
		{
			"anonymous": false,
			"inputs": [
				{
					"indexed": true,
					"internalType": "address",
					"name": "oldMPC",
					"type": "address"
				},
				{
					"indexed": true,
					"internalType": "address",
					"name": "newMPC",
					"type": "address"
				},
				{
					"indexed": false,
					"internalType": "uint256",
					"name": "applyTime",
					"type": "uint256"
				}
			],
			"name": "LogApplyMPC",
			"type": "event"
		},
		{
			"anonymous": false,
			"inputs": [
				{
					"indexed": true,
					"internalType": "address",
					"name": "oldMPC",
					"type": "address"
				},
				{
					"indexed": true,
					"internalType": "address",
					"name": "newMPC",
					"type": "address"
				},
				{
					"indexed": false,
					"internalType": "uint256",
					"name": "effectiveTime",
					"type": "uint256"
				}
			],
			"name": "LogChangeMPC",
			"type": "event"
		},
		{
			"inputs": [],
			"name": "SushiV2Factory",
			"outputs": [
				{
					"internalType": "address",
					"name": "",
					"type": "address"
				}
			],
			"stateMutability": "view",
			"type": "function"
		},
		{
			"inputs": [],
			"name": "WETH",
			"outputs": [
				{
					"internalType": "address",
					"name": "",
					"type": "address"
				}
			],
			"stateMutability": "view",
			"type": "function"
		},
		{
			"inputs": [],
			"name": "applyMPC",
			"outputs": [],
			"stateMutability": "nonpayable",
			"type": "function"
		},
		{
			"inputs": [
				{
					"internalType": "address",
					"name": "_mpc",
					"type": "address"
				}
			],
			"name": "changeMPC",
			"outputs": [],
			"stateMutability": "nonpayable",
			"type": "function"
		},
		{
			"inputs": [],
			"name": "delay",
			"outputs": [
				{
					"internalType": "uint256",
					"name": "",
					"type": "uint256"
				}
			],
			"stateMutability": "view",
			"type": "function"
		},
		{
			"inputs": [],
			"name": "delayMPC",
			"outputs": [
				{
					"internalType": "uint256",
					"name": "",
					"type": "uint256"
				}
			],
			"stateMutability": "view",
			"type": "function"
		},
		{
			"inputs": [
				{
					"internalType": "address",
					"name": "token",
					"type": "address"
				},
				{
					"internalType": "uint256",
					"name": "amount",
					"type": "uint256"
				},
				{
					"internalType": "bytes",
					"name": "data",
					"type": "bytes"
				}
			],
			"name": "exec",
			"outputs": [],
			"stateMutability": "nonpayable",
			"type": "function"
		},
		{
			"inputs": [],
			"name": "mpc",
			"outputs": [
				{
					"internalType": "address",
					"name": "",
					"type": "address"
				}
			],
			"stateMutability": "view",
			"type": "function"
		},
		{
			"inputs": [],
			"name": "pendingMPC",
			"outputs": [
				{
					"internalType": "address",
					"name": "",
					"type": "address"
				}
			],
			"stateMutability": "view",
			"type": "function"
		},
		{
			"inputs": [
				{
					"internalType": "uint256",
					"name": "amountIn",
					"type": "uint256"
				},
				{
					"internalType": "uint256",
					"name": "amountOutMin",
					"type": "uint256"
				},
				{
					"internalType": "address[]",
					"name": "path",
					"type": "address[]"
				},
				{
					"internalType": "address",
					"name": "to",
					"type": "address"
				},
				{
					"internalType": "uint256",
					"name": "deadline",
					"type": "uint256"
				}
			],
			"name": "swapExactTokensForTokens",
			"outputs": [
				{
					"internalType": "uint256[]",
					"name": "amounts",
					"type": "uint256[]"
				}
			],
			"stateMutability": "nonpayable",
			"type": "function"
		}
	]
}