{
	"data": {
		"bytecode": {
			"linkReferences": {},
			"object": "60c06040523480156200001157600080fd5b50604051620050c2380380620050c283398181016040528101906200003791906200024e565b82600073ffffffffffffffffffffffffffffffffffffffff168173ffffffffffffffffffffffffffffffffffffffff1603620000aa576040517f08c379a0000000000000000000000000000000000000000000000000000000008152600401620000a1906200030b565b60405180910390fd5b806000806101000a81548173ffffffffffffffffffffffffffffffffffffffff021916908373ffffffffffffffffffffffffffffffffffffffff16021790555060008054906101000a900473ffffffffffffffffffffffffffffffffffffffff1673ffffffffffffffffffffffffffffffffffffffff16600073ffffffffffffffffffffffffffffffffffffffff167f581f388e3dd32e1bbf62a290f509c8245f9d0b71ef82614fb2b967ad0a10d5b9426040516200016a919062000348565b60405180910390a3508173ffffffffffffffffffffffffffffffffffffffff1660808173ffffffffffffffffffffffffffffffffffffffff16815250508073ffffffffffffffffffffffffffffffffffffffff1660a08173ffffffffffffffffffffffffffffffffffffffff168152505050505062000365565b600080fd5b600073ffffffffffffffffffffffffffffffffffffffff82169050919050565b60006200021682620001e9565b9050919050565b620002288162000209565b81146200023457600080fd5b50565b60008151905062000248816200021d565b92915050565b6000806000606084860312156200026a5762000269620001e4565b5b60006200027a8682870162000237565b93505060206200028d8682870162000237565b9250506040620002a08682870162000237565b9150509250925092565b600082825260208201905092915050565b7f4d50433a206d706320697320746865207a65726f206164647265737300000000600082015250565b6000620002f3601c83620002aa565b91506200030082620002bb565b602082019050919050565b600060208201905081810360008301526200032681620002e4565b9050919050565b6000819050919050565b62000342816200032d565b82525050565b60006020820190506200035f600083018462000337565b92915050565b60805160a051614ca46200041e600039600081816108540152818161161f015281816118190152818161195201528181611b5801528181611ff30152818161213a0152612219015260008181610830015281816112e2015281816113980152818161148901528181611533015281816116d90152818161178301528181611a0c01528181611ac201528181611cb3015281816120ca015281816127370152818161278b01528181612bfb0152612e070152614ca46000f3fe60806040526004361061008a5760003560e01c8063703d2bb711610059578063703d2bb714610151578063ad5c46481461017c578063b63b38d0146101a7578063f75c2664146101be578063f830e7b4146101e957610091565b80630565bb6714610093578063160f1053146100d25780635b7b018c146100fd5780636a42b8f81461012657610091565b3661009157005b005b34801561009f57600080fd5b506100ba60048036038101906100b591906135a9565b610214565b6040516100c99392919061363b565b60405180910390f35b3480156100de57600080fd5b506100e7610622565b6040516100f49190613672565b60405180910390f35b34801561010957600080fd5b50610124600480360381019061011f919061368d565b610628565b005b34801561013257600080fd5b5061013b610827565b6040516101489190613672565b60405180910390f35b34801561015d57600080fd5b5061016661082e565b60405161017391906136ba565b60405180910390f35b34801561018857600080fd5b50610191610852565b60405161019e91906136ba565b60405180910390f35b3480156101b357600080fd5b506101bc610876565b005b3480156101ca57600080fd5b506101d3610b4d565b6040516101e091906136ba565b60405180910390f35b3480156101f557600080fd5b506101fe610b71565b60405161020b91906136ba565b60405180910390f35b60008060008060009054906101000a900473ffffffffffffffffffffffffffffffffffffffff1673ffffffffffffffffffffffffffffffffffffffff163373ffffffffffffffffffffffffffffffffffffffff16146102a8576040517f08c379a000000000000000000000000000000000000000000000000000000000815260040161029f90613732565b60405180910390fd5b600085856000906004926102be9392919061375c565b906102c991906137db565b90507f38ed1739ee07daf49933f1800d1a9bc8d39a6876ea11e643f9c4c39c66df0ee87bffffffffffffffffffffffffffffffffffffffffffffffffffffffff1916817bffffffffffffffffffffffffffffffffffffffffffffffffffffffff19160361034d5761033c88888888610b97565b809450819550829650505050610617565b7f8803dbeef1adfe1a9306daa835152093f0a5085700e080f4de0d56162dfadb097bffffffffffffffffffffffffffffffffffffffffffffffffffffffff1916817bffffffffffffffffffffffffffffffffffffffffffffffffffffffff1916036103cf576103be88888888610cbb565b809450819550829650505050610616565b7f4a25d94a96ff7a29f18f4f1154f634d0bb2bc027b6d31af01f47c4fdd038f2257bffffffffffffffffffffffffffffffffffffffffffffffffffffffff1916817bffffffffffffffffffffffffffffffffffffffffffffffffffffffff1916036104515761044088888888610ddf565b809450819550829650505050610615565b7f18cbafe5fb6ab7d2558a55ccc138a3172aa304c3a08214c1ab07223dcb9e7f8e7bffffffffffffffffffffffffffffffffffffffffffffffffffffffff1916817bffffffffffffffffffffffffffffffffffffffffffffffffffffffff1916036104d3576104c288888888610f03565b809450819550829650505050610614565b7f5c11d79526ce10b4a02fad7c13a4f0c7482b8f962c004e4f4d599003116c5f927bffffffffffffffffffffffffffffffffffffffffffffffffffffffff1916817bffffffffffffffffffffffffffffffffffffffffffffffffffffffff1916036105555761054488888888611027565b809450819550829650505050610613565b7f791ac9477e2d4606a81a205cf3dd7bdb27673037d74725aff8c552ad981cf0907bffffffffffffffffffffffffffffffffffffffffffffffffffffffff1916817bffffffffffffffffffffffffffffffffffffffffffffffffffffffff1916036105d7576105c68888888861114b565b809450819550829650505050610612565b6040517f08c379a0000000000000000000000000000000000000000000000000000000008152600401610609906138d2565b60405180910390fd5b5b5b5b5b5b509450945094915050565b60025481565b60008054906101000a900473ffffffffffffffffffffffffffffffffffffffff1673ffffffffffffffffffffffffffffffffffffffff163373ffffffffffffffffffffffffffffffffffffffff16146106b6576040517f08c379a00000000000000000000000000000000000000000000000000000000081526004016106ad90613732565b60405180910390fd5b600073ffffffffffffffffffffffffffffffffffffffff168173ffffffffffffffffffffffffffffffffffffffff1603610725576040517f08c379a000000000000000000000000000000000000000000000000000000000815260040161071c9061393e565b60405180910390fd5b80600160006101000a81548173ffffffffffffffffffffffffffffffffffffffff021916908373ffffffffffffffffffffffffffffffffffffffff1602179055506202a30042610775919061398d565b600281905550600160009054906101000a900473ffffffffffffffffffffffffffffffffffffffff1673ffffffffffffffffffffffffffffffffffffffff1660008054906101000a900473ffffffffffffffffffffffffffffffffffffffff1673ffffffffffffffffffffffffffffffffffffffff167f581f388e3dd32e1bbf62a290f509c8245f9d0b71ef82614fb2b967ad0a10d5b960025460405161081c9190613672565b60405180910390a350565b6202a30081565b7f000000000000000000000000000000000000000000000000000000000000000081565b7f000000000000000000000000000000000000000000000000000000000000000081565b600160009054906101000a900473ffffffffffffffffffffffffffffffffffffffff1673ffffffffffffffffffffffffffffffffffffffff163373ffffffffffffffffffffffffffffffffffffffff161480610966575060008054906101000a900473ffffffffffffffffffffffffffffffffffffffff1673ffffffffffffffffffffffffffffffffffffffff163373ffffffffffffffffffffffffffffffffffffffff161480156109655750610964600160009054906101000a900473ffffffffffffffffffffffffffffffffffffffff1673ffffffffffffffffffffffffffffffffffffffff1661126f565b5b5b6109a5576040517f08c379a000000000000000000000000000000000000000000000000000000000815260040161099c90613a2f565b60405180910390fd5b60006002541180156109b957506002544210155b6109f8576040517f08c379a00000000000000000000000000000000000000000000000000000000081526004016109ef90613a9b565b60405180910390fd5b600160009054906101000a900473ffffffffffffffffffffffffffffffffffffffff1673ffffffffffffffffffffffffffffffffffffffff1660008054906101000a900473ffffffffffffffffffffffffffffffffffffffff1673ffffffffffffffffffffffffffffffffffffffff167f8d32c9dd498e08090b44a0f77fe9ec0278851f9dffc4b430428411243e7df07642604051610a979190613672565b60405180910390a3600160009054906101000a900473ffffffffffffffffffffffffffffffffffffffff166000806101000a81548173ffffffffffffffffffffffffffffffffffffffff021916908373ffffffffffffffffffffffffffffffffffffffff1602179055506000600160006101000a81548173ffffffffffffffffffffffffffffffffffffffff021916908373ffffffffffffffffffffffffffffffffffffffff1602179055506000600281905550565b60008054906101000a900473ffffffffffffffffffffffffffffffffffffffff1681565b600160009054906101000a900473ffffffffffffffffffffffffffffffffffffffff1681565b60008060008060008060008089896004908092610bb69392919061375c565b810190610bc39190613c48565b945094509450945094508a851115610c10576040517f08c379a0000000000000000000000000000000000000000000000000000000008152600401610c0790613d51565b60405180910390fd5b8b73ffffffffffffffffffffffffffffffffffffffff1683600081518110610c3b57610c3a613d71565b5b602002602001015173ffffffffffffffffffffffffffffffffffffffff1614610c99576040517f08c379a0000000000000000000000000000000000000000000000000000000008152600401610c9090613e12565b60405180910390fd5b610ca68585858585611292565b97509750975050505050509450945094915050565b60008060008060008060008089896004908092610cda9392919061375c565b810190610ce79190613c48565b945094509450945094508a841115610d34576040517f08c379a0000000000000000000000000000000000000000000000000000000008152600401610d2b90613ea4565b60405180910390fd5b8b73ffffffffffffffffffffffffffffffffffffffff1683600081518110610d5f57610d5e613d71565b5b602002602001015173ffffffffffffffffffffffffffffffffffffffff1614610dbd576040517f08c379a0000000000000000000000000000000000000000000000000000000008152600401610db490613e12565b60405180910390fd5b610dca8585858585611439565b97509750975050505050509450945094915050565b60008060008060008060008089896004908092610dfe9392919061375c565b810190610e0b9190613c48565b945094509450945094508a841115610e58576040517f08c379a0000000000000000000000000000000000000000000000000000000008152600401610e4f90613f36565b60405180910390fd5b8b73ffffffffffffffffffffffffffffffffffffffff1683600081518110610e8357610e82613d71565b5b602002602001015173ffffffffffffffffffffffffffffffffffffffff1614610ee1576040517f08c379a0000000000000000000000000000000000000000000000000000000008152600401610ed890613fc8565b60405180910390fd5b610eee85858585856115d4565b97509750975050505050509450945094915050565b60008060008060008060008089896004908092610f229392919061375c565b810190610f2f9190613c48565b945094509450945094508a851115610f7c576040517f08c379a0000000000000000000000000000000000000000000000000000000008152600401610f7390613f36565b60405180910390fd5b8b73ffffffffffffffffffffffffffffffffffffffff1683600081518110610fa757610fa6613d71565b5b602002602001015173ffffffffffffffffffffffffffffffffffffffff1614611005576040517f08c379a0000000000000000000000000000000000000000000000000000000008152600401610ffc90613fc8565b60405180910390fd5b6110128585858585611907565b97509750975050505050509450945094915050565b600080600080600080600080898960049080926110469392919061375c565b8101906110539190613c48565b945094509450945094508a8511156110a0576040517f08c379a000000000000000000000000000000000000000000000000000000000815260040161109790613f36565b60405180910390fd5b8b73ffffffffffffffffffffffffffffffffffffffff16836000815181106110cb576110ca613d71565b5b602002602001015173ffffffffffffffffffffffffffffffffffffffff1614611129576040517f08c379a000000000000000000000000000000000000000000000000000000000815260040161112090613fc8565b60405180910390fd5b6111368585858585611c46565b97509750975050505050509450945094915050565b6000806000806000806000808989600490809261116a9392919061375c565b8101906111779190613c48565b945094509450945094508a8511156111c4576040517f08c379a00000000000000000000000000000000000000000000000000000000081526004016111bb90613f36565b60405180910390fd5b8b73ffffffffffffffffffffffffffffffffffffffff16836000815181106111ef576111ee613d71565b5b602002602001015173ffffffffffffffffffffffffffffffffffffffff161461124d576040517f08c379a000000000000000000000000000000000000000000000000000000000815260040161124490613fc8565b60405180910390fd5b61125a8585858585611fa8565b97509750975050505050509450945094915050565b6000808273ffffffffffffffffffffffffffffffffffffffff163b119050919050565b600080600083428110156112db576040517f08c379a00000000000000000000000000000000000000000000000000000000081526004016112d290614034565b60405180910390fd5b60006113087f00000000000000000000000000000000000000000000000000000000000000008b8a6122e9565b905088816001835161131a9190614054565b8151811061132b5761132a613d71565b5b60200260200101511015611374576040517f08c379a000000000000000000000000000000000000000000000000000000000815260040161136b906140fa565b60405180910390fd5b6114158860008151811061138b5761138a613d71565b5b60200260200101516113f47f00000000000000000000000000000000000000000000000000000000000000008b6000815181106113cb576113ca613d71565b5b60200260200101518c6001815181106113e7576113e6613d71565b5b6020026020010151612474565b8360008151811061140857611407613d71565b5b60200260200101516124fb565b611420818989612631565b8095508196508297505050505050955095509592505050565b60008060008342811015611482576040517f08c379a000000000000000000000000000000000000000000000000000000000815260040161147990614034565b60405180910390fd5b60006114af7f00000000000000000000000000000000000000000000000000000000000000008b8a6128e9565b905088816000815181106114c6576114c5613d71565b5b6020026020010151111561150f576040517f08c379a00000000000000000000000000000000000000000000000000000000081526004016115069061418c565b60405180910390fd5b6115b08860008151811061152657611525613d71565b5b602002602001015161158f7f00000000000000000000000000000000000000000000000000000000000000008b60008151811061156657611565613d71565b5b60200260200101518c60018151811061158257611581613d71565b5b6020026020010151612474565b836000815181106115a3576115a2613d71565b5b60200260200101516124fb565b6115bb818989612631565b8095508196508297505050505050955095509592505050565b6000806000834281101561161d576040517f08c379a000000000000000000000000000000000000000000000000000000000815260040161161490614034565b60405180910390fd5b7f000000000000000000000000000000000000000000000000000000000000000073ffffffffffffffffffffffffffffffffffffffff1687600189516116639190614054565b8151811061167457611673613d71565b5b602002602001015173ffffffffffffffffffffffffffffffffffffffff16146116d2576040517f08c379a00000000000000000000000000000000000000000000000000000000081526004016116c9906141f8565b60405180910390fd5b60006116ff7f00000000000000000000000000000000000000000000000000000000000000008b8a6128e9565b9050888160008151811061171657611715613d71565b5b6020026020010151111561175f576040517f08c379a00000000000000000000000000000000000000000000000000000000081526004016117569061418c565b60405180910390fd5b6118008860008151811061177657611775613d71565b5b60200260200101516117df7f00000000000000000000000000000000000000000000000000000000000000008b6000815181106117b6576117b5613d71565b5b60200260200101518c6001815181106117d2576117d1613d71565b5b6020026020010151612474565b836000815181106117f3576117f2613d71565b5b60200260200101516124fb565b61180b818930612631565b8095508196508297505050507f000000000000000000000000000000000000000000000000000000000000000073ffffffffffffffffffffffffffffffffffffffff16632e1a7d4d82600184516118629190614054565b8151811061187357611872613d71565b5b60200260200101516040518263ffffffff1660e01b81526004016118979190613672565b600060405180830381600087803b1580156118b157600080fd5b505af11580156118c5573d6000803e3d6000fd5b505050506118fa8782600184516118dc9190614054565b815181106118ed576118ec613d71565b5b6020026020010151612a84565b5050955095509592505050565b60008060008342811015611950576040517f08c379a000000000000000000000000000000000000000000000000000000000815260040161194790614034565b60405180910390fd5b7f000000000000000000000000000000000000000000000000000000000000000073ffffffffffffffffffffffffffffffffffffffff1687600189516119969190614054565b815181106119a7576119a6613d71565b5b602002602001015173ffffffffffffffffffffffffffffffffffffffff1614611a05576040517f08c379a00000000000000000000000000000000000000000000000000000000081526004016119fc906141f8565b60405180910390fd5b6000611a327f00000000000000000000000000000000000000000000000000000000000000008b8a6122e9565b9050888160018351611a449190614054565b81518110611a5557611a54613d71565b5b60200260200101511015611a9e576040517f08c379a0000000000000000000000000000000000000000000000000000000008152600401611a959061428a565b60405180910390fd5b611b3f88600081518110611ab557611ab4613d71565b5b6020026020010151611b1e7f00000000000000000000000000000000000000000000000000000000000000008b600081518110611af557611af4613d71565b5b60200260200101518c600181518110611b1157611b10613d71565b5b6020026020010151612474565b83600081518110611b3257611b31613d71565b5b60200260200101516124fb565b611b4a818930612631565b8095508196508297505050507f000000000000000000000000000000000000000000000000000000000000000073ffffffffffffffffffffffffffffffffffffffff16632e1a7d4d8260018451611ba19190614054565b81518110611bb257611bb1613d71565b5b60200260200101516040518263ffffffff1660e01b8152600401611bd69190613672565b600060405180830381600087803b158015611bf057600080fd5b505af1158015611c04573d6000803e3d6000fd5b50505050611c39878260018451611c1b9190614054565b81518110611c2c57611c2b613d71565b5b6020026020010151612a84565b5050955095509592505050565b60008060008342811015611c8f576040517f08c379a0000000000000000000000000000000000000000000000000000000008152600401611c8690614034565b60405180910390fd5b611d1587600081518110611ca657611ca5613d71565b5b6020026020010151611d0f7f00000000000000000000000000000000000000000000000000000000000000008a600081518110611ce657611ce5613d71565b5b60200260200101518b600181518110611d0257611d01613d71565b5b6020026020010151612474565b8b6124fb565b60008760018951611d269190614054565b81518110611d3757611d36613d71565b5b602002602001015173ffffffffffffffffffffffffffffffffffffffff166370a08231886040518263ffffffff1660e01b8152600401611d7791906136ba565b602060405180830381865afa158015611d94573d6000803e3d6000fd5b505050506040513d601f19601f82011682018060405250810190611db891906142bf565b9050611dc48888612b84565b88611e78828a60018c51611dd89190614054565b81518110611de957611de8613d71565b5b602002602001015173ffffffffffffffffffffffffffffffffffffffff166370a082318b6040518263ffffffff1660e01b8152600401611e2991906136ba565b602060405180830381865afa158015611e46573d6000803e3d6000fd5b505050506040513d601f19601f82011682018060405250810190611e6a91906142bf565b612f3590919063ffffffff16565b1015611eb9576040517f08c379a0000000000000000000000000000000000000000000000000000000008152600401611eb09061428a565b60405180910390fd5b8760018951611ec89190614054565b81518110611ed957611ed8613d71565b5b602002602001015187611f95838b60018d51611ef59190614054565b81518110611f0657611f05613d71565b5b602002602001015173ffffffffffffffffffffffffffffffffffffffff166370a082318c6040518263ffffffff1660e01b8152600401611f4691906136ba565b602060405180830381865afa158015611f63573d6000803e3d6000fd5b505050506040513d601f19601f82011682018060405250810190611f8791906142bf565b612f3590919063ffffffff16565b9450945094505050955095509592505050565b60008060008342811015611ff1576040517f08c379a0000000000000000000000000000000000000000000000000000000008152600401611fe890614034565b60405180910390fd5b7f000000000000000000000000000000000000000000000000000000000000000073ffffffffffffffffffffffffffffffffffffffff1687600189516120379190614054565b8151811061204857612047613d71565b5b602002602001015173ffffffffffffffffffffffffffffffffffffffff16146120a6576040517f08c379a000000000000000000000000000000000000000000000000000000000815260040161209d906141f8565b60405180910390fd5b61212c876000815181106120bd576120bc613d71565b5b60200260200101516121267f00000000000000000000000000000000000000000000000000000000000000008a6000815181106120fd576120fc613d71565b5b60200260200101518b60018151811061211957612118613d71565b5b6020026020010151612474565b8b6124fb565b6121368730612b84565b60007f000000000000000000000000000000000000000000000000000000000000000073ffffffffffffffffffffffffffffffffffffffff166370a08231306040518263ffffffff1660e01b815260040161219191906136ba565b602060405180830381865afa1580156121ae573d6000803e3d6000fd5b505050506040513d601f19601f820116820180604052508101906121d291906142bf565b905088811015612217576040517f08c379a000000000000000000000000000000000000000000000000000000000815260040161220e9061428a565b60405180910390fd5b7f000000000000000000000000000000000000000000000000000000000000000073ffffffffffffffffffffffffffffffffffffffff16632e1a7d4d826040518263ffffffff1660e01b81526004016122709190613672565b600060405180830381600087803b15801561228a57600080fd5b505af115801561229e573d6000803e3d6000fd5b505050506122ac8782612a84565b87600189516122bb9190614054565b815181106122cc576122cb613d71565b5b602002602001015187829450945094505050955095509592505050565b6060600282511015612330576040517f08c379a000000000000000000000000000000000000000000000000000000000815260040161232790614338565b60405180910390fd5b815167ffffffffffffffff81111561234b5761234a613acc565b5b6040519080825280602002602001820160405280156123795781602001602082028036833780820191505090505b509050828160008151811061239157612390613d71565b5b60200260200101818152505060005b600183516123ae9190614054565b81101561246c57600080612403878685815181106123cf576123ce613d71565b5b6020026020010151876001876123e5919061398d565b815181106123f6576123f5613d71565b5b6020026020010151612f8e565b9150915061242c84848151811061241d5761241c613d71565b5b60200260200101518383613091565b8460018561243a919061398d565b8151811061244b5761244a613d71565b5b6020026020010181815250505050808061246490614358565b9150506123a0565b509392505050565b60008373ffffffffffffffffffffffffffffffffffffffff1663e6a4390584846040518363ffffffff1660e01b81526004016124b19291906143a0565b602060405180830381865afa1580156124ce573d6000803e3d6000fd5b505050506040513d601f19601f820116820180604052508101906124f291906143de565b90509392505050565b6000808473ffffffffffffffffffffffffffffffffffffffff1663a9059cbb858560405160240161252d92919061440b565b6040516020818303038152906040529060e01b6020820180517bffffffffffffffffffffffffffffffffffffffffffffffffffffffff838183161783525050505060405161257b91906144ae565b6000604051808303816000865af19150503d80600081146125b8576040519150601f19603f3d011682016040523d82523d6000602084013e6125bd565b606091505b50915091508180156125eb57506000815114806125ea5750808060200190518101906125e991906144fd565b5b5b61262a576040517f08c379a000000000000000000000000000000000000000000000000000000000815260040161262190614576565b60405180910390fd5b5050505050565b6000806000805b600186516126469190614054565b8110156128885760008087838151811061266357612662613d71565b5b602002602001015188600185612679919061398d565b8151811061268a57612689613d71565b5b60200260200101519150915060006126a28383613197565b50905060008a6001866126b5919061398d565b815181106126c6576126c5613d71565b5b602002602001015190506000808373ffffffffffffffffffffffffffffffffffffffff168673ffffffffffffffffffffffffffffffffffffffff161461270e57826000612712565b6000835b91509150600060028d516127269190614054565b8810612732578b612784565b6127837f0000000000000000000000000000000000000000000000000000000000000000878f60028c612765919061398d565b8151811061277657612775613d71565b5b6020026020010151612474565b5b90506127b17f00000000000000000000000000000000000000000000000000000000000000008888612474565b73ffffffffffffffffffffffffffffffffffffffff1663022c0d9f848484600067ffffffffffffffff8111156127ea576127e9613acc565b5b6040519080825280601f01601f19166020018201604052801561281c5781602001600182028036833780820191505090505b506040518563ffffffff1660e01b815260040161283c94939291906145e0565b600060405180830381600087803b15801561285657600080fd5b505af115801561286a573d6000803e3d6000fd5b5050505050505050505050808061288090614358565b915050612638565b5084600186516128989190614054565b815181106128a9576128a8613d71565b5b60200260200101518487600189516128c19190614054565b815181106128d2576128d1613d71565b5b602002602001015192509250925093509350939050565b6060600282511015612930576040517f08c379a000000000000000000000000000000000000000000000000000000000815260040161292790614338565b60405180910390fd5b815167ffffffffffffffff81111561294b5761294a613acc565b5b6040519080825280602002602001820160405280156129795781602001602082028036833780820191505090505b50905082816001835161298c9190614054565b8151811061299d5761299c613d71565b5b6020026020010181815250506000600183516129b99190614054565b90505b6000811115612a7c57600080612a1387866001866129da9190614054565b815181106129eb576129ea613d71565b5b6020026020010151878681518110612a0657612a05613d71565b5b6020026020010151612f8e565b91509150612a3c848481518110612a2d57612a2c613d71565b5b602002602001015183836132c3565b84600185612a4a9190614054565b81518110612a5b57612a5a613d71565b5b60200260200101818152505050508080612a749061462c565b9150506129bc565b509392505050565b60008273ffffffffffffffffffffffffffffffffffffffff1682600067ffffffffffffffff811115612ab957612ab8613acc565b5b6040519080825280601f01601f191660200182016040528015612aeb5781602001600182028036833780820191505090505b50604051612af991906144ae565b60006040518083038185875af1925050503d8060008114612b36576040519150601f19603f3d011682016040523d82523d6000602084013e612b3b565b606091505b5050905080612b7f576040517f08c379a0000000000000000000000000000000000000000000000000000000008152600401612b76906146c7565b60405180910390fd5b505050565b60005b60018351612b959190614054565b811015612f3057600080848381518110612bb257612bb1613d71565b5b602002602001015185600185612bc8919061398d565b81518110612bd957612bd8613d71565b5b6020026020010151915091506000612bf18383613197565b5090506000612c217f00000000000000000000000000000000000000000000000000000000000000008585612474565b90506000806000808473ffffffffffffffffffffffffffffffffffffffff16630902f1ac6040518163ffffffff1660e01b8152600401606060405180830381865afa158015612c74573d6000803e3d6000fd5b505050506040513d601f19601f82011682018060405250810190612c989190614769565b506dffffffffffffffffffffffffffff1691506dffffffffffffffffffffffffffff1691506000808773ffffffffffffffffffffffffffffffffffffffff168a73ffffffffffffffffffffffffffffffffffffffff1614612cfa578284612cfd565b83835b91509150612d8d828b73ffffffffffffffffffffffffffffffffffffffff166370a082318a6040518263ffffffff1660e01b8152600401612d3e91906136ba565b602060405180830381865afa158015612d5b573d6000803e3d6000fd5b505050506040513d601f19601f82011682018060405250810190612d7f91906142bf565b612f3590919063ffffffff16565b9550612d9a868383613091565b9450505050506000808573ffffffffffffffffffffffffffffffffffffffff168873ffffffffffffffffffffffffffffffffffffffff1614612dde57826000612de2565b6000835b91509150600060028c51612df69190614054565b8a10612e02578a612e54565b612e537f0000000000000000000000000000000000000000000000000000000000000000898e60028e612e35919061398d565b81518110612e4657612e45613d71565b5b6020026020010151612474565b5b90508573ffffffffffffffffffffffffffffffffffffffff1663022c0d9f848484600067ffffffffffffffff811115612e9057612e8f613acc565b5b6040519080825280601f01601f191660200182016040528015612ec25781602001600182028036833780820191505090505b506040518563ffffffff1660e01b8152600401612ee294939291906145e0565b600060405180830381600087803b158015612efc57600080fd5b505af1158015612f10573d6000803e3d6000fd5b505050505050505050505050508080612f2890614358565b915050612b87565b505050565b6000828284612f449190614054565b9150811115612f88576040517f08c379a0000000000000000000000000000000000000000000000000000000008152600401612f7f90614808565b60405180910390fd5b92915050565b6000806000612f9d8585613197565b509050600080612fae888888612474565b73ffffffffffffffffffffffffffffffffffffffff16630902f1ac6040518163ffffffff1660e01b8152600401606060405180830381865afa158015612ff8573d6000803e3d6000fd5b505050506040513d601f19601f8201168201806040525081019061301c9190614769565b506dffffffffffffffffffffffffffff1691506dffffffffffffffffffffffffffff1691508273ffffffffffffffffffffffffffffffffffffffff168773ffffffffffffffffffffffffffffffffffffffff161461307b57808261307e565b81815b8095508196505050505050935093915050565b60008084116130d5576040517f08c379a00000000000000000000000000000000000000000000000000000000081526004016130cc9061489a565b60405180910390fd5b6000831180156130e55750600082115b613124576040517f08c379a000000000000000000000000000000000000000000000000000000000815260040161311b9061492c565b60405180910390fd5b600061313b6103e5866133d690919063ffffffff16565b9050600061315284836133d690919063ffffffff16565b9050600061317d8361316f6103e8896133d690919063ffffffff16565b61344390919063ffffffff16565b9050808261318b919061497b565b93505050509392505050565b6000808273ffffffffffffffffffffffffffffffffffffffff168473ffffffffffffffffffffffffffffffffffffffff1603613208576040517f08c379a00000000000000000000000000000000000000000000000000000000081526004016131ff90614a1e565b60405180910390fd5b8273ffffffffffffffffffffffffffffffffffffffff168473ffffffffffffffffffffffffffffffffffffffff1610613242578284613245565b83835b8092508193505050600073ffffffffffffffffffffffffffffffffffffffff168273ffffffffffffffffffffffffffffffffffffffff16036132bc576040517f08c379a00000000000000000000000000000000000000000000000000000000081526004016132b390614a8a565b60405180910390fd5b9250929050565b6000808411613307576040517f08c379a00000000000000000000000000000000000000000000000000000000081526004016132fe90614b1c565b60405180910390fd5b6000831180156133175750600082115b613356576040517f08c379a000000000000000000000000000000000000000000000000000000000815260040161334d9061492c565b60405180910390fd5b600061337f6103e861337187876133d690919063ffffffff16565b6133d690919063ffffffff16565b905060006133aa6103e561339c8887612f3590919063ffffffff16565b6133d690919063ffffffff16565b90506133cb600182846133bd919061497b565b61344390919063ffffffff16565b925050509392505050565b6000808214806133fe5750828283856133ef9190614b3c565b9250826133fc919061497b565b145b61343d576040517f08c379a000000000000000000000000000000000000000000000000000000000815260040161343490614be2565b60405180910390fd5b92915050565b6000828284613452919061398d565b9150811015613496576040517f08c379a000000000000000000000000000000000000000000000000000000000815260040161348d90614c4e565b60405180910390fd5b92915050565b6000604051905090565b600080fd5b600080fd5b600073ffffffffffffffffffffffffffffffffffffffff82169050919050565b60006134db826134b0565b9050919050565b6134eb816134d0565b81146134f657600080fd5b50565b600081359050613508816134e2565b92915050565b6000819050919050565b6135218161350e565b811461352c57600080fd5b50565b60008135905061353e81613518565b92915050565b600080fd5b600080fd5b600080fd5b60008083601f84011261356957613568613544565b5b8235905067ffffffffffffffff81111561358657613585613549565b5b6020830191508360018202830111156135a2576135a161354e565b5b9250929050565b600080600080606085870312156135c3576135c26134a6565b5b60006135d1878288016134f9565b94505060206135e28782880161352f565b935050604085013567ffffffffffffffff811115613603576136026134ab565b5b61360f87828801613553565b925092505092959194509250565b613626816134d0565b82525050565b6136358161350e565b82525050565b6000606082019050613650600083018661361d565b61365d602083018561361d565b61366a604083018461362c565b949350505050565b6000602082019050613687600083018461362c565b92915050565b6000602082840312156136a3576136a26134a6565b5b60006136b1848285016134f9565b91505092915050565b60006020820190506136cf600083018461361d565b92915050565b600082825260208201905092915050565b7f4d50433a206f6e6c79206d706300000000000000000000000000000000000000600082015250565b600061371c600d836136d5565b9150613727826136e6565b602082019050919050565b6000602082019050818103600083015261374b8161370f565b9050919050565b600080fd5b600080fd5b600080858511156137705761376f613752565b5b8386111561378157613780613757565b5b6001850283019150848603905094509492505050565b600082905092915050565b60007fffffffff0000000000000000000000000000000000000000000000000000000082169050919050565b600082821b905092915050565b60006137e78383613797565b826137f281356137a2565b925060048210156138325761382d7fffffffff00000000000000000000000000000000000000000000000000000000836004036008026137ce565b831692505b505092915050565b7f4d756c7469636861696e547261646550726f78793a205468697320747261646560008201527f50726f7879206e6f7420737570706f727420746f20706172736520706172616d60208201527f2064617461210000000000000000000000000000000000000000000000000000604082015250565b60006138bc6046836136d5565b91506138c78261383a565b606082019050919050565b600060208201905081810360008301526138eb816138af565b9050919050565b7f4d50433a206d706320697320746865207a65726f206164647265737300000000600082015250565b6000613928601c836136d5565b9150613933826138f2565b602082019050919050565b600060208201905081810360008301526139578161391b565b9050919050565b7f4e487b7100000000000000000000000000000000000000000000000000000000600052601160045260246000fd5b60006139988261350e565b91506139a38361350e565b9250827fffffffffffffffffffffffffffffffffffffffffffffffffffffffffffffffff038211156139d8576139d761395e565b5b828201905092915050565b7f4d50433a206f6e6c792070656e64696e67206d70630000000000000000000000600082015250565b6000613a196015836136d5565b9150613a24826139e3565b602082019050919050565b60006020820190508181036000830152613a4881613a0c565b9050919050565b7f4d50433a2074696d65206265666f72652064656c61794d504300000000000000600082015250565b6000613a856019836136d5565b9150613a9082613a4f565b602082019050919050565b60006020820190508181036000830152613ab481613a78565b9050919050565b6000601f19601f8301169050919050565b7f4e487b7100000000000000000000000000000000000000000000000000000000600052604160045260246000fd5b613b0482613abb565b810181811067ffffffffffffffff82111715613b2357613b22613acc565b5b80604052505050565b6000613b3661349c565b9050613b428282613afb565b919050565b600067ffffffffffffffff821115613b6257613b61613acc565b5b602082029050602081019050919050565b6000613b86613b8184613b47565b613b2c565b90508083825260208201905060208402830185811115613ba957613ba861354e565b5b835b81811015613bd25780613bbe88826134f9565b845260208401935050602081019050613bab565b5050509392505050565b600082601f830112613bf157613bf0613544565b5b8135613c01848260208601613b73565b91505092915050565b6000613c15826134b0565b9050919050565b613c2581613c0a565b8114613c3057600080fd5b50565b600081359050613c4281613c1c565b92915050565b600080600080600060a08688031215613c6457613c636134a6565b5b6000613c728882890161352f565b9550506020613c838882890161352f565b945050604086013567ffffffffffffffff811115613ca457613ca36134ab565b5b613cb088828901613bdc565b9350506060613cc188828901613c33565b9250506080613cd28882890161352f565b9150509295509295909350565b7f4d756c7469636861696e547261646550726f78793a20616d6f756e74496e206d60008201527f757374206c657373207468616e20616d6f756e74000000000000000000000000602082015250565b6000613d3b6034836136d5565b9150613d4682613cdf565b604082019050919050565b60006020820190508181036000830152613d6a81613d2e565b9050919050565b7f4e487b7100000000000000000000000000000000000000000000000000000000600052603260045260246000fd5b7f4d756c7469636861696e547261646550726f78793a20696e70757420746f6b6560008201527f6e206e6f7420657175616c7320706174685b305d000000000000000000000000602082015250565b6000613dfc6034836136d5565b9150613e0782613da0565b604082019050919050565b60006020820190508181036000830152613e2b81613def565b9050919050565b7f4d756c7469636861696e547261646550726f78793a20616d6f756e74496e4d6160008201527f78206d757374206c657373207468616e20616d6f756e74000000000000000000602082015250565b6000613e8e6037836136d5565b9150613e9982613e32565b604082019050919050565b60006020820190508181036000830152613ebd81613e81565b9050919050565b7f4d756c7469636861696e547261646550726f78793a207377617020616d6f756e60008201527f7420686173206572726f72000000000000000000000000000000000000000000602082015250565b6000613f20602b836136d5565b9150613f2b82613ec4565b604082019050919050565b60006020820190508181036000830152613f4f81613f13565b9050919050565b7f4d756c7469636861696e547261646550726f78793a207377617020746f6b656e60008201527f20686173206572726f7200000000000000000000000000000000000000000000602082015250565b6000613fb2602a836136d5565b9150613fbd82613f56565b604082019050919050565b60006020820190508181036000830152613fe181613fa5565b9050919050565b7f556e69737761705632526f757465723a20455850495245440000000000000000600082015250565b600061401e6018836136d5565b915061402982613fe8565b602082019050919050565b6000602082019050818103600083015261404d81614011565b9050919050565b600061405f8261350e565b915061406a8361350e565b92508282101561407d5761407c61395e565b5b828203905092915050565b7f4d756c7469636861696e547261646550726f78793a20494e535546464943494560008201527f4e545f4f55545055545f414d4f554e5400000000000000000000000000000000602082015250565b60006140e46030836136d5565b91506140ef82614088565b604082019050919050565b60006020820190508181036000830152614113816140d7565b9050919050565b7f556e69737761705632526f757465723a204558434553534956455f494e50555460008201527f5f414d4f554e5400000000000000000000000000000000000000000000000000602082015250565b60006141766027836136d5565b91506141818261411a565b604082019050919050565b600060208201905081810360008301526141a581614169565b9050919050565b7f556e69737761705632526f757465723a20494e56414c49445f50415448000000600082015250565b60006141e2601d836136d5565b91506141ed826141ac565b602082019050919050565b60006020820190508181036000830152614211816141d5565b9050919050565b7f556e69737761705632526f757465723a20494e53554646494349454e545f4f5560008201527f545055545f414d4f554e54000000000000000000000000000000000000000000602082015250565b6000614274602b836136d5565b915061427f82614218565b604082019050919050565b600060208201905081810360008301526142a381614267565b9050919050565b6000815190506142b981613518565b92915050565b6000602082840312156142d5576142d46134a6565b5b60006142e3848285016142aa565b91505092915050565b7f556e697377617056324c6962726172793a20494e56414c49445f504154480000600082015250565b6000614322601e836136d5565b915061432d826142ec565b602082019050919050565b6000602082019050818103600083015261435181614315565b9050919050565b60006143638261350e565b91507fffffffffffffffffffffffffffffffffffffffffffffffffffffffffffffffff82036143955761439461395e565b5b600182019050919050565b60006040820190506143b5600083018561361d565b6143c2602083018461361d565b9392505050565b6000815190506143d8816134e2565b92915050565b6000602082840312156143f4576143f36134a6565b5b6000614402848285016143c9565b91505092915050565b6000604082019050614420600083018561361d565b61442d602083018461362c565b9392505050565b600081519050919050565b600081905092915050565b60005b8381101561446857808201518184015260208101905061444d565b83811115614477576000848401525b50505050565b600061448882614434565b614492818561443f565b93506144a281856020860161444a565b80840191505092915050565b60006144ba828461447d565b915081905092915050565b60008115159050919050565b6144da816144c5565b81146144e557600080fd5b50565b6000815190506144f7816144d1565b92915050565b600060208284031215614513576145126134a6565b5b6000614521848285016144e8565b91505092915050565b7f5472616e7366657248656c7065723a205452414e534645525f4641494c454400600082015250565b6000614560601f836136d5565b915061456b8261452a565b602082019050919050565b6000602082019050818103600083015261458f81614553565b9050919050565b600082825260208201905092915050565b60006145b282614434565b6145bc8185614596565b93506145cc81856020860161444a565b6145d581613abb565b840191505092915050565b60006080820190506145f5600083018761362c565b614602602083018661362c565b61460f604083018561361d565b818103606083015261462181846145a7565b905095945050505050565b60006146378261350e565b91506000820361464a5761464961395e565b5b600182039050919050565b7f5472616e7366657248656c7065723a204554485f5452414e534645525f46414960008201527f4c45440000000000000000000000000000000000000000000000000000000000602082015250565b60006146b16023836136d5565b91506146bc82614655565b604082019050919050565b600060208201905081810360008301526146e0816146a4565b9050919050565b60006dffffffffffffffffffffffffffff82169050919050565b61470a816146e7565b811461471557600080fd5b50565b60008151905061472781614701565b92915050565b600063ffffffff82169050919050565b6147468161472d565b811461475157600080fd5b50565b6000815190506147638161473d565b92915050565b600080600060608486031215614782576147816134a6565b5b600061479086828701614718565b93505060206147a186828701614718565b92505060406147b286828701614754565b9150509250925092565b7f64732d6d6174682d7375622d756e646572666c6f770000000000000000000000600082015250565b60006147f26015836136d5565b91506147fd826147bc565b602082019050919050565b60006020820190508181036000830152614821816147e5565b9050919050565b7f556e697377617056324c6962726172793a20494e53554646494349454e545f4960008201527f4e5055545f414d4f554e54000000000000000000000000000000000000000000602082015250565b6000614884602b836136d5565b915061488f82614828565b604082019050919050565b600060208201905081810360008301526148b381614877565b9050919050565b7f556e697377617056324c6962726172793a20494e53554646494349454e545f4c60008201527f4951554944495459000000000000000000000000000000000000000000000000602082015250565b60006149166028836136d5565b9150614921826148ba565b604082019050919050565b6000602082019050818103600083015261494581614909565b9050919050565b7f4e487b7100000000000000000000000000000000000000000000000000000000600052601260045260246000fd5b60006149868261350e565b91506149918361350e565b9250826149a1576149a061494c565b5b828204905092915050565b7f556e697377617056324c6962726172793a204944454e544943414c5f4144445260008201527f4553534553000000000000000000000000000000000000000000000000000000602082015250565b6000614a086025836136d5565b9150614a13826149ac565b604082019050919050565b60006020820190508181036000830152614a37816149fb565b9050919050565b7f556e697377617056324c6962726172793a205a45524f5f414444524553530000600082015250565b6000614a74601e836136d5565b9150614a7f82614a3e565b602082019050919050565b60006020820190508181036000830152614aa381614a67565b9050919050565b7f556e697377617056324c6962726172793a20494e53554646494349454e545f4f60008201527f55545055545f414d4f554e540000000000000000000000000000000000000000602082015250565b6000614b06602c836136d5565b9150614b1182614aaa565b604082019050919050565b60006020820190508181036000830152614b3581614af9565b9050919050565b6000614b478261350e565b9150614b528361350e565b9250817fffffffffffffffffffffffffffffffffffffffffffffffffffffffffffffffff0483118215151615614b8b57614b8a61395e565b5b828202905092915050565b7f64732d6d6174682d6d756c2d6f766572666c6f77000000000000000000000000600082015250565b6000614bcc6014836136d5565b9150614bd782614b96565b602082019050919050565b60006020820190508181036000830152614bfb81614bbf565b9050919050565b7f64732d6d6174682d6164642d6f766572666c6f77000000000000000000000000600082015250565b6000614c386014836136d5565b9150614c4382614c02565b602082019050919050565b60006020820190508181036000830152614c6781614c2b565b905091905056fea264697066735822122014aef899cce319ebe77789fb4ad01f555289deacbf296cca7b81a8524ab0d9bb64736f6c634300080d0033",
			"opcodes": "PUSH1 0xC0 PUSH1 0x40 MSTORE CALLVALUE DUP1 ISZERO PUSH3 0x11 JUMPI PUSH1 0x0 DUP1 REVERT JUMPDEST POP PUSH1 0x40 MLOAD PUSH3 0x50C2 CODESIZE SUB DUP1 PUSH3 0x50C2 DUP4 CODECOPY DUP2 DUP2 ADD PUSH1 0x40 MSTORE DUP2 ADD SWAP1 PUSH3 0x37 SWAP2 SWAP1 PUSH3 0x24E JUMP JUMPDEST DUP3 PUSH1 0x0 PUSH20 0xFFFFFFFFFFFFFFFFFFFFFFFFFFFFFFFFFFFFFFFF AND DUP2 PUSH20 0xFFFFFFFFFFFFFFFFFFFFFFFFFFFFFFFFFFFFFFFF AND SUB PUSH3 0xAA JUMPI PUSH1 0x40 MLOAD PUSH32 0x8C379A000000000000000000000000000000000000000000000000000000000 DUP2 MSTORE PUSH1 0x4 ADD PUSH3 0xA1 SWAP1 PUSH3 0x30B JUMP JUMPDEST PUSH1 0x40 MLOAD DUP1 SWAP2 SUB SWAP1 REVERT JUMPDEST DUP1 PUSH1 0x0 DUP1 PUSH2 0x100 EXP DUP2 SLOAD DUP2 PUSH20 0xFFFFFFFFFFFFFFFFFFFFFFFFFFFFFFFFFFFFFFFF MUL NOT AND SWAP1 DUP4 PUSH20 0xFFFFFFFFFFFFFFFFFFFFFFFFFFFFFFFFFFFFFFFF AND MUL OR SWAP1 SSTORE POP PUSH1 0x0 DUP1 SLOAD SWAP1 PUSH2 0x100 EXP SWAP1 DIV PUSH20 0xFFFFFFFFFFFFFFFFFFFFFFFFFFFFFFFFFFFFFFFF AND PUSH20 0xFFFFFFFFFFFFFFFFFFFFFFFFFFFFFFFFFFFFFFFF AND PUSH1 0x0 PUSH20 0xFFFFFFFFFFFFFFFFFFFFFFFFFFFFFFFFFFFFFFFF AND PUSH32 0x581F388E3DD32E1BBF62A290F509C8245F9D0B71EF82614FB2B967AD0A10D5B9 TIMESTAMP PUSH1 0x40 MLOAD PUSH3 0x16A SWAP2 SWAP1 PUSH3 0x348 JUMP JUMPDEST PUSH1 0x40 MLOAD DUP1 SWAP2 SUB SWAP1 LOG3 POP DUP2 PUSH20 0xFFFFFFFFFFFFFFFFFFFFFFFFFFFFFFFFFFFFFFFF AND PUSH1 0x80 DUP2 PUSH20 0xFFFFFFFFFFFFFFFFFFFFFFFFFFFFFFFFFFFFFFFF AND DUP2 MSTORE POP POP DUP1 PUSH20 0xFFFFFFFFFFFFFFFFFFFFFFFFFFFFFFFFFFFFFFFF AND PUSH1 0xA0 DUP2 PUSH20 0xFFFFFFFFFFFFFFFFFFFFFFFFFFFFFFFFFFFFFFFF AND DUP2 MSTORE POP POP POP POP POP PUSH3 0x365 JUMP JUMPDEST PUSH1 0x0 DUP1 REVERT JUMPDEST PUSH1 0x0 PUSH20 0xFFFFFFFFFFFFFFFFFFFFFFFFFFFFFFFFFFFFFFFF DUP3 AND SWAP1 POP SWAP2 SWAP1 POP JUMP JUMPDEST PUSH1 0x0 PUSH3 0x216 DUP3 PUSH3 0x1E9 JUMP JUMPDEST SWAP1 POP SWAP2 SWAP1 POP JUMP JUMPDEST PUSH3 0x228 DUP2 PUSH3 0x209 JUMP JUMPDEST DUP2 EQ PUSH3 0x234 JUMPI PUSH1 0x0 DUP1 REVERT JUMPDEST POP JUMP JUMPDEST PUSH1 0x0 DUP2 MLOAD SWAP1 POP PUSH3 0x248 DUP2 PUSH3 0x21D JUMP JUMPDEST SWAP3 SWAP2 POP POP JUMP JUMPDEST PUSH1 0x0 DUP1 PUSH1 0x0 PUSH1 0x60 DUP5 DUP7 SUB SLT ISZERO PUSH3 0x26A JUMPI PUSH3 0x269 PUSH3 0x1E4 JUMP JUMPDEST JUMPDEST PUSH1 0x0 PUSH3 0x27A DUP7 DUP3 DUP8 ADD PUSH3 0x237 JUMP JUMPDEST SWAP4 POP POP PUSH1 0x20 PUSH3 0x28D DUP7 DUP3 DUP8 ADD PUSH3 0x237 JUMP JUMPDEST SWAP3 POP POP PUSH1 0x40 PUSH3 0x2A0 DUP7 DUP3 DUP8 ADD PUSH3 0x237 JUMP JUMPDEST SWAP2 POP POP SWAP3 POP SWAP3 POP SWAP3 JUMP JUMPDEST PUSH1 0x0 DUP3 DUP3 MSTORE PUSH1 0x20 DUP3 ADD SWAP1 POP SWAP3 SWAP2 POP POP JUMP JUMPDEST PUSH32 0x4D50433A206D706320697320746865207A65726F206164647265737300000000 PUSH1 0x0 DUP3 ADD MSTORE POP JUMP JUMPDEST PUSH1 0x0 PUSH3 0x2F3 PUSH1 0x1C DUP4 PUSH3 0x2AA JUMP JUMPDEST SWAP2 POP PUSH3 0x300 DUP3 PUSH3 0x2BB JUMP JUMPDEST PUSH1 0x20 DUP3 ADD SWAP1 POP SWAP2 SWAP1 POP JUMP JUMPDEST PUSH1 0x0 PUSH1 0x20 DUP3 ADD SWAP1 POP DUP2 DUP2 SUB PUSH1 0x0 DUP4 ADD MSTORE PUSH3 0x326 DUP2 PUSH3 0x2E4 JUMP JUMPDEST SWAP1 POP SWAP2 SWAP1 POP JUMP JUMPDEST PUSH1 0x0 DUP2 SWAP1 POP SWAP2 SWAP1 POP JUMP JUMPDEST PUSH3 0x342 DUP2 PUSH3 0x32D JUMP JUMPDEST DUP3 MSTORE POP POP JUMP JUMPDEST PUSH1 0x0 PUSH1 0x20 DUP3 ADD SWAP1 POP PUSH3 0x35F PUSH1 0x0 DUP4 ADD DUP5 PUSH3 0x337 JUMP JUMPDEST SWAP3 SWAP2 POP POP JUMP JUMPDEST PUSH1 0x80 MLOAD PUSH1 0xA0 MLOAD PUSH2 0x4CA4 PUSH3 0x41E PUSH1 0x0 CODECOPY PUSH1 0x0 DUP2 DUP2 PUSH2 0x854 ADD MSTORE DUP2 DUP2 PUSH2 0x161F ADD MSTORE DUP2 DUP2 PUSH2 0x1819 ADD MSTORE DUP2 DUP2 PUSH2 0x1952 ADD MSTORE DUP2 DUP2 PUSH2 0x1B58 ADD MSTORE DUP2 DUP2 PUSH2 0x1FF3 ADD MSTORE DUP2 DUP2 PUSH2 0x213A ADD MSTORE PUSH2 0x2219 ADD MSTORE PUSH1 0x0 DUP2 DUP2 PUSH2 0x830 ADD MSTORE DUP2 DUP2 PUSH2 0x12E2 ADD MSTORE DUP2 DUP2 PUSH2 0x1398 ADD MSTORE DUP2 DUP2 PUSH2 0x1489 ADD MSTORE DUP2 DUP2 PUSH2 0x1533 ADD MSTORE DUP2 DUP2 PUSH2 0x16D9 ADD MSTORE DUP2 DUP2 PUSH2 0x1783 ADD MSTORE DUP2 DUP2 PUSH2 0x1A0C ADD MSTORE DUP2 DUP2 PUSH2 0x1AC2 ADD MSTORE DUP2 DUP2 PUSH2 0x1CB3 ADD MSTORE DUP2 DUP2 PUSH2 0x20CA ADD MSTORE DUP2 DUP2 PUSH2 0x2737 ADD MSTORE DUP2 DUP2 PUSH2 0x278B ADD MSTORE DUP2 DUP2 PUSH2 0x2BFB ADD MSTORE PUSH2 0x2E07 ADD MSTORE PUSH2 0x4CA4 PUSH1 0x0 RETURN INVALID PUSH1 0x80 PUSH1 0x40 MSTORE PUSH1 0x4 CALLDATASIZE LT PUSH2 0x8A JUMPI PUSH1 0x0 CALLDATALOAD PUSH1 0xE0 SHR DUP1 PUSH4 0x703D2BB7 GT PUSH2 0x59 JUMPI DUP1 PUSH4 0x703D2BB7 EQ PUSH2 0x151 JUMPI DUP1 PUSH4 0xAD5C4648 EQ PUSH2 0x17C JUMPI DUP1 PUSH4 0xB63B38D0 EQ PUSH2 0x1A7 JUMPI DUP1 PUSH4 0xF75C2664 EQ PUSH2 0x1BE JUMPI DUP1 PUSH4 0xF830E7B4 EQ PUSH2 0x1E9 JUMPI PUSH2 0x91 JUMP JUMPDEST DUP1 PUSH4 0x565BB67 EQ PUSH2 0x93 JUMPI DUP1 PUSH4 0x160F1053 EQ PUSH2 0xD2 JUMPI DUP1 PUSH4 0x5B7B018C EQ PUSH2 0xFD JUMPI DUP1 PUSH4 0x6A42B8F8 EQ PUSH2 0x126 JUMPI PUSH2 0x91 JUMP JUMPDEST CALLDATASIZE PUSH2 0x91 JUMPI STOP JUMPDEST STOP JUMPDEST CALLVALUE DUP1 ISZERO PUSH2 0x9F JUMPI PUSH1 0x0 DUP1 REVERT JUMPDEST POP PUSH2 0xBA PUSH1 0x4 DUP1 CALLDATASIZE SUB DUP2 ADD SWAP1 PUSH2 0xB5 SWAP2 SWAP1 PUSH2 0x35A9 JUMP JUMPDEST PUSH2 0x214 JUMP JUMPDEST PUSH1 0x40 MLOAD PUSH2 0xC9 SWAP4 SWAP3 SWAP2 SWAP1 PUSH2 0x363B JUMP JUMPDEST PUSH1 0x40 MLOAD DUP1 SWAP2 SUB SWAP1 RETURN JUMPDEST CALLVALUE DUP1 ISZERO PUSH2 0xDE JUMPI PUSH1 0x0 DUP1 REVERT JUMPDEST POP PUSH2 0xE7 PUSH2 0x622 JUMP JUMPDEST PUSH1 0x40 MLOAD PUSH2 0xF4 SWAP2 SWAP1 PUSH2 0x3672 JUMP JUMPDEST PUSH1 0x40 MLOAD DUP1 SWAP2 SUB SWAP1 RETURN JUMPDEST CALLVALUE DUP1 ISZERO PUSH2 0x109 JUMPI PUSH1 0x0 DUP1 REVERT JUMPDEST POP PUSH2 0x124 PUSH1 0x4 DUP1 CALLDATASIZE SUB DUP2 ADD SWAP1 PUSH2 0x11F SWAP2 SWAP1 PUSH2 0x368D JUMP JUMPDEST PUSH2 0x628 JUMP JUMPDEST STOP JUMPDEST CALLVALUE DUP1 ISZERO PUSH2 0x132 JUMPI PUSH1 0x0 DUP1 REVERT JUMPDEST POP PUSH2 0x13B PUSH2 0x827 JUMP JUMPDEST PUSH1 0x40 MLOAD PUSH2 0x148 SWAP2 SWAP1 PUSH2 0x3672 JUMP JUMPDEST PUSH1 0x40 MLOAD DUP1 SWAP2 SUB SWAP1 RETURN JUMPDEST CALLVALUE DUP1 ISZERO PUSH2 0x15D JUMPI PUSH1 0x0 DUP1 REVERT JUMPDEST POP PUSH2 0x166 PUSH2 0x82E JUMP JUMPDEST PUSH1 0x40 MLOAD PUSH2 0x173 SWAP2 SWAP1 PUSH2 0x36BA JUMP JUMPDEST PUSH1 0x40 MLOAD DUP1 SWAP2 SUB SWAP1 RETURN JUMPDEST CALLVALUE DUP1 ISZERO PUSH2 0x188 JUMPI PUSH1 0x0 DUP1 REVERT JUMPDEST POP PUSH2 0x191 PUSH2 0x852 JUMP JUMPDEST PUSH1 0x40 MLOAD PUSH2 0x19E SWAP2 SWAP1 PUSH2 0x36BA JUMP JUMPDEST PUSH1 0x40 MLOAD DUP1 SWAP2 SUB SWAP1 RETURN JUMPDEST CALLVALUE DUP1 ISZERO PUSH2 0x1B3 JUMPI PUSH1 0x0 DUP1 REVERT JUMPDEST POP PUSH2 0x1BC PUSH2 0x876 JUMP JUMPDEST STOP JUMPDEST CALLVALUE DUP1 ISZERO PUSH2 0x1CA JUMPI PUSH1 0x0 DUP1 REVERT JUMPDEST POP PUSH2 0x1D3 PUSH2 0xB4D JUMP JUMPDEST PUSH1 0x40 MLOAD PUSH2 0x1E0 SWAP2 SWAP1 PUSH2 0x36BA JUMP JUMPDEST PUSH1 0x40 MLOAD DUP1 SWAP2 SUB SWAP1 RETURN JUMPDEST CALLVALUE DUP1 ISZERO PUSH2 0x1F5 JUMPI PUSH1 0x0 DUP1 REVERT JUMPDEST POP PUSH2 0x1FE PUSH2 0xB71 JUMP JUMPDEST PUSH1 0x40 MLOAD PUSH2 0x20B SWAP2 SWAP1 PUSH2 0x36BA JUMP JUMPDEST PUSH1 0x40 MLOAD DUP1 SWAP2 SUB SWAP1 RETURN JUMPDEST PUSH1 0x0 DUP1 PUSH1 0x0 DUP1 PUSH1 0x0 SWAP1 SLOAD SWAP1 PUSH2 0x100 EXP SWAP1 DIV PUSH20 0xFFFFFFFFFFFFFFFFFFFFFFFFFFFFFFFFFFFFFFFF AND PUSH20 0xFFFFFFFFFFFFFFFFFFFFFFFFFFFFFFFFFFFFFFFF AND CALLER PUSH20 0xFFFFFFFFFFFFFFFFFFFFFFFFFFFFFFFFFFFFFFFF AND EQ PUSH2 0x2A8 JUMPI PUSH1 0x40 MLOAD PUSH32 0x8C379A000000000000000000000000000000000000000000000000000000000 DUP2 MSTORE PUSH1 0x4 ADD PUSH2 0x29F SWAP1 PUSH2 0x3732 JUMP JUMPDEST PUSH1 0x40 MLOAD DUP1 SWAP2 SUB SWAP1 REVERT JUMPDEST PUSH1 0x0 DUP6 DUP6 PUSH1 0x0 SWAP1 PUSH1 0x4 SWAP3 PUSH2 0x2BE SWAP4 SWAP3 SWAP2 SWAP1 PUSH2 0x375C JUMP JUMPDEST SWAP1 PUSH2 0x2C9 SWAP2 SWAP1 PUSH2 0x37DB JUMP JUMPDEST SWAP1 POP PUSH32 0x38ED1739EE07DAF49933F1800D1A9BC8D39A6876EA11E643F9C4C39C66DF0EE8 PUSH28 0xFFFFFFFFFFFFFFFFFFFFFFFFFFFFFFFFFFFFFFFFFFFFFFFFFFFFFFFF NOT AND DUP2 PUSH28 0xFFFFFFFFFFFFFFFFFFFFFFFFFFFFFFFFFFFFFFFFFFFFFFFFFFFFFFFF NOT AND SUB PUSH2 0x34D JUMPI PUSH2 0x33C DUP9 DUP9 DUP9 DUP9 PUSH2 0xB97 JUMP JUMPDEST DUP1 SWAP5 POP DUP2 SWAP6 POP DUP3 SWAP7 POP POP POP POP PUSH2 0x617 JUMP JUMPDEST PUSH32 0x8803DBEEF1ADFE1A9306DAA835152093F0A5085700E080F4DE0D56162DFADB09 PUSH28 0xFFFFFFFFFFFFFFFFFFFFFFFFFFFFFFFFFFFFFFFFFFFFFFFFFFFFFFFF NOT AND DUP2 PUSH28 0xFFFFFFFFFFFFFFFFFFFFFFFFFFFFFFFFFFFFFFFFFFFFFFFFFFFFFFFF NOT AND SUB PUSH2 0x3CF JUMPI PUSH2 0x3BE DUP9 DUP9 DUP9 DUP9 PUSH2 0xCBB JUMP JUMPDEST DUP1 SWAP5 POP DUP2 SWAP6 POP DUP3 SWAP7 POP POP POP POP PUSH2 0x616 JUMP JUMPDEST PUSH32 0x4A25D94A96FF7A29F18F4F1154F634D0BB2BC027B6D31AF01F47C4FDD038F225 PUSH28 0xFFFFFFFFFFFFFFFFFFFFFFFFFFFFFFFFFFFFFFFFFFFFFFFFFFFFFFFF NOT AND DUP2 PUSH28 0xFFFFFFFFFFFFFFFFFFFFFFFFFFFFFFFFFFFFFFFFFFFFFFFFFFFFFFFF NOT AND SUB PUSH2 0x451 JUMPI PUSH2 0x440 DUP9 DUP9 DUP9 DUP9 PUSH2 0xDDF JUMP JUMPDEST DUP1 SWAP5 POP DUP2 SWAP6 POP DUP3 SWAP7 POP POP POP POP PUSH2 0x615 JUMP JUMPDEST PUSH32 0x18CBAFE5FB6AB7D2558A55CCC138A3172AA304C3A08214C1AB07223DCB9E7F8E PUSH28 0xFFFFFFFFFFFFFFFFFFFFFFFFFFFFFFFFFFFFFFFFFFFFFFFFFFFFFFFF NOT AND DUP2 PUSH28 0xFFFFFFFFFFFFFFFFFFFFFFFFFFFFFFFFFFFFFFFFFFFFFFFFFFFFFFFF NOT AND SUB PUSH2 0x4D3 JUMPI PUSH2 0x4C2 DUP9 DUP9 DUP9 DUP9 PUSH2 0xF03 JUMP JUMPDEST DUP1 SWAP5 POP DUP2 SWAP6 POP DUP3 SWAP7 POP POP POP POP PUSH2 0x614 JUMP JUMPDEST PUSH32 0x5C11D79526CE10B4A02FAD7C13A4F0C7482B8F962C004E4F4D599003116C5F92 PUSH28 0xFFFFFFFFFFFFFFFFFFFFFFFFFFFFFFFFFFFFFFFFFFFFFFFFFFFFFFFF NOT AND DUP2 PUSH28 0xFFFFFFFFFFFFFFFFFFFFFFFFFFFFFFFFFFFFFFFFFFFFFFFFFFFFFFFF NOT AND SUB PUSH2 0x555 JUMPI PUSH2 0x544 DUP9 DUP9 DUP9 DUP9 PUSH2 0x1027 JUMP JUMPDEST DUP1 SWAP5 POP DUP2 SWAP6 POP DUP3 SWAP7 POP POP POP POP PUSH2 0x613 JUMP JUMPDEST PUSH32 0x791AC9477E2D4606A81A205CF3DD7BDB27673037D74725AFF8C552AD981CF090 PUSH28 0xFFFFFFFFFFFFFFFFFFFFFFFFFFFFFFFFFFFFFFFFFFFFFFFFFFFFFFFF NOT AND DUP2 PUSH28 0xFFFFFFFFFFFFFFFFFFFFFFFFFFFFFFFFFFFFFFFFFFFFFFFFFFFFFFFF NOT AND SUB PUSH2 0x5D7 JUMPI PUSH2 0x5C6 DUP9 DUP9 DUP9 DUP9 PUSH2 0x114B JUMP JUMPDEST DUP1 SWAP5 POP DUP2 SWAP6 POP DUP3 SWAP7 POP POP POP POP PUSH2 0x612 JUMP JUMPDEST PUSH1 0x40 MLOAD PUSH32 0x8C379A000000000000000000000000000000000000000000000000000000000 DUP2 MSTORE PUSH1 0x4 ADD PUSH2 0x609 SWAP1 PUSH2 0x38D2 JUMP JUMPDEST PUSH1 0x40 MLOAD DUP1 SWAP2 SUB SWAP1 REVERT JUMPDEST JUMPDEST JUMPDEST JUMPDEST JUMPDEST JUMPDEST POP SWAP5 POP SWAP5 POP SWAP5 SWAP2 POP POP JUMP JUMPDEST PUSH1 0x2 SLOAD DUP2 JUMP JUMPDEST PUSH1 0x0 DUP1 SLOAD SWAP1 PUSH2 0x100 EXP SWAP1 DIV PUSH20 0xFFFFFFFFFFFFFFFFFFFFFFFFFFFFFFFFFFFFFFFF AND PUSH20 0xFFFFFFFFFFFFFFFFFFFFFFFFFFFFFFFFFFFFFFFF AND CALLER PUSH20 0xFFFFFFFFFFFFFFFFFFFFFFFFFFFFFFFFFFFFFFFF AND EQ PUSH2 0x6B6 JUMPI PUSH1 0x40 MLOAD PUSH32 0x8C379A000000000000000000000000000000000000000000000000000000000 DUP2 MSTORE PUSH1 0x4 ADD PUSH2 0x6AD SWAP1 PUSH2 0x3732 JUMP JUMPDEST PUSH1 0x40 MLOAD DUP1 SWAP2 SUB SWAP1 REVERT JUMPDEST PUSH1 0x0 PUSH20 0xFFFFFFFFFFFFFFFFFFFFFFFFFFFFFFFFFFFFFFFF AND DUP2 PUSH20 0xFFFFFFFFFFFFFFFFFFFFFFFFFFFFFFFFFFFFFFFF AND SUB PUSH2 0x725 JUMPI PUSH1 0x40 MLOAD PUSH32 0x8C379A000000000000000000000000000000000000000000000000000000000 DUP2 MSTORE PUSH1 0x4 ADD PUSH2 0x71C SWAP1 PUSH2 0x393E JUMP JUMPDEST PUSH1 0x40 MLOAD DUP1 SWAP2 SUB SWAP1 REVERT JUMPDEST DUP1 PUSH1 0x1 PUSH1 0x0 PUSH2 0x100 EXP DUP2 SLOAD DUP2 PUSH20 0xFFFFFFFFFFFFFFFFFFFFFFFFFFFFFFFFFFFFFFFF MUL NOT AND SWAP1 DUP4 PUSH20 0xFFFFFFFFFFFFFFFFFFFFFFFFFFFFFFFFFFFFFFFF AND MUL OR SWAP1 SSTORE POP PUSH3 0x2A300 TIMESTAMP PUSH2 0x775 SWAP2 SWAP1 PUSH2 0x398D JUMP JUMPDEST PUSH1 0x2 DUP2 SWAP1 SSTORE POP PUSH1 0x1 PUSH1 0x0 SWAP1 SLOAD SWAP1 PUSH2 0x100 EXP SWAP1 DIV PUSH20 0xFFFFFFFFFFFFFFFFFFFFFFFFFFFFFFFFFFFFFFFF AND PUSH20 0xFFFFFFFFFFFFFFFFFFFFFFFFFFFFFFFFFFFFFFFF AND PUSH1 0x0 DUP1 SLOAD SWAP1 PUSH2 0x100 EXP SWAP1 DIV PUSH20 0xFFFFFFFFFFFFFFFFFFFFFFFFFFFFFFFFFFFFFFFF AND PUSH20 0xFFFFFFFFFFFFFFFFFFFFFFFFFFFFFFFFFFFFFFFF AND PUSH32 0x581F388E3DD32E1BBF62A290F509C8245F9D0B71EF82614FB2B967AD0A10D5B9 PUSH1 0x2 SLOAD PUSH1 0x40 MLOAD PUSH2 0x81C SWAP2 SWAP1 PUSH2 0x3672 JUMP JUMPDEST PUSH1 0x40 MLOAD DUP1 SWAP2 SUB SWAP1 LOG3 POP JUMP JUMPDEST PUSH3 0x2A300 DUP2 JUMP JUMPDEST PUSH32 0x0 DUP2 JUMP JUMPDEST PUSH32 0x0 DUP2 JUMP JUMPDEST PUSH1 0x1 PUSH1 0x0 SWAP1 SLOAD SWAP1 PUSH2 0x100 EXP SWAP1 DIV PUSH20 0xFFFFFFFFFFFFFFFFFFFFFFFFFFFFFFFFFFFFFFFF AND PUSH20 0xFFFFFFFFFFFFFFFFFFFFFFFFFFFFFFFFFFFFFFFF AND CALLER PUSH20 0xFFFFFFFFFFFFFFFFFFFFFFFFFFFFFFFFFFFFFFFF AND EQ DUP1 PUSH2 0x966 JUMPI POP PUSH1 0x0 DUP1 SLOAD SWAP1 PUSH2 0x100 EXP SWAP1 DIV PUSH20 0xFFFFFFFFFFFFFFFFFFFFFFFFFFFFFFFFFFFFFFFF AND PUSH20 0xFFFFFFFFFFFFFFFFFFFFFFFFFFFFFFFFFFFFFFFF AND CALLER PUSH20 0xFFFFFFFFFFFFFFFFFFFFFFFFFFFFFFFFFFFFFFFF AND EQ DUP1 ISZERO PUSH2 0x965 JUMPI POP PUSH2 0x964 PUSH1 0x1 PUSH1 0x0 SWAP1 SLOAD SWAP1 PUSH2 0x100 EXP SWAP1 DIV PUSH20 0xFFFFFFFFFFFFFFFFFFFFFFFFFFFFFFFFFFFFFFFF AND PUSH20 0xFFFFFFFFFFFFFFFFFFFFFFFFFFFFFFFFFFFFFFFF AND PUSH2 0x126F JUMP JUMPDEST JUMPDEST JUMPDEST PUSH2 0x9A5 JUMPI PUSH1 0x40 MLOAD PUSH32 0x8C379A000000000000000000000000000000000000000000000000000000000 DUP2 MSTORE PUSH1 0x4 ADD PUSH2 0x99C SWAP1 PUSH2 0x3A2F JUMP JUMPDEST PUSH1 0x40 MLOAD DUP1 SWAP2 SUB SWAP1 REVERT JUMPDEST PUSH1 0x0 PUSH1 0x2 SLOAD GT DUP1 ISZERO PUSH2 0x9B9 JUMPI POP PUSH1 0x2 SLOAD TIMESTAMP LT ISZERO JUMPDEST PUSH2 0x9F8 JUMPI PUSH1 0x40 MLOAD PUSH32 0x8C379A000000000000000000000000000000000000000000000000000000000 DUP2 MSTORE PUSH1 0x4 ADD PUSH2 0x9EF SWAP1 PUSH2 0x3A9B JUMP JUMPDEST PUSH1 0x40 MLOAD DUP1 SWAP2 SUB SWAP1 REVERT JUMPDEST PUSH1 0x1 PUSH1 0x0 SWAP1 SLOAD SWAP1 PUSH2 0x100 EXP SWAP1 DIV PUSH20 0xFFFFFFFFFFFFFFFFFFFFFFFFFFFFFFFFFFFFFFFF AND PUSH20 0xFFFFFFFFFFFFFFFFFFFFFFFFFFFFFFFFFFFFFFFF AND PUSH1 0x0 DUP1 SLOAD SWAP1 PUSH2 0x100 EXP SWAP1 DIV PUSH20 0xFFFFFFFFFFFFFFFFFFFFFFFFFFFFFFFFFFFFFFFF AND PUSH20 0xFFFFFFFFFFFFFFFFFFFFFFFFFFFFFFFFFFFFFFFF AND PUSH32 0x8D32C9DD498E08090B44A0F77FE9EC0278851F9DFFC4B430428411243E7DF076 TIMESTAMP PUSH1 0x40 MLOAD PUSH2 0xA97 SWAP2 SWAP1 PUSH2 0x3672 JUMP JUMPDEST PUSH1 0x40 MLOAD DUP1 SWAP2 SUB SWAP1 LOG3 PUSH1 0x1 PUSH1 0x0 SWAP1 SLOAD SWAP1 PUSH2 0x100 EXP SWAP1 DIV PUSH20 0xFFFFFFFFFFFFFFFFFFFFFFFFFFFFFFFFFFFFFFFF AND PUSH1 0x0 DUP1 PUSH2 0x100 EXP DUP2 SLOAD DUP2 PUSH20 0xFFFFFFFFFFFFFFFFFFFFFFFFFFFFFFFFFFFFFFFF MUL NOT AND SWAP1 DUP4 PUSH20 0xFFFFFFFFFFFFFFFFFFFFFFFFFFFFFFFFFFFFFFFF AND MUL OR SWAP1 SSTORE POP PUSH1 0x0 PUSH1 0x1 PUSH1 0x0 PUSH2 0x100 EXP DUP2 SLOAD DUP2 PUSH20 0xFFFFFFFFFFFFFFFFFFFFFFFFFFFFFFFFFFFFFFFF MUL NOT AND SWAP1 DUP4 PUSH20 0xFFFFFFFFFFFFFFFFFFFFFFFFFFFFFFFFFFFFFFFF AND MUL OR SWAP1 SSTORE POP PUSH1 0x0 PUSH1 0x2 DUP2 SWAP1 SSTORE POP JUMP JUMPDEST PUSH1 0x0 DUP1 SLOAD SWAP1 PUSH2 0x100 EXP SWAP1 DIV PUSH20 0xFFFFFFFFFFFFFFFFFFFFFFFFFFFFFFFFFFFFFFFF AND DUP2 JUMP JUMPDEST PUSH1 0x1 PUSH1 0x0 SWAP1 SLOAD SWAP1 PUSH2 0x100 EXP SWAP1 DIV PUSH20 0xFFFFFFFFFFFFFFFFFFFFFFFFFFFFFFFFFFFFFFFF AND DUP2 JUMP JUMPDEST PUSH1 0x0 DUP1 PUSH1 0x0 DUP1 PUSH1 0x0 DUP1 PUSH1 0x0 DUP1 DUP10 DUP10 PUSH1 0x4 SWAP1 DUP1 SWAP3 PUSH2 0xBB6 SWAP4 SWAP3 SWAP2 SWAP1 PUSH2 0x375C JUMP JUMPDEST DUP2 ADD SWAP1 PUSH2 0xBC3 SWAP2 SWAP1 PUSH2 0x3C48 JUMP JUMPDEST SWAP5 POP SWAP5 POP SWAP5 POP SWAP5 POP SWAP5 POP DUP11 DUP6 GT ISZERO PUSH2 0xC10 JUMPI PUSH1 0x40 MLOAD PUSH32 0x8C379A000000000000000000000000000000000000000000000000000000000 DUP2 MSTORE PUSH1 0x4 ADD PUSH2 0xC07 SWAP1 PUSH2 0x3D51 JUMP JUMPDEST PUSH1 0x40 MLOAD DUP1 SWAP2 SUB SWAP1 REVERT JUMPDEST DUP12 PUSH20 0xFFFFFFFFFFFFFFFFFFFFFFFFFFFFFFFFFFFFFFFF AND DUP4 PUSH1 0x0 DUP2 MLOAD DUP2 LT PUSH2 0xC3B JUMPI PUSH2 0xC3A PUSH2 0x3D71 JUMP JUMPDEST JUMPDEST PUSH1 0x20 MUL PUSH1 0x20 ADD ADD MLOAD PUSH20 0xFFFFFFFFFFFFFFFFFFFFFFFFFFFFFFFFFFFFFFFF AND EQ PUSH2 0xC99 JUMPI PUSH1 0x40 MLOAD PUSH32 0x8C379A000000000000000000000000000000000000000000000000000000000 DUP2 MSTORE PUSH1 0x4 ADD PUSH2 0xC90 SWAP1 PUSH2 0x3E12 JUMP JUMPDEST PUSH1 0x40 MLOAD DUP1 SWAP2 SUB SWAP1 REVERT JUMPDEST PUSH2 0xCA6 DUP6 DUP6 DUP6 DUP6 DUP6 PUSH2 0x1292 JUMP JUMPDEST SWAP8 POP SWAP8 POP SWAP8 POP POP POP POP POP POP SWAP5 POP SWAP5 POP SWAP5 SWAP2 POP POP JUMP JUMPDEST PUSH1 0x0 DUP1 PUSH1 0x0 DUP1 PUSH1 0x0 DUP1 PUSH1 0x0 DUP1 DUP10 DUP10 PUSH1 0x4 SWAP1 DUP1 SWAP3 PUSH2 0xCDA SWAP4 SWAP3 SWAP2 SWAP1 PUSH2 0x375C JUMP JUMPDEST DUP2 ADD SWAP1 PUSH2 0xCE7 SWAP2 SWAP1 PUSH2 0x3C48 JUMP JUMPDEST SWAP5 POP SWAP5 POP SWAP5 POP SWAP5 POP SWAP5 POP DUP11 DUP5 GT ISZERO PUSH2 0xD34 JUMPI PUSH1 0x40 MLOAD PUSH32 0x8C379A000000000000000000000000000000000000000000000000000000000 DUP2 MSTORE PUSH1 0x4 ADD PUSH2 0xD2B SWAP1 PUSH2 0x3EA4 JUMP JUMPDEST PUSH1 0x40 MLOAD DUP1 SWAP2 SUB SWAP1 REVERT JUMPDEST DUP12 PUSH20 0xFFFFFFFFFFFFFFFFFFFFFFFFFFFFFFFFFFFFFFFF AND DUP4 PUSH1 0x0 DUP2 MLOAD DUP2 LT PUSH2 0xD5F JUMPI PUSH2 0xD5E PUSH2 0x3D71 JUMP JUMPDEST JUMPDEST PUSH1 0x20 MUL PUSH1 0x20 ADD ADD MLOAD PUSH20 0xFFFFFFFFFFFFFFFFFFFFFFFFFFFFFFFFFFFFFFFF AND EQ PUSH2 0xDBD JUMPI PUSH1 0x40 MLOAD PUSH32 0x8C379A000000000000000000000000000000000000000000000000000000000 DUP2 MSTORE PUSH1 0x4 ADD PUSH2 0xDB4 SWAP1 PUSH2 0x3E12 JUMP JUMPDEST PUSH1 0x40 MLOAD DUP1 SWAP2 SUB SWAP1 REVERT JUMPDEST PUSH2 0xDCA DUP6 DUP6 DUP6 DUP6 DUP6 PUSH2 0x1439 JUMP JUMPDEST SWAP8 POP SWAP8 POP SWAP8 POP POP POP POP POP POP SWAP5 POP SWAP5 POP SWAP5 SWAP2 POP POP JUMP JUMPDEST PUSH1 0x0 DUP1 PUSH1 0x0 DUP1 PUSH1 0x0 DUP1 PUSH1 0x0 DUP1 DUP10 DUP10 PUSH1 0x4 SWAP1 DUP1 SWAP3 PUSH2 0xDFE SWAP4 SWAP3 SWAP2 SWAP1 PUSH2 0x375C JUMP JUMPDEST DUP2 ADD SWAP1 PUSH2 0xE0B SWAP2 SWAP1 PUSH2 0x3C48 JUMP JUMPDEST SWAP5 POP SWAP5 POP SWAP5 POP SWAP5 POP SWAP5 POP DUP11 DUP5 GT ISZERO PUSH2 0xE58 JUMPI PUSH1 0x40 MLOAD PUSH32 0x8C379A000000000000000000000000000000000000000000000000000000000 DUP2 MSTORE PUSH1 0x4 ADD PUSH2 0xE4F SWAP1 PUSH2 0x3F36 JUMP JUMPDEST PUSH1 0x40 MLOAD DUP1 SWAP2 SUB SWAP1 REVERT JUMPDEST DUP12 PUSH20 0xFFFFFFFFFFFFFFFFFFFFFFFFFFFFFFFFFFFFFFFF AND DUP4 PUSH1 0x0 DUP2 MLOAD DUP2 LT PUSH2 0xE83 JUMPI PUSH2 0xE82 PUSH2 0x3D71 JUMP JUMPDEST JUMPDEST PUSH1 0x20 MUL PUSH1 0x20 ADD ADD MLOAD PUSH20 0xFFFFFFFFFFFFFFFFFFFFFFFFFFFFFFFFFFFFFFFF AND EQ PUSH2 0xEE1 JUMPI PUSH1 0x40 MLOAD PUSH32 0x8C379A000000000000000000000000000000000000000000000000000000000 DUP2 MSTORE PUSH1 0x4 ADD PUSH2 0xED8 SWAP1 PUSH2 0x3FC8 JUMP JUMPDEST PUSH1 0x40 MLOAD DUP1 SWAP2 SUB SWAP1 REVERT JUMPDEST PUSH2 0xEEE DUP6 DUP6 DUP6 DUP6 DUP6 PUSH2 0x15D4 JUMP JUMPDEST SWAP8 POP SWAP8 POP SWAP8 POP POP POP POP POP POP SWAP5 POP SWAP5 POP SWAP5 SWAP2 POP POP JUMP JUMPDEST PUSH1 0x0 DUP1 PUSH1 0x0 DUP1 PUSH1 0x0 DUP1 PUSH1 0x0 DUP1 DUP10 DUP10 PUSH1 0x4 SWAP1 DUP1 SWAP3 PUSH2 0xF22 SWAP4 SWAP3 SWAP2 SWAP1 PUSH2 0x375C JUMP JUMPDEST DUP2 ADD SWAP1 PUSH2 0xF2F SWAP2 SWAP1 PUSH2 0x3C48 JUMP JUMPDEST SWAP5 POP SWAP5 POP SWAP5 POP SWAP5 POP SWAP5 POP DUP11 DUP6 GT ISZERO PUSH2 0xF7C JUMPI PUSH1 0x40 MLOAD PUSH32 0x8C379A000000000000000000000000000000000000000000000000000000000 DUP2 MSTORE PUSH1 0x4 ADD PUSH2 0xF73 SWAP1 PUSH2 0x3F36 JUMP JUMPDEST PUSH1 0x40 MLOAD DUP1 SWAP2 SUB SWAP1 REVERT JUMPDEST DUP12 PUSH20 0xFFFFFFFFFFFFFFFFFFFFFFFFFFFFFFFFFFFFFFFF AND DUP4 PUSH1 0x0 DUP2 MLOAD DUP2 LT PUSH2 0xFA7 JUMPI PUSH2 0xFA6 PUSH2 0x3D71 JUMP JUMPDEST JUMPDEST PUSH1 0x20 MUL PUSH1 0x20 ADD ADD MLOAD PUSH20 0xFFFFFFFFFFFFFFFFFFFFFFFFFFFFFFFFFFFFFFFF AND EQ PUSH2 0x1005 JUMPI PUSH1 0x40 MLOAD PUSH32 0x8C379A000000000000000000000000000000000000000000000000000000000 DUP2 MSTORE PUSH1 0x4 ADD PUSH2 0xFFC SWAP1 PUSH2 0x3FC8 JUMP JUMPDEST PUSH1 0x40 MLOAD DUP1 SWAP2 SUB SWAP1 REVERT JUMPDEST PUSH2 0x1012 DUP6 DUP6 DUP6 DUP6 DUP6 PUSH2 0x1907 JUMP JUMPDEST SWAP8 POP SWAP8 POP SWAP8 POP POP POP POP POP POP SWAP5 POP SWAP5 POP SWAP5 SWAP2 POP POP JUMP JUMPDEST PUSH1 0x0 DUP1 PUSH1 0x0 DUP1 PUSH1 0x0 DUP1 PUSH1 0x0 DUP1 DUP10 DUP10 PUSH1 0x4 SWAP1 DUP1 SWAP3 PUSH2 0x1046 SWAP4 SWAP3 SWAP2 SWAP1 PUSH2 0x375C JUMP JUMPDEST DUP2 ADD SWAP1 PUSH2 0x1053 SWAP2 SWAP1 PUSH2 0x3C48 JUMP JUMPDEST SWAP5 POP SWAP5 POP SWAP5 POP SWAP5 POP SWAP5 POP DUP11 DUP6 GT ISZERO PUSH2 0x10A0 JUMPI PUSH1 0x40 MLOAD PUSH32 0x8C379A000000000000000000000000000000000000000000000000000000000 DUP2 MSTORE PUSH1 0x4 ADD PUSH2 0x1097 SWAP1 PUSH2 0x3F36 JUMP JUMPDEST PUSH1 0x40 MLOAD DUP1 SWAP2 SUB SWAP1 REVERT JUMPDEST DUP12 PUSH20 0xFFFFFFFFFFFFFFFFFFFFFFFFFFFFFFFFFFFFFFFF AND DUP4 PUSH1 0x0 DUP2 MLOAD DUP2 LT PUSH2 0x10CB JUMPI PUSH2 0x10CA PUSH2 0x3D71 JUMP JUMPDEST JUMPDEST PUSH1 0x20 MUL PUSH1 0x20 ADD ADD MLOAD PUSH20 0xFFFFFFFFFFFFFFFFFFFFFFFFFFFFFFFFFFFFFFFF AND EQ PUSH2 0x1129 JUMPI PUSH1 0x40 MLOAD PUSH32 0x8C379A000000000000000000000000000000000000000000000000000000000 DUP2 MSTORE PUSH1 0x4 ADD PUSH2 0x1120 SWAP1 PUSH2 0x3FC8 JUMP JUMPDEST PUSH1 0x40 MLOAD DUP1 SWAP2 SUB SWAP1 REVERT JUMPDEST PUSH2 0x1136 DUP6 DUP6 DUP6 DUP6 DUP6 PUSH2 0x1C46 JUMP JUMPDEST SWAP8 POP SWAP8 POP SWAP8 POP POP POP POP POP POP SWAP5 POP SWAP5 POP SWAP5 SWAP2 POP POP JUMP JUMPDEST PUSH1 0x0 DUP1 PUSH1 0x0 DUP1 PUSH1 0x0 DUP1 PUSH1 0x0 DUP1 DUP10 DUP10 PUSH1 0x4 SWAP1 DUP1 SWAP3 PUSH2 0x116A SWAP4 SWAP3 SWAP2 SWAP1 PUSH2 0x375C JUMP JUMPDEST DUP2 ADD SWAP1 PUSH2 0x1177 SWAP2 SWAP1 PUSH2 0x3C48 JUMP JUMPDEST SWAP5 POP SWAP5 POP SWAP5 POP SWAP5 POP SWAP5 POP DUP11 DUP6 GT ISZERO PUSH2 0x11C4 JUMPI PUSH1 0x40 MLOAD PUSH32 0x8C379A000000000000000000000000000000000000000000000000000000000 DUP2 MSTORE PUSH1 0x4 ADD PUSH2 0x11BB SWAP1 PUSH2 0x3F36 JUMP JUMPDEST PUSH1 0x40 MLOAD DUP1 SWAP2 SUB SWAP1 REVERT JUMPDEST DUP12 PUSH20 0xFFFFFFFFFFFFFFFFFFFFFFFFFFFFFFFFFFFFFFFF AND DUP4 PUSH1 0x0 DUP2 MLOAD DUP2 LT PUSH2 0x11EF JUMPI PUSH2 0x11EE PUSH2 0x3D71 JUMP JUMPDEST JUMPDEST PUSH1 0x20 MUL PUSH1 0x20 ADD ADD MLOAD PUSH20 0xFFFFFFFFFFFFFFFFFFFFFFFFFFFFFFFFFFFFFFFF AND EQ PUSH2 0x124D JUMPI PUSH1 0x40 MLOAD PUSH32 0x8C379A000000000000000000000000000000000000000000000000000000000 DUP2 MSTORE PUSH1 0x4 ADD PUSH2 0x1244 SWAP1 PUSH2 0x3FC8 JUMP JUMPDEST PUSH1 0x40 MLOAD DUP1 SWAP2 SUB SWAP1 REVERT JUMPDEST PUSH2 0x125A DUP6 DUP6 DUP6 DUP6 DUP6 PUSH2 0x1FA8 JUMP JUMPDEST SWAP8 POP SWAP8 POP SWAP8 POP POP POP POP POP POP SWAP5 POP SWAP5 POP SWAP5 SWAP2 POP POP JUMP JUMPDEST PUSH1 0x0 DUP1 DUP3 PUSH20 0xFFFFFFFFFFFFFFFFFFFFFFFFFFFFFFFFFFFFFFFF AND EXTCODESIZE GT SWAP1 POP SWAP2 SWAP1 POP JUMP JUMPDEST PUSH1 0x0 DUP1 PUSH1 0x0 DUP4 TIMESTAMP DUP2 LT ISZERO PUSH2 0x12DB JUMPI PUSH1 0x40 MLOAD PUSH32 0x8C379A000000000000000000000000000000000000000000000000000000000 DUP2 MSTORE PUSH1 0x4 ADD PUSH2 0x12D2 SWAP1 PUSH2 0x4034 JUMP JUMPDEST PUSH1 0x40 MLOAD DUP1 SWAP2 SUB SWAP1 REVERT JUMPDEST PUSH1 0x0 PUSH2 0x1308 PUSH32 0x0 DUP12 DUP11 PUSH2 0x22E9 JUMP JUMPDEST SWAP1 POP DUP9 DUP2 PUSH1 0x1 DUP4 MLOAD PUSH2 0x131A SWAP2 SWAP1 PUSH2 0x4054 JUMP JUMPDEST DUP2 MLOAD DUP2 LT PUSH2 0x132B JUMPI PUSH2 0x132A PUSH2 0x3D71 JUMP JUMPDEST JUMPDEST PUSH1 0x20 MUL PUSH1 0x20 ADD ADD MLOAD LT ISZERO PUSH2 0x1374 JUMPI PUSH1 0x40 MLOAD PUSH32 0x8C379A000000000000000000000000000000000000000000000000000000000 DUP2 MSTORE PUSH1 0x4 ADD PUSH2 0x136B SWAP1 PUSH2 0x40FA JUMP JUMPDEST PUSH1 0x40 MLOAD DUP1 SWAP2 SUB SWAP1 REVERT JUMPDEST PUSH2 0x1415 DUP9 PUSH1 0x0 DUP2 MLOAD DUP2 LT PUSH2 0x138B JUMPI PUSH2 0x138A PUSH2 0x3D71 JUMP JUMPDEST JUMPDEST PUSH1 0x20 MUL PUSH1 0x20 ADD ADD MLOAD PUSH2 0x13F4 PUSH32 0x0 DUP12 PUSH1 0x0 DUP2 MLOAD DUP2 LT PUSH2 0x13CB JUMPI PUSH2 0x13CA PUSH2 0x3D71 JUMP JUMPDEST JUMPDEST PUSH1 0x20 MUL PUSH1 0x20 ADD ADD MLOAD DUP13 PUSH1 0x1 DUP2 MLOAD DUP2 LT PUSH2 0x13E7 JUMPI PUSH2 0x13E6 PUSH2 0x3D71 JUMP JUMPDEST JUMPDEST PUSH1 0x20 MUL PUSH1 0x20 ADD ADD MLOAD PUSH2 0x2474 JUMP JUMPDEST DUP4 PUSH1 0x0 DUP2 MLOAD DUP2 LT PUSH2 0x1408 JUMPI PUSH2 0x1407 PUSH2 0x3D71 JUMP JUMPDEST JUMPDEST PUSH1 0x20 MUL PUSH1 0x20 ADD ADD MLOAD PUSH2 0x24FB JUMP JUMPDEST PUSH2 0x1420 DUP2 DUP10 DUP10 PUSH2 0x2631 JUMP JUMPDEST DUP1 SWAP6 POP DUP2 SWAP7 POP DUP3 SWAP8 POP POP POP POP POP POP SWAP6 POP SWAP6 POP SWAP6 SWAP3 POP POP POP JUMP JUMPDEST PUSH1 0x0 DUP1 PUSH1 0x0 DUP4 TIMESTAMP DUP2 LT ISZERO PUSH2 0x1482 JUMPI PUSH1 0x40 MLOAD PUSH32 0x8C379A000000000000000000000000000000000000000000000000000000000 DUP2 MSTORE PUSH1 0x4 ADD PUSH2 0x1479 SWAP1 PUSH2 0x4034 JUMP JUMPDEST PUSH1 0x40 MLOAD DUP1 SWAP2 SUB SWAP1 REVERT JUMPDEST PUSH1 0x0 PUSH2 0x14AF PUSH32 0x0 DUP12 DUP11 PUSH2 0x28E9 JUMP JUMPDEST SWAP1 POP DUP9 DUP2 PUSH1 0x0 DUP2 MLOAD DUP2 LT PUSH2 0x14C6 JUMPI PUSH2 0x14C5 PUSH2 0x3D71 JUMP JUMPDEST JUMPDEST PUSH1 0x20 MUL PUSH1 0x20 ADD ADD MLOAD GT ISZERO PUSH2 0x150F JUMPI PUSH1 0x40 MLOAD PUSH32 0x8C379A000000000000000000000000000000000000000000000000000000000 DUP2 MSTORE PUSH1 0x4 ADD PUSH2 0x1506 SWAP1 PUSH2 0x418C JUMP JUMPDEST PUSH1 0x40 MLOAD DUP1 SWAP2 SUB SWAP1 REVERT JUMPDEST PUSH2 0x15B0 DUP9 PUSH1 0x0 DUP2 MLOAD DUP2 LT PUSH2 0x1526 JUMPI PUSH2 0x1525 PUSH2 0x3D71 JUMP JUMPDEST JUMPDEST PUSH1 0x20 MUL PUSH1 0x20 ADD ADD MLOAD PUSH2 0x158F PUSH32 0x0 DUP12 PUSH1 0x0 DUP2 MLOAD DUP2 LT PUSH2 0x1566 JUMPI PUSH2 0x1565 PUSH2 0x3D71 JUMP JUMPDEST JUMPDEST PUSH1 0x20 MUL PUSH1 0x20 ADD ADD MLOAD DUP13 PUSH1 0x1 DUP2 MLOAD DUP2 LT PUSH2 0x1582 JUMPI PUSH2 0x1581 PUSH2 0x3D71 JUMP JUMPDEST JUMPDEST PUSH1 0x20 MUL PUSH1 0x20 ADD ADD MLOAD PUSH2 0x2474 JUMP JUMPDEST DUP4 PUSH1 0x0 DUP2 MLOAD DUP2 LT PUSH2 0x15A3 JUMPI PUSH2 0x15A2 PUSH2 0x3D71 JUMP JUMPDEST JUMPDEST PUSH1 0x20 MUL PUSH1 0x20 ADD ADD MLOAD PUSH2 0x24FB JUMP JUMPDEST PUSH2 0x15BB DUP2 DUP10 DUP10 PUSH2 0x2631 JUMP JUMPDEST DUP1 SWAP6 POP DUP2 SWAP7 POP DUP3 SWAP8 POP POP POP POP POP POP SWAP6 POP SWAP6 POP SWAP6 SWAP3 POP POP POP JUMP JUMPDEST PUSH1 0x0 DUP1 PUSH1 0x0 DUP4 TIMESTAMP DUP2 LT ISZERO PUSH2 0x161D JUMPI PUSH1 0x40 MLOAD PUSH32 0x8C379A000000000000000000000000000000000000000000000000000000000 DUP2 MSTORE PUSH1 0x4 ADD PUSH2 0x1614 SWAP1 PUSH2 0x4034 JUMP JUMPDEST PUSH1 0x40 MLOAD DUP1 SWAP2 SUB SWAP1 REVERT JUMPDEST PUSH32 0x0 PUSH20 0xFFFFFFFFFFFFFFFFFFFFFFFFFFFFFFFFFFFFFFFF AND DUP8 PUSH1 0x1 DUP10 MLOAD PUSH2 0x1663 SWAP2 SWAP1 PUSH2 0x4054 JUMP JUMPDEST DUP2 MLOAD DUP2 LT PUSH2 0x1674 JUMPI PUSH2 0x1673 PUSH2 0x3D71 JUMP JUMPDEST JUMPDEST PUSH1 0x20 MUL PUSH1 0x20 ADD ADD MLOAD PUSH20 0xFFFFFFFFFFFFFFFFFFFFFFFFFFFFFFFFFFFFFFFF AND EQ PUSH2 0x16D2 JUMPI PUSH1 0x40 MLOAD PUSH32 0x8C379A000000000000000000000000000000000000000000000000000000000 DUP2 MSTORE PUSH1 0x4 ADD PUSH2 0x16C9 SWAP1 PUSH2 0x41F8 JUMP JUMPDEST PUSH1 0x40 MLOAD DUP1 SWAP2 SUB SWAP1 REVERT JUMPDEST PUSH1 0x0 PUSH2 0x16FF PUSH32 0x0 DUP12 DUP11 PUSH2 0x28E9 JUMP JUMPDEST SWAP1 POP DUP9 DUP2 PUSH1 0x0 DUP2 MLOAD DUP2 LT PUSH2 0x1716 JUMPI PUSH2 0x1715 PUSH2 0x3D71 JUMP JUMPDEST JUMPDEST PUSH1 0x20 MUL PUSH1 0x20 ADD ADD MLOAD GT ISZERO PUSH2 0x175F JUMPI PUSH1 0x40 MLOAD PUSH32 0x8C379A000000000000000000000000000000000000000000000000000000000 DUP2 MSTORE PUSH1 0x4 ADD PUSH2 0x1756 SWAP1 PUSH2 0x418C JUMP JUMPDEST PUSH1 0x40 MLOAD DUP1 SWAP2 SUB SWAP1 REVERT JUMPDEST PUSH2 0x1800 DUP9 PUSH1 0x0 DUP2 MLOAD DUP2 LT PUSH2 0x1776 JUMPI PUSH2 0x1775 PUSH2 0x3D71 JUMP JUMPDEST JUMPDEST PUSH1 0x20 MUL PUSH1 0x20 ADD ADD MLOAD PUSH2 0x17DF PUSH32 0x0 DUP12 PUSH1 0x0 DUP2 MLOAD DUP2 LT PUSH2 0x17B6 JUMPI PUSH2 0x17B5 PUSH2 0x3D71 JUMP JUMPDEST JUMPDEST PUSH1 0x20 MUL PUSH1 0x20 ADD ADD MLOAD DUP13 PUSH1 0x1 DUP2 MLOAD DUP2 LT PUSH2 0x17D2 JUMPI PUSH2 0x17D1 PUSH2 0x3D71 JUMP JUMPDEST JUMPDEST PUSH1 0x20 MUL PUSH1 0x20 ADD ADD MLOAD PUSH2 0x2474 JUMP JUMPDEST DUP4 PUSH1 0x0 DUP2 MLOAD DUP2 LT PUSH2 0x17F3 JUMPI PUSH2 0x17F2 PUSH2 0x3D71 JUMP JUMPDEST JUMPDEST PUSH1 0x20 MUL PUSH1 0x20 ADD ADD MLOAD PUSH2 0x24FB JUMP JUMPDEST PUSH2 0x180B DUP2 DUP10 ADDRESS PUSH2 0x2631 JUMP JUMPDEST DUP1 SWAP6 POP DUP2 SWAP7 POP DUP3 SWAP8 POP POP POP POP PUSH32 0x0 PUSH20 0xFFFFFFFFFFFFFFFFFFFFFFFFFFFFFFFFFFFFFFFF AND PUSH4 0x2E1A7D4D DUP3 PUSH1 0x1 DUP5 MLOAD PUSH2 0x1862 SWAP2 SWAP1 PUSH2 0x4054 JUMP JUMPDEST DUP2 MLOAD DUP2 LT PUSH2 0x1873 JUMPI PUSH2 0x1872 PUSH2 0x3D71 JUMP JUMPDEST JUMPDEST PUSH1 0x20 MUL PUSH1 0x20 ADD ADD MLOAD PUSH1 0x40 MLOAD DUP3 PUSH4 0xFFFFFFFF AND PUSH1 0xE0 SHL DUP2 MSTORE PUSH1 0x4 ADD PUSH2 0x1897 SWAP2 SWAP1 PUSH2 0x3672 JUMP JUMPDEST PUSH1 0x0 PUSH1 0x40 MLOAD DUP1 DUP4 SUB DUP2 PUSH1 0x0 DUP8 DUP1 EXTCODESIZE ISZERO DUP1 ISZERO PUSH2 0x18B1 JUMPI PUSH1 0x0 DUP1 REVERT JUMPDEST POP GAS CALL ISZERO DUP1 ISZERO PUSH2 0x18C5 JUMPI RETURNDATASIZE PUSH1 0x0 DUP1 RETURNDATACOPY RETURNDATASIZE PUSH1 0x0 REVERT JUMPDEST POP POP POP POP PUSH2 0x18FA DUP8 DUP3 PUSH1 0x1 DUP5 MLOAD PUSH2 0x18DC SWAP2 SWAP1 PUSH2 0x4054 JUMP JUMPDEST DUP2 MLOAD DUP2 LT PUSH2 0x18ED JUMPI PUSH2 0x18EC PUSH2 0x3D71 JUMP JUMPDEST JUMPDEST PUSH1 0x20 MUL PUSH1 0x20 ADD ADD MLOAD PUSH2 0x2A84 JUMP JUMPDEST POP POP SWAP6 POP SWAP6 POP SWAP6 SWAP3 POP POP POP JUMP JUMPDEST PUSH1 0x0 DUP1 PUSH1 0x0 DUP4 TIMESTAMP DUP2 LT ISZERO PUSH2 0x1950 JUMPI PUSH1 0x40 MLOAD PUSH32 0x8C379A000000000000000000000000000000000000000000000000000000000 DUP2 MSTORE PUSH1 0x4 ADD PUSH2 0x1947 SWAP1 PUSH2 0x4034 JUMP JUMPDEST PUSH1 0x40 MLOAD DUP1 SWAP2 SUB SWAP1 REVERT JUMPDEST PUSH32 0x0 PUSH20 0xFFFFFFFFFFFFFFFFFFFFFFFFFFFFFFFFFFFFFFFF AND DUP8 PUSH1 0x1 DUP10 MLOAD PUSH2 0x1996 SWAP2 SWAP1 PUSH2 0x4054 JUMP JUMPDEST DUP2 MLOAD DUP2 LT PUSH2 0x19A7 JUMPI PUSH2 0x19A6 PUSH2 0x3D71 JUMP JUMPDEST JUMPDEST PUSH1 0x20 MUL PUSH1 0x20 ADD ADD MLOAD PUSH20 0xFFFFFFFFFFFFFFFFFFFFFFFFFFFFFFFFFFFFFFFF AND EQ PUSH2 0x1A05 JUMPI PUSH1 0x40 MLOAD PUSH32 0x8C379A000000000000000000000000000000000000000000000000000000000 DUP2 MSTORE PUSH1 0x4 ADD PUSH2 0x19FC SWAP1 PUSH2 0x41F8 JUMP JUMPDEST PUSH1 0x40 MLOAD DUP1 SWAP2 SUB SWAP1 REVERT JUMPDEST PUSH1 0x0 PUSH2 0x1A32 PUSH32 0x0 DUP12 DUP11 PUSH2 0x22E9 JUMP JUMPDEST SWAP1 POP DUP9 DUP2 PUSH1 0x1 DUP4 MLOAD PUSH2 0x1A44 SWAP2 SWAP1 PUSH2 0x4054 JUMP JUMPDEST DUP2 MLOAD DUP2 LT PUSH2 0x1A55 JUMPI PUSH2 0x1A54 PUSH2 0x3D71 JUMP JUMPDEST JUMPDEST PUSH1 0x20 MUL PUSH1 0x20 ADD ADD MLOAD LT ISZERO PUSH2 0x1A9E JUMPI PUSH1 0x40 MLOAD PUSH32 0x8C379A000000000000000000000000000000000000000000000000000000000 DUP2 MSTORE PUSH1 0x4 ADD PUSH2 0x1A95 SWAP1 PUSH2 0x428A JUMP JUMPDEST PUSH1 0x40 MLOAD DUP1 SWAP2 SUB SWAP1 REVERT JUMPDEST PUSH2 0x1B3F DUP9 PUSH1 0x0 DUP2 MLOAD DUP2 LT PUSH2 0x1AB5 JUMPI PUSH2 0x1AB4 PUSH2 0x3D71 JUMP JUMPDEST JUMPDEST PUSH1 0x20 MUL PUSH1 0x20 ADD ADD MLOAD PUSH2 0x1B1E PUSH32 0x0 DUP12 PUSH1 0x0 DUP2 MLOAD DUP2 LT PUSH2 0x1AF5 JUMPI PUSH2 0x1AF4 PUSH2 0x3D71 JUMP JUMPDEST JUMPDEST PUSH1 0x20 MUL PUSH1 0x20 ADD ADD MLOAD DUP13 PUSH1 0x1 DUP2 MLOAD DUP2 LT PUSH2 0x1B11 JUMPI PUSH2 0x1B10 PUSH2 0x3D71 JUMP JUMPDEST JUMPDEST PUSH1 0x20 MUL PUSH1 0x20 ADD ADD MLOAD PUSH2 0x2474 JUMP JUMPDEST DUP4 PUSH1 0x0 DUP2 MLOAD DUP2 LT PUSH2 0x1B32 JUMPI PUSH2 0x1B31 PUSH2 0x3D71 JUMP JUMPDEST JUMPDEST PUSH1 0x20 MUL PUSH1 0x20 ADD ADD MLOAD PUSH2 0x24FB JUMP JUMPDEST PUSH2 0x1B4A DUP2 DUP10 ADDRESS PUSH2 0x2631 JUMP JUMPDEST DUP1 SWAP6 POP DUP2 SWAP7 POP DUP3 SWAP8 POP POP POP POP PUSH32 0x0 PUSH20 0xFFFFFFFFFFFFFFFFFFFFFFFFFFFFFFFFFFFFFFFF AND PUSH4 0x2E1A7D4D DUP3 PUSH1 0x1 DUP5 MLOAD PUSH2 0x1BA1 SWAP2 SWAP1 PUSH2 0x4054 JUMP JUMPDEST DUP2 MLOAD DUP2 LT PUSH2 0x1BB2 JUMPI PUSH2 0x1BB1 PUSH2 0x3D71 JUMP JUMPDEST JUMPDEST PUSH1 0x20 MUL PUSH1 0x20 ADD ADD MLOAD PUSH1 0x40 MLOAD DUP3 PUSH4 0xFFFFFFFF AND PUSH1 0xE0 SHL DUP2 MSTORE PUSH1 0x4 ADD PUSH2 0x1BD6 SWAP2 SWAP1 PUSH2 0x3672 JUMP JUMPDEST PUSH1 0x0 PUSH1 0x40 MLOAD DUP1 DUP4 SUB DUP2 PUSH1 0x0 DUP8 DUP1 EXTCODESIZE ISZERO DUP1 ISZERO PUSH2 0x1BF0 JUMPI PUSH1 0x0 DUP1 REVERT JUMPDEST POP GAS CALL ISZERO DUP1 ISZERO PUSH2 0x1C04 JUMPI RETURNDATASIZE PUSH1 0x0 DUP1 RETURNDATACOPY RETURNDATASIZE PUSH1 0x0 REVERT JUMPDEST POP POP POP POP PUSH2 0x1C39 DUP8 DUP3 PUSH1 0x1 DUP5 MLOAD PUSH2 0x1C1B SWAP2 SWAP1 PUSH2 0x4054 JUMP JUMPDEST DUP2 MLOAD DUP2 LT PUSH2 0x1C2C JUMPI PUSH2 0x1C2B PUSH2 0x3D71 JUMP JUMPDEST JUMPDEST PUSH1 0x20 MUL PUSH1 0x20 ADD ADD MLOAD PUSH2 0x2A84 JUMP JUMPDEST POP POP SWAP6 POP SWAP6 POP SWAP6 SWAP3 POP POP POP JUMP JUMPDEST PUSH1 0x0 DUP1 PUSH1 0x0 DUP4 TIMESTAMP DUP2 LT ISZERO PUSH2 0x1C8F JUMPI PUSH1 0x40 MLOAD PUSH32 0x8C379A000000000000000000000000000000000000000000000000000000000 DUP2 MSTORE PUSH1 0x4 ADD PUSH2 0x1C86 SWAP1 PUSH2 0x4034 JUMP JUMPDEST PUSH1 0x40 MLOAD DUP1 SWAP2 SUB SWAP1 REVERT JUMPDEST PUSH2 0x1D15 DUP8 PUSH1 0x0 DUP2 MLOAD DUP2 LT PUSH2 0x1CA6 JUMPI PUSH2 0x1CA5 PUSH2 0x3D71 JUMP JUMPDEST JUMPDEST PUSH1 0x20 MUL PUSH1 0x20 ADD ADD MLOAD PUSH2 0x1D0F PUSH32 0x0 DUP11 PUSH1 0x0 DUP2 MLOAD DUP2 LT PUSH2 0x1CE6 JUMPI PUSH2 0x1CE5 PUSH2 0x3D71 JUMP JUMPDEST JUMPDEST PUSH1 0x20 MUL PUSH1 0x20 ADD ADD MLOAD DUP12 PUSH1 0x1 DUP2 MLOAD DUP2 LT PUSH2 0x1D02 JUMPI PUSH2 0x1D01 PUSH2 0x3D71 JUMP JUMPDEST JUMPDEST PUSH1 0x20 MUL PUSH1 0x20 ADD ADD MLOAD PUSH2 0x2474 JUMP JUMPDEST DUP12 PUSH2 0x24FB JUMP JUMPDEST PUSH1 0x0 DUP8 PUSH1 0x1 DUP10 MLOAD PUSH2 0x1D26 SWAP2 SWAP1 PUSH2 0x4054 JUMP JUMPDEST DUP2 MLOAD DUP2 LT PUSH2 0x1D37 JUMPI PUSH2 0x1D36 PUSH2 0x3D71 JUMP JUMPDEST JUMPDEST PUSH1 0x20 MUL PUSH1 0x20 ADD ADD MLOAD PUSH20 0xFFFFFFFFFFFFFFFFFFFFFFFFFFFFFFFFFFFFFFFF AND PUSH4 0x70A08231 DUP9 PUSH1 0x40 MLOAD DUP3 PUSH4 0xFFFFFFFF AND PUSH1 0xE0 SHL DUP2 MSTORE PUSH1 0x4 ADD PUSH2 0x1D77 SWAP2 SWAP1 PUSH2 0x36BA JUMP JUMPDEST PUSH1 0x20 PUSH1 0x40 MLOAD DUP1 DUP4 SUB DUP2 DUP7 GAS STATICCALL ISZERO DUP1 ISZERO PUSH2 0x1D94 JUMPI RETURNDATASIZE PUSH1 0x0 DUP1 RETURNDATACOPY RETURNDATASIZE PUSH1 0x0 REVERT JUMPDEST POP POP POP POP PUSH1 0x40 MLOAD RETURNDATASIZE PUSH1 0x1F NOT PUSH1 0x1F DUP3 ADD AND DUP3 ADD DUP1 PUSH1 0x40 MSTORE POP DUP2 ADD SWAP1 PUSH2 0x1DB8 SWAP2 SWAP1 PUSH2 0x42BF JUMP JUMPDEST SWAP1 POP PUSH2 0x1DC4 DUP9 DUP9 PUSH2 0x2B84 JUMP JUMPDEST DUP9 PUSH2 0x1E78 DUP3 DUP11 PUSH1 0x1 DUP13 MLOAD PUSH2 0x1DD8 SWAP2 SWAP1 PUSH2 0x4054 JUMP JUMPDEST DUP2 MLOAD DUP2 LT PUSH2 0x1DE9 JUMPI PUSH2 0x1DE8 PUSH2 0x3D71 JUMP JUMPDEST JUMPDEST PUSH1 0x20 MUL PUSH1 0x20 ADD ADD MLOAD PUSH20 0xFFFFFFFFFFFFFFFFFFFFFFFFFFFFFFFFFFFFFFFF AND PUSH4 0x70A08231 DUP12 PUSH1 0x40 MLOAD DUP3 PUSH4 0xFFFFFFFF AND PUSH1 0xE0 SHL DUP2 MSTORE PUSH1 0x4 ADD PUSH2 0x1E29 SWAP2 SWAP1 PUSH2 0x36BA JUMP JUMPDEST PUSH1 0x20 PUSH1 0x40 MLOAD DUP1 DUP4 SUB DUP2 DUP7 GAS STATICCALL ISZERO DUP1 ISZERO PUSH2 0x1E46 JUMPI RETURNDATASIZE PUSH1 0x0 DUP1 RETURNDATACOPY RETURNDATASIZE PUSH1 0x0 REVERT JUMPDEST POP POP POP POP PUSH1 0x40 MLOAD RETURNDATASIZE PUSH1 0x1F NOT PUSH1 0x1F DUP3 ADD AND DUP3 ADD DUP1 PUSH1 0x40 MSTORE POP DUP2 ADD SWAP1 PUSH2 0x1E6A SWAP2 SWAP1 PUSH2 0x42BF JUMP JUMPDEST PUSH2 0x2F35 SWAP1 SWAP2 SWAP1 PUSH4 0xFFFFFFFF AND JUMP JUMPDEST LT ISZERO PUSH2 0x1EB9 JUMPI PUSH1 0x40 MLOAD PUSH32 0x8C379A000000000000000000000000000000000000000000000000000000000 DUP2 MSTORE PUSH1 0x4 ADD PUSH2 0x1EB0 SWAP1 PUSH2 0x428A JUMP JUMPDEST PUSH1 0x40 MLOAD DUP1 SWAP2 SUB SWAP1 REVERT JUMPDEST DUP8 PUSH1 0x1 DUP10 MLOAD PUSH2 0x1EC8 SWAP2 SWAP1 PUSH2 0x4054 JUMP JUMPDEST DUP2 MLOAD DUP2 LT PUSH2 0x1ED9 JUMPI PUSH2 0x1ED8 PUSH2 0x3D71 JUMP JUMPDEST JUMPDEST PUSH1 0x20 MUL PUSH1 0x20 ADD ADD MLOAD DUP8 PUSH2 0x1F95 DUP4 DUP12 PUSH1 0x1 DUP14 MLOAD PUSH2 0x1EF5 SWAP2 SWAP1 PUSH2 0x4054 JUMP JUMPDEST DUP2 MLOAD DUP2 LT PUSH2 0x1F06 JUMPI PUSH2 0x1F05 PUSH2 0x3D71 JUMP JUMPDEST JUMPDEST PUSH1 0x20 MUL PUSH1 0x20 ADD ADD MLOAD PUSH20 0xFFFFFFFFFFFFFFFFFFFFFFFFFFFFFFFFFFFFFFFF AND PUSH4 0x70A08231 DUP13 PUSH1 0x40 MLOAD DUP3 PUSH4 0xFFFFFFFF AND PUSH1 0xE0 SHL DUP2 MSTORE PUSH1 0x4 ADD PUSH2 0x1F46 SWAP2 SWAP1 PUSH2 0x36BA JUMP JUMPDEST PUSH1 0x20 PUSH1 0x40 MLOAD DUP1 DUP4 SUB DUP2 DUP7 GAS STATICCALL ISZERO DUP1 ISZERO PUSH2 0x1F63 JUMPI RETURNDATASIZE PUSH1 0x0 DUP1 RETURNDATACOPY RETURNDATASIZE PUSH1 0x0 REVERT JUMPDEST POP POP POP POP PUSH1 0x40 MLOAD RETURNDATASIZE PUSH1 0x1F NOT PUSH1 0x1F DUP3 ADD AND DUP3 ADD DUP1 PUSH1 0x40 MSTORE POP DUP2 ADD SWAP1 PUSH2 0x1F87 SWAP2 SWAP1 PUSH2 0x42BF JUMP JUMPDEST PUSH2 0x2F35 SWAP1 SWAP2 SWAP1 PUSH4 0xFFFFFFFF AND JUMP JUMPDEST SWAP5 POP SWAP5 POP SWAP5 POP POP POP SWAP6 POP SWAP6 POP SWAP6 SWAP3 POP POP POP JUMP JUMPDEST PUSH1 0x0 DUP1 PUSH1 0x0 DUP4 TIMESTAMP DUP2 LT ISZERO PUSH2 0x1FF1 JUMPI PUSH1 0x40 MLOAD PUSH32 0x8C379A000000000000000000000000000000000000000000000000000000000 DUP2 MSTORE PUSH1 0x4 ADD PUSH2 0x1FE8 SWAP1 PUSH2 0x4034 JUMP JUMPDEST PUSH1 0x40 MLOAD DUP1 SWAP2 SUB SWAP1 REVERT JUMPDEST PUSH32 0x0 PUSH20 0xFFFFFFFFFFFFFFFFFFFFFFFFFFFFFFFFFFFFFFFF AND DUP8 PUSH1 0x1 DUP10 MLOAD PUSH2 0x2037 SWAP2 SWAP1 PUSH2 0x4054 JUMP JUMPDEST DUP2 MLOAD DUP2 LT PUSH2 0x2048 JUMPI PUSH2 0x2047 PUSH2 0x3D71 JUMP JUMPDEST JUMPDEST PUSH1 0x20 MUL PUSH1 0x20 ADD ADD MLOAD PUSH20 0xFFFFFFFFFFFFFFFFFFFFFFFFFFFFFFFFFFFFFFFF AND EQ PUSH2 0x20A6 JUMPI PUSH1 0x40 MLOAD PUSH32 0x8C379A000000000000000000000000000000000000000000000000000000000 DUP2 MSTORE PUSH1 0x4 ADD PUSH2 0x209D SWAP1 PUSH2 0x41F8 JUMP JUMPDEST PUSH1 0x40 MLOAD DUP1 SWAP2 SUB SWAP1 REVERT JUMPDEST PUSH2 0x212C DUP8 PUSH1 0x0 DUP2 MLOAD DUP2 LT PUSH2 0x20BD JUMPI PUSH2 0x20BC PUSH2 0x3D71 JUMP JUMPDEST JUMPDEST PUSH1 0x20 MUL PUSH1 0x20 ADD ADD MLOAD PUSH2 0x2126 PUSH32 0x0 DUP11 PUSH1 0x0 DUP2 MLOAD DUP2 LT PUSH2 0x20FD JUMPI PUSH2 0x20FC PUSH2 0x3D71 JUMP JUMPDEST JUMPDEST PUSH1 0x20 MUL PUSH1 0x20 ADD ADD MLOAD DUP12 PUSH1 0x1 DUP2 MLOAD DUP2 LT PUSH2 0x2119 JUMPI PUSH2 0x2118 PUSH2 0x3D71 JUMP JUMPDEST JUMPDEST PUSH1 0x20 MUL PUSH1 0x20 ADD ADD MLOAD PUSH2 0x2474 JUMP JUMPDEST DUP12 PUSH2 0x24FB JUMP JUMPDEST PUSH2 0x2136 DUP8 ADDRESS PUSH2 0x2B84 JUMP JUMPDEST PUSH1 0x0 PUSH32 0x0 PUSH20 0xFFFFFFFFFFFFFFFFFFFFFFFFFFFFFFFFFFFFFFFF AND PUSH4 0x70A08231 ADDRESS PUSH1 0x40 MLOAD DUP3 PUSH4 0xFFFFFFFF AND PUSH1 0xE0 SHL DUP2 MSTORE PUSH1 0x4 ADD PUSH2 0x2191 SWAP2 SWAP1 PUSH2 0x36BA JUMP JUMPDEST PUSH1 0x20 PUSH1 0x40 MLOAD DUP1 DUP4 SUB DUP2 DUP7 GAS STATICCALL ISZERO DUP1 ISZERO PUSH2 0x21AE JUMPI RETURNDATASIZE PUSH1 0x0 DUP1 RETURNDATACOPY RETURNDATASIZE PUSH1 0x0 REVERT JUMPDEST POP POP POP POP PUSH1 0x40 MLOAD RETURNDATASIZE PUSH1 0x1F NOT PUSH1 0x1F DUP3 ADD AND DUP3 ADD DUP1 PUSH1 0x40 MSTORE POP DUP2 ADD SWAP1 PUSH2 0x21D2 SWAP2 SWAP1 PUSH2 0x42BF JUMP JUMPDEST SWAP1 POP DUP9 DUP2 LT ISZERO PUSH2 0x2217 JUMPI PUSH1 0x40 MLOAD PUSH32 0x8C379A000000000000000000000000000000000000000000000000000000000 DUP2 MSTORE PUSH1 0x4 ADD PUSH2 0x220E SWAP1 PUSH2 0x428A JUMP JUMPDEST PUSH1 0x40 MLOAD DUP1 SWAP2 SUB SWAP1 REVERT JUMPDEST PUSH32 0x0 PUSH20 0xFFFFFFFFFFFFFFFFFFFFFFFFFFFFFFFFFFFFFFFF AND PUSH4 0x2E1A7D4D DUP3 PUSH1 0x40 MLOAD DUP3 PUSH4 0xFFFFFFFF AND PUSH1 0xE0 SHL DUP2 MSTORE PUSH1 0x4 ADD PUSH2 0x2270 SWAP2 SWAP1 PUSH2 0x3672 JUMP JUMPDEST PUSH1 0x0 PUSH1 0x40 MLOAD DUP1 DUP4 SUB DUP2 PUSH1 0x0 DUP8 DUP1 EXTCODESIZE ISZERO DUP1 ISZERO PUSH2 0x228A JUMPI PUSH1 0x0 DUP1 REVERT JUMPDEST POP GAS CALL ISZERO DUP1 ISZERO PUSH2 0x229E JUMPI RETURNDATASIZE PUSH1 0x0 DUP1 RETURNDATACOPY RETURNDATASIZE PUSH1 0x0 REVERT JUMPDEST POP POP POP POP PUSH2 0x22AC DUP8 DUP3 PUSH2 0x2A84 JUMP JUMPDEST DUP8 PUSH1 0x1 DUP10 MLOAD PUSH2 0x22BB SWAP2 SWAP1 PUSH2 0x4054 JUMP JUMPDEST DUP2 MLOAD DUP2 LT PUSH2 0x22CC JUMPI PUSH2 0x22CB PUSH2 0x3D71 JUMP JUMPDEST JUMPDEST PUSH1 0x20 MUL PUSH1 0x20 ADD ADD MLOAD DUP8 DUP3 SWAP5 POP SWAP5 POP SWAP5 POP POP POP SWAP6 POP SWAP6 POP SWAP6 SWAP3 POP POP POP JUMP JUMPDEST PUSH1 0x60 PUSH1 0x2 DUP3 MLOAD LT ISZERO PUSH2 0x2330 JUMPI PUSH1 0x40 MLOAD PUSH32 0x8C379A000000000000000000000000000000000000000000000000000000000 DUP2 MSTORE PUSH1 0x4 ADD PUSH2 0x2327 SWAP1 PUSH2 0x4338 JUMP JUMPDEST PUSH1 0x40 MLOAD DUP1 SWAP2 SUB SWAP1 REVERT JUMPDEST DUP2 MLOAD PUSH8 0xFFFFFFFFFFFFFFFF DUP2 GT ISZERO PUSH2 0x234B JUMPI PUSH2 0x234A PUSH2 0x3ACC JUMP JUMPDEST JUMPDEST PUSH1 0x40 MLOAD SWAP1 DUP1 DUP3 MSTORE DUP1 PUSH1 0x20 MUL PUSH1 0x20 ADD DUP3 ADD PUSH1 0x40 MSTORE DUP1 ISZERO PUSH2 0x2379 JUMPI DUP2 PUSH1 0x20 ADD PUSH1 0x20 DUP3 MUL DUP1 CALLDATASIZE DUP4 CALLDATACOPY DUP1 DUP3 ADD SWAP2 POP POP SWAP1 POP JUMPDEST POP SWAP1 POP DUP3 DUP2 PUSH1 0x0 DUP2 MLOAD DUP2 LT PUSH2 0x2391 JUMPI PUSH2 0x2390 PUSH2 0x3D71 JUMP JUMPDEST JUMPDEST PUSH1 0x20 MUL PUSH1 0x20 ADD ADD DUP2 DUP2 MSTORE POP POP PUSH1 0x0 JUMPDEST PUSH1 0x1 DUP4 MLOAD PUSH2 0x23AE SWAP2 SWAP1 PUSH2 0x4054 JUMP JUMPDEST DUP2 LT ISZERO PUSH2 0x246C JUMPI PUSH1 0x0 DUP1 PUSH2 0x2403 DUP8 DUP7 DUP6 DUP2 MLOAD DUP2 LT PUSH2 0x23CF JUMPI PUSH2 0x23CE PUSH2 0x3D71 JUMP JUMPDEST JUMPDEST PUSH1 0x20 MUL PUSH1 0x20 ADD ADD MLOAD DUP8 PUSH1 0x1 DUP8 PUSH2 0x23E5 SWAP2 SWAP1 PUSH2 0x398D JUMP JUMPDEST DUP2 MLOAD DUP2 LT PUSH2 0x23F6 JUMPI PUSH2 0x23F5 PUSH2 0x3D71 JUMP JUMPDEST JUMPDEST PUSH1 0x20 MUL PUSH1 0x20 ADD ADD MLOAD PUSH2 0x2F8E JUMP JUMPDEST SWAP2 POP SWAP2 POP PUSH2 0x242C DUP5 DUP5 DUP2 MLOAD DUP2 LT PUSH2 0x241D JUMPI PUSH2 0x241C PUSH2 0x3D71 JUMP JUMPDEST JUMPDEST PUSH1 0x20 MUL PUSH1 0x20 ADD ADD MLOAD DUP4 DUP4 PUSH2 0x3091 JUMP JUMPDEST DUP5 PUSH1 0x1 DUP6 PUSH2 0x243A SWAP2 SWAP1 PUSH2 0x398D JUMP JUMPDEST DUP2 MLOAD DUP2 LT PUSH2 0x244B JUMPI PUSH2 0x244A PUSH2 0x3D71 JUMP JUMPDEST JUMPDEST PUSH1 0x20 MUL PUSH1 0x20 ADD ADD DUP2 DUP2 MSTORE POP POP POP POP DUP1 DUP1 PUSH2 0x2464 SWAP1 PUSH2 0x4358 JUMP JUMPDEST SWAP2 POP POP PUSH2 0x23A0 JUMP JUMPDEST POP SWAP4 SWAP3 POP POP POP JUMP JUMPDEST PUSH1 0x0 DUP4 PUSH20 0xFFFFFFFFFFFFFFFFFFFFFFFFFFFFFFFFFFFFFFFF AND PUSH4 0xE6A43905 DUP5 DUP5 PUSH1 0x40 MLOAD DUP4 PUSH4 0xFFFFFFFF AND PUSH1 0xE0 SHL DUP2 MSTORE PUSH1 0x4 ADD PUSH2 0x24B1 SWAP3 SWAP2 SWAP1 PUSH2 0x43A0 JUMP JUMPDEST PUSH1 0x20 PUSH1 0x40 MLOAD DUP1 DUP4 SUB DUP2 DUP7 GAS STATICCALL ISZERO DUP1 ISZERO PUSH2 0x24CE JUMPI RETURNDATASIZE PUSH1 0x0 DUP1 RETURNDATACOPY RETURNDATASIZE PUSH1 0x0 REVERT JUMPDEST POP POP POP POP PUSH1 0x40 MLOAD RETURNDATASIZE PUSH1 0x1F NOT PUSH1 0x1F DUP3 ADD AND DUP3 ADD DUP1 PUSH1 0x40 MSTORE POP DUP2 ADD SWAP1 PUSH2 0x24F2 SWAP2 SWAP1 PUSH2 0x43DE JUMP JUMPDEST SWAP1 POP SWAP4 SWAP3 POP POP POP JUMP JUMPDEST PUSH1 0x0 DUP1 DUP5 PUSH20 0xFFFFFFFFFFFFFFFFFFFFFFFFFFFFFFFFFFFFFFFF AND PUSH4 0xA9059CBB DUP6 DUP6 PUSH1 0x40 MLOAD PUSH1 0x24 ADD PUSH2 0x252D SWAP3 SWAP2 SWAP1 PUSH2 0x440B JUMP JUMPDEST PUSH1 0x40 MLOAD PUSH1 0x20 DUP2 DUP4 SUB SUB DUP2 MSTORE SWAP1 PUSH1 0x40 MSTORE SWAP1 PUSH1 0xE0 SHL PUSH1 0x20 DUP3 ADD DUP1 MLOAD PUSH28 0xFFFFFFFFFFFFFFFFFFFFFFFFFFFFFFFFFFFFFFFFFFFFFFFFFFFFFFFF DUP4 DUP2 DUP4 AND OR DUP4 MSTORE POP POP POP POP PUSH1 0x40 MLOAD PUSH2 0x257B SWAP2 SWAP1 PUSH2 0x44AE JUMP JUMPDEST PUSH1 0x0 PUSH1 0x40 MLOAD DUP1 DUP4 SUB DUP2 PUSH1 0x0 DUP7 GAS CALL SWAP2 POP POP RETURNDATASIZE DUP1 PUSH1 0x0 DUP2 EQ PUSH2 0x25B8 JUMPI PUSH1 0x40 MLOAD SWAP2 POP PUSH1 0x1F NOT PUSH1 0x3F RETURNDATASIZE ADD AND DUP3 ADD PUSH1 0x40 MSTORE RETURNDATASIZE DUP3 MSTORE RETURNDATASIZE PUSH1 0x0 PUSH1 0x20 DUP5 ADD RETURNDATACOPY PUSH2 0x25BD JUMP JUMPDEST PUSH1 0x60 SWAP2 POP JUMPDEST POP SWAP2 POP SWAP2 POP DUP2 DUP1 ISZERO PUSH2 0x25EB JUMPI POP PUSH1 0x0 DUP2 MLOAD EQ DUP1 PUSH2 0x25EA JUMPI POP DUP1 DUP1 PUSH1 0x20 ADD SWAP1 MLOAD DUP2 ADD SWAP1 PUSH2 0x25E9 SWAP2 SWAP1 PUSH2 0x44FD JUMP JUMPDEST JUMPDEST JUMPDEST PUSH2 0x262A JUMPI PUSH1 0x40 MLOAD PUSH32 0x8C379A000000000000000000000000000000000000000000000000000000000 DUP2 MSTORE PUSH1 0x4 ADD PUSH2 0x2621 SWAP1 PUSH2 0x4576 JUMP JUMPDEST PUSH1 0x40 MLOAD DUP1 SWAP2 SUB SWAP1 REVERT JUMPDEST POP POP POP POP POP JUMP JUMPDEST PUSH1 0x0 DUP1 PUSH1 0x0 DUP1 JUMPDEST PUSH1 0x1 DUP7 MLOAD PUSH2 0x2646 SWAP2 SWAP1 PUSH2 0x4054 JUMP JUMPDEST DUP2 LT ISZERO PUSH2 0x2888 JUMPI PUSH1 0x0 DUP1 DUP8 DUP4 DUP2 MLOAD DUP2 LT PUSH2 0x2663 JUMPI PUSH2 0x2662 PUSH2 0x3D71 JUMP JUMPDEST JUMPDEST PUSH1 0x20 MUL PUSH1 0x20 ADD ADD MLOAD DUP9 PUSH1 0x1 DUP6 PUSH2 0x2679 SWAP2 SWAP1 PUSH2 0x398D JUMP JUMPDEST DUP2 MLOAD DUP2 LT PUSH2 0x268A JUMPI PUSH2 0x2689 PUSH2 0x3D71 JUMP JUMPDEST JUMPDEST PUSH1 0x20 MUL PUSH1 0x20 ADD ADD MLOAD SWAP2 POP SWAP2 POP PUSH1 0x0 PUSH2 0x26A2 DUP4 DUP4 PUSH2 0x3197 JUMP JUMPDEST POP SWAP1 POP PUSH1 0x0 DUP11 PUSH1 0x1 DUP7 PUSH2 0x26B5 SWAP2 SWAP1 PUSH2 0x398D JUMP JUMPDEST DUP2 MLOAD DUP2 LT PUSH2 0x26C6 JUMPI PUSH2 0x26C5 PUSH2 0x3D71 JUMP JUMPDEST JUMPDEST PUSH1 0x20 MUL PUSH1 0x20 ADD ADD MLOAD SWAP1 POP PUSH1 0x0 DUP1 DUP4 PUSH20 0xFFFFFFFFFFFFFFFFFFFFFFFFFFFFFFFFFFFFFFFF AND DUP7 PUSH20 0xFFFFFFFFFFFFFFFFFFFFFFFFFFFFFFFFFFFFFFFF AND EQ PUSH2 0x270E JUMPI DUP3 PUSH1 0x0 PUSH2 0x2712 JUMP JUMPDEST PUSH1 0x0 DUP4 JUMPDEST SWAP2 POP SWAP2 POP PUSH1 0x0 PUSH1 0x2 DUP14 MLOAD PUSH2 0x2726 SWAP2 SWAP1 PUSH2 0x4054 JUMP JUMPDEST DUP9 LT PUSH2 0x2732 JUMPI DUP12 PUSH2 0x2784 JUMP JUMPDEST PUSH2 0x2783 PUSH32 0x0 DUP8 DUP16 PUSH1 0x2 DUP13 PUSH2 0x2765 SWAP2 SWAP1 PUSH2 0x398D JUMP JUMPDEST DUP2 MLOAD DUP2 LT PUSH2 0x2776 JUMPI PUSH2 0x2775 PUSH2 0x3D71 JUMP JUMPDEST JUMPDEST PUSH1 0x20 MUL PUSH1 0x20 ADD ADD MLOAD PUSH2 0x2474 JUMP JUMPDEST JUMPDEST SWAP1 POP PUSH2 0x27B1 PUSH32 0x0 DUP9 DUP9 PUSH2 0x2474 JUMP JUMPDEST PUSH20 0xFFFFFFFFFFFFFFFFFFFFFFFFFFFFFFFFFFFFFFFF AND PUSH4 0x22C0D9F DUP5 DUP5 DUP5 PUSH1 0x0 PUSH8 0xFFFFFFFFFFFFFFFF DUP2 GT ISZERO PUSH2 0x27EA JUMPI PUSH2 0x27E9 PUSH2 0x3ACC JUMP JUMPDEST JUMPDEST PUSH1 0x40 MLOAD SWAP1 DUP1 DUP3 MSTORE DUP1 PUSH1 0x1F ADD PUSH1 0x1F NOT AND PUSH1 0x20 ADD DUP3 ADD PUSH1 0x40 MSTORE DUP1 ISZERO PUSH2 0x281C JUMPI DUP2 PUSH1 0x20 ADD PUSH1 0x1 DUP3 MUL DUP1 CALLDATASIZE DUP4 CALLDATACOPY DUP1 DUP3 ADD SWAP2 POP POP SWAP1 POP JUMPDEST POP PUSH1 0x40 MLOAD DUP6 PUSH4 0xFFFFFFFF AND PUSH1 0xE0 SHL DUP2 MSTORE PUSH1 0x4 ADD PUSH2 0x283C SWAP5 SWAP4 SWAP3 SWAP2 SWAP1 PUSH2 0x45E0 JUMP JUMPDEST PUSH1 0x0 PUSH1 0x40 MLOAD DUP1 DUP4 SUB DUP2 PUSH1 0x0 DUP8 DUP1 EXTCODESIZE ISZERO DUP1 ISZERO PUSH2 0x2856 JUMPI PUSH1 0x0 DUP1 REVERT JUMPDEST POP GAS CALL ISZERO DUP1 ISZERO PUSH2 0x286A JUMPI RETURNDATASIZE PUSH1 0x0 DUP1 RETURNDATACOPY RETURNDATASIZE PUSH1 0x0 REVERT JUMPDEST POP POP POP POP POP POP POP POP POP POP POP DUP1 DUP1 PUSH2 0x2880 SWAP1 PUSH2 0x4358 JUMP JUMPDEST SWAP2 POP POP PUSH2 0x2638 JUMP JUMPDEST POP DUP5 PUSH1 0x1 DUP7 MLOAD PUSH2 0x2898 SWAP2 SWAP1 PUSH2 0x4054 JUMP JUMPDEST DUP2 MLOAD DUP2 LT PUSH2 0x28A9 JUMPI PUSH2 0x28A8 PUSH2 0x3D71 JUMP JUMPDEST JUMPDEST PUSH1 0x20 MUL PUSH1 0x20 ADD ADD MLOAD DUP5 DUP8 PUSH1 0x1 DUP10 MLOAD PUSH2 0x28C1 SWAP2 SWAP1 PUSH2 0x4054 JUMP JUMPDEST DUP2 MLOAD DUP2 LT PUSH2 0x28D2 JUMPI PUSH2 0x28D1 PUSH2 0x3D71 JUMP JUMPDEST JUMPDEST PUSH1 0x20 MUL PUSH1 0x20 ADD ADD MLOAD SWAP3 POP SWAP3 POP SWAP3 POP SWAP4 POP SWAP4 POP SWAP4 SWAP1 POP JUMP JUMPDEST PUSH1 0x60 PUSH1 0x2 DUP3 MLOAD LT ISZERO PUSH2 0x2930 JUMPI PUSH1 0x40 MLOAD PUSH32 0x8C379A000000000000000000000000000000000000000000000000000000000 DUP2 MSTORE PUSH1 0x4 ADD PUSH2 0x2927 SWAP1 PUSH2 0x4338 JUMP JUMPDEST PUSH1 0x40 MLOAD DUP1 SWAP2 SUB SWAP1 REVERT JUMPDEST DUP2 MLOAD PUSH8 0xFFFFFFFFFFFFFFFF DUP2 GT ISZERO PUSH2 0x294B JUMPI PUSH2 0x294A PUSH2 0x3ACC JUMP JUMPDEST JUMPDEST PUSH1 0x40 MLOAD SWAP1 DUP1 DUP3 MSTORE DUP1 PUSH1 0x20 MUL PUSH1 0x20 ADD DUP3 ADD PUSH1 0x40 MSTORE DUP1 ISZERO PUSH2 0x2979 JUMPI DUP2 PUSH1 0x20 ADD PUSH1 0x20 DUP3 MUL DUP1 CALLDATASIZE DUP4 CALLDATACOPY DUP1 DUP3 ADD SWAP2 POP POP SWAP1 POP JUMPDEST POP SWAP1 POP DUP3 DUP2 PUSH1 0x1 DUP4 MLOAD PUSH2 0x298C SWAP2 SWAP1 PUSH2 0x4054 JUMP JUMPDEST DUP2 MLOAD DUP2 LT PUSH2 0x299D JUMPI PUSH2 0x299C PUSH2 0x3D71 JUMP JUMPDEST JUMPDEST PUSH1 0x20 MUL PUSH1 0x20 ADD ADD DUP2 DUP2 MSTORE POP POP PUSH1 0x0 PUSH1 0x1 DUP4 MLOAD PUSH2 0x29B9 SWAP2 SWAP1 PUSH2 0x4054 JUMP JUMPDEST SWAP1 POP JUMPDEST PUSH1 0x0 DUP2 GT ISZERO PUSH2 0x2A7C JUMPI PUSH1 0x0 DUP1 PUSH2 0x2A13 DUP8 DUP7 PUSH1 0x1 DUP7 PUSH2 0x29DA SWAP2 SWAP1 PUSH2 0x4054 JUMP JUMPDEST DUP2 MLOAD DUP2 LT PUSH2 0x29EB JUMPI PUSH2 0x29EA PUSH2 0x3D71 JUMP JUMPDEST JUMPDEST PUSH1 0x20 MUL PUSH1 0x20 ADD ADD MLOAD DUP8 DUP7 DUP2 MLOAD DUP2 LT PUSH2 0x2A06 JUMPI PUSH2 0x2A05 PUSH2 0x3D71 JUMP JUMPDEST JUMPDEST PUSH1 0x20 MUL PUSH1 0x20 ADD ADD MLOAD PUSH2 0x2F8E JUMP JUMPDEST SWAP2 POP SWAP2 POP PUSH2 0x2A3C DUP5 DUP5 DUP2 MLOAD DUP2 LT PUSH2 0x2A2D JUMPI PUSH2 0x2A2C PUSH2 0x3D71 JUMP JUMPDEST JUMPDEST PUSH1 0x20 MUL PUSH1 0x20 ADD ADD MLOAD DUP4 DUP4 PUSH2 0x32C3 JUMP JUMPDEST DUP5 PUSH1 0x1 DUP6 PUSH2 0x2A4A SWAP2 SWAP1 PUSH2 0x4054 JUMP JUMPDEST DUP2 MLOAD DUP2 LT PUSH2 0x2A5B JUMPI PUSH2 0x2A5A PUSH2 0x3D71 JUMP JUMPDEST JUMPDEST PUSH1 0x20 MUL PUSH1 0x20 ADD ADD DUP2 DUP2 MSTORE POP POP POP POP DUP1 DUP1 PUSH2 0x2A74 SWAP1 PUSH2 0x462C JUMP JUMPDEST SWAP2 POP POP PUSH2 0x29BC JUMP JUMPDEST POP SWAP4 SWAP3 POP POP POP JUMP JUMPDEST PUSH1 0x0 DUP3 PUSH20 0xFFFFFFFFFFFFFFFFFFFFFFFFFFFFFFFFFFFFFFFF AND DUP3 PUSH1 0x0 PUSH8 0xFFFFFFFFFFFFFFFF DUP2 GT ISZERO PUSH2 0x2AB9 JUMPI PUSH2 0x2AB8 PUSH2 0x3ACC JUMP JUMPDEST JUMPDEST PUSH1 0x40 MLOAD SWAP1 DUP1 DUP3 MSTORE DUP1 PUSH1 0x1F ADD PUSH1 0x1F NOT AND PUSH1 0x20 ADD DUP3 ADD PUSH1 0x40 MSTORE DUP1 ISZERO PUSH2 0x2AEB JUMPI DUP2 PUSH1 0x20 ADD PUSH1 0x1 DUP3 MUL DUP1 CALLDATASIZE DUP4 CALLDATACOPY DUP1 DUP3 ADD SWAP2 POP POP SWAP1 POP JUMPDEST POP PUSH1 0x40 MLOAD PUSH2 0x2AF9 SWAP2 SWAP1 PUSH2 0x44AE JUMP JUMPDEST PUSH1 0x0 PUSH1 0x40 MLOAD DUP1 DUP4 SUB DUP2 DUP6 DUP8 GAS CALL SWAP3 POP POP POP RETURNDATASIZE DUP1 PUSH1 0x0 DUP2 EQ PUSH2 0x2B36 JUMPI PUSH1 0x40 MLOAD SWAP2 POP PUSH1 0x1F NOT PUSH1 0x3F RETURNDATASIZE ADD AND DUP3 ADD PUSH1 0x40 MSTORE RETURNDATASIZE DUP3 MSTORE RETURNDATASIZE PUSH1 0x0 PUSH1 0x20 DUP5 ADD RETURNDATACOPY PUSH2 0x2B3B JUMP JUMPDEST PUSH1 0x60 SWAP2 POP JUMPDEST POP POP SWAP1 POP DUP1 PUSH2 0x2B7F JUMPI PUSH1 0x40 MLOAD PUSH32 0x8C379A000000000000000000000000000000000000000000000000000000000 DUP2 MSTORE PUSH1 0x4 ADD PUSH2 0x2B76 SWAP1 PUSH2 0x46C7 JUMP JUMPDEST PUSH1 0x40 MLOAD DUP1 SWAP2 SUB SWAP1 REVERT JUMPDEST POP POP POP JUMP JUMPDEST PUSH1 0x0 JUMPDEST PUSH1 0x1 DUP4 MLOAD PUSH2 0x2B95 SWAP2 SWAP1 PUSH2 0x4054 JUMP JUMPDEST DUP2 LT ISZERO PUSH2 0x2F30 JUMPI PUSH1 0x0 DUP1 DUP5 DUP4 DUP2 MLOAD DUP2 LT PUSH2 0x2BB2 JUMPI PUSH2 0x2BB1 PUSH2 0x3D71 JUMP JUMPDEST JUMPDEST PUSH1 0x20 MUL PUSH1 0x20 ADD ADD MLOAD DUP6 PUSH1 0x1 DUP6 PUSH2 0x2BC8 SWAP2 SWAP1 PUSH2 0x398D JUMP JUMPDEST DUP2 MLOAD DUP2 LT PUSH2 0x2BD9 JUMPI PUSH2 0x2BD8 PUSH2 0x3D71 JUMP JUMPDEST JUMPDEST PUSH1 0x20 MUL PUSH1 0x20 ADD ADD MLOAD SWAP2 POP SWAP2 POP PUSH1 0x0 PUSH2 0x2BF1 DUP4 DUP4 PUSH2 0x3197 JUMP JUMPDEST POP SWAP1 POP PUSH1 0x0 PUSH2 0x2C21 PUSH32 0x0 DUP6 DUP6 PUSH2 0x2474 JUMP JUMPDEST SWAP1 POP PUSH1 0x0 DUP1 PUSH1 0x0 DUP1 DUP5 PUSH20 0xFFFFFFFFFFFFFFFFFFFFFFFFFFFFFFFFFFFFFFFF AND PUSH4 0x902F1AC PUSH1 0x40 MLOAD DUP2 PUSH4 0xFFFFFFFF AND PUSH1 0xE0 SHL DUP2 MSTORE PUSH1 0x4 ADD PUSH1 0x60 PUSH1 0x40 MLOAD DUP1 DUP4 SUB DUP2 DUP7 GAS STATICCALL ISZERO DUP1 ISZERO PUSH2 0x2C74 JUMPI RETURNDATASIZE PUSH1 0x0 DUP1 RETURNDATACOPY RETURNDATASIZE PUSH1 0x0 REVERT JUMPDEST POP POP POP POP PUSH1 0x40 MLOAD RETURNDATASIZE PUSH1 0x1F NOT PUSH1 0x1F DUP3 ADD AND DUP3 ADD DUP1 PUSH1 0x40 MSTORE POP DUP2 ADD SWAP1 PUSH2 0x2C98 SWAP2 SWAP1 PUSH2 0x4769 JUMP JUMPDEST POP PUSH14 0xFFFFFFFFFFFFFFFFFFFFFFFFFFFF AND SWAP2 POP PUSH14 0xFFFFFFFFFFFFFFFFFFFFFFFFFFFF AND SWAP2 POP PUSH1 0x0 DUP1 DUP8 PUSH20 0xFFFFFFFFFFFFFFFFFFFFFFFFFFFFFFFFFFFFFFFF AND DUP11 PUSH20 0xFFFFFFFFFFFFFFFFFFFFFFFFFFFFFFFFFFFFFFFF AND EQ PUSH2 0x2CFA JUMPI DUP3 DUP5 PUSH2 0x2CFD JUMP JUMPDEST DUP4 DUP4 JUMPDEST SWAP2 POP SWAP2 POP PUSH2 0x2D8D DUP3 DUP12 PUSH20 0xFFFFFFFFFFFFFFFFFFFFFFFFFFFFFFFFFFFFFFFF AND PUSH4 0x70A08231 DUP11 PUSH1 0x40 MLOAD DUP3 PUSH4 0xFFFFFFFF AND PUSH1 0xE0 SHL DUP2 MSTORE PUSH1 0x4 ADD PUSH2 0x2D3E SWAP2 SWAP1 PUSH2 0x36BA JUMP JUMPDEST PUSH1 0x20 PUSH1 0x40 MLOAD DUP1 DUP4 SUB DUP2 DUP7 GAS STATICCALL ISZERO DUP1 ISZERO PUSH2 0x2D5B JUMPI RETURNDATASIZE PUSH1 0x0 DUP1 RETURNDATACOPY RETURNDATASIZE PUSH1 0x0 REVERT JUMPDEST POP POP POP POP PUSH1 0x40 MLOAD RETURNDATASIZE PUSH1 0x1F NOT PUSH1 0x1F DUP3 ADD AND DUP3 ADD DUP1 PUSH1 0x40 MSTORE POP DUP2 ADD SWAP1 PUSH2 0x2D7F SWAP2 SWAP1 PUSH2 0x42BF JUMP JUMPDEST PUSH2 0x2F35 SWAP1 SWAP2 SWAP1 PUSH4 0xFFFFFFFF AND JUMP JUMPDEST SWAP6 POP PUSH2 0x2D9A DUP7 DUP4 DUP4 PUSH2 0x3091 JUMP JUMPDEST SWAP5 POP POP POP POP POP PUSH1 0x0 DUP1 DUP6 PUSH20 0xFFFFFFFFFFFFFFFFFFFFFFFFFFFFFFFFFFFFFFFF AND DUP9 PUSH20 0xFFFFFFFFFFFFFFFFFFFFFFFFFFFFFFFFFFFFFFFF AND EQ PUSH2 0x2DDE JUMPI DUP3 PUSH1 0x0 PUSH2 0x2DE2 JUMP JUMPDEST PUSH1 0x0 DUP4 JUMPDEST SWAP2 POP SWAP2 POP PUSH1 0x0 PUSH1 0x2 DUP13 MLOAD PUSH2 0x2DF6 SWAP2 SWAP1 PUSH2 0x4054 JUMP JUMPDEST DUP11 LT PUSH2 0x2E02 JUMPI DUP11 PUSH2 0x2E54 JUMP JUMPDEST PUSH2 0x2E53 PUSH32 0x0 DUP10 DUP15 PUSH1 0x2 DUP15 PUSH2 0x2E35 SWAP2 SWAP1 PUSH2 0x398D JUMP JUMPDEST DUP2 MLOAD DUP2 LT PUSH2 0x2E46 JUMPI PUSH2 0x2E45 PUSH2 0x3D71 JUMP JUMPDEST JUMPDEST PUSH1 0x20 MUL PUSH1 0x20 ADD ADD MLOAD PUSH2 0x2474 JUMP JUMPDEST JUMPDEST SWAP1 POP DUP6 PUSH20 0xFFFFFFFFFFFFFFFFFFFFFFFFFFFFFFFFFFFFFFFF AND PUSH4 0x22C0D9F DUP5 DUP5 DUP5 PUSH1 0x0 PUSH8 0xFFFFFFFFFFFFFFFF DUP2 GT ISZERO PUSH2 0x2E90 JUMPI PUSH2 0x2E8F PUSH2 0x3ACC JUMP JUMPDEST JUMPDEST PUSH1 0x40 MLOAD SWAP1 DUP1 DUP3 MSTORE DUP1 PUSH1 0x1F ADD PUSH1 0x1F NOT AND PUSH1 0x20 ADD DUP3 ADD PUSH1 0x40 MSTORE DUP1 ISZERO PUSH2 0x2EC2 JUMPI DUP2 PUSH1 0x20 ADD PUSH1 0x1 DUP3 MUL DUP1 CALLDATASIZE DUP4 CALLDATACOPY DUP1 DUP3 ADD SWAP2 POP POP SWAP1 POP JUMPDEST POP PUSH1 0x40 MLOAD DUP6 PUSH4 0xFFFFFFFF AND PUSH1 0xE0 SHL DUP2 MSTORE PUSH1 0x4 ADD PUSH2 0x2EE2 SWAP5 SWAP4 SWAP3 SWAP2 SWAP1 PUSH2 0x45E0 JUMP JUMPDEST PUSH1 0x0 PUSH1 0x40 MLOAD DUP1 DUP4 SUB DUP2 PUSH1 0x0 DUP8 DUP1 EXTCODESIZE ISZERO DUP1 ISZERO PUSH2 0x2EFC JUMPI PUSH1 0x0 DUP1 REVERT JUMPDEST POP GAS CALL ISZERO DUP1 ISZERO PUSH2 0x2F10 JUMPI RETURNDATASIZE PUSH1 0x0 DUP1 RETURNDATACOPY RETURNDATASIZE PUSH1 0x0 REVERT JUMPDEST POP POP POP POP POP POP POP POP POP POP POP POP POP DUP1 DUP1 PUSH2 0x2F28 SWAP1 PUSH2 0x4358 JUMP JUMPDEST SWAP2 POP POP PUSH2 0x2B87 JUMP JUMPDEST POP POP POP JUMP JUMPDEST PUSH1 0x0 DUP3 DUP3 DUP5 PUSH2 0x2F44 SWAP2 SWAP1 PUSH2 0x4054 JUMP JUMPDEST SWAP2 POP DUP2 GT ISZERO PUSH2 0x2F88 JUMPI PUSH1 0x40 MLOAD PUSH32 0x8C379A000000000000000000000000000000000000000000000000000000000 DUP2 MSTORE PUSH1 0x4 ADD PUSH2 0x2F7F SWAP1 PUSH2 0x4808 JUMP JUMPDEST PUSH1 0x40 MLOAD DUP1 SWAP2 SUB SWAP1 REVERT JUMPDEST SWAP3 SWAP2 POP POP JUMP JUMPDEST PUSH1 0x0 DUP1 PUSH1 0x0 PUSH2 0x2F9D DUP6 DUP6 PUSH2 0x3197 JUMP JUMPDEST POP SWAP1 POP PUSH1 0x0 DUP1 PUSH2 0x2FAE DUP9 DUP9 DUP9 PUSH2 0x2474 JUMP JUMPDEST PUSH20 0xFFFFFFFFFFFFFFFFFFFFFFFFFFFFFFFFFFFFFFFF AND PUSH4 0x902F1AC PUSH1 0x40 MLOAD DUP2 PUSH4 0xFFFFFFFF AND PUSH1 0xE0 SHL DUP2 MSTORE PUSH1 0x4 ADD PUSH1 0x60 PUSH1 0x40 MLOAD DUP1 DUP4 SUB DUP2 DUP7 GAS STATICCALL ISZERO DUP1 ISZERO PUSH2 0x2FF8 JUMPI RETURNDATASIZE PUSH1 0x0 DUP1 RETURNDATACOPY RETURNDATASIZE PUSH1 0x0 REVERT JUMPDEST POP POP POP POP PUSH1 0x40 MLOAD RETURNDATASIZE PUSH1 0x1F NOT PUSH1 0x1F DUP3 ADD AND DUP3 ADD DUP1 PUSH1 0x40 MSTORE POP DUP2 ADD SWAP1 PUSH2 0x301C SWAP2 SWAP1 PUSH2 0x4769 JUMP JUMPDEST POP PUSH14 0xFFFFFFFFFFFFFFFFFFFFFFFFFFFF AND SWAP2 POP PUSH14 0xFFFFFFFFFFFFFFFFFFFFFFFFFFFF AND SWAP2 POP DUP3 PUSH20 0xFFFFFFFFFFFFFFFFFFFFFFFFFFFFFFFFFFFFFFFF AND DUP8 PUSH20 0xFFFFFFFFFFFFFFFFFFFFFFFFFFFFFFFFFFFFFFFF AND EQ PUSH2 0x307B JUMPI DUP1 DUP3 PUSH2 0x307E JUMP JUMPDEST DUP2 DUP2 JUMPDEST DUP1 SWAP6 POP DUP2 SWAP7 POP POP POP POP POP POP SWAP4 POP SWAP4 SWAP2 POP POP JUMP JUMPDEST PUSH1 0x0 DUP1 DUP5 GT PUSH2 0x30D5 JUMPI PUSH1 0x40 MLOAD PUSH32 0x8C379A000000000000000000000000000000000000000000000000000000000 DUP2 MSTORE PUSH1 0x4 ADD PUSH2 0x30CC SWAP1 PUSH2 0x489A JUMP JUMPDEST PUSH1 0x40 MLOAD DUP1 SWAP2 SUB SWAP1 REVERT JUMPDEST PUSH1 0x0 DUP4 GT DUP1 ISZERO PUSH2 0x30E5 JUMPI POP PUSH1 0x0 DUP3 GT JUMPDEST PUSH2 0x3124 JUMPI PUSH1 0x40 MLOAD PUSH32 0x8C379A000000000000000000000000000000000000000000000000000000000 DUP2 MSTORE PUSH1 0x4 ADD PUSH2 0x311B SWAP1 PUSH2 0x492C JUMP JUMPDEST PUSH1 0x40 MLOAD DUP1 SWAP2 SUB SWAP1 REVERT JUMPDEST PUSH1 0x0 PUSH2 0x313B PUSH2 0x3E5 DUP7 PUSH2 0x33D6 SWAP1 SWAP2 SWAP1 PUSH4 0xFFFFFFFF AND JUMP JUMPDEST SWAP1 POP PUSH1 0x0 PUSH2 0x3152 DUP5 DUP4 PUSH2 0x33D6 SWAP1 SWAP2 SWAP1 PUSH4 0xFFFFFFFF AND JUMP JUMPDEST SWAP1 POP PUSH1 0x0 PUSH2 0x317D DUP4 PUSH2 0x316F PUSH2 0x3E8 DUP10 PUSH2 0x33D6 SWAP1 SWAP2 SWAP1 PUSH4 0xFFFFFFFF AND JUMP JUMPDEST PUSH2 0x3443 SWAP1 SWAP2 SWAP1 PUSH4 0xFFFFFFFF AND JUMP JUMPDEST SWAP1 POP DUP1 DUP3 PUSH2 0x318B SWAP2 SWAP1 PUSH2 0x497B JUMP JUMPDEST SWAP4 POP POP POP POP SWAP4 SWAP3 POP POP POP JUMP JUMPDEST PUSH1 0x0 DUP1 DUP3 PUSH20 0xFFFFFFFFFFFFFFFFFFFFFFFFFFFFFFFFFFFFFFFF AND DUP5 PUSH20 0xFFFFFFFFFFFFFFFFFFFFFFFFFFFFFFFFFFFFFFFF AND SUB PUSH2 0x3208 JUMPI PUSH1 0x40 MLOAD PUSH32 0x8C379A000000000000000000000000000000000000000000000000000000000 DUP2 MSTORE PUSH1 0x4 ADD PUSH2 0x31FF SWAP1 PUSH2 0x4A1E JUMP JUMPDEST PUSH1 0x40 MLOAD DUP1 SWAP2 SUB SWAP1 REVERT JUMPDEST DUP3 PUSH20 0xFFFFFFFFFFFFFFFFFFFFFFFFFFFFFFFFFFFFFFFF AND DUP5 PUSH20 0xFFFFFFFFFFFFFFFFFFFFFFFFFFFFFFFFFFFFFFFF AND LT PUSH2 0x3242 JUMPI DUP3 DUP5 PUSH2 0x3245 JUMP JUMPDEST DUP4 DUP4 JUMPDEST DUP1 SWAP3 POP DUP2 SWAP4 POP POP POP PUSH1 0x0 PUSH20 0xFFFFFFFFFFFFFFFFFFFFFFFFFFFFFFFFFFFFFFFF AND DUP3 PUSH20 0xFFFFFFFFFFFFFFFFFFFFFFFFFFFFFFFFFFFFFFFF AND SUB PUSH2 0x32BC JUMPI PUSH1 0x40 MLOAD PUSH32 0x8C379A000000000000000000000000000000000000000000000000000000000 DUP2 MSTORE PUSH1 0x4 ADD PUSH2 0x32B3 SWAP1 PUSH2 0x4A8A JUMP JUMPDEST PUSH1 0x40 MLOAD DUP1 SWAP2 SUB SWAP1 REVERT JUMPDEST SWAP3 POP SWAP3 SWAP1 POP JUMP JUMPDEST PUSH1 0x0 DUP1 DUP5 GT PUSH2 0x3307 JUMPI PUSH1 0x40 MLOAD PUSH32 0x8C379A000000000000000000000000000000000000000000000000000000000 DUP2 MSTORE PUSH1 0x4 ADD PUSH2 0x32FE SWAP1 PUSH2 0x4B1C JUMP JUMPDEST PUSH1 0x40 MLOAD DUP1 SWAP2 SUB SWAP1 REVERT JUMPDEST PUSH1 0x0 DUP4 GT DUP1 ISZERO PUSH2 0x3317 JUMPI POP PUSH1 0x0 DUP3 GT JUMPDEST PUSH2 0x3356 JUMPI PUSH1 0x40 MLOAD PUSH32 0x8C379A000000000000000000000000000000000000000000000000000000000 DUP2 MSTORE PUSH1 0x4 ADD PUSH2 0x334D SWAP1 PUSH2 0x492C JUMP JUMPDEST PUSH1 0x40 MLOAD DUP1 SWAP2 SUB SWAP1 REVERT JUMPDEST PUSH1 0x0 PUSH2 0x337F PUSH2 0x3E8 PUSH2 0x3371 DUP8 DUP8 PUSH2 0x33D6 SWAP1 SWAP2 SWAP1 PUSH4 0xFFFFFFFF AND JUMP JUMPDEST PUSH2 0x33D6 SWAP1 SWAP2 SWAP1 PUSH4 0xFFFFFFFF AND JUMP JUMPDEST SWAP1 POP PUSH1 0x0 PUSH2 0x33AA PUSH2 0x3E5 PUSH2 0x339C DUP9 DUP8 PUSH2 0x2F35 SWAP1 SWAP2 SWAP1 PUSH4 0xFFFFFFFF AND JUMP JUMPDEST PUSH2 0x33D6 SWAP1 SWAP2 SWAP1 PUSH4 0xFFFFFFFF AND JUMP JUMPDEST SWAP1 POP PUSH2 0x33CB PUSH1 0x1 DUP3 DUP5 PUSH2 0x33BD SWAP2 SWAP1 PUSH2 0x497B JUMP JUMPDEST PUSH2 0x3443 SWAP1 SWAP2 SWAP1 PUSH4 0xFFFFFFFF AND JUMP JUMPDEST SWAP3 POP POP POP SWAP4 SWAP3 POP POP POP JUMP JUMPDEST PUSH1 0x0 DUP1 DUP3 EQ DUP1 PUSH2 0x33FE JUMPI POP DUP3 DUP3 DUP4 DUP6 PUSH2 0x33EF SWAP2 SWAP1 PUSH2 0x4B3C JUMP JUMPDEST SWAP3 POP DUP3 PUSH2 0x33FC SWAP2 SWAP1 PUSH2 0x497B JUMP JUMPDEST EQ JUMPDEST PUSH2 0x343D JUMPI PUSH1 0x40 MLOAD PUSH32 0x8C379A000000000000000000000000000000000000000000000000000000000 DUP2 MSTORE PUSH1 0x4 ADD PUSH2 0x3434 SWAP1 PUSH2 0x4BE2 JUMP JUMPDEST PUSH1 0x40 MLOAD DUP1 SWAP2 SUB SWAP1 REVERT JUMPDEST SWAP3 SWAP2 POP POP JUMP JUMPDEST PUSH1 0x0 DUP3 DUP3 DUP5 PUSH2 0x3452 SWAP2 SWAP1 PUSH2 0x398D JUMP JUMPDEST SWAP2 POP DUP2 LT ISZERO PUSH2 0x3496 JUMPI PUSH1 0x40 MLOAD PUSH32 0x8C379A000000000000000000000000000000000000000000000000000000000 DUP2 MSTORE PUSH1 0x4 ADD PUSH2 0x348D SWAP1 PUSH2 0x4C4E JUMP JUMPDEST PUSH1 0x40 MLOAD DUP1 SWAP2 SUB SWAP1 REVERT JUMPDEST SWAP3 SWAP2 POP POP JUMP JUMPDEST PUSH1 0x0 PUSH1 0x40 MLOAD SWAP1 POP SWAP1 JUMP JUMPDEST PUSH1 0x0 DUP1 REVERT JUMPDEST PUSH1 0x0 DUP1 REVERT JUMPDEST PUSH1 0x0 PUSH20 0xFFFFFFFFFFFFFFFFFFFFFFFFFFFFFFFFFFFFFFFF DUP3 AND SWAP1 POP SWAP2 SWAP1 POP JUMP JUMPDEST PUSH1 0x0 PUSH2 0x34DB DUP3 PUSH2 0x34B0 JUMP JUMPDEST SWAP1 POP SWAP2 SWAP1 POP JUMP JUMPDEST PUSH2 0x34EB DUP2 PUSH2 0x34D0 JUMP JUMPDEST DUP2 EQ PUSH2 0x34F6 JUMPI PUSH1 0x0 DUP1 REVERT JUMPDEST POP JUMP JUMPDEST PUSH1 0x0 DUP2 CALLDATALOAD SWAP1 POP PUSH2 0x3508 DUP2 PUSH2 0x34E2 JUMP JUMPDEST SWAP3 SWAP2 POP POP JUMP JUMPDEST PUSH1 0x0 DUP2 SWAP1 POP SWAP2 SWAP1 POP JUMP JUMPDEST PUSH2 0x3521 DUP2 PUSH2 0x350E JUMP JUMPDEST DUP2 EQ PUSH2 0x352C JUMPI PUSH1 0x0 DUP1 REVERT JUMPDEST POP JUMP JUMPDEST PUSH1 0x0 DUP2 CALLDATALOAD SWAP1 POP PUSH2 0x353E DUP2 PUSH2 0x3518 JUMP JUMPDEST SWAP3 SWAP2 POP POP JUMP JUMPDEST PUSH1 0x0 DUP1 REVERT JUMPDEST PUSH1 0x0 DUP1 REVERT JUMPDEST PUSH1 0x0 DUP1 REVERT JUMPDEST PUSH1 0x0 DUP1 DUP4 PUSH1 0x1F DUP5 ADD SLT PUSH2 0x3569 JUMPI PUSH2 0x3568 PUSH2 0x3544 JUMP JUMPDEST JUMPDEST DUP3 CALLDATALOAD SWAP1 POP PUSH8 0xFFFFFFFFFFFFFFFF DUP2 GT ISZERO PUSH2 0x3586 JUMPI PUSH2 0x3585 PUSH2 0x3549 JUMP JUMPDEST JUMPDEST PUSH1 0x20 DUP4 ADD SWAP2 POP DUP4 PUSH1 0x1 DUP3 MUL DUP4 ADD GT ISZERO PUSH2 0x35A2 JUMPI PUSH2 0x35A1 PUSH2 0x354E JUMP JUMPDEST JUMPDEST SWAP3 POP SWAP3 SWAP1 POP JUMP JUMPDEST PUSH1 0x0 DUP1 PUSH1 0x0 DUP1 PUSH1 0x60 DUP6 DUP8 SUB SLT ISZERO PUSH2 0x35C3 JUMPI PUSH2 0x35C2 PUSH2 0x34A6 JUMP JUMPDEST JUMPDEST PUSH1 0x0 PUSH2 0x35D1 DUP8 DUP3 DUP9 ADD PUSH2 0x34F9 JUMP JUMPDEST SWAP5 POP POP PUSH1 0x20 PUSH2 0x35E2 DUP8 DUP3 DUP9 ADD PUSH2 0x352F JUMP JUMPDEST SWAP4 POP POP PUSH1 0x40 DUP6 ADD CALLDATALOAD PUSH8 0xFFFFFFFFFFFFFFFF DUP2 GT ISZERO PUSH2 0x3603 JUMPI PUSH2 0x3602 PUSH2 0x34AB JUMP JUMPDEST JUMPDEST PUSH2 0x360F DUP8 DUP3 DUP9 ADD PUSH2 0x3553 JUMP JUMPDEST SWAP3 POP SWAP3 POP POP SWAP3 SWAP6 SWAP2 SWAP5 POP SWAP3 POP JUMP JUMPDEST PUSH2 0x3626 DUP2 PUSH2 0x34D0 JUMP JUMPDEST DUP3 MSTORE POP POP JUMP JUMPDEST PUSH2 0x3635 DUP2 PUSH2 0x350E JUMP JUMPDEST DUP3 MSTORE POP POP JUMP JUMPDEST PUSH1 0x0 PUSH1 0x60 DUP3 ADD SWAP1 POP PUSH2 0x3650 PUSH1 0x0 DUP4 ADD DUP7 PUSH2 0x361D JUMP JUMPDEST PUSH2 0x365D PUSH1 0x20 DUP4 ADD DUP6 PUSH2 0x361D JUMP JUMPDEST PUSH2 0x366A PUSH1 0x40 DUP4 ADD DUP5 PUSH2 0x362C JUMP JUMPDEST SWAP5 SWAP4 POP POP POP POP JUMP JUMPDEST PUSH1 0x0 PUSH1 0x20 DUP3 ADD SWAP1 POP PUSH2 0x3687 PUSH1 0x0 DUP4 ADD DUP5 PUSH2 0x362C JUMP JUMPDEST SWAP3 SWAP2 POP POP JUMP JUMPDEST PUSH1 0x0 PUSH1 0x20 DUP3 DUP5 SUB SLT ISZERO PUSH2 0x36A3 JUMPI PUSH2 0x36A2 PUSH2 0x34A6 JUMP JUMPDEST JUMPDEST PUSH1 0x0 PUSH2 0x36B1 DUP5 DUP3 DUP6 ADD PUSH2 0x34F9 JUMP JUMPDEST SWAP2 POP POP SWAP3 SWAP2 POP POP JUMP JUMPDEST PUSH1 0x0 PUSH1 0x20 DUP3 ADD SWAP1 POP PUSH2 0x36CF PUSH1 0x0 DUP4 ADD DUP5 PUSH2 0x361D JUMP JUMPDEST SWAP3 SWAP2 POP POP JUMP JUMPDEST PUSH1 0x0 DUP3 DUP3 MSTORE PUSH1 0x20 DUP3 ADD SWAP1 POP SWAP3 SWAP2 POP POP JUMP JUMPDEST PUSH32 0x4D50433A206F6E6C79206D706300000000000000000000000000000000000000 PUSH1 0x0 DUP3 ADD MSTORE POP JUMP JUMPDEST PUSH1 0x0 PUSH2 0x371C PUSH1 0xD DUP4 PUSH2 0x36D5 JUMP JUMPDEST SWAP2 POP PUSH2 0x3727 DUP3 PUSH2 0x36E6 JUMP JUMPDEST PUSH1 0x20 DUP3 ADD SWAP1 POP SWAP2 SWAP1 POP JUMP JUMPDEST PUSH1 0x0 PUSH1 0x20 DUP3 ADD SWAP1 POP DUP2 DUP2 SUB PUSH1 0x0 DUP4 ADD MSTORE PUSH2 0x374B DUP2 PUSH2 0x370F JUMP JUMPDEST SWAP1 POP SWAP2 SWAP1 POP JUMP JUMPDEST PUSH1 0x0 DUP1 REVERT JUMPDEST PUSH1 0x0 DUP1 REVERT JUMPDEST PUSH1 0x0 DUP1 DUP6 DUP6 GT ISZERO PUSH2 0x3770 JUMPI PUSH2 0x376F PUSH2 0x3752 JUMP JUMPDEST JUMPDEST DUP4 DUP7 GT ISZERO PUSH2 0x3781 JUMPI PUSH2 0x3780 PUSH2 0x3757 JUMP JUMPDEST JUMPDEST PUSH1 0x1 DUP6 MUL DUP4 ADD SWAP2 POP DUP5 DUP7 SUB SWAP1 POP SWAP5 POP SWAP5 SWAP3 POP POP POP JUMP JUMPDEST PUSH1 0x0 DUP3 SWAP1 POP SWAP3 SWAP2 POP POP JUMP JUMPDEST PUSH1 0x0 PUSH32 0xFFFFFFFF00000000000000000000000000000000000000000000000000000000 DUP3 AND SWAP1 POP SWAP2 SWAP1 POP JUMP JUMPDEST PUSH1 0x0 DUP3 DUP3 SHL SWAP1 POP SWAP3 SWAP2 POP POP JUMP JUMPDEST PUSH1 0x0 PUSH2 0x37E7 DUP4 DUP4 PUSH2 0x3797 JUMP JUMPDEST DUP3 PUSH2 0x37F2 DUP2 CALLDATALOAD PUSH2 0x37A2 JUMP JUMPDEST SWAP3 POP PUSH1 0x4 DUP3 LT ISZERO PUSH2 0x3832 JUMPI PUSH2 0x382D PUSH32 0xFFFFFFFF00000000000000000000000000000000000000000000000000000000 DUP4 PUSH1 0x4 SUB PUSH1 0x8 MUL PUSH2 0x37CE JUMP JUMPDEST DUP4 AND SWAP3 POP JUMPDEST POP POP SWAP3 SWAP2 POP POP JUMP JUMPDEST PUSH32 0x4D756C7469636861696E547261646550726F78793A2054686973207472616465 PUSH1 0x0 DUP3 ADD MSTORE PUSH32 0x50726F7879206E6F7420737570706F727420746F20706172736520706172616D PUSH1 0x20 DUP3 ADD MSTORE PUSH32 0x2064617461210000000000000000000000000000000000000000000000000000 PUSH1 0x40 DUP3 ADD MSTORE POP JUMP JUMPDEST PUSH1 0x0 PUSH2 0x38BC PUSH1 0x46 DUP4 PUSH2 0x36D5 JUMP JUMPDEST SWAP2 POP PUSH2 0x38C7 DUP3 PUSH2 0x383A JUMP JUMPDEST PUSH1 0x60 DUP3 ADD SWAP1 POP SWAP2 SWAP1 POP JUMP JUMPDEST PUSH1 0x0 PUSH1 0x20 DUP3 ADD SWAP1 POP DUP2 DUP2 SUB PUSH1 0x0 DUP4 ADD MSTORE PUSH2 0x38EB DUP2 PUSH2 0x38AF JUMP JUMPDEST SWAP1 POP SWAP2 SWAP1 POP JUMP JUMPDEST PUSH32 0x4D50433A206D706320697320746865207A65726F206164647265737300000000 PUSH1 0x0 DUP3 ADD MSTORE POP JUMP JUMPDEST PUSH1 0x0 PUSH2 0x3928 PUSH1 0x1C DUP4 PUSH2 0x36D5 JUMP JUMPDEST SWAP2 POP PUSH2 0x3933 DUP3 PUSH2 0x38F2 JUMP JUMPDEST PUSH1 0x20 DUP3 ADD SWAP1 POP SWAP2 SWAP1 POP JUMP JUMPDEST PUSH1 0x0 PUSH1 0x20 DUP3 ADD SWAP1 POP DUP2 DUP2 SUB PUSH1 0x0 DUP4 ADD MSTORE PUSH2 0x3957 DUP2 PUSH2 0x391B JUMP JUMPDEST SWAP1 POP SWAP2 SWAP1 POP JUMP JUMPDEST PUSH32 0x4E487B7100000000000000000000000000000000000000000000000000000000 PUSH1 0x0 MSTORE PUSH1 0x11 PUSH1 0x4 MSTORE PUSH1 0x24 PUSH1 0x0 REVERT JUMPDEST PUSH1 0x0 PUSH2 0x3998 DUP3 PUSH2 0x350E JUMP JUMPDEST SWAP2 POP PUSH2 0x39A3 DUP4 PUSH2 0x350E JUMP JUMPDEST SWAP3 POP DUP3 PUSH32 0xFFFFFFFFFFFFFFFFFFFFFFFFFFFFFFFFFFFFFFFFFFFFFFFFFFFFFFFFFFFFFFFF SUB DUP3 GT ISZERO PUSH2 0x39D8 JUMPI PUSH2 0x39D7 PUSH2 0x395E JUMP JUMPDEST JUMPDEST DUP3 DUP3 ADD SWAP1 POP SWAP3 SWAP2 POP POP JUMP JUMPDEST PUSH32 0x4D50433A206F6E6C792070656E64696E67206D70630000000000000000000000 PUSH1 0x0 DUP3 ADD MSTORE POP JUMP JUMPDEST PUSH1 0x0 PUSH2 0x3A19 PUSH1 0x15 DUP4 PUSH2 0x36D5 JUMP JUMPDEST SWAP2 POP PUSH2 0x3A24 DUP3 PUSH2 0x39E3 JUMP JUMPDEST PUSH1 0x20 DUP3 ADD SWAP1 POP SWAP2 SWAP1 POP JUMP JUMPDEST PUSH1 0x0 PUSH1 0x20 DUP3 ADD SWAP1 POP DUP2 DUP2 SUB PUSH1 0x0 DUP4 ADD MSTORE PUSH2 0x3A48 DUP2 PUSH2 0x3A0C JUMP JUMPDEST SWAP1 POP SWAP2 SWAP1 POP JUMP JUMPDEST PUSH32 0x4D50433A2074696D65206265666F72652064656C61794D504300000000000000 PUSH1 0x0 DUP3 ADD MSTORE POP JUMP JUMPDEST PUSH1 0x0 PUSH2 0x3A85 PUSH1 0x19 DUP4 PUSH2 0x36D5 JUMP JUMPDEST SWAP2 POP PUSH2 0x3A90 DUP3 PUSH2 0x3A4F JUMP JUMPDEST PUSH1 0x20 DUP3 ADD SWAP1 POP SWAP2 SWAP1 POP JUMP JUMPDEST PUSH1 0x0 PUSH1 0x20 DUP3 ADD SWAP1 POP DUP2 DUP2 SUB PUSH1 0x0 DUP4 ADD MSTORE PUSH2 0x3AB4 DUP2 PUSH2 0x3A78 JUMP JUMPDEST SWAP1 POP SWAP2 SWAP1 POP JUMP JUMPDEST PUSH1 0x0 PUSH1 0x1F NOT PUSH1 0x1F DUP4 ADD AND SWAP1 POP SWAP2 SWAP1 POP JUMP JUMPDEST PUSH32 0x4E487B7100000000000000000000000000000000000000000000000000000000 PUSH1 0x0 MSTORE PUSH1 0x41 PUSH1 0x4 MSTORE PUSH1 0x24 PUSH1 0x0 REVERT JUMPDEST PUSH2 0x3B04 DUP3 PUSH2 0x3ABB JUMP JUMPDEST DUP2 ADD DUP2 DUP2 LT PUSH8 0xFFFFFFFFFFFFFFFF DUP3 GT OR ISZERO PUSH2 0x3B23 JUMPI PUSH2 0x3B22 PUSH2 0x3ACC JUMP JUMPDEST JUMPDEST DUP1 PUSH1 0x40 MSTORE POP POP POP JUMP JUMPDEST PUSH1 0x0 PUSH2 0x3B36 PUSH2 0x349C JUMP JUMPDEST SWAP1 POP PUSH2 0x3B42 DUP3 DUP3 PUSH2 0x3AFB JUMP JUMPDEST SWAP2 SWAP1 POP JUMP JUMPDEST PUSH1 0x0 PUSH8 0xFFFFFFFFFFFFFFFF DUP3 GT ISZERO PUSH2 0x3B62 JUMPI PUSH2 0x3B61 PUSH2 0x3ACC JUMP JUMPDEST JUMPDEST PUSH1 0x20 DUP3 MUL SWAP1 POP PUSH1 0x20 DUP2 ADD SWAP1 POP SWAP2 SWAP1 POP JUMP JUMPDEST PUSH1 0x0 PUSH2 0x3B86 PUSH2 0x3B81 DUP5 PUSH2 0x3B47 JUMP JUMPDEST PUSH2 0x3B2C JUMP JUMPDEST SWAP1 POP DUP1 DUP4 DUP3 MSTORE PUSH1 0x20 DUP3 ADD SWAP1 POP PUSH1 0x20 DUP5 MUL DUP4 ADD DUP6 DUP2 GT ISZERO PUSH2 0x3BA9 JUMPI PUSH2 0x3BA8 PUSH2 0x354E JUMP JUMPDEST JUMPDEST DUP4 JUMPDEST DUP2 DUP2 LT ISZERO PUSH2 0x3BD2 JUMPI DUP1 PUSH2 0x3BBE DUP9 DUP3 PUSH2 0x34F9 JUMP JUMPDEST DUP5 MSTORE PUSH1 0x20 DUP5 ADD SWAP4 POP POP PUSH1 0x20 DUP2 ADD SWAP1 POP PUSH2 0x3BAB JUMP JUMPDEST POP POP POP SWAP4 SWAP3 POP POP POP JUMP JUMPDEST PUSH1 0x0 DUP3 PUSH1 0x1F DUP4 ADD SLT PUSH2 0x3BF1 JUMPI PUSH2 0x3BF0 PUSH2 0x3544 JUMP JUMPDEST JUMPDEST DUP2 CALLDATALOAD PUSH2 0x3C01 DUP5 DUP3 PUSH1 0x20 DUP7 ADD PUSH2 0x3B73 JUMP JUMPDEST SWAP2 POP POP SWAP3 SWAP2 POP POP JUMP JUMPDEST PUSH1 0x0 PUSH2 0x3C15 DUP3 PUSH2 0x34B0 JUMP JUMPDEST SWAP1 POP SWAP2 SWAP1 POP JUMP JUMPDEST PUSH2 0x3C25 DUP2 PUSH2 0x3C0A JUMP JUMPDEST DUP2 EQ PUSH2 0x3C30 JUMPI PUSH1 0x0 DUP1 REVERT JUMPDEST POP JUMP JUMPDEST PUSH1 0x0 DUP2 CALLDATALOAD SWAP1 POP PUSH2 0x3C42 DUP2 PUSH2 0x3C1C JUMP JUMPDEST SWAP3 SWAP2 POP POP JUMP JUMPDEST PUSH1 0x0 DUP1 PUSH1 0x0 DUP1 PUSH1 0x0 PUSH1 0xA0 DUP7 DUP9 SUB SLT ISZERO PUSH2 0x3C64 JUMPI PUSH2 0x3C63 PUSH2 0x34A6 JUMP JUMPDEST JUMPDEST PUSH1 0x0 PUSH2 0x3C72 DUP9 DUP3 DUP10 ADD PUSH2 0x352F JUMP JUMPDEST SWAP6 POP POP PUSH1 0x20 PUSH2 0x3C83 DUP9 DUP3 DUP10 ADD PUSH2 0x352F JUMP JUMPDEST SWAP5 POP POP PUSH1 0x40 DUP7 ADD CALLDATALOAD PUSH8 0xFFFFFFFFFFFFFFFF DUP2 GT ISZERO PUSH2 0x3CA4 JUMPI PUSH2 0x3CA3 PUSH2 0x34AB JUMP JUMPDEST JUMPDEST PUSH2 0x3CB0 DUP9 DUP3 DUP10 ADD PUSH2 0x3BDC JUMP JUMPDEST SWAP4 POP POP PUSH1 0x60 PUSH2 0x3CC1 DUP9 DUP3 DUP10 ADD PUSH2 0x3C33 JUMP JUMPDEST SWAP3 POP POP PUSH1 0x80 PUSH2 0x3CD2 DUP9 DUP3 DUP10 ADD PUSH2 0x352F JUMP JUMPDEST SWAP2 POP POP SWAP3 SWAP6 POP SWAP3 SWAP6 SWAP1 SWAP4 POP JUMP JUMPDEST PUSH32 0x4D756C7469636861696E547261646550726F78793A20616D6F756E74496E206D PUSH1 0x0 DUP3 ADD MSTORE PUSH32 0x757374206C657373207468616E20616D6F756E74000000000000000000000000 PUSH1 0x20 DUP3 ADD MSTORE POP JUMP JUMPDEST PUSH1 0x0 PUSH2 0x3D3B PUSH1 0x34 DUP4 PUSH2 0x36D5 JUMP JUMPDEST SWAP2 POP PUSH2 0x3D46 DUP3 PUSH2 0x3CDF JUMP JUMPDEST PUSH1 0x40 DUP3 ADD SWAP1 POP SWAP2 SWAP1 POP JUMP JUMPDEST PUSH1 0x0 PUSH1 0x20 DUP3 ADD SWAP1 POP DUP2 DUP2 SUB PUSH1 0x0 DUP4 ADD MSTORE PUSH2 0x3D6A DUP2 PUSH2 0x3D2E JUMP JUMPDEST SWAP1 POP SWAP2 SWAP1 POP JUMP JUMPDEST PUSH32 0x4E487B7100000000000000000000000000000000000000000000000000000000 PUSH1 0x0 MSTORE PUSH1 0x32 PUSH1 0x4 MSTORE PUSH1 0x24 PUSH1 0x0 REVERT JUMPDEST PUSH32 0x4D756C7469636861696E547261646550726F78793A20696E70757420746F6B65 PUSH1 0x0 DUP3 ADD MSTORE PUSH32 0x6E206E6F7420657175616C7320706174685B305D000000000000000000000000 PUSH1 0x20 DUP3 ADD MSTORE POP JUMP JUMPDEST PUSH1 0x0 PUSH2 0x3DFC PUSH1 0x34 DUP4 PUSH2 0x36D5 JUMP JUMPDEST SWAP2 POP PUSH2 0x3E07 DUP3 PUSH2 0x3DA0 JUMP JUMPDEST PUSH1 0x40 DUP3 ADD SWAP1 POP SWAP2 SWAP1 POP JUMP JUMPDEST PUSH1 0x0 PUSH1 0x20 DUP3 ADD SWAP1 POP DUP2 DUP2 SUB PUSH1 0x0 DUP4 ADD MSTORE PUSH2 0x3E2B DUP2 PUSH2 0x3DEF JUMP JUMPDEST SWAP1 POP SWAP2 SWAP1 POP JUMP JUMPDEST PUSH32 0x4D756C7469636861696E547261646550726F78793A20616D6F756E74496E4D61 PUSH1 0x0 DUP3 ADD MSTORE PUSH32 0x78206D757374206C657373207468616E20616D6F756E74000000000000000000 PUSH1 0x20 DUP3 ADD MSTORE POP JUMP JUMPDEST PUSH1 0x0 PUSH2 0x3E8E PUSH1 0x37 DUP4 PUSH2 0x36D5 JUMP JUMPDEST SWAP2 POP PUSH2 0x3E99 DUP3 PUSH2 0x3E32 JUMP JUMPDEST PUSH1 0x40 DUP3 ADD SWAP1 POP SWAP2 SWAP1 POP JUMP JUMPDEST PUSH1 0x0 PUSH1 0x20 DUP3 ADD SWAP1 POP DUP2 DUP2 SUB PUSH1 0x0 DUP4 ADD MSTORE PUSH2 0x3EBD DUP2 PUSH2 0x3E81 JUMP JUMPDEST SWAP1 POP SWAP2 SWAP1 POP JUMP JUMPDEST PUSH32 0x4D756C7469636861696E547261646550726F78793A207377617020616D6F756E PUSH1 0x0 DUP3 ADD MSTORE PUSH32 0x7420686173206572726F72000000000000000000000000000000000000000000 PUSH1 0x20 DUP3 ADD MSTORE POP JUMP JUMPDEST PUSH1 0x0 PUSH2 0x3F20 PUSH1 0x2B DUP4 PUSH2 0x36D5 JUMP JUMPDEST SWAP2 POP PUSH2 0x3F2B DUP3 PUSH2 0x3EC4 JUMP JUMPDEST PUSH1 0x40 DUP3 ADD SWAP1 POP SWAP2 SWAP1 POP JUMP JUMPDEST PUSH1 0x0 PUSH1 0x20 DUP3 ADD SWAP1 POP DUP2 DUP2 SUB PUSH1 0x0 DUP4 ADD MSTORE PUSH2 0x3F4F DUP2 PUSH2 0x3F13 JUMP JUMPDEST SWAP1 POP SWAP2 SWAP1 POP JUMP JUMPDEST PUSH32 0x4D756C7469636861696E547261646550726F78793A207377617020746F6B656E PUSH1 0x0 DUP3 ADD MSTORE PUSH32 0x20686173206572726F7200000000000000000000000000000000000000000000 PUSH1 0x20 DUP3 ADD MSTORE POP JUMP JUMPDEST PUSH1 0x0 PUSH2 0x3FB2 PUSH1 0x2A DUP4 PUSH2 0x36D5 JUMP JUMPDEST SWAP2 POP PUSH2 0x3FBD DUP3 PUSH2 0x3F56 JUMP JUMPDEST PUSH1 0x40 DUP3 ADD SWAP1 POP SWAP2 SWAP1 POP JUMP JUMPDEST PUSH1 0x0 PUSH1 0x20 DUP3 ADD SWAP1 POP DUP2 DUP2 SUB PUSH1 0x0 DUP4 ADD MSTORE PUSH2 0x3FE1 DUP2 PUSH2 0x3FA5 JUMP JUMPDEST SWAP1 POP SWAP2 SWAP1 POP JUMP JUMPDEST PUSH32 0x556E69737761705632526F757465723A20455850495245440000000000000000 PUSH1 0x0 DUP3 ADD MSTORE POP JUMP JUMPDEST PUSH1 0x0 PUSH2 0x401E PUSH1 0x18 DUP4 PUSH2 0x36D5 JUMP JUMPDEST SWAP2 POP PUSH2 0x4029 DUP3 PUSH2 0x3FE8 JUMP JUMPDEST PUSH1 0x20 DUP3 ADD SWAP1 POP SWAP2 SWAP1 POP JUMP JUMPDEST PUSH1 0x0 PUSH1 0x20 DUP3 ADD SWAP1 POP DUP2 DUP2 SUB PUSH1 0x0 DUP4 ADD MSTORE PUSH2 0x404D DUP2 PUSH2 0x4011 JUMP JUMPDEST SWAP1 POP SWAP2 SWAP1 POP JUMP JUMPDEST PUSH1 0x0 PUSH2 0x405F DUP3 PUSH2 0x350E JUMP JUMPDEST SWAP2 POP PUSH2 0x406A DUP4 PUSH2 0x350E JUMP JUMPDEST SWAP3 POP DUP3 DUP3 LT ISZERO PUSH2 0x407D JUMPI PUSH2 0x407C PUSH2 0x395E JUMP JUMPDEST JUMPDEST DUP3 DUP3 SUB SWAP1 POP SWAP3 SWAP2 POP POP JUMP JUMPDEST PUSH32 0x4D756C7469636861696E547261646550726F78793A20494E5355464649434945 PUSH1 0x0 DUP3 ADD MSTORE PUSH32 0x4E545F4F55545055545F414D4F554E5400000000000000000000000000000000 PUSH1 0x20 DUP3 ADD MSTORE POP JUMP JUMPDEST PUSH1 0x0 PUSH2 0x40E4 PUSH1 0x30 DUP4 PUSH2 0x36D5 JUMP JUMPDEST SWAP2 POP PUSH2 0x40EF DUP3 PUSH2 0x4088 JUMP JUMPDEST PUSH1 0x40 DUP3 ADD SWAP1 POP SWAP2 SWAP1 POP JUMP JUMPDEST PUSH1 0x0 PUSH1 0x20 DUP3 ADD SWAP1 POP DUP2 DUP2 SUB PUSH1 0x0 DUP4 ADD MSTORE PUSH2 0x4113 DUP2 PUSH2 0x40D7 JUMP JUMPDEST SWAP1 POP SWAP2 SWAP1 POP JUMP JUMPDEST PUSH32 0x556E69737761705632526F757465723A204558434553534956455F494E505554 PUSH1 0x0 DUP3 ADD MSTORE PUSH32 0x5F414D4F554E5400000000000000000000000000000000000000000000000000 PUSH1 0x20 DUP3 ADD MSTORE POP JUMP JUMPDEST PUSH1 0x0 PUSH2 0x4176 PUSH1 0x27 DUP4 PUSH2 0x36D5 JUMP JUMPDEST SWAP2 POP PUSH2 0x4181 DUP3 PUSH2 0x411A JUMP JUMPDEST PUSH1 0x40 DUP3 ADD SWAP1 POP SWAP2 SWAP1 POP JUMP JUMPDEST PUSH1 0x0 PUSH1 0x20 DUP3 ADD SWAP1 POP DUP2 DUP2 SUB PUSH1 0x0 DUP4 ADD MSTORE PUSH2 0x41A5 DUP2 PUSH2 0x4169 JUMP JUMPDEST SWAP1 POP SWAP2 SWAP1 POP JUMP JUMPDEST PUSH32 0x556E69737761705632526F757465723A20494E56414C49445F50415448000000 PUSH1 0x0 DUP3 ADD MSTORE POP JUMP JUMPDEST PUSH1 0x0 PUSH2 0x41E2 PUSH1 0x1D DUP4 PUSH2 0x36D5 JUMP JUMPDEST SWAP2 POP PUSH2 0x41ED DUP3 PUSH2 0x41AC JUMP JUMPDEST PUSH1 0x20 DUP3 ADD SWAP1 POP SWAP2 SWAP1 POP JUMP JUMPDEST PUSH1 0x0 PUSH1 0x20 DUP3 ADD SWAP1 POP DUP2 DUP2 SUB PUSH1 0x0 DUP4 ADD MSTORE PUSH2 0x4211 DUP2 PUSH2 0x41D5 JUMP JUMPDEST SWAP1 POP SWAP2 SWAP1 POP JUMP JUMPDEST PUSH32 0x556E69737761705632526F757465723A20494E53554646494349454E545F4F55 PUSH1 0x0 DUP3 ADD MSTORE PUSH32 0x545055545F414D4F554E54000000000000000000000000000000000000000000 PUSH1 0x20 DUP3 ADD MSTORE POP JUMP JUMPDEST PUSH1 0x0 PUSH2 0x4274 PUSH1 0x2B DUP4 PUSH2 0x36D5 JUMP JUMPDEST SWAP2 POP PUSH2 0x427F DUP3 PUSH2 0x4218 JUMP JUMPDEST PUSH1 0x40 DUP3 ADD SWAP1 POP SWAP2 SWAP1 POP JUMP JUMPDEST PUSH1 0x0 PUSH1 0x20 DUP3 ADD SWAP1 POP DUP2 DUP2 SUB PUSH1 0x0 DUP4 ADD MSTORE PUSH2 0x42A3 DUP2 PUSH2 0x4267 JUMP JUMPDEST SWAP1 POP SWAP2 SWAP1 POP JUMP JUMPDEST PUSH1 0x0 DUP2 MLOAD SWAP1 POP PUSH2 0x42B9 DUP2 PUSH2 0x3518 JUMP JUMPDEST SWAP3 SWAP2 POP POP JUMP JUMPDEST PUSH1 0x0 PUSH1 0x20 DUP3 DUP5 SUB SLT ISZERO PUSH2 0x42D5 JUMPI PUSH2 0x42D4 PUSH2 0x34A6 JUMP JUMPDEST JUMPDEST PUSH1 0x0 PUSH2 0x42E3 DUP5 DUP3 DUP6 ADD PUSH2 0x42AA JUMP JUMPDEST SWAP2 POP POP SWAP3 SWAP2 POP POP JUMP JUMPDEST PUSH32 0x556E697377617056324C6962726172793A20494E56414C49445F504154480000 PUSH1 0x0 DUP3 ADD MSTORE POP JUMP JUMPDEST PUSH1 0x0 PUSH2 0x4322 PUSH1 0x1E DUP4 PUSH2 0x36D5 JUMP JUMPDEST SWAP2 POP PUSH2 0x432D DUP3 PUSH2 0x42EC JUMP JUMPDEST PUSH1 0x20 DUP3 ADD SWAP1 POP SWAP2 SWAP1 POP JUMP JUMPDEST PUSH1 0x0 PUSH1 0x20 DUP3 ADD SWAP1 POP DUP2 DUP2 SUB PUSH1 0x0 DUP4 ADD MSTORE PUSH2 0x4351 DUP2 PUSH2 0x4315 JUMP JUMPDEST SWAP1 POP SWAP2 SWAP1 POP JUMP JUMPDEST PUSH1 0x0 PUSH2 0x4363 DUP3 PUSH2 0x350E JUMP JUMPDEST SWAP2 POP PUSH32 0xFFFFFFFFFFFFFFFFFFFFFFFFFFFFFFFFFFFFFFFFFFFFFFFFFFFFFFFFFFFFFFFF DUP3 SUB PUSH2 0x4395 JUMPI PUSH2 0x4394 PUSH2 0x395E JUMP JUMPDEST JUMPDEST PUSH1 0x1 DUP3 ADD SWAP1 POP SWAP2 SWAP1 POP JUMP JUMPDEST PUSH1 0x0 PUSH1 0x40 DUP3 ADD SWAP1 POP PUSH2 0x43B5 PUSH1 0x0 DUP4 ADD DUP6 PUSH2 0x361D JUMP JUMPDEST PUSH2 0x43C2 PUSH1 0x20 DUP4 ADD DUP5 PUSH2 0x361D JUMP JUMPDEST SWAP4 SWAP3 POP POP POP JUMP JUMPDEST PUSH1 0x0 DUP2 MLOAD SWAP1 POP PUSH2 0x43D8 DUP2 PUSH2 0x34E2 JUMP JUMPDEST SWAP3 SWAP2 POP POP JUMP JUMPDEST PUSH1 0x0 PUSH1 0x20 DUP3 DUP5 SUB SLT ISZERO PUSH2 0x43F4 JUMPI PUSH2 0x43F3 PUSH2 0x34A6 JUMP JUMPDEST JUMPDEST PUSH1 0x0 PUSH2 0x4402 DUP5 DUP3 DUP6 ADD PUSH2 0x43C9 JUMP JUMPDEST SWAP2 POP POP SWAP3 SWAP2 POP POP JUMP JUMPDEST PUSH1 0x0 PUSH1 0x40 DUP3 ADD SWAP1 POP PUSH2 0x4420 PUSH1 0x0 DUP4 ADD DUP6 PUSH2 0x361D JUMP JUMPDEST PUSH2 0x442D PUSH1 0x20 DUP4 ADD DUP5 PUSH2 0x362C JUMP JUMPDEST SWAP4 SWAP3 POP POP POP JUMP JUMPDEST PUSH1 0x0 DUP2 MLOAD SWAP1 POP SWAP2 SWAP1 POP JUMP JUMPDEST PUSH1 0x0 DUP2 SWAP1 POP SWAP3 SWAP2 POP POP JUMP JUMPDEST PUSH1 0x0 JUMPDEST DUP4 DUP2 LT ISZERO PUSH2 0x4468 JUMPI DUP1 DUP3 ADD MLOAD DUP2 DUP5 ADD MSTORE PUSH1 0x20 DUP2 ADD SWAP1 POP PUSH2 0x444D JUMP JUMPDEST DUP4 DUP2 GT ISZERO PUSH2 0x4477 JUMPI PUSH1 0x0 DUP5 DUP5 ADD MSTORE JUMPDEST POP POP POP POP JUMP JUMPDEST PUSH1 0x0 PUSH2 0x4488 DUP3 PUSH2 0x4434 JUMP JUMPDEST PUSH2 0x4492 DUP2 DUP6 PUSH2 0x443F JUMP JUMPDEST SWAP4 POP PUSH2 0x44A2 DUP2 DUP6 PUSH1 0x20 DUP7 ADD PUSH2 0x444A JUMP JUMPDEST DUP1 DUP5 ADD SWAP2 POP POP SWAP3 SWAP2 POP POP JUMP JUMPDEST PUSH1 0x0 PUSH2 0x44BA DUP3 DUP5 PUSH2 0x447D JUMP JUMPDEST SWAP2 POP DUP2 SWAP1 POP SWAP3 SWAP2 POP POP JUMP JUMPDEST PUSH1 0x0 DUP2 ISZERO ISZERO SWAP1 POP SWAP2 SWAP1 POP JUMP JUMPDEST PUSH2 0x44DA DUP2 PUSH2 0x44C5 JUMP JUMPDEST DUP2 EQ PUSH2 0x44E5 JUMPI PUSH1 0x0 DUP1 REVERT JUMPDEST POP JUMP JUMPDEST PUSH1 0x0 DUP2 MLOAD SWAP1 POP PUSH2 0x44F7 DUP2 PUSH2 0x44D1 JUMP JUMPDEST SWAP3 SWAP2 POP POP JUMP JUMPDEST PUSH1 0x0 PUSH1 0x20 DUP3 DUP5 SUB SLT ISZERO PUSH2 0x4513 JUMPI PUSH2 0x4512 PUSH2 0x34A6 JUMP JUMPDEST JUMPDEST PUSH1 0x0 PUSH2 0x4521 DUP5 DUP3 DUP6 ADD PUSH2 0x44E8 JUMP JUMPDEST SWAP2 POP POP SWAP3 SWAP2 POP POP JUMP JUMPDEST PUSH32 0x5472616E7366657248656C7065723A205452414E534645525F4641494C454400 PUSH1 0x0 DUP3 ADD MSTORE POP JUMP JUMPDEST PUSH1 0x0 PUSH2 0x4560 PUSH1 0x1F DUP4 PUSH2 0x36D5 JUMP JUMPDEST SWAP2 POP PUSH2 0x456B DUP3 PUSH2 0x452A JUMP JUMPDEST PUSH1 0x20 DUP3 ADD SWAP1 POP SWAP2 SWAP1 POP JUMP JUMPDEST PUSH1 0x0 PUSH1 0x20 DUP3 ADD SWAP1 POP DUP2 DUP2 SUB PUSH1 0x0 DUP4 ADD MSTORE PUSH2 0x458F DUP2 PUSH2 0x4553 JUMP JUMPDEST SWAP1 POP SWAP2 SWAP1 POP JUMP JUMPDEST PUSH1 0x0 DUP3 DUP3 MSTORE PUSH1 0x20 DUP3 ADD SWAP1 POP SWAP3 SWAP2 POP POP JUMP JUMPDEST PUSH1 0x0 PUSH2 0x45B2 DUP3 PUSH2 0x4434 JUMP JUMPDEST PUSH2 0x45BC DUP2 DUP6 PUSH2 0x4596 JUMP JUMPDEST SWAP4 POP PUSH2 0x45CC DUP2 DUP6 PUSH1 0x20 DUP7 ADD PUSH2 0x444A JUMP JUMPDEST PUSH2 0x45D5 DUP2 PUSH2 0x3ABB JUMP JUMPDEST DUP5 ADD SWAP2 POP POP SWAP3 SWAP2 POP POP JUMP JUMPDEST PUSH1 0x0 PUSH1 0x80 DUP3 ADD SWAP1 POP PUSH2 0x45F5 PUSH1 0x0 DUP4 ADD DUP8 PUSH2 0x362C JUMP JUMPDEST PUSH2 0x4602 PUSH1 0x20 DUP4 ADD DUP7 PUSH2 0x362C JUMP JUMPDEST PUSH2 0x460F PUSH1 0x40 DUP4 ADD DUP6 PUSH2 0x361D JUMP JUMPDEST DUP2 DUP2 SUB PUSH1 0x60 DUP4 ADD MSTORE PUSH2 0x4621 DUP2 DUP5 PUSH2 0x45A7 JUMP JUMPDEST SWAP1 POP SWAP6 SWAP5 POP POP POP POP POP JUMP JUMPDEST PUSH1 0x0 PUSH2 0x4637 DUP3 PUSH2 0x350E JUMP JUMPDEST SWAP2 POP PUSH1 0x0 DUP3 SUB PUSH2 0x464A JUMPI PUSH2 0x4649 PUSH2 0x395E JUMP JUMPDEST JUMPDEST PUSH1 0x1 DUP3 SUB SWAP1 POP SWAP2 SWAP1 POP JUMP JUMPDEST PUSH32 0x5472616E7366657248656C7065723A204554485F5452414E534645525F464149 PUSH1 0x0 DUP3 ADD MSTORE PUSH32 0x4C45440000000000000000000000000000000000000000000000000000000000 PUSH1 0x20 DUP3 ADD MSTORE POP JUMP JUMPDEST PUSH1 0x0 PUSH2 0x46B1 PUSH1 0x23 DUP4 PUSH2 0x36D5 JUMP JUMPDEST SWAP2 POP PUSH2 0x46BC DUP3 PUSH2 0x4655 JUMP JUMPDEST PUSH1 0x40 DUP3 ADD SWAP1 POP SWAP2 SWAP1 POP JUMP JUMPDEST PUSH1 0x0 PUSH1 0x20 DUP3 ADD SWAP1 POP DUP2 DUP2 SUB PUSH1 0x0 DUP4 ADD MSTORE PUSH2 0x46E0 DUP2 PUSH2 0x46A4 JUMP JUMPDEST SWAP1 POP SWAP2 SWAP1 POP JUMP JUMPDEST PUSH1 0x0 PUSH14 0xFFFFFFFFFFFFFFFFFFFFFFFFFFFF DUP3 AND SWAP1 POP SWAP2 SWAP1 POP JUMP JUMPDEST PUSH2 0x470A DUP2 PUSH2 0x46E7 JUMP JUMPDEST DUP2 EQ PUSH2 0x4715 JUMPI PUSH1 0x0 DUP1 REVERT JUMPDEST POP JUMP JUMPDEST PUSH1 0x0 DUP2 MLOAD SWAP1 POP PUSH2 0x4727 DUP2 PUSH2 0x4701 JUMP JUMPDEST SWAP3 SWAP2 POP POP JUMP JUMPDEST PUSH1 0x0 PUSH4 0xFFFFFFFF DUP3 AND SWAP1 POP SWAP2 SWAP1 POP JUMP JUMPDEST PUSH2 0x4746 DUP2 PUSH2 0x472D JUMP JUMPDEST DUP2 EQ PUSH2 0x4751 JUMPI PUSH1 0x0 DUP1 REVERT JUMPDEST POP JUMP JUMPDEST PUSH1 0x0 DUP2 MLOAD SWAP1 POP PUSH2 0x4763 DUP2 PUSH2 0x473D JUMP JUMPDEST SWAP3 SWAP2 POP POP JUMP JUMPDEST PUSH1 0x0 DUP1 PUSH1 0x0 PUSH1 0x60 DUP5 DUP7 SUB SLT ISZERO PUSH2 0x4782 JUMPI PUSH2 0x4781 PUSH2 0x34A6 JUMP JUMPDEST JUMPDEST PUSH1 0x0 PUSH2 0x4790 DUP7 DUP3 DUP8 ADD PUSH2 0x4718 JUMP JUMPDEST SWAP4 POP POP PUSH1 0x20 PUSH2 0x47A1 DUP7 DUP3 DUP8 ADD PUSH2 0x4718 JUMP JUMPDEST SWAP3 POP POP PUSH1 0x40 PUSH2 0x47B2 DUP7 DUP3 DUP8 ADD PUSH2 0x4754 JUMP JUMPDEST SWAP2 POP POP SWAP3 POP SWAP3 POP SWAP3 JUMP JUMPDEST PUSH32 0x64732D6D6174682D7375622D756E646572666C6F770000000000000000000000 PUSH1 0x0 DUP3 ADD MSTORE POP JUMP JUMPDEST PUSH1 0x0 PUSH2 0x47F2 PUSH1 0x15 DUP4 PUSH2 0x36D5 JUMP JUMPDEST SWAP2 POP PUSH2 0x47FD DUP3 PUSH2 0x47BC JUMP JUMPDEST PUSH1 0x20 DUP3 ADD SWAP1 POP SWAP2 SWAP1 POP JUMP JUMPDEST PUSH1 0x0 PUSH1 0x20 DUP3 ADD SWAP1 POP DUP2 DUP2 SUB PUSH1 0x0 DUP4 ADD MSTORE PUSH2 0x4821 DUP2 PUSH2 0x47E5 JUMP JUMPDEST SWAP1 POP SWAP2 SWAP1 POP JUMP JUMPDEST PUSH32 0x556E697377617056324C6962726172793A20494E53554646494349454E545F49 PUSH1 0x0 DUP3 ADD MSTORE PUSH32 0x4E5055545F414D4F554E54000000000000000000000000000000000000000000 PUSH1 0x20 DUP3 ADD MSTORE POP JUMP JUMPDEST PUSH1 0x0 PUSH2 0x4884 PUSH1 0x2B DUP4 PUSH2 0x36D5 JUMP JUMPDEST SWAP2 POP PUSH2 0x488F DUP3 PUSH2 0x4828 JUMP JUMPDEST PUSH1 0x40 DUP3 ADD SWAP1 POP SWAP2 SWAP1 POP JUMP JUMPDEST PUSH1 0x0 PUSH1 0x20 DUP3 ADD SWAP1 POP DUP2 DUP2 SUB PUSH1 0x0 DUP4 ADD MSTORE PUSH2 0x48B3 DUP2 PUSH2 0x4877 JUMP JUMPDEST SWAP1 POP SWAP2 SWAP1 POP JUMP JUMPDEST PUSH32 0x556E697377617056324C6962726172793A20494E53554646494349454E545F4C PUSH1 0x0 DUP3 ADD MSTORE PUSH32 0x4951554944495459000000000000000000000000000000000000000000000000 PUSH1 0x20 DUP3 ADD MSTORE POP JUMP JUMPDEST PUSH1 0x0 PUSH2 0x4916 PUSH1 0x28 DUP4 PUSH2 0x36D5 JUMP JUMPDEST SWAP2 POP PUSH2 0x4921 DUP3 PUSH2 0x48BA JUMP JUMPDEST PUSH1 0x40 DUP3 ADD SWAP1 POP SWAP2 SWAP1 POP JUMP JUMPDEST PUSH1 0x0 PUSH1 0x20 DUP3 ADD SWAP1 POP DUP2 DUP2 SUB PUSH1 0x0 DUP4 ADD MSTORE PUSH2 0x4945 DUP2 PUSH2 0x4909 JUMP JUMPDEST SWAP1 POP SWAP2 SWAP1 POP JUMP JUMPDEST PUSH32 0x4E487B7100000000000000000000000000000000000000000000000000000000 PUSH1 0x0 MSTORE PUSH1 0x12 PUSH1 0x4 MSTORE PUSH1 0x24 PUSH1 0x0 REVERT JUMPDEST PUSH1 0x0 PUSH2 0x4986 DUP3 PUSH2 0x350E JUMP JUMPDEST SWAP2 POP PUSH2 0x4991 DUP4 PUSH2 0x350E JUMP JUMPDEST SWAP3 POP DUP3 PUSH2 0x49A1 JUMPI PUSH2 0x49A0 PUSH2 0x494C JUMP JUMPDEST JUMPDEST DUP3 DUP3 DIV SWAP1 POP SWAP3 SWAP2 POP POP JUMP JUMPDEST PUSH32 0x556E697377617056324C6962726172793A204944454E544943414C5F41444452 PUSH1 0x0 DUP3 ADD MSTORE PUSH32 0x4553534553000000000000000000000000000000000000000000000000000000 PUSH1 0x20 DUP3 ADD MSTORE POP JUMP JUMPDEST PUSH1 0x0 PUSH2 0x4A08 PUSH1 0x25 DUP4 PUSH2 0x36D5 JUMP JUMPDEST SWAP2 POP PUSH2 0x4A13 DUP3 PUSH2 0x49AC JUMP JUMPDEST PUSH1 0x40 DUP3 ADD SWAP1 POP SWAP2 SWAP1 POP JUMP JUMPDEST PUSH1 0x0 PUSH1 0x20 DUP3 ADD SWAP1 POP DUP2 DUP2 SUB PUSH1 0x0 DUP4 ADD MSTORE PUSH2 0x4A37 DUP2 PUSH2 0x49FB JUMP JUMPDEST SWAP1 POP SWAP2 SWAP1 POP JUMP JUMPDEST PUSH32 0x556E697377617056324C6962726172793A205A45524F5F414444524553530000 PUSH1 0x0 DUP3 ADD MSTORE POP JUMP JUMPDEST PUSH1 0x0 PUSH2 0x4A74 PUSH1 0x1E DUP4 PUSH2 0x36D5 JUMP JUMPDEST SWAP2 POP PUSH2 0x4A7F DUP3 PUSH2 0x4A3E JUMP JUMPDEST PUSH1 0x20 DUP3 ADD SWAP1 POP SWAP2 SWAP1 POP JUMP JUMPDEST PUSH1 0x0 PUSH1 0x20 DUP3 ADD SWAP1 POP DUP2 DUP2 SUB PUSH1 0x0 DUP4 ADD MSTORE PUSH2 0x4AA3 DUP2 PUSH2 0x4A67 JUMP JUMPDEST SWAP1 POP SWAP2 SWAP1 POP JUMP JUMPDEST PUSH32 0x556E697377617056324C6962726172793A20494E53554646494349454E545F4F PUSH1 0x0 DUP3 ADD MSTORE PUSH32 0x55545055545F414D4F554E540000000000000000000000000000000000000000 PUSH1 0x20 DUP3 ADD MSTORE POP JUMP JUMPDEST PUSH1 0x0 PUSH2 0x4B06 PUSH1 0x2C DUP4 PUSH2 0x36D5 JUMP JUMPDEST SWAP2 POP PUSH2 0x4B11 DUP3 PUSH2 0x4AAA JUMP JUMPDEST PUSH1 0x40 DUP3 ADD SWAP1 POP SWAP2 SWAP1 POP JUMP JUMPDEST PUSH1 0x0 PUSH1 0x20 DUP3 ADD SWAP1 POP DUP2 DUP2 SUB PUSH1 0x0 DUP4 ADD MSTORE PUSH2 0x4B35 DUP2 PUSH2 0x4AF9 JUMP JUMPDEST SWAP1 POP SWAP2 SWAP1 POP JUMP JUMPDEST PUSH1 0x0 PUSH2 0x4B47 DUP3 PUSH2 0x350E JUMP JUMPDEST SWAP2 POP PUSH2 0x4B52 DUP4 PUSH2 0x350E JUMP JUMPDEST SWAP3 POP DUP2 PUSH32 0xFFFFFFFFFFFFFFFFFFFFFFFFFFFFFFFFFFFFFFFFFFFFFFFFFFFFFFFFFFFFFFFF DIV DUP4 GT DUP3 ISZERO ISZERO AND ISZERO PUSH2 0x4B8B JUMPI PUSH2 0x4B8A PUSH2 0x395E JUMP JUMPDEST JUMPDEST DUP3 DUP3 MUL SWAP1 POP SWAP3 SWAP2 POP POP JUMP JUMPDEST PUSH32 0x64732D6D6174682D6D756C2D6F766572666C6F77000000000000000000000000 PUSH1 0x0 DUP3 ADD MSTORE POP JUMP JUMPDEST PUSH1 0x0 PUSH2 0x4BCC PUSH1 0x14 DUP4 PUSH2 0x36D5 JUMP JUMPDEST SWAP2 POP PUSH2 0x4BD7 DUP3 PUSH2 0x4B96 JUMP JUMPDEST PUSH1 0x20 DUP3 ADD SWAP1 POP SWAP2 SWAP1 POP JUMP JUMPDEST PUSH1 0x0 PUSH1 0x20 DUP3 ADD SWAP1 POP DUP2 DUP2 SUB PUSH1 0x0 DUP4 ADD MSTORE PUSH2 0x4BFB DUP2 PUSH2 0x4BBF JUMP JUMPDEST SWAP1 POP SWAP2 SWAP1 POP JUMP JUMPDEST PUSH32 0x64732D6D6174682D6164642D6F766572666C6F77000000000000000000000000 PUSH1 0x0 DUP3 ADD MSTORE POP JUMP JUMPDEST PUSH1 0x0 PUSH2 0x4C38 PUSH1 0x14 DUP4 PUSH2 0x36D5 JUMP JUMPDEST SWAP2 POP PUSH2 0x4C43 DUP3 PUSH2 0x4C02 JUMP JUMPDEST PUSH1 0x20 DUP3 ADD SWAP1 POP SWAP2 SWAP1 POP JUMP JUMPDEST PUSH1 0x0 PUSH1 0x20 DUP3 ADD SWAP1 POP DUP2 DUP2 SUB PUSH1 0x0 DUP4 ADD MSTORE PUSH2 0x4C67 DUP2 PUSH2 0x4C2B JUMP JUMPDEST SWAP1 POP SWAP2 SWAP1 POP JUMP INVALID LOG2 PUSH5 0x6970667358 0x22 SLT KECCAK256 EQ 0xAE 0xF8 SWAP10 0xCC 0xE3 NOT 0xEB 0xE7 PUSH24 0x89FB4AD01F555289DEACBF296CCA7B81A8524AB0D9BB6473 PUSH16 0x6C634300080D00330000000000000000 "
		},
		"gasEstimates": {
			"creation": {
				"codeDepositCost": "3924000",
				"executionCost": "infinite",
				"totalCost": "infinite"
			},
			"external": {
				"": "174",
				"SushiV2Factory()": "infinite",
				"WETH()": "infinite",
				"applyMPC()": "75519",
				"changeMPC(address)": "infinite",
				"delay()": "396",
				"delayMPC()": "2452",
				"exec(address,uint256,bytes)": "infinite",
				"mpc()": "2577",
				"pendingMPC()": "2602"
			},
			"internal": {
				"_swap(uint256[] memory,address[] memory,address)": "infinite",
				"_swapExactTokensForETH(uint256,uint256,address[] memory,address,uint256)": "infinite",
				"_swapExactTokensForETHSupportingFeeOnTransferTokens(uint256,uint256,address[] memory,address,uint256)": "infinite",
				"_swapExactTokensForTokens(uint256,uint256,address[] memory,address,uint256)": "infinite",
				"_swapExactTokensForTokensSupportingFeeOnTransferTokens(uint256,uint256,address[] memory,address,uint256)": "infinite",
				"_swapSupportingFeeOnTransferTokens(address[] memory,address)": "infinite",
				"_swapTokensForExactETH(uint256,uint256,address[] memory,address,uint256)": "infinite",
				"_swapTokensForExactTokens(uint256,uint256,address[] memory,address,uint256)": "infinite",
				"swapExactTokensForETH(address,uint256,bytes calldata)": "infinite",
				"swapExactTokensForETHSupportingFeeOnTransferTokens(address,uint256,bytes calldata)": "infinite",
				"swapExactTokensForTokens(address,uint256,bytes calldata)": "infinite",
				"swapExactTokensForTokensSupportingFeeOnTransferTokens(address,uint256,bytes calldata)": "infinite",
				"swapTokensForExactETH(address,uint256,bytes calldata)": "infinite",
				"swapTokensForExactTokens(address,uint256,bytes calldata)": "infinite"
			}
		},
		"methodIdentifiers": {
			"SushiV2Factory()": "703d2bb7",
			"WETH()": "ad5c4648",
			"applyMPC()": "b63b38d0",
			"changeMPC(address)": "5b7b018c",
			"delay()": "6a42b8f8",
			"delayMPC()": "160f1053",
			"exec(address,uint256,bytes)": "0565bb67",
			"mpc()": "f75c2664",
			"pendingMPC()": "f830e7b4"
		}
	},
	"abi": [
		{
			"inputs": [
				{
					"internalType": "address",
					"name": "mpc_",
					"type": "address"
				},
				{
					"internalType": "address",
					"name": "sushiV2Factory_",
					"type": "address"
				},
				{
					"internalType": "address",
					"name": "weth_",
					"type": "address"
				}
			],
			"stateMutability": "nonpayable",
			"type": "constructor"
		},
		{
			"anonymous": false,
			"inputs": [
				{
					"indexed": true,
					"internalType": "address",
					"name": "oldMPC",
					"type": "address"
				},
				{
					"indexed": true,
					"internalType": "address",
					"name": "newMPC",
					"type": "address"
				},
				{
					"indexed": false,
					"internalType": "uint256",
					"name": "applyTime",
					"type": "uint256"
				}
			],
			"name": "LogApplyMPC",
			"type": "event"
		},
		{
			"anonymous": false,
			"inputs": [
				{
					"indexed": true,
					"internalType": "address",
					"name": "oldMPC",
					"type": "address"
				},
				{
					"indexed": true,
					"internalType": "address",
					"name": "newMPC",
					"type": "address"
				},
				{
					"indexed": false,
					"internalType": "uint256",
					"name": "effectiveTime",
					"type": "uint256"
				}
			],
			"name": "LogChangeMPC",
			"type": "event"
		},
		{
			"stateMutability": "payable",
			"type": "fallback"
		},
		{
			"inputs": [],
			"name": "SushiV2Factory",
			"outputs": [
				{
					"internalType": "address",
					"name": "",
					"type": "address"
				}
			],
			"stateMutability": "view",
			"type": "function"
		},
		{
			"inputs": [],
			"name": "WETH",
			"outputs": [
				{
					"internalType": "address",
					"name": "",
					"type": "address"
				}
			],
			"stateMutability": "view",
			"type": "function"
		},
		{
			"inputs": [],
			"name": "applyMPC",
			"outputs": [],
			"stateMutability": "nonpayable",
			"type": "function"
		},
		{
			"inputs": [
				{
					"internalType": "address",
					"name": "_mpc",
					"type": "address"
				}
			],
			"name": "changeMPC",
			"outputs": [],
			"stateMutability": "nonpayable",
			"type": "function"
		},
		{
			"inputs": [],
			"name": "delay",
			"outputs": [
				{
					"internalType": "uint256",
					"name": "",
					"type": "uint256"
				}
			],
			"stateMutability": "view",
			"type": "function"
		},
		{
			"inputs": [],
			"name": "delayMPC",
			"outputs": [
				{
					"internalType": "uint256",
					"name": "",
					"type": "uint256"
				}
			],
			"stateMutability": "view",
			"type": "function"
		},
		{
			"inputs": [
				{
					"internalType": "address",
					"name": "token",
					"type": "address"
				},
				{
					"internalType": "uint256",
					"name": "amount",
					"type": "uint256"
				},
				{
					"internalType": "bytes",
					"name": "data",
					"type": "bytes"
				}
			],
			"name": "exec",
			"outputs": [
				{
					"internalType": "address",
					"name": "recvToken",
					"type": "address"
				},
				{
					"internalType": "address",
					"name": "receiver",
					"type": "address"
				},
				{
					"internalType": "uint256",
					"name": "recvAmount",
					"type": "uint256"
				}
			],
			"stateMutability": "nonpayable",
			"type": "function"
		},
		{
			"inputs": [],
			"name": "mpc",
			"outputs": [
				{
					"internalType": "address",
					"name": "",
					"type": "address"
				}
			],
			"stateMutability": "view",
			"type": "function"
		},
		{
			"inputs": [],
			"name": "pendingMPC",
			"outputs": [
				{
					"internalType": "address",
					"name": "",
					"type": "address"
				}
			],
			"stateMutability": "view",
			"type": "function"
		},
		{
			"stateMutability": "payable",
			"type": "receive"
		}
	]
}