{
	"data": {
		"bytecode": {
			"linkReferences": {},
			"object": "60c06040523480156200001157600080fd5b506040516200505e3803806200505e83398181016040528101906200003791906200024f565b82600073ffffffffffffffffffffffffffffffffffffffff168173ffffffffffffffffffffffffffffffffffffffff161415620000ab576040517f08c379a0000000000000000000000000000000000000000000000000000000008152600401620000a2906200030c565b60405180910390fd5b806000806101000a81548173ffffffffffffffffffffffffffffffffffffffff021916908373ffffffffffffffffffffffffffffffffffffffff16021790555060008054906101000a900473ffffffffffffffffffffffffffffffffffffffff1673ffffffffffffffffffffffffffffffffffffffff16600073ffffffffffffffffffffffffffffffffffffffff167f581f388e3dd32e1bbf62a290f509c8245f9d0b71ef82614fb2b967ad0a10d5b9426040516200016b919062000349565b60405180910390a3508173ffffffffffffffffffffffffffffffffffffffff1660808173ffffffffffffffffffffffffffffffffffffffff16815250508073ffffffffffffffffffffffffffffffffffffffff1660a08173ffffffffffffffffffffffffffffffffffffffff168152505050505062000366565b600080fd5b600073ffffffffffffffffffffffffffffffffffffffff82169050919050565b60006200021782620001ea565b9050919050565b62000229816200020a565b81146200023557600080fd5b50565b60008151905062000249816200021e565b92915050565b6000806000606084860312156200026b576200026a620001e5565b5b60006200027b8682870162000238565b93505060206200028e8682870162000238565b9250506040620002a18682870162000238565b9150509250925092565b600082825260208201905092915050565b7f4d50433a206d706320697320746865207a65726f206164647265737300000000600082015250565b6000620002f4601c83620002ab565b91506200030182620002bc565b602082019050919050565b600060208201905081810360008301526200032781620002e5565b9050919050565b6000819050919050565b62000343816200032e565b82525050565b600060208201905062000360600083018462000338565b92915050565b60805160a051614c3f6200041f600039600081816107eb015281816115b6015281816117b0015281816118e901528181611aef01528181611f8a015281816120d101526121b00152600081816107c7015281816112790152818161132f01528181611420015281816114ca015281816116700152818161171a015281816119a301528181611a5901528181611c4a01528181612061015281816126ce0152818161272201528181612b920152612d9e0152614c3f6000f3fe608060405234801561001057600080fd5b50600436106100935760003560e01c8063703d2bb711610066578063703d2bb714610122578063ad5c464814610140578063b63b38d01461015e578063f75c266414610168578063f830e7b41461018657610093565b80630565bb6714610098578063160f1053146100ca5780635b7b018c146100e85780636a42b8f814610104575b600080fd5b6100b260048036038101906100ad9190613542565b6101a4565b6040516100c1939291906135d4565b60405180910390f35b6100d26105b8565b6040516100df919061360b565b60405180910390f35b61010260048036038101906100fd9190613626565b6105be565b005b61010c6107be565b604051610119919061360b565b60405180910390f35b61012a6107c5565b6040516101379190613653565b60405180910390f35b6101486107e9565b6040516101559190613653565b60405180910390f35b61016661080d565b005b610170610ae4565b60405161017d9190613653565b60405180910390f35b61018e610b08565b60405161019b9190613653565b60405180910390f35b60008060008060009054906101000a900473ffffffffffffffffffffffffffffffffffffffff1673ffffffffffffffffffffffffffffffffffffffff163373ffffffffffffffffffffffffffffffffffffffff1614610238576040517f08c379a000000000000000000000000000000000000000000000000000000000815260040161022f906136cb565b60405180910390fd5b6000858560009060049261024e939291906136f5565b906102599190613774565b90507f38ed1739ee07daf49933f1800d1a9bc8d39a6876ea11e643f9c4c39c66df0ee87bffffffffffffffffffffffffffffffffffffffffffffffffffffffff1916817bffffffffffffffffffffffffffffffffffffffffffffffffffffffff191614156102de576102cd88888888610b2e565b8094508195508296505050506105ad565b7f8803dbeef1adfe1a9306daa835152093f0a5085700e080f4de0d56162dfadb097bffffffffffffffffffffffffffffffffffffffffffffffffffffffff1916817bffffffffffffffffffffffffffffffffffffffffffffffffffffffff191614156103615761035088888888610c52565b8094508195508296505050506105ac565b7f4a25d94a96ff7a29f18f4f1154f634d0bb2bc027b6d31af01f47c4fdd038f2257bffffffffffffffffffffffffffffffffffffffffffffffffffffffff1916817bffffffffffffffffffffffffffffffffffffffffffffffffffffffff191614156103e4576103d388888888610d76565b8094508195508296505050506105ab565b7f18cbafe5fb6ab7d2558a55ccc138a3172aa304c3a08214c1ab07223dcb9e7f8e7bffffffffffffffffffffffffffffffffffffffffffffffffffffffff1916817bffffffffffffffffffffffffffffffffffffffffffffffffffffffff191614156104675761045688888888610e9a565b8094508195508296505050506105aa565b7f5c11d79526ce10b4a02fad7c13a4f0c7482b8f962c004e4f4d599003116c5f927bffffffffffffffffffffffffffffffffffffffffffffffffffffffff1916817bffffffffffffffffffffffffffffffffffffffffffffffffffffffff191614156104ea576104d988888888610fbe565b8094508195508296505050506105a9565b7f791ac9477e2d4606a81a205cf3dd7bdb27673037d74725aff8c552ad981cf0907bffffffffffffffffffffffffffffffffffffffffffffffffffffffff1916817bffffffffffffffffffffffffffffffffffffffffffffffffffffffff1916141561056d5761055c888888886110e2565b8094508195508296505050506105a8565b6040517f08c379a000000000000000000000000000000000000000000000000000000000815260040161059f9061386b565b60405180910390fd5b5b5b5b5b5b509450945094915050565b60025481565b60008054906101000a900473ffffffffffffffffffffffffffffffffffffffff1673ffffffffffffffffffffffffffffffffffffffff163373ffffffffffffffffffffffffffffffffffffffff161461064c576040517f08c379a0000000000000000000000000000000000000000000000000000000008152600401610643906136cb565b60405180910390fd5b600073ffffffffffffffffffffffffffffffffffffffff168173ffffffffffffffffffffffffffffffffffffffff1614156106bc576040517f08c379a00000000000000000000000000000000000000000000000000000000081526004016106b3906138d7565b60405180910390fd5b80600160006101000a81548173ffffffffffffffffffffffffffffffffffffffff021916908373ffffffffffffffffffffffffffffffffffffffff1602179055506202a3004261070c9190613926565b600281905550600160009054906101000a900473ffffffffffffffffffffffffffffffffffffffff1673ffffffffffffffffffffffffffffffffffffffff1660008054906101000a900473ffffffffffffffffffffffffffffffffffffffff1673ffffffffffffffffffffffffffffffffffffffff167f581f388e3dd32e1bbf62a290f509c8245f9d0b71ef82614fb2b967ad0a10d5b96002546040516107b3919061360b565b60405180910390a350565b6202a30081565b7f000000000000000000000000000000000000000000000000000000000000000081565b7f000000000000000000000000000000000000000000000000000000000000000081565b600160009054906101000a900473ffffffffffffffffffffffffffffffffffffffff1673ffffffffffffffffffffffffffffffffffffffff163373ffffffffffffffffffffffffffffffffffffffff1614806108fd575060008054906101000a900473ffffffffffffffffffffffffffffffffffffffff1673ffffffffffffffffffffffffffffffffffffffff163373ffffffffffffffffffffffffffffffffffffffff161480156108fc57506108fb600160009054906101000a900473ffffffffffffffffffffffffffffffffffffffff1673ffffffffffffffffffffffffffffffffffffffff16611206565b5b5b61093c576040517f08c379a0000000000000000000000000000000000000000000000000000000008152600401610933906139c8565b60405180910390fd5b600060025411801561095057506002544210155b61098f576040517f08c379a000000000000000000000000000000000000000000000000000000000815260040161098690613a34565b60405180910390fd5b600160009054906101000a900473ffffffffffffffffffffffffffffffffffffffff1673ffffffffffffffffffffffffffffffffffffffff1660008054906101000a900473ffffffffffffffffffffffffffffffffffffffff1673ffffffffffffffffffffffffffffffffffffffff167f8d32c9dd498e08090b44a0f77fe9ec0278851f9dffc4b430428411243e7df07642604051610a2e919061360b565b60405180910390a3600160009054906101000a900473ffffffffffffffffffffffffffffffffffffffff166000806101000a81548173ffffffffffffffffffffffffffffffffffffffff021916908373ffffffffffffffffffffffffffffffffffffffff1602179055506000600160006101000a81548173ffffffffffffffffffffffffffffffffffffffff021916908373ffffffffffffffffffffffffffffffffffffffff1602179055506000600281905550565b60008054906101000a900473ffffffffffffffffffffffffffffffffffffffff1681565b600160009054906101000a900473ffffffffffffffffffffffffffffffffffffffff1681565b60008060008060008060008089896004908092610b4d939291906136f5565b810190610b5a9190613be1565b945094509450945094508a851115610ba7576040517f08c379a0000000000000000000000000000000000000000000000000000000008152600401610b9e90613cea565b60405180910390fd5b8b73ffffffffffffffffffffffffffffffffffffffff1683600081518110610bd257610bd1613d0a565b5b602002602001015173ffffffffffffffffffffffffffffffffffffffff1614610c30576040517f08c379a0000000000000000000000000000000000000000000000000000000008152600401610c2790613dab565b60405180910390fd5b610c3d8585858585611229565b97509750975050505050509450945094915050565b60008060008060008060008089896004908092610c71939291906136f5565b810190610c7e9190613be1565b945094509450945094508a841115610ccb576040517f08c379a0000000000000000000000000000000000000000000000000000000008152600401610cc290613e3d565b60405180910390fd5b8b73ffffffffffffffffffffffffffffffffffffffff1683600081518110610cf657610cf5613d0a565b5b602002602001015173ffffffffffffffffffffffffffffffffffffffff1614610d54576040517f08c379a0000000000000000000000000000000000000000000000000000000008152600401610d4b90613dab565b60405180910390fd5b610d6185858585856113d0565b97509750975050505050509450945094915050565b60008060008060008060008089896004908092610d95939291906136f5565b810190610da29190613be1565b945094509450945094508a841115610def576040517f08c379a0000000000000000000000000000000000000000000000000000000008152600401610de690613ecf565b60405180910390fd5b8b73ffffffffffffffffffffffffffffffffffffffff1683600081518110610e1a57610e19613d0a565b5b602002602001015173ffffffffffffffffffffffffffffffffffffffff1614610e78576040517f08c379a0000000000000000000000000000000000000000000000000000000008152600401610e6f90613f61565b60405180910390fd5b610e85858585858561156b565b97509750975050505050509450945094915050565b60008060008060008060008089896004908092610eb9939291906136f5565b810190610ec69190613be1565b945094509450945094508a851115610f13576040517f08c379a0000000000000000000000000000000000000000000000000000000008152600401610f0a90613ecf565b60405180910390fd5b8b73ffffffffffffffffffffffffffffffffffffffff1683600081518110610f3e57610f3d613d0a565b5b602002602001015173ffffffffffffffffffffffffffffffffffffffff1614610f9c576040517f08c379a0000000000000000000000000000000000000000000000000000000008152600401610f9390613f61565b60405180910390fd5b610fa9858585858561189e565b97509750975050505050509450945094915050565b60008060008060008060008089896004908092610fdd939291906136f5565b810190610fea9190613be1565b945094509450945094508a851115611037576040517f08c379a000000000000000000000000000000000000000000000000000000000815260040161102e90613ecf565b60405180910390fd5b8b73ffffffffffffffffffffffffffffffffffffffff168360008151811061106257611061613d0a565b5b602002602001015173ffffffffffffffffffffffffffffffffffffffff16146110c0576040517f08c379a00000000000000000000000000000000000000000000000000000000081526004016110b790613f61565b60405180910390fd5b6110cd8585858585611bdd565b97509750975050505050509450945094915050565b60008060008060008060008089896004908092611101939291906136f5565b81019061110e9190613be1565b945094509450945094508a85111561115b576040517f08c379a000000000000000000000000000000000000000000000000000000000815260040161115290613ecf565b60405180910390fd5b8b73ffffffffffffffffffffffffffffffffffffffff168360008151811061118657611185613d0a565b5b602002602001015173ffffffffffffffffffffffffffffffffffffffff16146111e4576040517f08c379a00000000000000000000000000000000000000000000000000000000081526004016111db90613f61565b60405180910390fd5b6111f18585858585611f3f565b97509750975050505050509450945094915050565b6000808273ffffffffffffffffffffffffffffffffffffffff163b119050919050565b60008060008342811015611272576040517f08c379a000000000000000000000000000000000000000000000000000000000815260040161126990613fcd565b60405180910390fd5b600061129f7f00000000000000000000000000000000000000000000000000000000000000008b8a612280565b90508881600183516112b19190613fed565b815181106112c2576112c1613d0a565b5b6020026020010151101561130b576040517f08c379a000000000000000000000000000000000000000000000000000000000815260040161130290614093565b60405180910390fd5b6113ac8860008151811061132257611321613d0a565b5b602002602001015161138b7f00000000000000000000000000000000000000000000000000000000000000008b60008151811061136257611361613d0a565b5b60200260200101518c60018151811061137e5761137d613d0a565b5b602002602001015161240b565b8360008151811061139f5761139e613d0a565b5b6020026020010151612492565b6113b78189896125c8565b8095508196508297505050505050955095509592505050565b60008060008342811015611419576040517f08c379a000000000000000000000000000000000000000000000000000000000815260040161141090613fcd565b60405180910390fd5b60006114467f00000000000000000000000000000000000000000000000000000000000000008b8a612880565b9050888160008151811061145d5761145c613d0a565b5b602002602001015111156114a6576040517f08c379a000000000000000000000000000000000000000000000000000000000815260040161149d90614125565b60405180910390fd5b611547886000815181106114bd576114bc613d0a565b5b60200260200101516115267f00000000000000000000000000000000000000000000000000000000000000008b6000815181106114fd576114fc613d0a565b5b60200260200101518c60018151811061151957611518613d0a565b5b602002602001015161240b565b8360008151811061153a57611539613d0a565b5b6020026020010151612492565b6115528189896125c8565b8095508196508297505050505050955095509592505050565b600080600083428110156115b4576040517f08c379a00000000000000000000000000000000000000000000000000000000081526004016115ab90613fcd565b60405180910390fd5b7f000000000000000000000000000000000000000000000000000000000000000073ffffffffffffffffffffffffffffffffffffffff1687600189516115fa9190613fed565b8151811061160b5761160a613d0a565b5b602002602001015173ffffffffffffffffffffffffffffffffffffffff1614611669576040517f08c379a000000000000000000000000000000000000000000000000000000000815260040161166090614191565b60405180910390fd5b60006116967f00000000000000000000000000000000000000000000000000000000000000008b8a612880565b905088816000815181106116ad576116ac613d0a565b5b602002602001015111156116f6576040517f08c379a00000000000000000000000000000000000000000000000000000000081526004016116ed90614125565b60405180910390fd5b6117978860008151811061170d5761170c613d0a565b5b60200260200101516117767f00000000000000000000000000000000000000000000000000000000000000008b60008151811061174d5761174c613d0a565b5b60200260200101518c60018151811061176957611768613d0a565b5b602002602001015161240b565b8360008151811061178a57611789613d0a565b5b6020026020010151612492565b6117a28189306125c8565b8095508196508297505050507f000000000000000000000000000000000000000000000000000000000000000073ffffffffffffffffffffffffffffffffffffffff16632e1a7d4d82600184516117f99190613fed565b8151811061180a57611809613d0a565b5b60200260200101516040518263ffffffff1660e01b815260040161182e919061360b565b600060405180830381600087803b15801561184857600080fd5b505af115801561185c573d6000803e3d6000fd5b505050506118918782600184516118739190613fed565b8151811061188457611883613d0a565b5b6020026020010151612a1b565b5050955095509592505050565b600080600083428110156118e7576040517f08c379a00000000000000000000000000000000000000000000000000000000081526004016118de90613fcd565b60405180910390fd5b7f000000000000000000000000000000000000000000000000000000000000000073ffffffffffffffffffffffffffffffffffffffff16876001895161192d9190613fed565b8151811061193e5761193d613d0a565b5b602002602001015173ffffffffffffffffffffffffffffffffffffffff161461199c576040517f08c379a000000000000000000000000000000000000000000000000000000000815260040161199390614191565b60405180910390fd5b60006119c97f00000000000000000000000000000000000000000000000000000000000000008b8a612280565b90508881600183516119db9190613fed565b815181106119ec576119eb613d0a565b5b60200260200101511015611a35576040517f08c379a0000000000000000000000000000000000000000000000000000000008152600401611a2c90614223565b60405180910390fd5b611ad688600081518110611a4c57611a4b613d0a565b5b6020026020010151611ab57f00000000000000000000000000000000000000000000000000000000000000008b600081518110611a8c57611a8b613d0a565b5b60200260200101518c600181518110611aa857611aa7613d0a565b5b602002602001015161240b565b83600081518110611ac957611ac8613d0a565b5b6020026020010151612492565b611ae18189306125c8565b8095508196508297505050507f000000000000000000000000000000000000000000000000000000000000000073ffffffffffffffffffffffffffffffffffffffff16632e1a7d4d8260018451611b389190613fed565b81518110611b4957611b48613d0a565b5b60200260200101516040518263ffffffff1660e01b8152600401611b6d919061360b565b600060405180830381600087803b158015611b8757600080fd5b505af1158015611b9b573d6000803e3d6000fd5b50505050611bd0878260018451611bb29190613fed565b81518110611bc357611bc2613d0a565b5b6020026020010151612a1b565b5050955095509592505050565b60008060008342811015611c26576040517f08c379a0000000000000000000000000000000000000000000000000000000008152600401611c1d90613fcd565b60405180910390fd5b611cac87600081518110611c3d57611c3c613d0a565b5b6020026020010151611ca67f00000000000000000000000000000000000000000000000000000000000000008a600081518110611c7d57611c7c613d0a565b5b60200260200101518b600181518110611c9957611c98613d0a565b5b602002602001015161240b565b8b612492565b60008760018951611cbd9190613fed565b81518110611cce57611ccd613d0a565b5b602002602001015173ffffffffffffffffffffffffffffffffffffffff166370a08231886040518263ffffffff1660e01b8152600401611d0e9190613653565b602060405180830381865afa158015611d2b573d6000803e3d6000fd5b505050506040513d601f19601f82011682018060405250810190611d4f9190614258565b9050611d5b8888612b1b565b88611e0f828a60018c51611d6f9190613fed565b81518110611d8057611d7f613d0a565b5b602002602001015173ffffffffffffffffffffffffffffffffffffffff166370a082318b6040518263ffffffff1660e01b8152600401611dc09190613653565b602060405180830381865afa158015611ddd573d6000803e3d6000fd5b505050506040513d601f19601f82011682018060405250810190611e019190614258565b612ecc90919063ffffffff16565b1015611e50576040517f08c379a0000000000000000000000000000000000000000000000000000000008152600401611e4790614223565b60405180910390fd5b8760018951611e5f9190613fed565b81518110611e7057611e6f613d0a565b5b602002602001015187611f2c838b60018d51611e8c9190613fed565b81518110611e9d57611e9c613d0a565b5b602002602001015173ffffffffffffffffffffffffffffffffffffffff166370a082318c6040518263ffffffff1660e01b8152600401611edd9190613653565b602060405180830381865afa158015611efa573d6000803e3d6000fd5b505050506040513d601f19601f82011682018060405250810190611f1e9190614258565b612ecc90919063ffffffff16565b9450945094505050955095509592505050565b60008060008342811015611f88576040517f08c379a0000000000000000000000000000000000000000000000000000000008152600401611f7f90613fcd565b60405180910390fd5b7f000000000000000000000000000000000000000000000000000000000000000073ffffffffffffffffffffffffffffffffffffffff168760018951611fce9190613fed565b81518110611fdf57611fde613d0a565b5b602002602001015173ffffffffffffffffffffffffffffffffffffffff161461203d576040517f08c379a000000000000000000000000000000000000000000000000000000000815260040161203490614191565b60405180910390fd5b6120c38760008151811061205457612053613d0a565b5b60200260200101516120bd7f00000000000000000000000000000000000000000000000000000000000000008a60008151811061209457612093613d0a565b5b60200260200101518b6001815181106120b0576120af613d0a565b5b602002602001015161240b565b8b612492565b6120cd8730612b1b565b60007f000000000000000000000000000000000000000000000000000000000000000073ffffffffffffffffffffffffffffffffffffffff166370a08231306040518263ffffffff1660e01b81526004016121289190613653565b602060405180830381865afa158015612145573d6000803e3d6000fd5b505050506040513d601f19601f820116820180604052508101906121699190614258565b9050888110156121ae576040517f08c379a00000000000000000000000000000000000000000000000000000000081526004016121a590614223565b60405180910390fd5b7f000000000000000000000000000000000000000000000000000000000000000073ffffffffffffffffffffffffffffffffffffffff16632e1a7d4d826040518263ffffffff1660e01b8152600401612207919061360b565b600060405180830381600087803b15801561222157600080fd5b505af1158015612235573d6000803e3d6000fd5b505050506122438782612a1b565b87600189516122529190613fed565b8151811061226357612262613d0a565b5b602002602001015187829450945094505050955095509592505050565b60606002825110156122c7576040517f08c379a00000000000000000000000000000000000000000000000000000000081526004016122be906142d1565b60405180910390fd5b815167ffffffffffffffff8111156122e2576122e1613a65565b5b6040519080825280602002602001820160405280156123105781602001602082028036833780820191505090505b509050828160008151811061232857612327613d0a565b5b60200260200101818152505060005b600183516123459190613fed565b8110156124035760008061239a8786858151811061236657612365613d0a565b5b60200260200101518760018761237c9190613926565b8151811061238d5761238c613d0a565b5b6020026020010151612f25565b915091506123c38484815181106123b4576123b3613d0a565b5b60200260200101518383613028565b846001856123d19190613926565b815181106123e2576123e1613d0a565b5b602002602001018181525050505080806123fb906142f1565b915050612337565b509392505050565b60008373ffffffffffffffffffffffffffffffffffffffff1663e6a4390584846040518363ffffffff1660e01b815260040161244892919061433a565b602060405180830381865afa158015612465573d6000803e3d6000fd5b505050506040513d601f19601f820116820180604052508101906124899190614378565b90509392505050565b6000808473ffffffffffffffffffffffffffffffffffffffff1663a9059cbb85856040516024016124c49291906143a5565b6040516020818303038152906040529060e01b6020820180517bffffffffffffffffffffffffffffffffffffffffffffffffffffffff83818316178352505050506040516125129190614448565b6000604051808303816000865af19150503d806000811461254f576040519150601f19603f3d011682016040523d82523d6000602084013e612554565b606091505b509150915081801561258257506000815114806125815750808060200190518101906125809190614497565b5b5b6125c1576040517f08c379a00000000000000000000000000000000000000000000000000000000081526004016125b890614510565b60405180910390fd5b5050505050565b6000806000805b600186516125dd9190613fed565b81101561281f576000808783815181106125fa576125f9613d0a565b5b6020026020010151886001856126109190613926565b8151811061262157612620613d0a565b5b6020026020010151915091506000612639838361312e565b50905060008a60018661264c9190613926565b8151811061265d5761265c613d0a565b5b602002602001015190506000808373ffffffffffffffffffffffffffffffffffffffff168673ffffffffffffffffffffffffffffffffffffffff16146126a5578260006126a9565b6000835b91509150600060028d516126bd9190613fed565b88106126c9578b61271b565b61271a7f0000000000000000000000000000000000000000000000000000000000000000878f60028c6126fc9190613926565b8151811061270d5761270c613d0a565b5b602002602001015161240b565b5b90506127487f0000000000000000000000000000000000000000000000000000000000000000888861240b565b73ffffffffffffffffffffffffffffffffffffffff1663022c0d9f848484600067ffffffffffffffff81111561278157612780613a65565b5b6040519080825280601f01601f1916602001820160405280156127b35781602001600182028036833780820191505090505b506040518563ffffffff1660e01b81526004016127d3949392919061457a565b600060405180830381600087803b1580156127ed57600080fd5b505af1158015612801573d6000803e3d6000fd5b50505050505050505050508080612817906142f1565b9150506125cf565b50846001865161282f9190613fed565b815181106128405761283f613d0a565b5b60200260200101518487600189516128589190613fed565b8151811061286957612868613d0a565b5b602002602001015192509250925093509350939050565b60606002825110156128c7576040517f08c379a00000000000000000000000000000000000000000000000000000000081526004016128be906142d1565b60405180910390fd5b815167ffffffffffffffff8111156128e2576128e1613a65565b5b6040519080825280602002602001820160405280156129105781602001602082028036833780820191505090505b5090508281600183516129239190613fed565b8151811061293457612933613d0a565b5b6020026020010181815250506000600183516129509190613fed565b90505b6000811115612a13576000806129aa87866001866129719190613fed565b8151811061298257612981613d0a565b5b602002602001015187868151811061299d5761299c613d0a565b5b6020026020010151612f25565b915091506129d38484815181106129c4576129c3613d0a565b5b6020026020010151838361325c565b846001856129e19190613fed565b815181106129f2576129f1613d0a565b5b60200260200101818152505050508080612a0b906145c6565b915050612953565b509392505050565b60008273ffffffffffffffffffffffffffffffffffffffff1682600067ffffffffffffffff811115612a5057612a4f613a65565b5b6040519080825280601f01601f191660200182016040528015612a825781602001600182028036833780820191505090505b50604051612a909190614448565b60006040518083038185875af1925050503d8060008114612acd576040519150601f19603f3d011682016040523d82523d6000602084013e612ad2565b606091505b5050905080612b16576040517f08c379a0000000000000000000000000000000000000000000000000000000008152600401612b0d90614662565b60405180910390fd5b505050565b60005b60018351612b2c9190613fed565b811015612ec757600080848381518110612b4957612b48613d0a565b5b602002602001015185600185612b5f9190613926565b81518110612b7057612b6f613d0a565b5b6020026020010151915091506000612b88838361312e565b5090506000612bb87f0000000000000000000000000000000000000000000000000000000000000000858561240b565b90506000806000808473ffffffffffffffffffffffffffffffffffffffff16630902f1ac6040518163ffffffff1660e01b8152600401606060405180830381865afa158015612c0b573d6000803e3d6000fd5b505050506040513d601f19601f82011682018060405250810190612c2f9190614704565b506dffffffffffffffffffffffffffff1691506dffffffffffffffffffffffffffff1691506000808773ffffffffffffffffffffffffffffffffffffffff168a73ffffffffffffffffffffffffffffffffffffffff1614612c91578284612c94565b83835b91509150612d24828b73ffffffffffffffffffffffffffffffffffffffff166370a082318a6040518263ffffffff1660e01b8152600401612cd59190613653565b602060405180830381865afa158015612cf2573d6000803e3d6000fd5b505050506040513d601f19601f82011682018060405250810190612d169190614258565b612ecc90919063ffffffff16565b9550612d31868383613028565b9450505050506000808573ffffffffffffffffffffffffffffffffffffffff168873ffffffffffffffffffffffffffffffffffffffff1614612d7557826000612d79565b6000835b91509150600060028c51612d8d9190613fed565b8a10612d99578a612deb565b612dea7f0000000000000000000000000000000000000000000000000000000000000000898e60028e612dcc9190613926565b81518110612ddd57612ddc613d0a565b5b602002602001015161240b565b5b90508573ffffffffffffffffffffffffffffffffffffffff1663022c0d9f848484600067ffffffffffffffff811115612e2757612e26613a65565b5b6040519080825280601f01601f191660200182016040528015612e595781602001600182028036833780820191505090505b506040518563ffffffff1660e01b8152600401612e79949392919061457a565b600060405180830381600087803b158015612e9357600080fd5b505af1158015612ea7573d6000803e3d6000fd5b505050505050505050505050508080612ebf906142f1565b915050612b1e565b505050565b6000828284612edb9190613fed565b9150811115612f1f576040517f08c379a0000000000000000000000000000000000000000000000000000000008152600401612f16906147a3565b60405180910390fd5b92915050565b6000806000612f34858561312e565b509050600080612f4588888861240b565b73ffffffffffffffffffffffffffffffffffffffff16630902f1ac6040518163ffffffff1660e01b8152600401606060405180830381865afa158015612f8f573d6000803e3d6000fd5b505050506040513d601f19601f82011682018060405250810190612fb39190614704565b506dffffffffffffffffffffffffffff1691506dffffffffffffffffffffffffffff1691508273ffffffffffffffffffffffffffffffffffffffff168773ffffffffffffffffffffffffffffffffffffffff1614613012578082613015565b81815b8095508196505050505050935093915050565b600080841161306c576040517f08c379a000000000000000000000000000000000000000000000000000000000815260040161306390614835565b60405180910390fd5b60008311801561307c5750600082115b6130bb576040517f08c379a00000000000000000000000000000000000000000000000000000000081526004016130b2906148c7565b60405180910390fd5b60006130d26103e58661336f90919063ffffffff16565b905060006130e9848361336f90919063ffffffff16565b90506000613114836131066103e88961336f90919063ffffffff16565b6133dc90919063ffffffff16565b905080826131229190614916565b93505050509392505050565b6000808273ffffffffffffffffffffffffffffffffffffffff168473ffffffffffffffffffffffffffffffffffffffff1614156131a0576040517f08c379a0000000000000000000000000000000000000000000000000000000008152600401613197906149b9565b60405180910390fd5b8273ffffffffffffffffffffffffffffffffffffffff168473ffffffffffffffffffffffffffffffffffffffff16106131da5782846131dd565b83835b8092508193505050600073ffffffffffffffffffffffffffffffffffffffff168273ffffffffffffffffffffffffffffffffffffffff161415613255576040517f08c379a000000000000000000000000000000000000000000000000000000000815260040161324c90614a25565b60405180910390fd5b9250929050565b60008084116132a0576040517f08c379a000000000000000000000000000000000000000000000000000000000815260040161329790614ab7565b60405180910390fd5b6000831180156132b05750600082115b6132ef576040517f08c379a00000000000000000000000000000000000000000000000000000000081526004016132e6906148c7565b60405180910390fd5b60006133186103e861330a878761336f90919063ffffffff16565b61336f90919063ffffffff16565b905060006133436103e56133358887612ecc90919063ffffffff16565b61336f90919063ffffffff16565b9050613364600182846133569190614916565b6133dc90919063ffffffff16565b925050509392505050565b6000808214806133975750828283856133889190614ad7565b9250826133959190614916565b145b6133d6576040517f08c379a00000000000000000000000000000000000000000000000000000000081526004016133cd90614b7d565b60405180910390fd5b92915050565b60008282846133eb9190613926565b915081101561342f576040517f08c379a000000000000000000000000000000000000000000000000000000000815260040161342690614be9565b60405180910390fd5b92915050565b6000604051905090565b600080fd5b600080fd5b600073ffffffffffffffffffffffffffffffffffffffff82169050919050565b600061347482613449565b9050919050565b61348481613469565b811461348f57600080fd5b50565b6000813590506134a18161347b565b92915050565b6000819050919050565b6134ba816134a7565b81146134c557600080fd5b50565b6000813590506134d7816134b1565b92915050565b600080fd5b600080fd5b600080fd5b60008083601f840112613502576135016134dd565b5b8235905067ffffffffffffffff81111561351f5761351e6134e2565b5b60208301915083600182028301111561353b5761353a6134e7565b5b9250929050565b6000806000806060858703121561355c5761355b61343f565b5b600061356a87828801613492565b945050602061357b878288016134c8565b935050604085013567ffffffffffffffff81111561359c5761359b613444565b5b6135a8878288016134ec565b925092505092959194509250565b6135bf81613469565b82525050565b6135ce816134a7565b82525050565b60006060820190506135e960008301866135b6565b6135f660208301856135b6565b61360360408301846135c5565b949350505050565b600060208201905061362060008301846135c5565b92915050565b60006020828403121561363c5761363b61343f565b5b600061364a84828501613492565b91505092915050565b600060208201905061366860008301846135b6565b92915050565b600082825260208201905092915050565b7f4d50433a206f6e6c79206d706300000000000000000000000000000000000000600082015250565b60006136b5600d8361366e565b91506136c08261367f565b602082019050919050565b600060208201905081810360008301526136e4816136a8565b9050919050565b600080fd5b600080fd5b60008085851115613709576137086136eb565b5b8386111561371a576137196136f0565b5b6001850283019150848603905094509492505050565b600082905092915050565b60007fffffffff0000000000000000000000000000000000000000000000000000000082169050919050565b600082821b905092915050565b60006137808383613730565b8261378b813561373b565b925060048210156137cb576137c67fffffffff0000000000000000000000000000000000000000000000000000000083600403600802613767565b831692505b505092915050565b7f4d756c7469636861696e547261646550726f78793a205468697320747261646560008201527f50726f7879206e6f7420737570706f727420746f20706172736520706172616d60208201527f2064617461210000000000000000000000000000000000000000000000000000604082015250565b600061385560468361366e565b9150613860826137d3565b606082019050919050565b6000602082019050818103600083015261388481613848565b9050919050565b7f4d50433a206d706320697320746865207a65726f206164647265737300000000600082015250565b60006138c1601c8361366e565b91506138cc8261388b565b602082019050919050565b600060208201905081810360008301526138f0816138b4565b9050919050565b7f4e487b7100000000000000000000000000000000000000000000000000000000600052601160045260246000fd5b6000613931826134a7565b915061393c836134a7565b9250827fffffffffffffffffffffffffffffffffffffffffffffffffffffffffffffffff03821115613971576139706138f7565b5b828201905092915050565b7f4d50433a206f6e6c792070656e64696e67206d70630000000000000000000000600082015250565b60006139b260158361366e565b91506139bd8261397c565b602082019050919050565b600060208201905081810360008301526139e1816139a5565b9050919050565b7f4d50433a2074696d65206265666f72652064656c61794d504300000000000000600082015250565b6000613a1e60198361366e565b9150613a29826139e8565b602082019050919050565b60006020820190508181036000830152613a4d81613a11565b9050919050565b6000601f19601f8301169050919050565b7f4e487b7100000000000000000000000000000000000000000000000000000000600052604160045260246000fd5b613a9d82613a54565b810181811067ffffffffffffffff82111715613abc57613abb613a65565b5b80604052505050565b6000613acf613435565b9050613adb8282613a94565b919050565b600067ffffffffffffffff821115613afb57613afa613a65565b5b602082029050602081019050919050565b6000613b1f613b1a84613ae0565b613ac5565b90508083825260208201905060208402830185811115613b4257613b416134e7565b5b835b81811015613b6b5780613b578882613492565b845260208401935050602081019050613b44565b5050509392505050565b600082601f830112613b8a57613b896134dd565b5b8135613b9a848260208601613b0c565b91505092915050565b6000613bae82613449565b9050919050565b613bbe81613ba3565b8114613bc957600080fd5b50565b600081359050613bdb81613bb5565b92915050565b600080600080600060a08688031215613bfd57613bfc61343f565b5b6000613c0b888289016134c8565b9550506020613c1c888289016134c8565b945050604086013567ffffffffffffffff811115613c3d57613c3c613444565b5b613c4988828901613b75565b9350506060613c5a88828901613bcc565b9250506080613c6b888289016134c8565b9150509295509295909350565b7f4d756c7469636861696e547261646550726f78793a20616d6f756e74496e206d60008201527f757374206c657373207468616e20616d6f756e74000000000000000000000000602082015250565b6000613cd460348361366e565b9150613cdf82613c78565b604082019050919050565b60006020820190508181036000830152613d0381613cc7565b9050919050565b7f4e487b7100000000000000000000000000000000000000000000000000000000600052603260045260246000fd5b7f4d756c7469636861696e547261646550726f78793a20696e70757420746f6b6560008201527f6e206e6f7420657175616c7320706174685b305d000000000000000000000000602082015250565b6000613d9560348361366e565b9150613da082613d39565b604082019050919050565b60006020820190508181036000830152613dc481613d88565b9050919050565b7f4d756c7469636861696e547261646550726f78793a20616d6f756e74496e4d6160008201527f78206d757374206c657373207468616e20616d6f756e74000000000000000000602082015250565b6000613e2760378361366e565b9150613e3282613dcb565b604082019050919050565b60006020820190508181036000830152613e5681613e1a565b9050919050565b7f4d756c7469636861696e547261646550726f78793a207377617020616d6f756e60008201527f7420686173206572726f72000000000000000000000000000000000000000000602082015250565b6000613eb9602b8361366e565b9150613ec482613e5d565b604082019050919050565b60006020820190508181036000830152613ee881613eac565b9050919050565b7f4d756c7469636861696e547261646550726f78793a207377617020746f6b656e60008201527f20686173206572726f7200000000000000000000000000000000000000000000602082015250565b6000613f4b602a8361366e565b9150613f5682613eef565b604082019050919050565b60006020820190508181036000830152613f7a81613f3e565b9050919050565b7f556e69737761705632526f757465723a20455850495245440000000000000000600082015250565b6000613fb760188361366e565b9150613fc282613f81565b602082019050919050565b60006020820190508181036000830152613fe681613faa565b9050919050565b6000613ff8826134a7565b9150614003836134a7565b925082821015614016576140156138f7565b5b828203905092915050565b7f4d756c7469636861696e547261646550726f78793a20494e535546464943494560008201527f4e545f4f55545055545f414d4f554e5400000000000000000000000000000000602082015250565b600061407d60308361366e565b915061408882614021565b604082019050919050565b600060208201905081810360008301526140ac81614070565b9050919050565b7f556e69737761705632526f757465723a204558434553534956455f494e50555460008201527f5f414d4f554e5400000000000000000000000000000000000000000000000000602082015250565b600061410f60278361366e565b915061411a826140b3565b604082019050919050565b6000602082019050818103600083015261413e81614102565b9050919050565b7f556e69737761705632526f757465723a20494e56414c49445f50415448000000600082015250565b600061417b601d8361366e565b915061418682614145565b602082019050919050565b600060208201905081810360008301526141aa8161416e565b9050919050565b7f556e69737761705632526f757465723a20494e53554646494349454e545f4f5560008201527f545055545f414d4f554e54000000000000000000000000000000000000000000602082015250565b600061420d602b8361366e565b9150614218826141b1565b604082019050919050565b6000602082019050818103600083015261423c81614200565b9050919050565b600081519050614252816134b1565b92915050565b60006020828403121561426e5761426d61343f565b5b600061427c84828501614243565b91505092915050565b7f556e697377617056324c6962726172793a20494e56414c49445f504154480000600082015250565b60006142bb601e8361366e565b91506142c682614285565b602082019050919050565b600060208201905081810360008301526142ea816142ae565b9050919050565b60006142fc826134a7565b91507fffffffffffffffffffffffffffffffffffffffffffffffffffffffffffffffff82141561432f5761432e6138f7565b5b600182019050919050565b600060408201905061434f60008301856135b6565b61435c60208301846135b6565b9392505050565b6000815190506143728161347b565b92915050565b60006020828403121561438e5761438d61343f565b5b600061439c84828501614363565b91505092915050565b60006040820190506143ba60008301856135b6565b6143c760208301846135c5565b9392505050565b600081519050919050565b600081905092915050565b60005b838110156144025780820151818401526020810190506143e7565b83811115614411576000848401525b50505050565b6000614422826143ce565b61442c81856143d9565b935061443c8185602086016143e4565b80840191505092915050565b60006144548284614417565b915081905092915050565b60008115159050919050565b6144748161445f565b811461447f57600080fd5b50565b6000815190506144918161446b565b92915050565b6000602082840312156144ad576144ac61343f565b5b60006144bb84828501614482565b91505092915050565b7f5472616e7366657248656c7065723a205452414e534645525f4641494c454400600082015250565b60006144fa601f8361366e565b9150614505826144c4565b602082019050919050565b60006020820190508181036000830152614529816144ed565b9050919050565b600082825260208201905092915050565b600061454c826143ce565b6145568185614530565b93506145668185602086016143e4565b61456f81613a54565b840191505092915050565b600060808201905061458f60008301876135c5565b61459c60208301866135c5565b6145a960408301856135b6565b81810360608301526145bb8184614541565b905095945050505050565b60006145d1826134a7565b915060008214156145e5576145e46138f7565b5b600182039050919050565b7f5472616e7366657248656c7065723a204554485f5452414e534645525f46414960008201527f4c45440000000000000000000000000000000000000000000000000000000000602082015250565b600061464c60238361366e565b9150614657826145f0565b604082019050919050565b6000602082019050818103600083015261467b8161463f565b9050919050565b60006dffffffffffffffffffffffffffff82169050919050565b6146a581614682565b81146146b057600080fd5b50565b6000815190506146c28161469c565b92915050565b600063ffffffff82169050919050565b6146e1816146c8565b81146146ec57600080fd5b50565b6000815190506146fe816146d8565b92915050565b60008060006060848603121561471d5761471c61343f565b5b600061472b868287016146b3565b935050602061473c868287016146b3565b925050604061474d868287016146ef565b9150509250925092565b7f64732d6d6174682d7375622d756e646572666c6f770000000000000000000000600082015250565b600061478d60158361366e565b915061479882614757565b602082019050919050565b600060208201905081810360008301526147bc81614780565b9050919050565b7f556e697377617056324c6962726172793a20494e53554646494349454e545f4960008201527f4e5055545f414d4f554e54000000000000000000000000000000000000000000602082015250565b600061481f602b8361366e565b915061482a826147c3565b604082019050919050565b6000602082019050818103600083015261484e81614812565b9050919050565b7f556e697377617056324c6962726172793a20494e53554646494349454e545f4c60008201527f4951554944495459000000000000000000000000000000000000000000000000602082015250565b60006148b160288361366e565b91506148bc82614855565b604082019050919050565b600060208201905081810360008301526148e0816148a4565b9050919050565b7f4e487b7100000000000000000000000000000000000000000000000000000000600052601260045260246000fd5b6000614921826134a7565b915061492c836134a7565b92508261493c5761493b6148e7565b5b828204905092915050565b7f556e697377617056324c6962726172793a204944454e544943414c5f4144445260008201527f4553534553000000000000000000000000000000000000000000000000000000602082015250565b60006149a360258361366e565b91506149ae82614947565b604082019050919050565b600060208201905081810360008301526149d281614996565b9050919050565b7f556e697377617056324c6962726172793a205a45524f5f414444524553530000600082015250565b6000614a0f601e8361366e565b9150614a1a826149d9565b602082019050919050565b60006020820190508181036000830152614a3e81614a02565b9050919050565b7f556e697377617056324c6962726172793a20494e53554646494349454e545f4f60008201527f55545055545f414d4f554e540000000000000000000000000000000000000000602082015250565b6000614aa1602c8361366e565b9150614aac82614a45565b604082019050919050565b60006020820190508181036000830152614ad081614a94565b9050919050565b6000614ae2826134a7565b9150614aed836134a7565b9250817fffffffffffffffffffffffffffffffffffffffffffffffffffffffffffffffff0483118215151615614b2657614b256138f7565b5b828202905092915050565b7f64732d6d6174682d6d756c2d6f766572666c6f77000000000000000000000000600082015250565b6000614b6760148361366e565b9150614b7282614b31565b602082019050919050565b60006020820190508181036000830152614b9681614b5a565b9050919050565b7f64732d6d6174682d6164642d6f766572666c6f77000000000000000000000000600082015250565b6000614bd360148361366e565b9150614bde82614b9d565b602082019050919050565b60006020820190508181036000830152614c0281614bc6565b905091905056fea26469706673582212204fc9a27a1df03faaafcb838d7c222471f5429eae68454a04387451564af8b6bb64736f6c634300080c0033",
			"opcodes": "PUSH1 0xC0 PUSH1 0x40 MSTORE CALLVALUE DUP1 ISZERO PUSH3 0x11 JUMPI PUSH1 0x0 DUP1 REVERT JUMPDEST POP PUSH1 0x40 MLOAD PUSH3 0x505E CODESIZE SUB DUP1 PUSH3 0x505E DUP4 CODECOPY DUP2 DUP2 ADD PUSH1 0x40 MSTORE DUP2 ADD SWAP1 PUSH3 0x37 SWAP2 SWAP1 PUSH3 0x24F JUMP JUMPDEST DUP3 PUSH1 0x0 PUSH20 0xFFFFFFFFFFFFFFFFFFFFFFFFFFFFFFFFFFFFFFFF AND DUP2 PUSH20 0xFFFFFFFFFFFFFFFFFFFFFFFFFFFFFFFFFFFFFFFF AND EQ ISZERO PUSH3 0xAB JUMPI PUSH1 0x40 MLOAD PUSH32 0x8C379A000000000000000000000000000000000000000000000000000000000 DUP2 MSTORE PUSH1 0x4 ADD PUSH3 0xA2 SWAP1 PUSH3 0x30C JUMP JUMPDEST PUSH1 0x40 MLOAD DUP1 SWAP2 SUB SWAP1 REVERT JUMPDEST DUP1 PUSH1 0x0 DUP1 PUSH2 0x100 EXP DUP2 SLOAD DUP2 PUSH20 0xFFFFFFFFFFFFFFFFFFFFFFFFFFFFFFFFFFFFFFFF MUL NOT AND SWAP1 DUP4 PUSH20 0xFFFFFFFFFFFFFFFFFFFFFFFFFFFFFFFFFFFFFFFF AND MUL OR SWAP1 SSTORE POP PUSH1 0x0 DUP1 SLOAD SWAP1 PUSH2 0x100 EXP SWAP1 DIV PUSH20 0xFFFFFFFFFFFFFFFFFFFFFFFFFFFFFFFFFFFFFFFF AND PUSH20 0xFFFFFFFFFFFFFFFFFFFFFFFFFFFFFFFFFFFFFFFF AND PUSH1 0x0 PUSH20 0xFFFFFFFFFFFFFFFFFFFFFFFFFFFFFFFFFFFFFFFF AND PUSH32 0x581F388E3DD32E1BBF62A290F509C8245F9D0B71EF82614FB2B967AD0A10D5B9 TIMESTAMP PUSH1 0x40 MLOAD PUSH3 0x16B SWAP2 SWAP1 PUSH3 0x349 JUMP JUMPDEST PUSH1 0x40 MLOAD DUP1 SWAP2 SUB SWAP1 LOG3 POP DUP2 PUSH20 0xFFFFFFFFFFFFFFFFFFFFFFFFFFFFFFFFFFFFFFFF AND PUSH1 0x80 DUP2 PUSH20 0xFFFFFFFFFFFFFFFFFFFFFFFFFFFFFFFFFFFFFFFF AND DUP2 MSTORE POP POP DUP1 PUSH20 0xFFFFFFFFFFFFFFFFFFFFFFFFFFFFFFFFFFFFFFFF AND PUSH1 0xA0 DUP2 PUSH20 0xFFFFFFFFFFFFFFFFFFFFFFFFFFFFFFFFFFFFFFFF AND DUP2 MSTORE POP POP POP POP POP PUSH3 0x366 JUMP JUMPDEST PUSH1 0x0 DUP1 REVERT JUMPDEST PUSH1 0x0 PUSH20 0xFFFFFFFFFFFFFFFFFFFFFFFFFFFFFFFFFFFFFFFF DUP3 AND SWAP1 POP SWAP2 SWAP1 POP JUMP JUMPDEST PUSH1 0x0 PUSH3 0x217 DUP3 PUSH3 0x1EA JUMP JUMPDEST SWAP1 POP SWAP2 SWAP1 POP JUMP JUMPDEST PUSH3 0x229 DUP2 PUSH3 0x20A JUMP JUMPDEST DUP2 EQ PUSH3 0x235 JUMPI PUSH1 0x0 DUP1 REVERT JUMPDEST POP JUMP JUMPDEST PUSH1 0x0 DUP2 MLOAD SWAP1 POP PUSH3 0x249 DUP2 PUSH3 0x21E JUMP JUMPDEST SWAP3 SWAP2 POP POP JUMP JUMPDEST PUSH1 0x0 DUP1 PUSH1 0x0 PUSH1 0x60 DUP5 DUP7 SUB SLT ISZERO PUSH3 0x26B JUMPI PUSH3 0x26A PUSH3 0x1E5 JUMP JUMPDEST JUMPDEST PUSH1 0x0 PUSH3 0x27B DUP7 DUP3 DUP8 ADD PUSH3 0x238 JUMP JUMPDEST SWAP4 POP POP PUSH1 0x20 PUSH3 0x28E DUP7 DUP3 DUP8 ADD PUSH3 0x238 JUMP JUMPDEST SWAP3 POP POP PUSH1 0x40 PUSH3 0x2A1 DUP7 DUP3 DUP8 ADD PUSH3 0x238 JUMP JUMPDEST SWAP2 POP POP SWAP3 POP SWAP3 POP SWAP3 JUMP JUMPDEST PUSH1 0x0 DUP3 DUP3 MSTORE PUSH1 0x20 DUP3 ADD SWAP1 POP SWAP3 SWAP2 POP POP JUMP JUMPDEST PUSH32 0x4D50433A206D706320697320746865207A65726F206164647265737300000000 PUSH1 0x0 DUP3 ADD MSTORE POP JUMP JUMPDEST PUSH1 0x0 PUSH3 0x2F4 PUSH1 0x1C DUP4 PUSH3 0x2AB JUMP JUMPDEST SWAP2 POP PUSH3 0x301 DUP3 PUSH3 0x2BC JUMP JUMPDEST PUSH1 0x20 DUP3 ADD SWAP1 POP SWAP2 SWAP1 POP JUMP JUMPDEST PUSH1 0x0 PUSH1 0x20 DUP3 ADD SWAP1 POP DUP2 DUP2 SUB PUSH1 0x0 DUP4 ADD MSTORE PUSH3 0x327 DUP2 PUSH3 0x2E5 JUMP JUMPDEST SWAP1 POP SWAP2 SWAP1 POP JUMP JUMPDEST PUSH1 0x0 DUP2 SWAP1 POP SWAP2 SWAP1 POP JUMP JUMPDEST PUSH3 0x343 DUP2 PUSH3 0x32E JUMP JUMPDEST DUP3 MSTORE POP POP JUMP JUMPDEST PUSH1 0x0 PUSH1 0x20 DUP3 ADD SWAP1 POP PUSH3 0x360 PUSH1 0x0 DUP4 ADD DUP5 PUSH3 0x338 JUMP JUMPDEST SWAP3 SWAP2 POP POP JUMP JUMPDEST PUSH1 0x80 MLOAD PUSH1 0xA0 MLOAD PUSH2 0x4C3F PUSH3 0x41F PUSH1 0x0 CODECOPY PUSH1 0x0 DUP2 DUP2 PUSH2 0x7EB ADD MSTORE DUP2 DUP2 PUSH2 0x15B6 ADD MSTORE DUP2 DUP2 PUSH2 0x17B0 ADD MSTORE DUP2 DUP2 PUSH2 0x18E9 ADD MSTORE DUP2 DUP2 PUSH2 0x1AEF ADD MSTORE DUP2 DUP2 PUSH2 0x1F8A ADD MSTORE DUP2 DUP2 PUSH2 0x20D1 ADD MSTORE PUSH2 0x21B0 ADD MSTORE PUSH1 0x0 DUP2 DUP2 PUSH2 0x7C7 ADD MSTORE DUP2 DUP2 PUSH2 0x1279 ADD MSTORE DUP2 DUP2 PUSH2 0x132F ADD MSTORE DUP2 DUP2 PUSH2 0x1420 ADD MSTORE DUP2 DUP2 PUSH2 0x14CA ADD MSTORE DUP2 DUP2 PUSH2 0x1670 ADD MSTORE DUP2 DUP2 PUSH2 0x171A ADD MSTORE DUP2 DUP2 PUSH2 0x19A3 ADD MSTORE DUP2 DUP2 PUSH2 0x1A59 ADD MSTORE DUP2 DUP2 PUSH2 0x1C4A ADD MSTORE DUP2 DUP2 PUSH2 0x2061 ADD MSTORE DUP2 DUP2 PUSH2 0x26CE ADD MSTORE DUP2 DUP2 PUSH2 0x2722 ADD MSTORE DUP2 DUP2 PUSH2 0x2B92 ADD MSTORE PUSH2 0x2D9E ADD MSTORE PUSH2 0x4C3F PUSH1 0x0 RETURN INVALID PUSH1 0x80 PUSH1 0x40 MSTORE CALLVALUE DUP1 ISZERO PUSH2 0x10 JUMPI PUSH1 0x0 DUP1 REVERT JUMPDEST POP PUSH1 0x4 CALLDATASIZE LT PUSH2 0x93 JUMPI PUSH1 0x0 CALLDATALOAD PUSH1 0xE0 SHR DUP1 PUSH4 0x703D2BB7 GT PUSH2 0x66 JUMPI DUP1 PUSH4 0x703D2BB7 EQ PUSH2 0x122 JUMPI DUP1 PUSH4 0xAD5C4648 EQ PUSH2 0x140 JUMPI DUP1 PUSH4 0xB63B38D0 EQ PUSH2 0x15E JUMPI DUP1 PUSH4 0xF75C2664 EQ PUSH2 0x168 JUMPI DUP1 PUSH4 0xF830E7B4 EQ PUSH2 0x186 JUMPI PUSH2 0x93 JUMP JUMPDEST DUP1 PUSH4 0x565BB67 EQ PUSH2 0x98 JUMPI DUP1 PUSH4 0x160F1053 EQ PUSH2 0xCA JUMPI DUP1 PUSH4 0x5B7B018C EQ PUSH2 0xE8 JUMPI DUP1 PUSH4 0x6A42B8F8 EQ PUSH2 0x104 JUMPI JUMPDEST PUSH1 0x0 DUP1 REVERT JUMPDEST PUSH2 0xB2 PUSH1 0x4 DUP1 CALLDATASIZE SUB DUP2 ADD SWAP1 PUSH2 0xAD SWAP2 SWAP1 PUSH2 0x3542 JUMP JUMPDEST PUSH2 0x1A4 JUMP JUMPDEST PUSH1 0x40 MLOAD PUSH2 0xC1 SWAP4 SWAP3 SWAP2 SWAP1 PUSH2 0x35D4 JUMP JUMPDEST PUSH1 0x40 MLOAD DUP1 SWAP2 SUB SWAP1 RETURN JUMPDEST PUSH2 0xD2 PUSH2 0x5B8 JUMP JUMPDEST PUSH1 0x40 MLOAD PUSH2 0xDF SWAP2 SWAP1 PUSH2 0x360B JUMP JUMPDEST PUSH1 0x40 MLOAD DUP1 SWAP2 SUB SWAP1 RETURN JUMPDEST PUSH2 0x102 PUSH1 0x4 DUP1 CALLDATASIZE SUB DUP2 ADD SWAP1 PUSH2 0xFD SWAP2 SWAP1 PUSH2 0x3626 JUMP JUMPDEST PUSH2 0x5BE JUMP JUMPDEST STOP JUMPDEST PUSH2 0x10C PUSH2 0x7BE JUMP JUMPDEST PUSH1 0x40 MLOAD PUSH2 0x119 SWAP2 SWAP1 PUSH2 0x360B JUMP JUMPDEST PUSH1 0x40 MLOAD DUP1 SWAP2 SUB SWAP1 RETURN JUMPDEST PUSH2 0x12A PUSH2 0x7C5 JUMP JUMPDEST PUSH1 0x40 MLOAD PUSH2 0x137 SWAP2 SWAP1 PUSH2 0x3653 JUMP JUMPDEST PUSH1 0x40 MLOAD DUP1 SWAP2 SUB SWAP1 RETURN JUMPDEST PUSH2 0x148 PUSH2 0x7E9 JUMP JUMPDEST PUSH1 0x40 MLOAD PUSH2 0x155 SWAP2 SWAP1 PUSH2 0x3653 JUMP JUMPDEST PUSH1 0x40 MLOAD DUP1 SWAP2 SUB SWAP1 RETURN JUMPDEST PUSH2 0x166 PUSH2 0x80D JUMP JUMPDEST STOP JUMPDEST PUSH2 0x170 PUSH2 0xAE4 JUMP JUMPDEST PUSH1 0x40 MLOAD PUSH2 0x17D SWAP2 SWAP1 PUSH2 0x3653 JUMP JUMPDEST PUSH1 0x40 MLOAD DUP1 SWAP2 SUB SWAP1 RETURN JUMPDEST PUSH2 0x18E PUSH2 0xB08 JUMP JUMPDEST PUSH1 0x40 MLOAD PUSH2 0x19B SWAP2 SWAP1 PUSH2 0x3653 JUMP JUMPDEST PUSH1 0x40 MLOAD DUP1 SWAP2 SUB SWAP1 RETURN JUMPDEST PUSH1 0x0 DUP1 PUSH1 0x0 DUP1 PUSH1 0x0 SWAP1 SLOAD SWAP1 PUSH2 0x100 EXP SWAP1 DIV PUSH20 0xFFFFFFFFFFFFFFFFFFFFFFFFFFFFFFFFFFFFFFFF AND PUSH20 0xFFFFFFFFFFFFFFFFFFFFFFFFFFFFFFFFFFFFFFFF AND CALLER PUSH20 0xFFFFFFFFFFFFFFFFFFFFFFFFFFFFFFFFFFFFFFFF AND EQ PUSH2 0x238 JUMPI PUSH1 0x40 MLOAD PUSH32 0x8C379A000000000000000000000000000000000000000000000000000000000 DUP2 MSTORE PUSH1 0x4 ADD PUSH2 0x22F SWAP1 PUSH2 0x36CB JUMP JUMPDEST PUSH1 0x40 MLOAD DUP1 SWAP2 SUB SWAP1 REVERT JUMPDEST PUSH1 0x0 DUP6 DUP6 PUSH1 0x0 SWAP1 PUSH1 0x4 SWAP3 PUSH2 0x24E SWAP4 SWAP3 SWAP2 SWAP1 PUSH2 0x36F5 JUMP JUMPDEST SWAP1 PUSH2 0x259 SWAP2 SWAP1 PUSH2 0x3774 JUMP JUMPDEST SWAP1 POP PUSH32 0x38ED1739EE07DAF49933F1800D1A9BC8D39A6876EA11E643F9C4C39C66DF0EE8 PUSH28 0xFFFFFFFFFFFFFFFFFFFFFFFFFFFFFFFFFFFFFFFFFFFFFFFFFFFFFFFF NOT AND DUP2 PUSH28 0xFFFFFFFFFFFFFFFFFFFFFFFFFFFFFFFFFFFFFFFFFFFFFFFFFFFFFFFF NOT AND EQ ISZERO PUSH2 0x2DE JUMPI PUSH2 0x2CD DUP9 DUP9 DUP9 DUP9 PUSH2 0xB2E JUMP JUMPDEST DUP1 SWAP5 POP DUP2 SWAP6 POP DUP3 SWAP7 POP POP POP POP PUSH2 0x5AD JUMP JUMPDEST PUSH32 0x8803DBEEF1ADFE1A9306DAA835152093F0A5085700E080F4DE0D56162DFADB09 PUSH28 0xFFFFFFFFFFFFFFFFFFFFFFFFFFFFFFFFFFFFFFFFFFFFFFFFFFFFFFFF NOT AND DUP2 PUSH28 0xFFFFFFFFFFFFFFFFFFFFFFFFFFFFFFFFFFFFFFFFFFFFFFFFFFFFFFFF NOT AND EQ ISZERO PUSH2 0x361 JUMPI PUSH2 0x350 DUP9 DUP9 DUP9 DUP9 PUSH2 0xC52 JUMP JUMPDEST DUP1 SWAP5 POP DUP2 SWAP6 POP DUP3 SWAP7 POP POP POP POP PUSH2 0x5AC JUMP JUMPDEST PUSH32 0x4A25D94A96FF7A29F18F4F1154F634D0BB2BC027B6D31AF01F47C4FDD038F225 PUSH28 0xFFFFFFFFFFFFFFFFFFFFFFFFFFFFFFFFFFFFFFFFFFFFFFFFFFFFFFFF NOT AND DUP2 PUSH28 0xFFFFFFFFFFFFFFFFFFFFFFFFFFFFFFFFFFFFFFFFFFFFFFFFFFFFFFFF NOT AND EQ ISZERO PUSH2 0x3E4 JUMPI PUSH2 0x3D3 DUP9 DUP9 DUP9 DUP9 PUSH2 0xD76 JUMP JUMPDEST DUP1 SWAP5 POP DUP2 SWAP6 POP DUP3 SWAP7 POP POP POP POP PUSH2 0x5AB JUMP JUMPDEST PUSH32 0x18CBAFE5FB6AB7D2558A55CCC138A3172AA304C3A08214C1AB07223DCB9E7F8E PUSH28 0xFFFFFFFFFFFFFFFFFFFFFFFFFFFFFFFFFFFFFFFFFFFFFFFFFFFFFFFF NOT AND DUP2 PUSH28 0xFFFFFFFFFFFFFFFFFFFFFFFFFFFFFFFFFFFFFFFFFFFFFFFFFFFFFFFF NOT AND EQ ISZERO PUSH2 0x467 JUMPI PUSH2 0x456 DUP9 DUP9 DUP9 DUP9 PUSH2 0xE9A JUMP JUMPDEST DUP1 SWAP5 POP DUP2 SWAP6 POP DUP3 SWAP7 POP POP POP POP PUSH2 0x5AA JUMP JUMPDEST PUSH32 0x5C11D79526CE10B4A02FAD7C13A4F0C7482B8F962C004E4F4D599003116C5F92 PUSH28 0xFFFFFFFFFFFFFFFFFFFFFFFFFFFFFFFFFFFFFFFFFFFFFFFFFFFFFFFF NOT AND DUP2 PUSH28 0xFFFFFFFFFFFFFFFFFFFFFFFFFFFFFFFFFFFFFFFFFFFFFFFFFFFFFFFF NOT AND EQ ISZERO PUSH2 0x4EA JUMPI PUSH2 0x4D9 DUP9 DUP9 DUP9 DUP9 PUSH2 0xFBE JUMP JUMPDEST DUP1 SWAP5 POP DUP2 SWAP6 POP DUP3 SWAP7 POP POP POP POP PUSH2 0x5A9 JUMP JUMPDEST PUSH32 0x791AC9477E2D4606A81A205CF3DD7BDB27673037D74725AFF8C552AD981CF090 PUSH28 0xFFFFFFFFFFFFFFFFFFFFFFFFFFFFFFFFFFFFFFFFFFFFFFFFFFFFFFFF NOT AND DUP2 PUSH28 0xFFFFFFFFFFFFFFFFFFFFFFFFFFFFFFFFFFFFFFFFFFFFFFFFFFFFFFFF NOT AND EQ ISZERO PUSH2 0x56D JUMPI PUSH2 0x55C DUP9 DUP9 DUP9 DUP9 PUSH2 0x10E2 JUMP JUMPDEST DUP1 SWAP5 POP DUP2 SWAP6 POP DUP3 SWAP7 POP POP POP POP PUSH2 0x5A8 JUMP JUMPDEST PUSH1 0x40 MLOAD PUSH32 0x8C379A000000000000000000000000000000000000000000000000000000000 DUP2 MSTORE PUSH1 0x4 ADD PUSH2 0x59F SWAP1 PUSH2 0x386B JUMP JUMPDEST PUSH1 0x40 MLOAD DUP1 SWAP2 SUB SWAP1 REVERT JUMPDEST JUMPDEST JUMPDEST JUMPDEST JUMPDEST JUMPDEST POP SWAP5 POP SWAP5 POP SWAP5 SWAP2 POP POP JUMP JUMPDEST PUSH1 0x2 SLOAD DUP2 JUMP JUMPDEST PUSH1 0x0 DUP1 SLOAD SWAP1 PUSH2 0x100 EXP SWAP1 DIV PUSH20 0xFFFFFFFFFFFFFFFFFFFFFFFFFFFFFFFFFFFFFFFF AND PUSH20 0xFFFFFFFFFFFFFFFFFFFFFFFFFFFFFFFFFFFFFFFF AND CALLER PUSH20 0xFFFFFFFFFFFFFFFFFFFFFFFFFFFFFFFFFFFFFFFF AND EQ PUSH2 0x64C JUMPI PUSH1 0x40 MLOAD PUSH32 0x8C379A000000000000000000000000000000000000000000000000000000000 DUP2 MSTORE PUSH1 0x4 ADD PUSH2 0x643 SWAP1 PUSH2 0x36CB JUMP JUMPDEST PUSH1 0x40 MLOAD DUP1 SWAP2 SUB SWAP1 REVERT JUMPDEST PUSH1 0x0 PUSH20 0xFFFFFFFFFFFFFFFFFFFFFFFFFFFFFFFFFFFFFFFF AND DUP2 PUSH20 0xFFFFFFFFFFFFFFFFFFFFFFFFFFFFFFFFFFFFFFFF AND EQ ISZERO PUSH2 0x6BC JUMPI PUSH1 0x40 MLOAD PUSH32 0x8C379A000000000000000000000000000000000000000000000000000000000 DUP2 MSTORE PUSH1 0x4 ADD PUSH2 0x6B3 SWAP1 PUSH2 0x38D7 JUMP JUMPDEST PUSH1 0x40 MLOAD DUP1 SWAP2 SUB SWAP1 REVERT JUMPDEST DUP1 PUSH1 0x1 PUSH1 0x0 PUSH2 0x100 EXP DUP2 SLOAD DUP2 PUSH20 0xFFFFFFFFFFFFFFFFFFFFFFFFFFFFFFFFFFFFFFFF MUL NOT AND SWAP1 DUP4 PUSH20 0xFFFFFFFFFFFFFFFFFFFFFFFFFFFFFFFFFFFFFFFF AND MUL OR SWAP1 SSTORE POP PUSH3 0x2A300 TIMESTAMP PUSH2 0x70C SWAP2 SWAP1 PUSH2 0x3926 JUMP JUMPDEST PUSH1 0x2 DUP2 SWAP1 SSTORE POP PUSH1 0x1 PUSH1 0x0 SWAP1 SLOAD SWAP1 PUSH2 0x100 EXP SWAP1 DIV PUSH20 0xFFFFFFFFFFFFFFFFFFFFFFFFFFFFFFFFFFFFFFFF AND PUSH20 0xFFFFFFFFFFFFFFFFFFFFFFFFFFFFFFFFFFFFFFFF AND PUSH1 0x0 DUP1 SLOAD SWAP1 PUSH2 0x100 EXP SWAP1 DIV PUSH20 0xFFFFFFFFFFFFFFFFFFFFFFFFFFFFFFFFFFFFFFFF AND PUSH20 0xFFFFFFFFFFFFFFFFFFFFFFFFFFFFFFFFFFFFFFFF AND PUSH32 0x581F388E3DD32E1BBF62A290F509C8245F9D0B71EF82614FB2B967AD0A10D5B9 PUSH1 0x2 SLOAD PUSH1 0x40 MLOAD PUSH2 0x7B3 SWAP2 SWAP1 PUSH2 0x360B JUMP JUMPDEST PUSH1 0x40 MLOAD DUP1 SWAP2 SUB SWAP1 LOG3 POP JUMP JUMPDEST PUSH3 0x2A300 DUP2 JUMP JUMPDEST PUSH32 0x0 DUP2 JUMP JUMPDEST PUSH32 0x0 DUP2 JUMP JUMPDEST PUSH1 0x1 PUSH1 0x0 SWAP1 SLOAD SWAP1 PUSH2 0x100 EXP SWAP1 DIV PUSH20 0xFFFFFFFFFFFFFFFFFFFFFFFFFFFFFFFFFFFFFFFF AND PUSH20 0xFFFFFFFFFFFFFFFFFFFFFFFFFFFFFFFFFFFFFFFF AND CALLER PUSH20 0xFFFFFFFFFFFFFFFFFFFFFFFFFFFFFFFFFFFFFFFF AND EQ DUP1 PUSH2 0x8FD JUMPI POP PUSH1 0x0 DUP1 SLOAD SWAP1 PUSH2 0x100 EXP SWAP1 DIV PUSH20 0xFFFFFFFFFFFFFFFFFFFFFFFFFFFFFFFFFFFFFFFF AND PUSH20 0xFFFFFFFFFFFFFFFFFFFFFFFFFFFFFFFFFFFFFFFF AND CALLER PUSH20 0xFFFFFFFFFFFFFFFFFFFFFFFFFFFFFFFFFFFFFFFF AND EQ DUP1 ISZERO PUSH2 0x8FC JUMPI POP PUSH2 0x8FB PUSH1 0x1 PUSH1 0x0 SWAP1 SLOAD SWAP1 PUSH2 0x100 EXP SWAP1 DIV PUSH20 0xFFFFFFFFFFFFFFFFFFFFFFFFFFFFFFFFFFFFFFFF AND PUSH20 0xFFFFFFFFFFFFFFFFFFFFFFFFFFFFFFFFFFFFFFFF AND PUSH2 0x1206 JUMP JUMPDEST JUMPDEST JUMPDEST PUSH2 0x93C JUMPI PUSH1 0x40 MLOAD PUSH32 0x8C379A000000000000000000000000000000000000000000000000000000000 DUP2 MSTORE PUSH1 0x4 ADD PUSH2 0x933 SWAP1 PUSH2 0x39C8 JUMP JUMPDEST PUSH1 0x40 MLOAD DUP1 SWAP2 SUB SWAP1 REVERT JUMPDEST PUSH1 0x0 PUSH1 0x2 SLOAD GT DUP1 ISZERO PUSH2 0x950 JUMPI POP PUSH1 0x2 SLOAD TIMESTAMP LT ISZERO JUMPDEST PUSH2 0x98F JUMPI PUSH1 0x40 MLOAD PUSH32 0x8C379A000000000000000000000000000000000000000000000000000000000 DUP2 MSTORE PUSH1 0x4 ADD PUSH2 0x986 SWAP1 PUSH2 0x3A34 JUMP JUMPDEST PUSH1 0x40 MLOAD DUP1 SWAP2 SUB SWAP1 REVERT JUMPDEST PUSH1 0x1 PUSH1 0x0 SWAP1 SLOAD SWAP1 PUSH2 0x100 EXP SWAP1 DIV PUSH20 0xFFFFFFFFFFFFFFFFFFFFFFFFFFFFFFFFFFFFFFFF AND PUSH20 0xFFFFFFFFFFFFFFFFFFFFFFFFFFFFFFFFFFFFFFFF AND PUSH1 0x0 DUP1 SLOAD SWAP1 PUSH2 0x100 EXP SWAP1 DIV PUSH20 0xFFFFFFFFFFFFFFFFFFFFFFFFFFFFFFFFFFFFFFFF AND PUSH20 0xFFFFFFFFFFFFFFFFFFFFFFFFFFFFFFFFFFFFFFFF AND PUSH32 0x8D32C9DD498E08090B44A0F77FE9EC0278851F9DFFC4B430428411243E7DF076 TIMESTAMP PUSH1 0x40 MLOAD PUSH2 0xA2E SWAP2 SWAP1 PUSH2 0x360B JUMP JUMPDEST PUSH1 0x40 MLOAD DUP1 SWAP2 SUB SWAP1 LOG3 PUSH1 0x1 PUSH1 0x0 SWAP1 SLOAD SWAP1 PUSH2 0x100 EXP SWAP1 DIV PUSH20 0xFFFFFFFFFFFFFFFFFFFFFFFFFFFFFFFFFFFFFFFF AND PUSH1 0x0 DUP1 PUSH2 0x100 EXP DUP2 SLOAD DUP2 PUSH20 0xFFFFFFFFFFFFFFFFFFFFFFFFFFFFFFFFFFFFFFFF MUL NOT AND SWAP1 DUP4 PUSH20 0xFFFFFFFFFFFFFFFFFFFFFFFFFFFFFFFFFFFFFFFF AND MUL OR SWAP1 SSTORE POP PUSH1 0x0 PUSH1 0x1 PUSH1 0x0 PUSH2 0x100 EXP DUP2 SLOAD DUP2 PUSH20 0xFFFFFFFFFFFFFFFFFFFFFFFFFFFFFFFFFFFFFFFF MUL NOT AND SWAP1 DUP4 PUSH20 0xFFFFFFFFFFFFFFFFFFFFFFFFFFFFFFFFFFFFFFFF AND MUL OR SWAP1 SSTORE POP PUSH1 0x0 PUSH1 0x2 DUP2 SWAP1 SSTORE POP JUMP JUMPDEST PUSH1 0x0 DUP1 SLOAD SWAP1 PUSH2 0x100 EXP SWAP1 DIV PUSH20 0xFFFFFFFFFFFFFFFFFFFFFFFFFFFFFFFFFFFFFFFF AND DUP2 JUMP JUMPDEST PUSH1 0x1 PUSH1 0x0 SWAP1 SLOAD SWAP1 PUSH2 0x100 EXP SWAP1 DIV PUSH20 0xFFFFFFFFFFFFFFFFFFFFFFFFFFFFFFFFFFFFFFFF AND DUP2 JUMP JUMPDEST PUSH1 0x0 DUP1 PUSH1 0x0 DUP1 PUSH1 0x0 DUP1 PUSH1 0x0 DUP1 DUP10 DUP10 PUSH1 0x4 SWAP1 DUP1 SWAP3 PUSH2 0xB4D SWAP4 SWAP3 SWAP2 SWAP1 PUSH2 0x36F5 JUMP JUMPDEST DUP2 ADD SWAP1 PUSH2 0xB5A SWAP2 SWAP1 PUSH2 0x3BE1 JUMP JUMPDEST SWAP5 POP SWAP5 POP SWAP5 POP SWAP5 POP SWAP5 POP DUP11 DUP6 GT ISZERO PUSH2 0xBA7 JUMPI PUSH1 0x40 MLOAD PUSH32 0x8C379A000000000000000000000000000000000000000000000000000000000 DUP2 MSTORE PUSH1 0x4 ADD PUSH2 0xB9E SWAP1 PUSH2 0x3CEA JUMP JUMPDEST PUSH1 0x40 MLOAD DUP1 SWAP2 SUB SWAP1 REVERT JUMPDEST DUP12 PUSH20 0xFFFFFFFFFFFFFFFFFFFFFFFFFFFFFFFFFFFFFFFF AND DUP4 PUSH1 0x0 DUP2 MLOAD DUP2 LT PUSH2 0xBD2 JUMPI PUSH2 0xBD1 PUSH2 0x3D0A JUMP JUMPDEST JUMPDEST PUSH1 0x20 MUL PUSH1 0x20 ADD ADD MLOAD PUSH20 0xFFFFFFFFFFFFFFFFFFFFFFFFFFFFFFFFFFFFFFFF AND EQ PUSH2 0xC30 JUMPI PUSH1 0x40 MLOAD PUSH32 0x8C379A000000000000000000000000000000000000000000000000000000000 DUP2 MSTORE PUSH1 0x4 ADD PUSH2 0xC27 SWAP1 PUSH2 0x3DAB JUMP JUMPDEST PUSH1 0x40 MLOAD DUP1 SWAP2 SUB SWAP1 REVERT JUMPDEST PUSH2 0xC3D DUP6 DUP6 DUP6 DUP6 DUP6 PUSH2 0x1229 JUMP JUMPDEST SWAP8 POP SWAP8 POP SWAP8 POP POP POP POP POP POP SWAP5 POP SWAP5 POP SWAP5 SWAP2 POP POP JUMP JUMPDEST PUSH1 0x0 DUP1 PUSH1 0x0 DUP1 PUSH1 0x0 DUP1 PUSH1 0x0 DUP1 DUP10 DUP10 PUSH1 0x4 SWAP1 DUP1 SWAP3 PUSH2 0xC71 SWAP4 SWAP3 SWAP2 SWAP1 PUSH2 0x36F5 JUMP JUMPDEST DUP2 ADD SWAP1 PUSH2 0xC7E SWAP2 SWAP1 PUSH2 0x3BE1 JUMP JUMPDEST SWAP5 POP SWAP5 POP SWAP5 POP SWAP5 POP SWAP5 POP DUP11 DUP5 GT ISZERO PUSH2 0xCCB JUMPI PUSH1 0x40 MLOAD PUSH32 0x8C379A000000000000000000000000000000000000000000000000000000000 DUP2 MSTORE PUSH1 0x4 ADD PUSH2 0xCC2 SWAP1 PUSH2 0x3E3D JUMP JUMPDEST PUSH1 0x40 MLOAD DUP1 SWAP2 SUB SWAP1 REVERT JUMPDEST DUP12 PUSH20 0xFFFFFFFFFFFFFFFFFFFFFFFFFFFFFFFFFFFFFFFF AND DUP4 PUSH1 0x0 DUP2 MLOAD DUP2 LT PUSH2 0xCF6 JUMPI PUSH2 0xCF5 PUSH2 0x3D0A JUMP JUMPDEST JUMPDEST PUSH1 0x20 MUL PUSH1 0x20 ADD ADD MLOAD PUSH20 0xFFFFFFFFFFFFFFFFFFFFFFFFFFFFFFFFFFFFFFFF AND EQ PUSH2 0xD54 JUMPI PUSH1 0x40 MLOAD PUSH32 0x8C379A000000000000000000000000000000000000000000000000000000000 DUP2 MSTORE PUSH1 0x4 ADD PUSH2 0xD4B SWAP1 PUSH2 0x3DAB JUMP JUMPDEST PUSH1 0x40 MLOAD DUP1 SWAP2 SUB SWAP1 REVERT JUMPDEST PUSH2 0xD61 DUP6 DUP6 DUP6 DUP6 DUP6 PUSH2 0x13D0 JUMP JUMPDEST SWAP8 POP SWAP8 POP SWAP8 POP POP POP POP POP POP SWAP5 POP SWAP5 POP SWAP5 SWAP2 POP POP JUMP JUMPDEST PUSH1 0x0 DUP1 PUSH1 0x0 DUP1 PUSH1 0x0 DUP1 PUSH1 0x0 DUP1 DUP10 DUP10 PUSH1 0x4 SWAP1 DUP1 SWAP3 PUSH2 0xD95 SWAP4 SWAP3 SWAP2 SWAP1 PUSH2 0x36F5 JUMP JUMPDEST DUP2 ADD SWAP1 PUSH2 0xDA2 SWAP2 SWAP1 PUSH2 0x3BE1 JUMP JUMPDEST SWAP5 POP SWAP5 POP SWAP5 POP SWAP5 POP SWAP5 POP DUP11 DUP5 GT ISZERO PUSH2 0xDEF JUMPI PUSH1 0x40 MLOAD PUSH32 0x8C379A000000000000000000000000000000000000000000000000000000000 DUP2 MSTORE PUSH1 0x4 ADD PUSH2 0xDE6 SWAP1 PUSH2 0x3ECF JUMP JUMPDEST PUSH1 0x40 MLOAD DUP1 SWAP2 SUB SWAP1 REVERT JUMPDEST DUP12 PUSH20 0xFFFFFFFFFFFFFFFFFFFFFFFFFFFFFFFFFFFFFFFF AND DUP4 PUSH1 0x0 DUP2 MLOAD DUP2 LT PUSH2 0xE1A JUMPI PUSH2 0xE19 PUSH2 0x3D0A JUMP JUMPDEST JUMPDEST PUSH1 0x20 MUL PUSH1 0x20 ADD ADD MLOAD PUSH20 0xFFFFFFFFFFFFFFFFFFFFFFFFFFFFFFFFFFFFFFFF AND EQ PUSH2 0xE78 JUMPI PUSH1 0x40 MLOAD PUSH32 0x8C379A000000000000000000000000000000000000000000000000000000000 DUP2 MSTORE PUSH1 0x4 ADD PUSH2 0xE6F SWAP1 PUSH2 0x3F61 JUMP JUMPDEST PUSH1 0x40 MLOAD DUP1 SWAP2 SUB SWAP1 REVERT JUMPDEST PUSH2 0xE85 DUP6 DUP6 DUP6 DUP6 DUP6 PUSH2 0x156B JUMP JUMPDEST SWAP8 POP SWAP8 POP SWAP8 POP POP POP POP POP POP SWAP5 POP SWAP5 POP SWAP5 SWAP2 POP POP JUMP JUMPDEST PUSH1 0x0 DUP1 PUSH1 0x0 DUP1 PUSH1 0x0 DUP1 PUSH1 0x0 DUP1 DUP10 DUP10 PUSH1 0x4 SWAP1 DUP1 SWAP3 PUSH2 0xEB9 SWAP4 SWAP3 SWAP2 SWAP1 PUSH2 0x36F5 JUMP JUMPDEST DUP2 ADD SWAP1 PUSH2 0xEC6 SWAP2 SWAP1 PUSH2 0x3BE1 JUMP JUMPDEST SWAP5 POP SWAP5 POP SWAP5 POP SWAP5 POP SWAP5 POP DUP11 DUP6 GT ISZERO PUSH2 0xF13 JUMPI PUSH1 0x40 MLOAD PUSH32 0x8C379A000000000000000000000000000000000000000000000000000000000 DUP2 MSTORE PUSH1 0x4 ADD PUSH2 0xF0A SWAP1 PUSH2 0x3ECF JUMP JUMPDEST PUSH1 0x40 MLOAD DUP1 SWAP2 SUB SWAP1 REVERT JUMPDEST DUP12 PUSH20 0xFFFFFFFFFFFFFFFFFFFFFFFFFFFFFFFFFFFFFFFF AND DUP4 PUSH1 0x0 DUP2 MLOAD DUP2 LT PUSH2 0xF3E JUMPI PUSH2 0xF3D PUSH2 0x3D0A JUMP JUMPDEST JUMPDEST PUSH1 0x20 MUL PUSH1 0x20 ADD ADD MLOAD PUSH20 0xFFFFFFFFFFFFFFFFFFFFFFFFFFFFFFFFFFFFFFFF AND EQ PUSH2 0xF9C JUMPI PUSH1 0x40 MLOAD PUSH32 0x8C379A000000000000000000000000000000000000000000000000000000000 DUP2 MSTORE PUSH1 0x4 ADD PUSH2 0xF93 SWAP1 PUSH2 0x3F61 JUMP JUMPDEST PUSH1 0x40 MLOAD DUP1 SWAP2 SUB SWAP1 REVERT JUMPDEST PUSH2 0xFA9 DUP6 DUP6 DUP6 DUP6 DUP6 PUSH2 0x189E JUMP JUMPDEST SWAP8 POP SWAP8 POP SWAP8 POP POP POP POP POP POP SWAP5 POP SWAP5 POP SWAP5 SWAP2 POP POP JUMP JUMPDEST PUSH1 0x0 DUP1 PUSH1 0x0 DUP1 PUSH1 0x0 DUP1 PUSH1 0x0 DUP1 DUP10 DUP10 PUSH1 0x4 SWAP1 DUP1 SWAP3 PUSH2 0xFDD SWAP4 SWAP3 SWAP2 SWAP1 PUSH2 0x36F5 JUMP JUMPDEST DUP2 ADD SWAP1 PUSH2 0xFEA SWAP2 SWAP1 PUSH2 0x3BE1 JUMP JUMPDEST SWAP5 POP SWAP5 POP SWAP5 POP SWAP5 POP SWAP5 POP DUP11 DUP6 GT ISZERO PUSH2 0x1037 JUMPI PUSH1 0x40 MLOAD PUSH32 0x8C379A000000000000000000000000000000000000000000000000000000000 DUP2 MSTORE PUSH1 0x4 ADD PUSH2 0x102E SWAP1 PUSH2 0x3ECF JUMP JUMPDEST PUSH1 0x40 MLOAD DUP1 SWAP2 SUB SWAP1 REVERT JUMPDEST DUP12 PUSH20 0xFFFFFFFFFFFFFFFFFFFFFFFFFFFFFFFFFFFFFFFF AND DUP4 PUSH1 0x0 DUP2 MLOAD DUP2 LT PUSH2 0x1062 JUMPI PUSH2 0x1061 PUSH2 0x3D0A JUMP JUMPDEST JUMPDEST PUSH1 0x20 MUL PUSH1 0x20 ADD ADD MLOAD PUSH20 0xFFFFFFFFFFFFFFFFFFFFFFFFFFFFFFFFFFFFFFFF AND EQ PUSH2 0x10C0 JUMPI PUSH1 0x40 MLOAD PUSH32 0x8C379A000000000000000000000000000000000000000000000000000000000 DUP2 MSTORE PUSH1 0x4 ADD PUSH2 0x10B7 SWAP1 PUSH2 0x3F61 JUMP JUMPDEST PUSH1 0x40 MLOAD DUP1 SWAP2 SUB SWAP1 REVERT JUMPDEST PUSH2 0x10CD DUP6 DUP6 DUP6 DUP6 DUP6 PUSH2 0x1BDD JUMP JUMPDEST SWAP8 POP SWAP8 POP SWAP8 POP POP POP POP POP POP SWAP5 POP SWAP5 POP SWAP5 SWAP2 POP POP JUMP JUMPDEST PUSH1 0x0 DUP1 PUSH1 0x0 DUP1 PUSH1 0x0 DUP1 PUSH1 0x0 DUP1 DUP10 DUP10 PUSH1 0x4 SWAP1 DUP1 SWAP3 PUSH2 0x1101 SWAP4 SWAP3 SWAP2 SWAP1 PUSH2 0x36F5 JUMP JUMPDEST DUP2 ADD SWAP1 PUSH2 0x110E SWAP2 SWAP1 PUSH2 0x3BE1 JUMP JUMPDEST SWAP5 POP SWAP5 POP SWAP5 POP SWAP5 POP SWAP5 POP DUP11 DUP6 GT ISZERO PUSH2 0x115B JUMPI PUSH1 0x40 MLOAD PUSH32 0x8C379A000000000000000000000000000000000000000000000000000000000 DUP2 MSTORE PUSH1 0x4 ADD PUSH2 0x1152 SWAP1 PUSH2 0x3ECF JUMP JUMPDEST PUSH1 0x40 MLOAD DUP1 SWAP2 SUB SWAP1 REVERT JUMPDEST DUP12 PUSH20 0xFFFFFFFFFFFFFFFFFFFFFFFFFFFFFFFFFFFFFFFF AND DUP4 PUSH1 0x0 DUP2 MLOAD DUP2 LT PUSH2 0x1186 JUMPI PUSH2 0x1185 PUSH2 0x3D0A JUMP JUMPDEST JUMPDEST PUSH1 0x20 MUL PUSH1 0x20 ADD ADD MLOAD PUSH20 0xFFFFFFFFFFFFFFFFFFFFFFFFFFFFFFFFFFFFFFFF AND EQ PUSH2 0x11E4 JUMPI PUSH1 0x40 MLOAD PUSH32 0x8C379A000000000000000000000000000000000000000000000000000000000 DUP2 MSTORE PUSH1 0x4 ADD PUSH2 0x11DB SWAP1 PUSH2 0x3F61 JUMP JUMPDEST PUSH1 0x40 MLOAD DUP1 SWAP2 SUB SWAP1 REVERT JUMPDEST PUSH2 0x11F1 DUP6 DUP6 DUP6 DUP6 DUP6 PUSH2 0x1F3F JUMP JUMPDEST SWAP8 POP SWAP8 POP SWAP8 POP POP POP POP POP POP SWAP5 POP SWAP5 POP SWAP5 SWAP2 POP POP JUMP JUMPDEST PUSH1 0x0 DUP1 DUP3 PUSH20 0xFFFFFFFFFFFFFFFFFFFFFFFFFFFFFFFFFFFFFFFF AND EXTCODESIZE GT SWAP1 POP SWAP2 SWAP1 POP JUMP JUMPDEST PUSH1 0x0 DUP1 PUSH1 0x0 DUP4 TIMESTAMP DUP2 LT ISZERO PUSH2 0x1272 JUMPI PUSH1 0x40 MLOAD PUSH32 0x8C379A000000000000000000000000000000000000000000000000000000000 DUP2 MSTORE PUSH1 0x4 ADD PUSH2 0x1269 SWAP1 PUSH2 0x3FCD JUMP JUMPDEST PUSH1 0x40 MLOAD DUP1 SWAP2 SUB SWAP1 REVERT JUMPDEST PUSH1 0x0 PUSH2 0x129F PUSH32 0x0 DUP12 DUP11 PUSH2 0x2280 JUMP JUMPDEST SWAP1 POP DUP9 DUP2 PUSH1 0x1 DUP4 MLOAD PUSH2 0x12B1 SWAP2 SWAP1 PUSH2 0x3FED JUMP JUMPDEST DUP2 MLOAD DUP2 LT PUSH2 0x12C2 JUMPI PUSH2 0x12C1 PUSH2 0x3D0A JUMP JUMPDEST JUMPDEST PUSH1 0x20 MUL PUSH1 0x20 ADD ADD MLOAD LT ISZERO PUSH2 0x130B JUMPI PUSH1 0x40 MLOAD PUSH32 0x8C379A000000000000000000000000000000000000000000000000000000000 DUP2 MSTORE PUSH1 0x4 ADD PUSH2 0x1302 SWAP1 PUSH2 0x4093 JUMP JUMPDEST PUSH1 0x40 MLOAD DUP1 SWAP2 SUB SWAP1 REVERT JUMPDEST PUSH2 0x13AC DUP9 PUSH1 0x0 DUP2 MLOAD DUP2 LT PUSH2 0x1322 JUMPI PUSH2 0x1321 PUSH2 0x3D0A JUMP JUMPDEST JUMPDEST PUSH1 0x20 MUL PUSH1 0x20 ADD ADD MLOAD PUSH2 0x138B PUSH32 0x0 DUP12 PUSH1 0x0 DUP2 MLOAD DUP2 LT PUSH2 0x1362 JUMPI PUSH2 0x1361 PUSH2 0x3D0A JUMP JUMPDEST JUMPDEST PUSH1 0x20 MUL PUSH1 0x20 ADD ADD MLOAD DUP13 PUSH1 0x1 DUP2 MLOAD DUP2 LT PUSH2 0x137E JUMPI PUSH2 0x137D PUSH2 0x3D0A JUMP JUMPDEST JUMPDEST PUSH1 0x20 MUL PUSH1 0x20 ADD ADD MLOAD PUSH2 0x240B JUMP JUMPDEST DUP4 PUSH1 0x0 DUP2 MLOAD DUP2 LT PUSH2 0x139F JUMPI PUSH2 0x139E PUSH2 0x3D0A JUMP JUMPDEST JUMPDEST PUSH1 0x20 MUL PUSH1 0x20 ADD ADD MLOAD PUSH2 0x2492 JUMP JUMPDEST PUSH2 0x13B7 DUP2 DUP10 DUP10 PUSH2 0x25C8 JUMP JUMPDEST DUP1 SWAP6 POP DUP2 SWAP7 POP DUP3 SWAP8 POP POP POP POP POP POP SWAP6 POP SWAP6 POP SWAP6 SWAP3 POP POP POP JUMP JUMPDEST PUSH1 0x0 DUP1 PUSH1 0x0 DUP4 TIMESTAMP DUP2 LT ISZERO PUSH2 0x1419 JUMPI PUSH1 0x40 MLOAD PUSH32 0x8C379A000000000000000000000000000000000000000000000000000000000 DUP2 MSTORE PUSH1 0x4 ADD PUSH2 0x1410 SWAP1 PUSH2 0x3FCD JUMP JUMPDEST PUSH1 0x40 MLOAD DUP1 SWAP2 SUB SWAP1 REVERT JUMPDEST PUSH1 0x0 PUSH2 0x1446 PUSH32 0x0 DUP12 DUP11 PUSH2 0x2880 JUMP JUMPDEST SWAP1 POP DUP9 DUP2 PUSH1 0x0 DUP2 MLOAD DUP2 LT PUSH2 0x145D JUMPI PUSH2 0x145C PUSH2 0x3D0A JUMP JUMPDEST JUMPDEST PUSH1 0x20 MUL PUSH1 0x20 ADD ADD MLOAD GT ISZERO PUSH2 0x14A6 JUMPI PUSH1 0x40 MLOAD PUSH32 0x8C379A000000000000000000000000000000000000000000000000000000000 DUP2 MSTORE PUSH1 0x4 ADD PUSH2 0x149D SWAP1 PUSH2 0x4125 JUMP JUMPDEST PUSH1 0x40 MLOAD DUP1 SWAP2 SUB SWAP1 REVERT JUMPDEST PUSH2 0x1547 DUP9 PUSH1 0x0 DUP2 MLOAD DUP2 LT PUSH2 0x14BD JUMPI PUSH2 0x14BC PUSH2 0x3D0A JUMP JUMPDEST JUMPDEST PUSH1 0x20 MUL PUSH1 0x20 ADD ADD MLOAD PUSH2 0x1526 PUSH32 0x0 DUP12 PUSH1 0x0 DUP2 MLOAD DUP2 LT PUSH2 0x14FD JUMPI PUSH2 0x14FC PUSH2 0x3D0A JUMP JUMPDEST JUMPDEST PUSH1 0x20 MUL PUSH1 0x20 ADD ADD MLOAD DUP13 PUSH1 0x1 DUP2 MLOAD DUP2 LT PUSH2 0x1519 JUMPI PUSH2 0x1518 PUSH2 0x3D0A JUMP JUMPDEST JUMPDEST PUSH1 0x20 MUL PUSH1 0x20 ADD ADD MLOAD PUSH2 0x240B JUMP JUMPDEST DUP4 PUSH1 0x0 DUP2 MLOAD DUP2 LT PUSH2 0x153A JUMPI PUSH2 0x1539 PUSH2 0x3D0A JUMP JUMPDEST JUMPDEST PUSH1 0x20 MUL PUSH1 0x20 ADD ADD MLOAD PUSH2 0x2492 JUMP JUMPDEST PUSH2 0x1552 DUP2 DUP10 DUP10 PUSH2 0x25C8 JUMP JUMPDEST DUP1 SWAP6 POP DUP2 SWAP7 POP DUP3 SWAP8 POP POP POP POP POP POP SWAP6 POP SWAP6 POP SWAP6 SWAP3 POP POP POP JUMP JUMPDEST PUSH1 0x0 DUP1 PUSH1 0x0 DUP4 TIMESTAMP DUP2 LT ISZERO PUSH2 0x15B4 JUMPI PUSH1 0x40 MLOAD PUSH32 0x8C379A000000000000000000000000000000000000000000000000000000000 DUP2 MSTORE PUSH1 0x4 ADD PUSH2 0x15AB SWAP1 PUSH2 0x3FCD JUMP JUMPDEST PUSH1 0x40 MLOAD DUP1 SWAP2 SUB SWAP1 REVERT JUMPDEST PUSH32 0x0 PUSH20 0xFFFFFFFFFFFFFFFFFFFFFFFFFFFFFFFFFFFFFFFF AND DUP8 PUSH1 0x1 DUP10 MLOAD PUSH2 0x15FA SWAP2 SWAP1 PUSH2 0x3FED JUMP JUMPDEST DUP2 MLOAD DUP2 LT PUSH2 0x160B JUMPI PUSH2 0x160A PUSH2 0x3D0A JUMP JUMPDEST JUMPDEST PUSH1 0x20 MUL PUSH1 0x20 ADD ADD MLOAD PUSH20 0xFFFFFFFFFFFFFFFFFFFFFFFFFFFFFFFFFFFFFFFF AND EQ PUSH2 0x1669 JUMPI PUSH1 0x40 MLOAD PUSH32 0x8C379A000000000000000000000000000000000000000000000000000000000 DUP2 MSTORE PUSH1 0x4 ADD PUSH2 0x1660 SWAP1 PUSH2 0x4191 JUMP JUMPDEST PUSH1 0x40 MLOAD DUP1 SWAP2 SUB SWAP1 REVERT JUMPDEST PUSH1 0x0 PUSH2 0x1696 PUSH32 0x0 DUP12 DUP11 PUSH2 0x2880 JUMP JUMPDEST SWAP1 POP DUP9 DUP2 PUSH1 0x0 DUP2 MLOAD DUP2 LT PUSH2 0x16AD JUMPI PUSH2 0x16AC PUSH2 0x3D0A JUMP JUMPDEST JUMPDEST PUSH1 0x20 MUL PUSH1 0x20 ADD ADD MLOAD GT ISZERO PUSH2 0x16F6 JUMPI PUSH1 0x40 MLOAD PUSH32 0x8C379A000000000000000000000000000000000000000000000000000000000 DUP2 MSTORE PUSH1 0x4 ADD PUSH2 0x16ED SWAP1 PUSH2 0x4125 JUMP JUMPDEST PUSH1 0x40 MLOAD DUP1 SWAP2 SUB SWAP1 REVERT JUMPDEST PUSH2 0x1797 DUP9 PUSH1 0x0 DUP2 MLOAD DUP2 LT PUSH2 0x170D JUMPI PUSH2 0x170C PUSH2 0x3D0A JUMP JUMPDEST JUMPDEST PUSH1 0x20 MUL PUSH1 0x20 ADD ADD MLOAD PUSH2 0x1776 PUSH32 0x0 DUP12 PUSH1 0x0 DUP2 MLOAD DUP2 LT PUSH2 0x174D JUMPI PUSH2 0x174C PUSH2 0x3D0A JUMP JUMPDEST JUMPDEST PUSH1 0x20 MUL PUSH1 0x20 ADD ADD MLOAD DUP13 PUSH1 0x1 DUP2 MLOAD DUP2 LT PUSH2 0x1769 JUMPI PUSH2 0x1768 PUSH2 0x3D0A JUMP JUMPDEST JUMPDEST PUSH1 0x20 MUL PUSH1 0x20 ADD ADD MLOAD PUSH2 0x240B JUMP JUMPDEST DUP4 PUSH1 0x0 DUP2 MLOAD DUP2 LT PUSH2 0x178A JUMPI PUSH2 0x1789 PUSH2 0x3D0A JUMP JUMPDEST JUMPDEST PUSH1 0x20 MUL PUSH1 0x20 ADD ADD MLOAD PUSH2 0x2492 JUMP JUMPDEST PUSH2 0x17A2 DUP2 DUP10 ADDRESS PUSH2 0x25C8 JUMP JUMPDEST DUP1 SWAP6 POP DUP2 SWAP7 POP DUP3 SWAP8 POP POP POP POP PUSH32 0x0 PUSH20 0xFFFFFFFFFFFFFFFFFFFFFFFFFFFFFFFFFFFFFFFF AND PUSH4 0x2E1A7D4D DUP3 PUSH1 0x1 DUP5 MLOAD PUSH2 0x17F9 SWAP2 SWAP1 PUSH2 0x3FED JUMP JUMPDEST DUP2 MLOAD DUP2 LT PUSH2 0x180A JUMPI PUSH2 0x1809 PUSH2 0x3D0A JUMP JUMPDEST JUMPDEST PUSH1 0x20 MUL PUSH1 0x20 ADD ADD MLOAD PUSH1 0x40 MLOAD DUP3 PUSH4 0xFFFFFFFF AND PUSH1 0xE0 SHL DUP2 MSTORE PUSH1 0x4 ADD PUSH2 0x182E SWAP2 SWAP1 PUSH2 0x360B JUMP JUMPDEST PUSH1 0x0 PUSH1 0x40 MLOAD DUP1 DUP4 SUB DUP2 PUSH1 0x0 DUP8 DUP1 EXTCODESIZE ISZERO DUP1 ISZERO PUSH2 0x1848 JUMPI PUSH1 0x0 DUP1 REVERT JUMPDEST POP GAS CALL ISZERO DUP1 ISZERO PUSH2 0x185C JUMPI RETURNDATASIZE PUSH1 0x0 DUP1 RETURNDATACOPY RETURNDATASIZE PUSH1 0x0 REVERT JUMPDEST POP POP POP POP PUSH2 0x1891 DUP8 DUP3 PUSH1 0x1 DUP5 MLOAD PUSH2 0x1873 SWAP2 SWAP1 PUSH2 0x3FED JUMP JUMPDEST DUP2 MLOAD DUP2 LT PUSH2 0x1884 JUMPI PUSH2 0x1883 PUSH2 0x3D0A JUMP JUMPDEST JUMPDEST PUSH1 0x20 MUL PUSH1 0x20 ADD ADD MLOAD PUSH2 0x2A1B JUMP JUMPDEST POP POP SWAP6 POP SWAP6 POP SWAP6 SWAP3 POP POP POP JUMP JUMPDEST PUSH1 0x0 DUP1 PUSH1 0x0 DUP4 TIMESTAMP DUP2 LT ISZERO PUSH2 0x18E7 JUMPI PUSH1 0x40 MLOAD PUSH32 0x8C379A000000000000000000000000000000000000000000000000000000000 DUP2 MSTORE PUSH1 0x4 ADD PUSH2 0x18DE SWAP1 PUSH2 0x3FCD JUMP JUMPDEST PUSH1 0x40 MLOAD DUP1 SWAP2 SUB SWAP1 REVERT JUMPDEST PUSH32 0x0 PUSH20 0xFFFFFFFFFFFFFFFFFFFFFFFFFFFFFFFFFFFFFFFF AND DUP8 PUSH1 0x1 DUP10 MLOAD PUSH2 0x192D SWAP2 SWAP1 PUSH2 0x3FED JUMP JUMPDEST DUP2 MLOAD DUP2 LT PUSH2 0x193E JUMPI PUSH2 0x193D PUSH2 0x3D0A JUMP JUMPDEST JUMPDEST PUSH1 0x20 MUL PUSH1 0x20 ADD ADD MLOAD PUSH20 0xFFFFFFFFFFFFFFFFFFFFFFFFFFFFFFFFFFFFFFFF AND EQ PUSH2 0x199C JUMPI PUSH1 0x40 MLOAD PUSH32 0x8C379A000000000000000000000000000000000000000000000000000000000 DUP2 MSTORE PUSH1 0x4 ADD PUSH2 0x1993 SWAP1 PUSH2 0x4191 JUMP JUMPDEST PUSH1 0x40 MLOAD DUP1 SWAP2 SUB SWAP1 REVERT JUMPDEST PUSH1 0x0 PUSH2 0x19C9 PUSH32 0x0 DUP12 DUP11 PUSH2 0x2280 JUMP JUMPDEST SWAP1 POP DUP9 DUP2 PUSH1 0x1 DUP4 MLOAD PUSH2 0x19DB SWAP2 SWAP1 PUSH2 0x3FED JUMP JUMPDEST DUP2 MLOAD DUP2 LT PUSH2 0x19EC JUMPI PUSH2 0x19EB PUSH2 0x3D0A JUMP JUMPDEST JUMPDEST PUSH1 0x20 MUL PUSH1 0x20 ADD ADD MLOAD LT ISZERO PUSH2 0x1A35 JUMPI PUSH1 0x40 MLOAD PUSH32 0x8C379A000000000000000000000000000000000000000000000000000000000 DUP2 MSTORE PUSH1 0x4 ADD PUSH2 0x1A2C SWAP1 PUSH2 0x4223 JUMP JUMPDEST PUSH1 0x40 MLOAD DUP1 SWAP2 SUB SWAP1 REVERT JUMPDEST PUSH2 0x1AD6 DUP9 PUSH1 0x0 DUP2 MLOAD DUP2 LT PUSH2 0x1A4C JUMPI PUSH2 0x1A4B PUSH2 0x3D0A JUMP JUMPDEST JUMPDEST PUSH1 0x20 MUL PUSH1 0x20 ADD ADD MLOAD PUSH2 0x1AB5 PUSH32 0x0 DUP12 PUSH1 0x0 DUP2 MLOAD DUP2 LT PUSH2 0x1A8C JUMPI PUSH2 0x1A8B PUSH2 0x3D0A JUMP JUMPDEST JUMPDEST PUSH1 0x20 MUL PUSH1 0x20 ADD ADD MLOAD DUP13 PUSH1 0x1 DUP2 MLOAD DUP2 LT PUSH2 0x1AA8 JUMPI PUSH2 0x1AA7 PUSH2 0x3D0A JUMP JUMPDEST JUMPDEST PUSH1 0x20 MUL PUSH1 0x20 ADD ADD MLOAD PUSH2 0x240B JUMP JUMPDEST DUP4 PUSH1 0x0 DUP2 MLOAD DUP2 LT PUSH2 0x1AC9 JUMPI PUSH2 0x1AC8 PUSH2 0x3D0A JUMP JUMPDEST JUMPDEST PUSH1 0x20 MUL PUSH1 0x20 ADD ADD MLOAD PUSH2 0x2492 JUMP JUMPDEST PUSH2 0x1AE1 DUP2 DUP10 ADDRESS PUSH2 0x25C8 JUMP JUMPDEST DUP1 SWAP6 POP DUP2 SWAP7 POP DUP3 SWAP8 POP POP POP POP PUSH32 0x0 PUSH20 0xFFFFFFFFFFFFFFFFFFFFFFFFFFFFFFFFFFFFFFFF AND PUSH4 0x2E1A7D4D DUP3 PUSH1 0x1 DUP5 MLOAD PUSH2 0x1B38 SWAP2 SWAP1 PUSH2 0x3FED JUMP JUMPDEST DUP2 MLOAD DUP2 LT PUSH2 0x1B49 JUMPI PUSH2 0x1B48 PUSH2 0x3D0A JUMP JUMPDEST JUMPDEST PUSH1 0x20 MUL PUSH1 0x20 ADD ADD MLOAD PUSH1 0x40 MLOAD DUP3 PUSH4 0xFFFFFFFF AND PUSH1 0xE0 SHL DUP2 MSTORE PUSH1 0x4 ADD PUSH2 0x1B6D SWAP2 SWAP1 PUSH2 0x360B JUMP JUMPDEST PUSH1 0x0 PUSH1 0x40 MLOAD DUP1 DUP4 SUB DUP2 PUSH1 0x0 DUP8 DUP1 EXTCODESIZE ISZERO DUP1 ISZERO PUSH2 0x1B87 JUMPI PUSH1 0x0 DUP1 REVERT JUMPDEST POP GAS CALL ISZERO DUP1 ISZERO PUSH2 0x1B9B JUMPI RETURNDATASIZE PUSH1 0x0 DUP1 RETURNDATACOPY RETURNDATASIZE PUSH1 0x0 REVERT JUMPDEST POP POP POP POP PUSH2 0x1BD0 DUP8 DUP3 PUSH1 0x1 DUP5 MLOAD PUSH2 0x1BB2 SWAP2 SWAP1 PUSH2 0x3FED JUMP JUMPDEST DUP2 MLOAD DUP2 LT PUSH2 0x1BC3 JUMPI PUSH2 0x1BC2 PUSH2 0x3D0A JUMP JUMPDEST JUMPDEST PUSH1 0x20 MUL PUSH1 0x20 ADD ADD MLOAD PUSH2 0x2A1B JUMP JUMPDEST POP POP SWAP6 POP SWAP6 POP SWAP6 SWAP3 POP POP POP JUMP JUMPDEST PUSH1 0x0 DUP1 PUSH1 0x0 DUP4 TIMESTAMP DUP2 LT ISZERO PUSH2 0x1C26 JUMPI PUSH1 0x40 MLOAD PUSH32 0x8C379A000000000000000000000000000000000000000000000000000000000 DUP2 MSTORE PUSH1 0x4 ADD PUSH2 0x1C1D SWAP1 PUSH2 0x3FCD JUMP JUMPDEST PUSH1 0x40 MLOAD DUP1 SWAP2 SUB SWAP1 REVERT JUMPDEST PUSH2 0x1CAC DUP8 PUSH1 0x0 DUP2 MLOAD DUP2 LT PUSH2 0x1C3D JUMPI PUSH2 0x1C3C PUSH2 0x3D0A JUMP JUMPDEST JUMPDEST PUSH1 0x20 MUL PUSH1 0x20 ADD ADD MLOAD PUSH2 0x1CA6 PUSH32 0x0 DUP11 PUSH1 0x0 DUP2 MLOAD DUP2 LT PUSH2 0x1C7D JUMPI PUSH2 0x1C7C PUSH2 0x3D0A JUMP JUMPDEST JUMPDEST PUSH1 0x20 MUL PUSH1 0x20 ADD ADD MLOAD DUP12 PUSH1 0x1 DUP2 MLOAD DUP2 LT PUSH2 0x1C99 JUMPI PUSH2 0x1C98 PUSH2 0x3D0A JUMP JUMPDEST JUMPDEST PUSH1 0x20 MUL PUSH1 0x20 ADD ADD MLOAD PUSH2 0x240B JUMP JUMPDEST DUP12 PUSH2 0x2492 JUMP JUMPDEST PUSH1 0x0 DUP8 PUSH1 0x1 DUP10 MLOAD PUSH2 0x1CBD SWAP2 SWAP1 PUSH2 0x3FED JUMP JUMPDEST DUP2 MLOAD DUP2 LT PUSH2 0x1CCE JUMPI PUSH2 0x1CCD PUSH2 0x3D0A JUMP JUMPDEST JUMPDEST PUSH1 0x20 MUL PUSH1 0x20 ADD ADD MLOAD PUSH20 0xFFFFFFFFFFFFFFFFFFFFFFFFFFFFFFFFFFFFFFFF AND PUSH4 0x70A08231 DUP9 PUSH1 0x40 MLOAD DUP3 PUSH4 0xFFFFFFFF AND PUSH1 0xE0 SHL DUP2 MSTORE PUSH1 0x4 ADD PUSH2 0x1D0E SWAP2 SWAP1 PUSH2 0x3653 JUMP JUMPDEST PUSH1 0x20 PUSH1 0x40 MLOAD DUP1 DUP4 SUB DUP2 DUP7 GAS STATICCALL ISZERO DUP1 ISZERO PUSH2 0x1D2B JUMPI RETURNDATASIZE PUSH1 0x0 DUP1 RETURNDATACOPY RETURNDATASIZE PUSH1 0x0 REVERT JUMPDEST POP POP POP POP PUSH1 0x40 MLOAD RETURNDATASIZE PUSH1 0x1F NOT PUSH1 0x1F DUP3 ADD AND DUP3 ADD DUP1 PUSH1 0x40 MSTORE POP DUP2 ADD SWAP1 PUSH2 0x1D4F SWAP2 SWAP1 PUSH2 0x4258 JUMP JUMPDEST SWAP1 POP PUSH2 0x1D5B DUP9 DUP9 PUSH2 0x2B1B JUMP JUMPDEST DUP9 PUSH2 0x1E0F DUP3 DUP11 PUSH1 0x1 DUP13 MLOAD PUSH2 0x1D6F SWAP2 SWAP1 PUSH2 0x3FED JUMP JUMPDEST DUP2 MLOAD DUP2 LT PUSH2 0x1D80 JUMPI PUSH2 0x1D7F PUSH2 0x3D0A JUMP JUMPDEST JUMPDEST PUSH1 0x20 MUL PUSH1 0x20 ADD ADD MLOAD PUSH20 0xFFFFFFFFFFFFFFFFFFFFFFFFFFFFFFFFFFFFFFFF AND PUSH4 0x70A08231 DUP12 PUSH1 0x40 MLOAD DUP3 PUSH4 0xFFFFFFFF AND PUSH1 0xE0 SHL DUP2 MSTORE PUSH1 0x4 ADD PUSH2 0x1DC0 SWAP2 SWAP1 PUSH2 0x3653 JUMP JUMPDEST PUSH1 0x20 PUSH1 0x40 MLOAD DUP1 DUP4 SUB DUP2 DUP7 GAS STATICCALL ISZERO DUP1 ISZERO PUSH2 0x1DDD JUMPI RETURNDATASIZE PUSH1 0x0 DUP1 RETURNDATACOPY RETURNDATASIZE PUSH1 0x0 REVERT JUMPDEST POP POP POP POP PUSH1 0x40 MLOAD RETURNDATASIZE PUSH1 0x1F NOT PUSH1 0x1F DUP3 ADD AND DUP3 ADD DUP1 PUSH1 0x40 MSTORE POP DUP2 ADD SWAP1 PUSH2 0x1E01 SWAP2 SWAP1 PUSH2 0x4258 JUMP JUMPDEST PUSH2 0x2ECC SWAP1 SWAP2 SWAP1 PUSH4 0xFFFFFFFF AND JUMP JUMPDEST LT ISZERO PUSH2 0x1E50 JUMPI PUSH1 0x40 MLOAD PUSH32 0x8C379A000000000000000000000000000000000000000000000000000000000 DUP2 MSTORE PUSH1 0x4 ADD PUSH2 0x1E47 SWAP1 PUSH2 0x4223 JUMP JUMPDEST PUSH1 0x40 MLOAD DUP1 SWAP2 SUB SWAP1 REVERT JUMPDEST DUP8 PUSH1 0x1 DUP10 MLOAD PUSH2 0x1E5F SWAP2 SWAP1 PUSH2 0x3FED JUMP JUMPDEST DUP2 MLOAD DUP2 LT PUSH2 0x1E70 JUMPI PUSH2 0x1E6F PUSH2 0x3D0A JUMP JUMPDEST JUMPDEST PUSH1 0x20 MUL PUSH1 0x20 ADD ADD MLOAD DUP8 PUSH2 0x1F2C DUP4 DUP12 PUSH1 0x1 DUP14 MLOAD PUSH2 0x1E8C SWAP2 SWAP1 PUSH2 0x3FED JUMP JUMPDEST DUP2 MLOAD DUP2 LT PUSH2 0x1E9D JUMPI PUSH2 0x1E9C PUSH2 0x3D0A JUMP JUMPDEST JUMPDEST PUSH1 0x20 MUL PUSH1 0x20 ADD ADD MLOAD PUSH20 0xFFFFFFFFFFFFFFFFFFFFFFFFFFFFFFFFFFFFFFFF AND PUSH4 0x70A08231 DUP13 PUSH1 0x40 MLOAD DUP3 PUSH4 0xFFFFFFFF AND PUSH1 0xE0 SHL DUP2 MSTORE PUSH1 0x4 ADD PUSH2 0x1EDD SWAP2 SWAP1 PUSH2 0x3653 JUMP JUMPDEST PUSH1 0x20 PUSH1 0x40 MLOAD DUP1 DUP4 SUB DUP2 DUP7 GAS STATICCALL ISZERO DUP1 ISZERO PUSH2 0x1EFA JUMPI RETURNDATASIZE PUSH1 0x0 DUP1 RETURNDATACOPY RETURNDATASIZE PUSH1 0x0 REVERT JUMPDEST POP POP POP POP PUSH1 0x40 MLOAD RETURNDATASIZE PUSH1 0x1F NOT PUSH1 0x1F DUP3 ADD AND DUP3 ADD DUP1 PUSH1 0x40 MSTORE POP DUP2 ADD SWAP1 PUSH2 0x1F1E SWAP2 SWAP1 PUSH2 0x4258 JUMP JUMPDEST PUSH2 0x2ECC SWAP1 SWAP2 SWAP1 PUSH4 0xFFFFFFFF AND JUMP JUMPDEST SWAP5 POP SWAP5 POP SWAP5 POP POP POP SWAP6 POP SWAP6 POP SWAP6 SWAP3 POP POP POP JUMP JUMPDEST PUSH1 0x0 DUP1 PUSH1 0x0 DUP4 TIMESTAMP DUP2 LT ISZERO PUSH2 0x1F88 JUMPI PUSH1 0x40 MLOAD PUSH32 0x8C379A000000000000000000000000000000000000000000000000000000000 DUP2 MSTORE PUSH1 0x4 ADD PUSH2 0x1F7F SWAP1 PUSH2 0x3FCD JUMP JUMPDEST PUSH1 0x40 MLOAD DUP1 SWAP2 SUB SWAP1 REVERT JUMPDEST PUSH32 0x0 PUSH20 0xFFFFFFFFFFFFFFFFFFFFFFFFFFFFFFFFFFFFFFFF AND DUP8 PUSH1 0x1 DUP10 MLOAD PUSH2 0x1FCE SWAP2 SWAP1 PUSH2 0x3FED JUMP JUMPDEST DUP2 MLOAD DUP2 LT PUSH2 0x1FDF JUMPI PUSH2 0x1FDE PUSH2 0x3D0A JUMP JUMPDEST JUMPDEST PUSH1 0x20 MUL PUSH1 0x20 ADD ADD MLOAD PUSH20 0xFFFFFFFFFFFFFFFFFFFFFFFFFFFFFFFFFFFFFFFF AND EQ PUSH2 0x203D JUMPI PUSH1 0x40 MLOAD PUSH32 0x8C379A000000000000000000000000000000000000000000000000000000000 DUP2 MSTORE PUSH1 0x4 ADD PUSH2 0x2034 SWAP1 PUSH2 0x4191 JUMP JUMPDEST PUSH1 0x40 MLOAD DUP1 SWAP2 SUB SWAP1 REVERT JUMPDEST PUSH2 0x20C3 DUP8 PUSH1 0x0 DUP2 MLOAD DUP2 LT PUSH2 0x2054 JUMPI PUSH2 0x2053 PUSH2 0x3D0A JUMP JUMPDEST JUMPDEST PUSH1 0x20 MUL PUSH1 0x20 ADD ADD MLOAD PUSH2 0x20BD PUSH32 0x0 DUP11 PUSH1 0x0 DUP2 MLOAD DUP2 LT PUSH2 0x2094 JUMPI PUSH2 0x2093 PUSH2 0x3D0A JUMP JUMPDEST JUMPDEST PUSH1 0x20 MUL PUSH1 0x20 ADD ADD MLOAD DUP12 PUSH1 0x1 DUP2 MLOAD DUP2 LT PUSH2 0x20B0 JUMPI PUSH2 0x20AF PUSH2 0x3D0A JUMP JUMPDEST JUMPDEST PUSH1 0x20 MUL PUSH1 0x20 ADD ADD MLOAD PUSH2 0x240B JUMP JUMPDEST DUP12 PUSH2 0x2492 JUMP JUMPDEST PUSH2 0x20CD DUP8 ADDRESS PUSH2 0x2B1B JUMP JUMPDEST PUSH1 0x0 PUSH32 0x0 PUSH20 0xFFFFFFFFFFFFFFFFFFFFFFFFFFFFFFFFFFFFFFFF AND PUSH4 0x70A08231 ADDRESS PUSH1 0x40 MLOAD DUP3 PUSH4 0xFFFFFFFF AND PUSH1 0xE0 SHL DUP2 MSTORE PUSH1 0x4 ADD PUSH2 0x2128 SWAP2 SWAP1 PUSH2 0x3653 JUMP JUMPDEST PUSH1 0x20 PUSH1 0x40 MLOAD DUP1 DUP4 SUB DUP2 DUP7 GAS STATICCALL ISZERO DUP1 ISZERO PUSH2 0x2145 JUMPI RETURNDATASIZE PUSH1 0x0 DUP1 RETURNDATACOPY RETURNDATASIZE PUSH1 0x0 REVERT JUMPDEST POP POP POP POP PUSH1 0x40 MLOAD RETURNDATASIZE PUSH1 0x1F NOT PUSH1 0x1F DUP3 ADD AND DUP3 ADD DUP1 PUSH1 0x40 MSTORE POP DUP2 ADD SWAP1 PUSH2 0x2169 SWAP2 SWAP1 PUSH2 0x4258 JUMP JUMPDEST SWAP1 POP DUP9 DUP2 LT ISZERO PUSH2 0x21AE JUMPI PUSH1 0x40 MLOAD PUSH32 0x8C379A000000000000000000000000000000000000000000000000000000000 DUP2 MSTORE PUSH1 0x4 ADD PUSH2 0x21A5 SWAP1 PUSH2 0x4223 JUMP JUMPDEST PUSH1 0x40 MLOAD DUP1 SWAP2 SUB SWAP1 REVERT JUMPDEST PUSH32 0x0 PUSH20 0xFFFFFFFFFFFFFFFFFFFFFFFFFFFFFFFFFFFFFFFF AND PUSH4 0x2E1A7D4D DUP3 PUSH1 0x40 MLOAD DUP3 PUSH4 0xFFFFFFFF AND PUSH1 0xE0 SHL DUP2 MSTORE PUSH1 0x4 ADD PUSH2 0x2207 SWAP2 SWAP1 PUSH2 0x360B JUMP JUMPDEST PUSH1 0x0 PUSH1 0x40 MLOAD DUP1 DUP4 SUB DUP2 PUSH1 0x0 DUP8 DUP1 EXTCODESIZE ISZERO DUP1 ISZERO PUSH2 0x2221 JUMPI PUSH1 0x0 DUP1 REVERT JUMPDEST POP GAS CALL ISZERO DUP1 ISZERO PUSH2 0x2235 JUMPI RETURNDATASIZE PUSH1 0x0 DUP1 RETURNDATACOPY RETURNDATASIZE PUSH1 0x0 REVERT JUMPDEST POP POP POP POP PUSH2 0x2243 DUP8 DUP3 PUSH2 0x2A1B JUMP JUMPDEST DUP8 PUSH1 0x1 DUP10 MLOAD PUSH2 0x2252 SWAP2 SWAP1 PUSH2 0x3FED JUMP JUMPDEST DUP2 MLOAD DUP2 LT PUSH2 0x2263 JUMPI PUSH2 0x2262 PUSH2 0x3D0A JUMP JUMPDEST JUMPDEST PUSH1 0x20 MUL PUSH1 0x20 ADD ADD MLOAD DUP8 DUP3 SWAP5 POP SWAP5 POP SWAP5 POP POP POP SWAP6 POP SWAP6 POP SWAP6 SWAP3 POP POP POP JUMP JUMPDEST PUSH1 0x60 PUSH1 0x2 DUP3 MLOAD LT ISZERO PUSH2 0x22C7 JUMPI PUSH1 0x40 MLOAD PUSH32 0x8C379A000000000000000000000000000000000000000000000000000000000 DUP2 MSTORE PUSH1 0x4 ADD PUSH2 0x22BE SWAP1 PUSH2 0x42D1 JUMP JUMPDEST PUSH1 0x40 MLOAD DUP1 SWAP2 SUB SWAP1 REVERT JUMPDEST DUP2 MLOAD PUSH8 0xFFFFFFFFFFFFFFFF DUP2 GT ISZERO PUSH2 0x22E2 JUMPI PUSH2 0x22E1 PUSH2 0x3A65 JUMP JUMPDEST JUMPDEST PUSH1 0x40 MLOAD SWAP1 DUP1 DUP3 MSTORE DUP1 PUSH1 0x20 MUL PUSH1 0x20 ADD DUP3 ADD PUSH1 0x40 MSTORE DUP1 ISZERO PUSH2 0x2310 JUMPI DUP2 PUSH1 0x20 ADD PUSH1 0x20 DUP3 MUL DUP1 CALLDATASIZE DUP4 CALLDATACOPY DUP1 DUP3 ADD SWAP2 POP POP SWAP1 POP JUMPDEST POP SWAP1 POP DUP3 DUP2 PUSH1 0x0 DUP2 MLOAD DUP2 LT PUSH2 0x2328 JUMPI PUSH2 0x2327 PUSH2 0x3D0A JUMP JUMPDEST JUMPDEST PUSH1 0x20 MUL PUSH1 0x20 ADD ADD DUP2 DUP2 MSTORE POP POP PUSH1 0x0 JUMPDEST PUSH1 0x1 DUP4 MLOAD PUSH2 0x2345 SWAP2 SWAP1 PUSH2 0x3FED JUMP JUMPDEST DUP2 LT ISZERO PUSH2 0x2403 JUMPI PUSH1 0x0 DUP1 PUSH2 0x239A DUP8 DUP7 DUP6 DUP2 MLOAD DUP2 LT PUSH2 0x2366 JUMPI PUSH2 0x2365 PUSH2 0x3D0A JUMP JUMPDEST JUMPDEST PUSH1 0x20 MUL PUSH1 0x20 ADD ADD MLOAD DUP8 PUSH1 0x1 DUP8 PUSH2 0x237C SWAP2 SWAP1 PUSH2 0x3926 JUMP JUMPDEST DUP2 MLOAD DUP2 LT PUSH2 0x238D JUMPI PUSH2 0x238C PUSH2 0x3D0A JUMP JUMPDEST JUMPDEST PUSH1 0x20 MUL PUSH1 0x20 ADD ADD MLOAD PUSH2 0x2F25 JUMP JUMPDEST SWAP2 POP SWAP2 POP PUSH2 0x23C3 DUP5 DUP5 DUP2 MLOAD DUP2 LT PUSH2 0x23B4 JUMPI PUSH2 0x23B3 PUSH2 0x3D0A JUMP JUMPDEST JUMPDEST PUSH1 0x20 MUL PUSH1 0x20 ADD ADD MLOAD DUP4 DUP4 PUSH2 0x3028 JUMP JUMPDEST DUP5 PUSH1 0x1 DUP6 PUSH2 0x23D1 SWAP2 SWAP1 PUSH2 0x3926 JUMP JUMPDEST DUP2 MLOAD DUP2 LT PUSH2 0x23E2 JUMPI PUSH2 0x23E1 PUSH2 0x3D0A JUMP JUMPDEST JUMPDEST PUSH1 0x20 MUL PUSH1 0x20 ADD ADD DUP2 DUP2 MSTORE POP POP POP POP DUP1 DUP1 PUSH2 0x23FB SWAP1 PUSH2 0x42F1 JUMP JUMPDEST SWAP2 POP POP PUSH2 0x2337 JUMP JUMPDEST POP SWAP4 SWAP3 POP POP POP JUMP JUMPDEST PUSH1 0x0 DUP4 PUSH20 0xFFFFFFFFFFFFFFFFFFFFFFFFFFFFFFFFFFFFFFFF AND PUSH4 0xE6A43905 DUP5 DUP5 PUSH1 0x40 MLOAD DUP4 PUSH4 0xFFFFFFFF AND PUSH1 0xE0 SHL DUP2 MSTORE PUSH1 0x4 ADD PUSH2 0x2448 SWAP3 SWAP2 SWAP1 PUSH2 0x433A JUMP JUMPDEST PUSH1 0x20 PUSH1 0x40 MLOAD DUP1 DUP4 SUB DUP2 DUP7 GAS STATICCALL ISZERO DUP1 ISZERO PUSH2 0x2465 JUMPI RETURNDATASIZE PUSH1 0x0 DUP1 RETURNDATACOPY RETURNDATASIZE PUSH1 0x0 REVERT JUMPDEST POP POP POP POP PUSH1 0x40 MLOAD RETURNDATASIZE PUSH1 0x1F NOT PUSH1 0x1F DUP3 ADD AND DUP3 ADD DUP1 PUSH1 0x40 MSTORE POP DUP2 ADD SWAP1 PUSH2 0x2489 SWAP2 SWAP1 PUSH2 0x4378 JUMP JUMPDEST SWAP1 POP SWAP4 SWAP3 POP POP POP JUMP JUMPDEST PUSH1 0x0 DUP1 DUP5 PUSH20 0xFFFFFFFFFFFFFFFFFFFFFFFFFFFFFFFFFFFFFFFF AND PUSH4 0xA9059CBB DUP6 DUP6 PUSH1 0x40 MLOAD PUSH1 0x24 ADD PUSH2 0x24C4 SWAP3 SWAP2 SWAP1 PUSH2 0x43A5 JUMP JUMPDEST PUSH1 0x40 MLOAD PUSH1 0x20 DUP2 DUP4 SUB SUB DUP2 MSTORE SWAP1 PUSH1 0x40 MSTORE SWAP1 PUSH1 0xE0 SHL PUSH1 0x20 DUP3 ADD DUP1 MLOAD PUSH28 0xFFFFFFFFFFFFFFFFFFFFFFFFFFFFFFFFFFFFFFFFFFFFFFFFFFFFFFFF DUP4 DUP2 DUP4 AND OR DUP4 MSTORE POP POP POP POP PUSH1 0x40 MLOAD PUSH2 0x2512 SWAP2 SWAP1 PUSH2 0x4448 JUMP JUMPDEST PUSH1 0x0 PUSH1 0x40 MLOAD DUP1 DUP4 SUB DUP2 PUSH1 0x0 DUP7 GAS CALL SWAP2 POP POP RETURNDATASIZE DUP1 PUSH1 0x0 DUP2 EQ PUSH2 0x254F JUMPI PUSH1 0x40 MLOAD SWAP2 POP PUSH1 0x1F NOT PUSH1 0x3F RETURNDATASIZE ADD AND DUP3 ADD PUSH1 0x40 MSTORE RETURNDATASIZE DUP3 MSTORE RETURNDATASIZE PUSH1 0x0 PUSH1 0x20 DUP5 ADD RETURNDATACOPY PUSH2 0x2554 JUMP JUMPDEST PUSH1 0x60 SWAP2 POP JUMPDEST POP SWAP2 POP SWAP2 POP DUP2 DUP1 ISZERO PUSH2 0x2582 JUMPI POP PUSH1 0x0 DUP2 MLOAD EQ DUP1 PUSH2 0x2581 JUMPI POP DUP1 DUP1 PUSH1 0x20 ADD SWAP1 MLOAD DUP2 ADD SWAP1 PUSH2 0x2580 SWAP2 SWAP1 PUSH2 0x4497 JUMP JUMPDEST JUMPDEST JUMPDEST PUSH2 0x25C1 JUMPI PUSH1 0x40 MLOAD PUSH32 0x8C379A000000000000000000000000000000000000000000000000000000000 DUP2 MSTORE PUSH1 0x4 ADD PUSH2 0x25B8 SWAP1 PUSH2 0x4510 JUMP JUMPDEST PUSH1 0x40 MLOAD DUP1 SWAP2 SUB SWAP1 REVERT JUMPDEST POP POP POP POP POP JUMP JUMPDEST PUSH1 0x0 DUP1 PUSH1 0x0 DUP1 JUMPDEST PUSH1 0x1 DUP7 MLOAD PUSH2 0x25DD SWAP2 SWAP1 PUSH2 0x3FED JUMP JUMPDEST DUP2 LT ISZERO PUSH2 0x281F JUMPI PUSH1 0x0 DUP1 DUP8 DUP4 DUP2 MLOAD DUP2 LT PUSH2 0x25FA JUMPI PUSH2 0x25F9 PUSH2 0x3D0A JUMP JUMPDEST JUMPDEST PUSH1 0x20 MUL PUSH1 0x20 ADD ADD MLOAD DUP9 PUSH1 0x1 DUP6 PUSH2 0x2610 SWAP2 SWAP1 PUSH2 0x3926 JUMP JUMPDEST DUP2 MLOAD DUP2 LT PUSH2 0x2621 JUMPI PUSH2 0x2620 PUSH2 0x3D0A JUMP JUMPDEST JUMPDEST PUSH1 0x20 MUL PUSH1 0x20 ADD ADD MLOAD SWAP2 POP SWAP2 POP PUSH1 0x0 PUSH2 0x2639 DUP4 DUP4 PUSH2 0x312E JUMP JUMPDEST POP SWAP1 POP PUSH1 0x0 DUP11 PUSH1 0x1 DUP7 PUSH2 0x264C SWAP2 SWAP1 PUSH2 0x3926 JUMP JUMPDEST DUP2 MLOAD DUP2 LT PUSH2 0x265D JUMPI PUSH2 0x265C PUSH2 0x3D0A JUMP JUMPDEST JUMPDEST PUSH1 0x20 MUL PUSH1 0x20 ADD ADD MLOAD SWAP1 POP PUSH1 0x0 DUP1 DUP4 PUSH20 0xFFFFFFFFFFFFFFFFFFFFFFFFFFFFFFFFFFFFFFFF AND DUP7 PUSH20 0xFFFFFFFFFFFFFFFFFFFFFFFFFFFFFFFFFFFFFFFF AND EQ PUSH2 0x26A5 JUMPI DUP3 PUSH1 0x0 PUSH2 0x26A9 JUMP JUMPDEST PUSH1 0x0 DUP4 JUMPDEST SWAP2 POP SWAP2 POP PUSH1 0x0 PUSH1 0x2 DUP14 MLOAD PUSH2 0x26BD SWAP2 SWAP1 PUSH2 0x3FED JUMP JUMPDEST DUP9 LT PUSH2 0x26C9 JUMPI DUP12 PUSH2 0x271B JUMP JUMPDEST PUSH2 0x271A PUSH32 0x0 DUP8 DUP16 PUSH1 0x2 DUP13 PUSH2 0x26FC SWAP2 SWAP1 PUSH2 0x3926 JUMP JUMPDEST DUP2 MLOAD DUP2 LT PUSH2 0x270D JUMPI PUSH2 0x270C PUSH2 0x3D0A JUMP JUMPDEST JUMPDEST PUSH1 0x20 MUL PUSH1 0x20 ADD ADD MLOAD PUSH2 0x240B JUMP JUMPDEST JUMPDEST SWAP1 POP PUSH2 0x2748 PUSH32 0x0 DUP9 DUP9 PUSH2 0x240B JUMP JUMPDEST PUSH20 0xFFFFFFFFFFFFFFFFFFFFFFFFFFFFFFFFFFFFFFFF AND PUSH4 0x22C0D9F DUP5 DUP5 DUP5 PUSH1 0x0 PUSH8 0xFFFFFFFFFFFFFFFF DUP2 GT ISZERO PUSH2 0x2781 JUMPI PUSH2 0x2780 PUSH2 0x3A65 JUMP JUMPDEST JUMPDEST PUSH1 0x40 MLOAD SWAP1 DUP1 DUP3 MSTORE DUP1 PUSH1 0x1F ADD PUSH1 0x1F NOT AND PUSH1 0x20 ADD DUP3 ADD PUSH1 0x40 MSTORE DUP1 ISZERO PUSH2 0x27B3 JUMPI DUP2 PUSH1 0x20 ADD PUSH1 0x1 DUP3 MUL DUP1 CALLDATASIZE DUP4 CALLDATACOPY DUP1 DUP3 ADD SWAP2 POP POP SWAP1 POP JUMPDEST POP PUSH1 0x40 MLOAD DUP6 PUSH4 0xFFFFFFFF AND PUSH1 0xE0 SHL DUP2 MSTORE PUSH1 0x4 ADD PUSH2 0x27D3 SWAP5 SWAP4 SWAP3 SWAP2 SWAP1 PUSH2 0x457A JUMP JUMPDEST PUSH1 0x0 PUSH1 0x40 MLOAD DUP1 DUP4 SUB DUP2 PUSH1 0x0 DUP8 DUP1 EXTCODESIZE ISZERO DUP1 ISZERO PUSH2 0x27ED JUMPI PUSH1 0x0 DUP1 REVERT JUMPDEST POP GAS CALL ISZERO DUP1 ISZERO PUSH2 0x2801 JUMPI RETURNDATASIZE PUSH1 0x0 DUP1 RETURNDATACOPY RETURNDATASIZE PUSH1 0x0 REVERT JUMPDEST POP POP POP POP POP POP POP POP POP POP POP DUP1 DUP1 PUSH2 0x2817 SWAP1 PUSH2 0x42F1 JUMP JUMPDEST SWAP2 POP POP PUSH2 0x25CF JUMP JUMPDEST POP DUP5 PUSH1 0x1 DUP7 MLOAD PUSH2 0x282F SWAP2 SWAP1 PUSH2 0x3FED JUMP JUMPDEST DUP2 MLOAD DUP2 LT PUSH2 0x2840 JUMPI PUSH2 0x283F PUSH2 0x3D0A JUMP JUMPDEST JUMPDEST PUSH1 0x20 MUL PUSH1 0x20 ADD ADD MLOAD DUP5 DUP8 PUSH1 0x1 DUP10 MLOAD PUSH2 0x2858 SWAP2 SWAP1 PUSH2 0x3FED JUMP JUMPDEST DUP2 MLOAD DUP2 LT PUSH2 0x2869 JUMPI PUSH2 0x2868 PUSH2 0x3D0A JUMP JUMPDEST JUMPDEST PUSH1 0x20 MUL PUSH1 0x20 ADD ADD MLOAD SWAP3 POP SWAP3 POP SWAP3 POP SWAP4 POP SWAP4 POP SWAP4 SWAP1 POP JUMP JUMPDEST PUSH1 0x60 PUSH1 0x2 DUP3 MLOAD LT ISZERO PUSH2 0x28C7 JUMPI PUSH1 0x40 MLOAD PUSH32 0x8C379A000000000000000000000000000000000000000000000000000000000 DUP2 MSTORE PUSH1 0x4 ADD PUSH2 0x28BE SWAP1 PUSH2 0x42D1 JUMP JUMPDEST PUSH1 0x40 MLOAD DUP1 SWAP2 SUB SWAP1 REVERT JUMPDEST DUP2 MLOAD PUSH8 0xFFFFFFFFFFFFFFFF DUP2 GT ISZERO PUSH2 0x28E2 JUMPI PUSH2 0x28E1 PUSH2 0x3A65 JUMP JUMPDEST JUMPDEST PUSH1 0x40 MLOAD SWAP1 DUP1 DUP3 MSTORE DUP1 PUSH1 0x20 MUL PUSH1 0x20 ADD DUP3 ADD PUSH1 0x40 MSTORE DUP1 ISZERO PUSH2 0x2910 JUMPI DUP2 PUSH1 0x20 ADD PUSH1 0x20 DUP3 MUL DUP1 CALLDATASIZE DUP4 CALLDATACOPY DUP1 DUP3 ADD SWAP2 POP POP SWAP1 POP JUMPDEST POP SWAP1 POP DUP3 DUP2 PUSH1 0x1 DUP4 MLOAD PUSH2 0x2923 SWAP2 SWAP1 PUSH2 0x3FED JUMP JUMPDEST DUP2 MLOAD DUP2 LT PUSH2 0x2934 JUMPI PUSH2 0x2933 PUSH2 0x3D0A JUMP JUMPDEST JUMPDEST PUSH1 0x20 MUL PUSH1 0x20 ADD ADD DUP2 DUP2 MSTORE POP POP PUSH1 0x0 PUSH1 0x1 DUP4 MLOAD PUSH2 0x2950 SWAP2 SWAP1 PUSH2 0x3FED JUMP JUMPDEST SWAP1 POP JUMPDEST PUSH1 0x0 DUP2 GT ISZERO PUSH2 0x2A13 JUMPI PUSH1 0x0 DUP1 PUSH2 0x29AA DUP8 DUP7 PUSH1 0x1 DUP7 PUSH2 0x2971 SWAP2 SWAP1 PUSH2 0x3FED JUMP JUMPDEST DUP2 MLOAD DUP2 LT PUSH2 0x2982 JUMPI PUSH2 0x2981 PUSH2 0x3D0A JUMP JUMPDEST JUMPDEST PUSH1 0x20 MUL PUSH1 0x20 ADD ADD MLOAD DUP8 DUP7 DUP2 MLOAD DUP2 LT PUSH2 0x299D JUMPI PUSH2 0x299C PUSH2 0x3D0A JUMP JUMPDEST JUMPDEST PUSH1 0x20 MUL PUSH1 0x20 ADD ADD MLOAD PUSH2 0x2F25 JUMP JUMPDEST SWAP2 POP SWAP2 POP PUSH2 0x29D3 DUP5 DUP5 DUP2 MLOAD DUP2 LT PUSH2 0x29C4 JUMPI PUSH2 0x29C3 PUSH2 0x3D0A JUMP JUMPDEST JUMPDEST PUSH1 0x20 MUL PUSH1 0x20 ADD ADD MLOAD DUP4 DUP4 PUSH2 0x325C JUMP JUMPDEST DUP5 PUSH1 0x1 DUP6 PUSH2 0x29E1 SWAP2 SWAP1 PUSH2 0x3FED JUMP JUMPDEST DUP2 MLOAD DUP2 LT PUSH2 0x29F2 JUMPI PUSH2 0x29F1 PUSH2 0x3D0A JUMP JUMPDEST JUMPDEST PUSH1 0x20 MUL PUSH1 0x20 ADD ADD DUP2 DUP2 MSTORE POP POP POP POP DUP1 DUP1 PUSH2 0x2A0B SWAP1 PUSH2 0x45C6 JUMP JUMPDEST SWAP2 POP POP PUSH2 0x2953 JUMP JUMPDEST POP SWAP4 SWAP3 POP POP POP JUMP JUMPDEST PUSH1 0x0 DUP3 PUSH20 0xFFFFFFFFFFFFFFFFFFFFFFFFFFFFFFFFFFFFFFFF AND DUP3 PUSH1 0x0 PUSH8 0xFFFFFFFFFFFFFFFF DUP2 GT ISZERO PUSH2 0x2A50 JUMPI PUSH2 0x2A4F PUSH2 0x3A65 JUMP JUMPDEST JUMPDEST PUSH1 0x40 MLOAD SWAP1 DUP1 DUP3 MSTORE DUP1 PUSH1 0x1F ADD PUSH1 0x1F NOT AND PUSH1 0x20 ADD DUP3 ADD PUSH1 0x40 MSTORE DUP1 ISZERO PUSH2 0x2A82 JUMPI DUP2 PUSH1 0x20 ADD PUSH1 0x1 DUP3 MUL DUP1 CALLDATASIZE DUP4 CALLDATACOPY DUP1 DUP3 ADD SWAP2 POP POP SWAP1 POP JUMPDEST POP PUSH1 0x40 MLOAD PUSH2 0x2A90 SWAP2 SWAP1 PUSH2 0x4448 JUMP JUMPDEST PUSH1 0x0 PUSH1 0x40 MLOAD DUP1 DUP4 SUB DUP2 DUP6 DUP8 GAS CALL SWAP3 POP POP POP RETURNDATASIZE DUP1 PUSH1 0x0 DUP2 EQ PUSH2 0x2ACD JUMPI PUSH1 0x40 MLOAD SWAP2 POP PUSH1 0x1F NOT PUSH1 0x3F RETURNDATASIZE ADD AND DUP3 ADD PUSH1 0x40 MSTORE RETURNDATASIZE DUP3 MSTORE RETURNDATASIZE PUSH1 0x0 PUSH1 0x20 DUP5 ADD RETURNDATACOPY PUSH2 0x2AD2 JUMP JUMPDEST PUSH1 0x60 SWAP2 POP JUMPDEST POP POP SWAP1 POP DUP1 PUSH2 0x2B16 JUMPI PUSH1 0x40 MLOAD PUSH32 0x8C379A000000000000000000000000000000000000000000000000000000000 DUP2 MSTORE PUSH1 0x4 ADD PUSH2 0x2B0D SWAP1 PUSH2 0x4662 JUMP JUMPDEST PUSH1 0x40 MLOAD DUP1 SWAP2 SUB SWAP1 REVERT JUMPDEST POP POP POP JUMP JUMPDEST PUSH1 0x0 JUMPDEST PUSH1 0x1 DUP4 MLOAD PUSH2 0x2B2C SWAP2 SWAP1 PUSH2 0x3FED JUMP JUMPDEST DUP2 LT ISZERO PUSH2 0x2EC7 JUMPI PUSH1 0x0 DUP1 DUP5 DUP4 DUP2 MLOAD DUP2 LT PUSH2 0x2B49 JUMPI PUSH2 0x2B48 PUSH2 0x3D0A JUMP JUMPDEST JUMPDEST PUSH1 0x20 MUL PUSH1 0x20 ADD ADD MLOAD DUP6 PUSH1 0x1 DUP6 PUSH2 0x2B5F SWAP2 SWAP1 PUSH2 0x3926 JUMP JUMPDEST DUP2 MLOAD DUP2 LT PUSH2 0x2B70 JUMPI PUSH2 0x2B6F PUSH2 0x3D0A JUMP JUMPDEST JUMPDEST PUSH1 0x20 MUL PUSH1 0x20 ADD ADD MLOAD SWAP2 POP SWAP2 POP PUSH1 0x0 PUSH2 0x2B88 DUP4 DUP4 PUSH2 0x312E JUMP JUMPDEST POP SWAP1 POP PUSH1 0x0 PUSH2 0x2BB8 PUSH32 0x0 DUP6 DUP6 PUSH2 0x240B JUMP JUMPDEST SWAP1 POP PUSH1 0x0 DUP1 PUSH1 0x0 DUP1 DUP5 PUSH20 0xFFFFFFFFFFFFFFFFFFFFFFFFFFFFFFFFFFFFFFFF AND PUSH4 0x902F1AC PUSH1 0x40 MLOAD DUP2 PUSH4 0xFFFFFFFF AND PUSH1 0xE0 SHL DUP2 MSTORE PUSH1 0x4 ADD PUSH1 0x60 PUSH1 0x40 MLOAD DUP1 DUP4 SUB DUP2 DUP7 GAS STATICCALL ISZERO DUP1 ISZERO PUSH2 0x2C0B JUMPI RETURNDATASIZE PUSH1 0x0 DUP1 RETURNDATACOPY RETURNDATASIZE PUSH1 0x0 REVERT JUMPDEST POP POP POP POP PUSH1 0x40 MLOAD RETURNDATASIZE PUSH1 0x1F NOT PUSH1 0x1F DUP3 ADD AND DUP3 ADD DUP1 PUSH1 0x40 MSTORE POP DUP2 ADD SWAP1 PUSH2 0x2C2F SWAP2 SWAP1 PUSH2 0x4704 JUMP JUMPDEST POP PUSH14 0xFFFFFFFFFFFFFFFFFFFFFFFFFFFF AND SWAP2 POP PUSH14 0xFFFFFFFFFFFFFFFFFFFFFFFFFFFF AND SWAP2 POP PUSH1 0x0 DUP1 DUP8 PUSH20 0xFFFFFFFFFFFFFFFFFFFFFFFFFFFFFFFFFFFFFFFF AND DUP11 PUSH20 0xFFFFFFFFFFFFFFFFFFFFFFFFFFFFFFFFFFFFFFFF AND EQ PUSH2 0x2C91 JUMPI DUP3 DUP5 PUSH2 0x2C94 JUMP JUMPDEST DUP4 DUP4 JUMPDEST SWAP2 POP SWAP2 POP PUSH2 0x2D24 DUP3 DUP12 PUSH20 0xFFFFFFFFFFFFFFFFFFFFFFFFFFFFFFFFFFFFFFFF AND PUSH4 0x70A08231 DUP11 PUSH1 0x40 MLOAD DUP3 PUSH4 0xFFFFFFFF AND PUSH1 0xE0 SHL DUP2 MSTORE PUSH1 0x4 ADD PUSH2 0x2CD5 SWAP2 SWAP1 PUSH2 0x3653 JUMP JUMPDEST PUSH1 0x20 PUSH1 0x40 MLOAD DUP1 DUP4 SUB DUP2 DUP7 GAS STATICCALL ISZERO DUP1 ISZERO PUSH2 0x2CF2 JUMPI RETURNDATASIZE PUSH1 0x0 DUP1 RETURNDATACOPY RETURNDATASIZE PUSH1 0x0 REVERT JUMPDEST POP POP POP POP PUSH1 0x40 MLOAD RETURNDATASIZE PUSH1 0x1F NOT PUSH1 0x1F DUP3 ADD AND DUP3 ADD DUP1 PUSH1 0x40 MSTORE POP DUP2 ADD SWAP1 PUSH2 0x2D16 SWAP2 SWAP1 PUSH2 0x4258 JUMP JUMPDEST PUSH2 0x2ECC SWAP1 SWAP2 SWAP1 PUSH4 0xFFFFFFFF AND JUMP JUMPDEST SWAP6 POP PUSH2 0x2D31 DUP7 DUP4 DUP4 PUSH2 0x3028 JUMP JUMPDEST SWAP5 POP POP POP POP POP PUSH1 0x0 DUP1 DUP6 PUSH20 0xFFFFFFFFFFFFFFFFFFFFFFFFFFFFFFFFFFFFFFFF AND DUP9 PUSH20 0xFFFFFFFFFFFFFFFFFFFFFFFFFFFFFFFFFFFFFFFF AND EQ PUSH2 0x2D75 JUMPI DUP3 PUSH1 0x0 PUSH2 0x2D79 JUMP JUMPDEST PUSH1 0x0 DUP4 JUMPDEST SWAP2 POP SWAP2 POP PUSH1 0x0 PUSH1 0x2 DUP13 MLOAD PUSH2 0x2D8D SWAP2 SWAP1 PUSH2 0x3FED JUMP JUMPDEST DUP11 LT PUSH2 0x2D99 JUMPI DUP11 PUSH2 0x2DEB JUMP JUMPDEST PUSH2 0x2DEA PUSH32 0x0 DUP10 DUP15 PUSH1 0x2 DUP15 PUSH2 0x2DCC SWAP2 SWAP1 PUSH2 0x3926 JUMP JUMPDEST DUP2 MLOAD DUP2 LT PUSH2 0x2DDD JUMPI PUSH2 0x2DDC PUSH2 0x3D0A JUMP JUMPDEST JUMPDEST PUSH1 0x20 MUL PUSH1 0x20 ADD ADD MLOAD PUSH2 0x240B JUMP JUMPDEST JUMPDEST SWAP1 POP DUP6 PUSH20 0xFFFFFFFFFFFFFFFFFFFFFFFFFFFFFFFFFFFFFFFF AND PUSH4 0x22C0D9F DUP5 DUP5 DUP5 PUSH1 0x0 PUSH8 0xFFFFFFFFFFFFFFFF DUP2 GT ISZERO PUSH2 0x2E27 JUMPI PUSH2 0x2E26 PUSH2 0x3A65 JUMP JUMPDEST JUMPDEST PUSH1 0x40 MLOAD SWAP1 DUP1 DUP3 MSTORE DUP1 PUSH1 0x1F ADD PUSH1 0x1F NOT AND PUSH1 0x20 ADD DUP3 ADD PUSH1 0x40 MSTORE DUP1 ISZERO PUSH2 0x2E59 JUMPI DUP2 PUSH1 0x20 ADD PUSH1 0x1 DUP3 MUL DUP1 CALLDATASIZE DUP4 CALLDATACOPY DUP1 DUP3 ADD SWAP2 POP POP SWAP1 POP JUMPDEST POP PUSH1 0x40 MLOAD DUP6 PUSH4 0xFFFFFFFF AND PUSH1 0xE0 SHL DUP2 MSTORE PUSH1 0x4 ADD PUSH2 0x2E79 SWAP5 SWAP4 SWAP3 SWAP2 SWAP1 PUSH2 0x457A JUMP JUMPDEST PUSH1 0x0 PUSH1 0x40 MLOAD DUP1 DUP4 SUB DUP2 PUSH1 0x0 DUP8 DUP1 EXTCODESIZE ISZERO DUP1 ISZERO PUSH2 0x2E93 JUMPI PUSH1 0x0 DUP1 REVERT JUMPDEST POP GAS CALL ISZERO DUP1 ISZERO PUSH2 0x2EA7 JUMPI RETURNDATASIZE PUSH1 0x0 DUP1 RETURNDATACOPY RETURNDATASIZE PUSH1 0x0 REVERT JUMPDEST POP POP POP POP POP POP POP POP POP POP POP POP POP DUP1 DUP1 PUSH2 0x2EBF SWAP1 PUSH2 0x42F1 JUMP JUMPDEST SWAP2 POP POP PUSH2 0x2B1E JUMP JUMPDEST POP POP POP JUMP JUMPDEST PUSH1 0x0 DUP3 DUP3 DUP5 PUSH2 0x2EDB SWAP2 SWAP1 PUSH2 0x3FED JUMP JUMPDEST SWAP2 POP DUP2 GT ISZERO PUSH2 0x2F1F JUMPI PUSH1 0x40 MLOAD PUSH32 0x8C379A000000000000000000000000000000000000000000000000000000000 DUP2 MSTORE PUSH1 0x4 ADD PUSH2 0x2F16 SWAP1 PUSH2 0x47A3 JUMP JUMPDEST PUSH1 0x40 MLOAD DUP1 SWAP2 SUB SWAP1 REVERT JUMPDEST SWAP3 SWAP2 POP POP JUMP JUMPDEST PUSH1 0x0 DUP1 PUSH1 0x0 PUSH2 0x2F34 DUP6 DUP6 PUSH2 0x312E JUMP JUMPDEST POP SWAP1 POP PUSH1 0x0 DUP1 PUSH2 0x2F45 DUP9 DUP9 DUP9 PUSH2 0x240B JUMP JUMPDEST PUSH20 0xFFFFFFFFFFFFFFFFFFFFFFFFFFFFFFFFFFFFFFFF AND PUSH4 0x902F1AC PUSH1 0x40 MLOAD DUP2 PUSH4 0xFFFFFFFF AND PUSH1 0xE0 SHL DUP2 MSTORE PUSH1 0x4 ADD PUSH1 0x60 PUSH1 0x40 MLOAD DUP1 DUP4 SUB DUP2 DUP7 GAS STATICCALL ISZERO DUP1 ISZERO PUSH2 0x2F8F JUMPI RETURNDATASIZE PUSH1 0x0 DUP1 RETURNDATACOPY RETURNDATASIZE PUSH1 0x0 REVERT JUMPDEST POP POP POP POP PUSH1 0x40 MLOAD RETURNDATASIZE PUSH1 0x1F NOT PUSH1 0x1F DUP3 ADD AND DUP3 ADD DUP1 PUSH1 0x40 MSTORE POP DUP2 ADD SWAP1 PUSH2 0x2FB3 SWAP2 SWAP1 PUSH2 0x4704 JUMP JUMPDEST POP PUSH14 0xFFFFFFFFFFFFFFFFFFFFFFFFFFFF AND SWAP2 POP PUSH14 0xFFFFFFFFFFFFFFFFFFFFFFFFFFFF AND SWAP2 POP DUP3 PUSH20 0xFFFFFFFFFFFFFFFFFFFFFFFFFFFFFFFFFFFFFFFF AND DUP8 PUSH20 0xFFFFFFFFFFFFFFFFFFFFFFFFFFFFFFFFFFFFFFFF AND EQ PUSH2 0x3012 JUMPI DUP1 DUP3 PUSH2 0x3015 JUMP JUMPDEST DUP2 DUP2 JUMPDEST DUP1 SWAP6 POP DUP2 SWAP7 POP POP POP POP POP POP SWAP4 POP SWAP4 SWAP2 POP POP JUMP JUMPDEST PUSH1 0x0 DUP1 DUP5 GT PUSH2 0x306C JUMPI PUSH1 0x40 MLOAD PUSH32 0x8C379A000000000000000000000000000000000000000000000000000000000 DUP2 MSTORE PUSH1 0x4 ADD PUSH2 0x3063 SWAP1 PUSH2 0x4835 JUMP JUMPDEST PUSH1 0x40 MLOAD DUP1 SWAP2 SUB SWAP1 REVERT JUMPDEST PUSH1 0x0 DUP4 GT DUP1 ISZERO PUSH2 0x307C JUMPI POP PUSH1 0x0 DUP3 GT JUMPDEST PUSH2 0x30BB JUMPI PUSH1 0x40 MLOAD PUSH32 0x8C379A000000000000000000000000000000000000000000000000000000000 DUP2 MSTORE PUSH1 0x4 ADD PUSH2 0x30B2 SWAP1 PUSH2 0x48C7 JUMP JUMPDEST PUSH1 0x40 MLOAD DUP1 SWAP2 SUB SWAP1 REVERT JUMPDEST PUSH1 0x0 PUSH2 0x30D2 PUSH2 0x3E5 DUP7 PUSH2 0x336F SWAP1 SWAP2 SWAP1 PUSH4 0xFFFFFFFF AND JUMP JUMPDEST SWAP1 POP PUSH1 0x0 PUSH2 0x30E9 DUP5 DUP4 PUSH2 0x336F SWAP1 SWAP2 SWAP1 PUSH4 0xFFFFFFFF AND JUMP JUMPDEST SWAP1 POP PUSH1 0x0 PUSH2 0x3114 DUP4 PUSH2 0x3106 PUSH2 0x3E8 DUP10 PUSH2 0x336F SWAP1 SWAP2 SWAP1 PUSH4 0xFFFFFFFF AND JUMP JUMPDEST PUSH2 0x33DC SWAP1 SWAP2 SWAP1 PUSH4 0xFFFFFFFF AND JUMP JUMPDEST SWAP1 POP DUP1 DUP3 PUSH2 0x3122 SWAP2 SWAP1 PUSH2 0x4916 JUMP JUMPDEST SWAP4 POP POP POP POP SWAP4 SWAP3 POP POP POP JUMP JUMPDEST PUSH1 0x0 DUP1 DUP3 PUSH20 0xFFFFFFFFFFFFFFFFFFFFFFFFFFFFFFFFFFFFFFFF AND DUP5 PUSH20 0xFFFFFFFFFFFFFFFFFFFFFFFFFFFFFFFFFFFFFFFF AND EQ ISZERO PUSH2 0x31A0 JUMPI PUSH1 0x40 MLOAD PUSH32 0x8C379A000000000000000000000000000000000000000000000000000000000 DUP2 MSTORE PUSH1 0x4 ADD PUSH2 0x3197 SWAP1 PUSH2 0x49B9 JUMP JUMPDEST PUSH1 0x40 MLOAD DUP1 SWAP2 SUB SWAP1 REVERT JUMPDEST DUP3 PUSH20 0xFFFFFFFFFFFFFFFFFFFFFFFFFFFFFFFFFFFFFFFF AND DUP5 PUSH20 0xFFFFFFFFFFFFFFFFFFFFFFFFFFFFFFFFFFFFFFFF AND LT PUSH2 0x31DA JUMPI DUP3 DUP5 PUSH2 0x31DD JUMP JUMPDEST DUP4 DUP4 JUMPDEST DUP1 SWAP3 POP DUP2 SWAP4 POP POP POP PUSH1 0x0 PUSH20 0xFFFFFFFFFFFFFFFFFFFFFFFFFFFFFFFFFFFFFFFF AND DUP3 PUSH20 0xFFFFFFFFFFFFFFFFFFFFFFFFFFFFFFFFFFFFFFFF AND EQ ISZERO PUSH2 0x3255 JUMPI PUSH1 0x40 MLOAD PUSH32 0x8C379A000000000000000000000000000000000000000000000000000000000 DUP2 MSTORE PUSH1 0x4 ADD PUSH2 0x324C SWAP1 PUSH2 0x4A25 JUMP JUMPDEST PUSH1 0x40 MLOAD DUP1 SWAP2 SUB SWAP1 REVERT JUMPDEST SWAP3 POP SWAP3 SWAP1 POP JUMP JUMPDEST PUSH1 0x0 DUP1 DUP5 GT PUSH2 0x32A0 JUMPI PUSH1 0x40 MLOAD PUSH32 0x8C379A000000000000000000000000000000000000000000000000000000000 DUP2 MSTORE PUSH1 0x4 ADD PUSH2 0x3297 SWAP1 PUSH2 0x4AB7 JUMP JUMPDEST PUSH1 0x40 MLOAD DUP1 SWAP2 SUB SWAP1 REVERT JUMPDEST PUSH1 0x0 DUP4 GT DUP1 ISZERO PUSH2 0x32B0 JUMPI POP PUSH1 0x0 DUP3 GT JUMPDEST PUSH2 0x32EF JUMPI PUSH1 0x40 MLOAD PUSH32 0x8C379A000000000000000000000000000000000000000000000000000000000 DUP2 MSTORE PUSH1 0x4 ADD PUSH2 0x32E6 SWAP1 PUSH2 0x48C7 JUMP JUMPDEST PUSH1 0x40 MLOAD DUP1 SWAP2 SUB SWAP1 REVERT JUMPDEST PUSH1 0x0 PUSH2 0x3318 PUSH2 0x3E8 PUSH2 0x330A DUP8 DUP8 PUSH2 0x336F SWAP1 SWAP2 SWAP1 PUSH4 0xFFFFFFFF AND JUMP JUMPDEST PUSH2 0x336F SWAP1 SWAP2 SWAP1 PUSH4 0xFFFFFFFF AND JUMP JUMPDEST SWAP1 POP PUSH1 0x0 PUSH2 0x3343 PUSH2 0x3E5 PUSH2 0x3335 DUP9 DUP8 PUSH2 0x2ECC SWAP1 SWAP2 SWAP1 PUSH4 0xFFFFFFFF AND JUMP JUMPDEST PUSH2 0x336F SWAP1 SWAP2 SWAP1 PUSH4 0xFFFFFFFF AND JUMP JUMPDEST SWAP1 POP PUSH2 0x3364 PUSH1 0x1 DUP3 DUP5 PUSH2 0x3356 SWAP2 SWAP1 PUSH2 0x4916 JUMP JUMPDEST PUSH2 0x33DC SWAP1 SWAP2 SWAP1 PUSH4 0xFFFFFFFF AND JUMP JUMPDEST SWAP3 POP POP POP SWAP4 SWAP3 POP POP POP JUMP JUMPDEST PUSH1 0x0 DUP1 DUP3 EQ DUP1 PUSH2 0x3397 JUMPI POP DUP3 DUP3 DUP4 DUP6 PUSH2 0x3388 SWAP2 SWAP1 PUSH2 0x4AD7 JUMP JUMPDEST SWAP3 POP DUP3 PUSH2 0x3395 SWAP2 SWAP1 PUSH2 0x4916 JUMP JUMPDEST EQ JUMPDEST PUSH2 0x33D6 JUMPI PUSH1 0x40 MLOAD PUSH32 0x8C379A000000000000000000000000000000000000000000000000000000000 DUP2 MSTORE PUSH1 0x4 ADD PUSH2 0x33CD SWAP1 PUSH2 0x4B7D JUMP JUMPDEST PUSH1 0x40 MLOAD DUP1 SWAP2 SUB SWAP1 REVERT JUMPDEST SWAP3 SWAP2 POP POP JUMP JUMPDEST PUSH1 0x0 DUP3 DUP3 DUP5 PUSH2 0x33EB SWAP2 SWAP1 PUSH2 0x3926 JUMP JUMPDEST SWAP2 POP DUP2 LT ISZERO PUSH2 0x342F JUMPI PUSH1 0x40 MLOAD PUSH32 0x8C379A000000000000000000000000000000000000000000000000000000000 DUP2 MSTORE PUSH1 0x4 ADD PUSH2 0x3426 SWAP1 PUSH2 0x4BE9 JUMP JUMPDEST PUSH1 0x40 MLOAD DUP1 SWAP2 SUB SWAP1 REVERT JUMPDEST SWAP3 SWAP2 POP POP JUMP JUMPDEST PUSH1 0x0 PUSH1 0x40 MLOAD SWAP1 POP SWAP1 JUMP JUMPDEST PUSH1 0x0 DUP1 REVERT JUMPDEST PUSH1 0x0 DUP1 REVERT JUMPDEST PUSH1 0x0 PUSH20 0xFFFFFFFFFFFFFFFFFFFFFFFFFFFFFFFFFFFFFFFF DUP3 AND SWAP1 POP SWAP2 SWAP1 POP JUMP JUMPDEST PUSH1 0x0 PUSH2 0x3474 DUP3 PUSH2 0x3449 JUMP JUMPDEST SWAP1 POP SWAP2 SWAP1 POP JUMP JUMPDEST PUSH2 0x3484 DUP2 PUSH2 0x3469 JUMP JUMPDEST DUP2 EQ PUSH2 0x348F JUMPI PUSH1 0x0 DUP1 REVERT JUMPDEST POP JUMP JUMPDEST PUSH1 0x0 DUP2 CALLDATALOAD SWAP1 POP PUSH2 0x34A1 DUP2 PUSH2 0x347B JUMP JUMPDEST SWAP3 SWAP2 POP POP JUMP JUMPDEST PUSH1 0x0 DUP2 SWAP1 POP SWAP2 SWAP1 POP JUMP JUMPDEST PUSH2 0x34BA DUP2 PUSH2 0x34A7 JUMP JUMPDEST DUP2 EQ PUSH2 0x34C5 JUMPI PUSH1 0x0 DUP1 REVERT JUMPDEST POP JUMP JUMPDEST PUSH1 0x0 DUP2 CALLDATALOAD SWAP1 POP PUSH2 0x34D7 DUP2 PUSH2 0x34B1 JUMP JUMPDEST SWAP3 SWAP2 POP POP JUMP JUMPDEST PUSH1 0x0 DUP1 REVERT JUMPDEST PUSH1 0x0 DUP1 REVERT JUMPDEST PUSH1 0x0 DUP1 REVERT JUMPDEST PUSH1 0x0 DUP1 DUP4 PUSH1 0x1F DUP5 ADD SLT PUSH2 0x3502 JUMPI PUSH2 0x3501 PUSH2 0x34DD JUMP JUMPDEST JUMPDEST DUP3 CALLDATALOAD SWAP1 POP PUSH8 0xFFFFFFFFFFFFFFFF DUP2 GT ISZERO PUSH2 0x351F JUMPI PUSH2 0x351E PUSH2 0x34E2 JUMP JUMPDEST JUMPDEST PUSH1 0x20 DUP4 ADD SWAP2 POP DUP4 PUSH1 0x1 DUP3 MUL DUP4 ADD GT ISZERO PUSH2 0x353B JUMPI PUSH2 0x353A PUSH2 0x34E7 JUMP JUMPDEST JUMPDEST SWAP3 POP SWAP3 SWAP1 POP JUMP JUMPDEST PUSH1 0x0 DUP1 PUSH1 0x0 DUP1 PUSH1 0x60 DUP6 DUP8 SUB SLT ISZERO PUSH2 0x355C JUMPI PUSH2 0x355B PUSH2 0x343F JUMP JUMPDEST JUMPDEST PUSH1 0x0 PUSH2 0x356A DUP8 DUP3 DUP9 ADD PUSH2 0x3492 JUMP JUMPDEST SWAP5 POP POP PUSH1 0x20 PUSH2 0x357B DUP8 DUP3 DUP9 ADD PUSH2 0x34C8 JUMP JUMPDEST SWAP4 POP POP PUSH1 0x40 DUP6 ADD CALLDATALOAD PUSH8 0xFFFFFFFFFFFFFFFF DUP2 GT ISZERO PUSH2 0x359C JUMPI PUSH2 0x359B PUSH2 0x3444 JUMP JUMPDEST JUMPDEST PUSH2 0x35A8 DUP8 DUP3 DUP9 ADD PUSH2 0x34EC JUMP JUMPDEST SWAP3 POP SWAP3 POP POP SWAP3 SWAP6 SWAP2 SWAP5 POP SWAP3 POP JUMP JUMPDEST PUSH2 0x35BF DUP2 PUSH2 0x3469 JUMP JUMPDEST DUP3 MSTORE POP POP JUMP JUMPDEST PUSH2 0x35CE DUP2 PUSH2 0x34A7 JUMP JUMPDEST DUP3 MSTORE POP POP JUMP JUMPDEST PUSH1 0x0 PUSH1 0x60 DUP3 ADD SWAP1 POP PUSH2 0x35E9 PUSH1 0x0 DUP4 ADD DUP7 PUSH2 0x35B6 JUMP JUMPDEST PUSH2 0x35F6 PUSH1 0x20 DUP4 ADD DUP6 PUSH2 0x35B6 JUMP JUMPDEST PUSH2 0x3603 PUSH1 0x40 DUP4 ADD DUP5 PUSH2 0x35C5 JUMP JUMPDEST SWAP5 SWAP4 POP POP POP POP JUMP JUMPDEST PUSH1 0x0 PUSH1 0x20 DUP3 ADD SWAP1 POP PUSH2 0x3620 PUSH1 0x0 DUP4 ADD DUP5 PUSH2 0x35C5 JUMP JUMPDEST SWAP3 SWAP2 POP POP JUMP JUMPDEST PUSH1 0x0 PUSH1 0x20 DUP3 DUP5 SUB SLT ISZERO PUSH2 0x363C JUMPI PUSH2 0x363B PUSH2 0x343F JUMP JUMPDEST JUMPDEST PUSH1 0x0 PUSH2 0x364A DUP5 DUP3 DUP6 ADD PUSH2 0x3492 JUMP JUMPDEST SWAP2 POP POP SWAP3 SWAP2 POP POP JUMP JUMPDEST PUSH1 0x0 PUSH1 0x20 DUP3 ADD SWAP1 POP PUSH2 0x3668 PUSH1 0x0 DUP4 ADD DUP5 PUSH2 0x35B6 JUMP JUMPDEST SWAP3 SWAP2 POP POP JUMP JUMPDEST PUSH1 0x0 DUP3 DUP3 MSTORE PUSH1 0x20 DUP3 ADD SWAP1 POP SWAP3 SWAP2 POP POP JUMP JUMPDEST PUSH32 0x4D50433A206F6E6C79206D706300000000000000000000000000000000000000 PUSH1 0x0 DUP3 ADD MSTORE POP JUMP JUMPDEST PUSH1 0x0 PUSH2 0x36B5 PUSH1 0xD DUP4 PUSH2 0x366E JUMP JUMPDEST SWAP2 POP PUSH2 0x36C0 DUP3 PUSH2 0x367F JUMP JUMPDEST PUSH1 0x20 DUP3 ADD SWAP1 POP SWAP2 SWAP1 POP JUMP JUMPDEST PUSH1 0x0 PUSH1 0x20 DUP3 ADD SWAP1 POP DUP2 DUP2 SUB PUSH1 0x0 DUP4 ADD MSTORE PUSH2 0x36E4 DUP2 PUSH2 0x36A8 JUMP JUMPDEST SWAP1 POP SWAP2 SWAP1 POP JUMP JUMPDEST PUSH1 0x0 DUP1 REVERT JUMPDEST PUSH1 0x0 DUP1 REVERT JUMPDEST PUSH1 0x0 DUP1 DUP6 DUP6 GT ISZERO PUSH2 0x3709 JUMPI PUSH2 0x3708 PUSH2 0x36EB JUMP JUMPDEST JUMPDEST DUP4 DUP7 GT ISZERO PUSH2 0x371A JUMPI PUSH2 0x3719 PUSH2 0x36F0 JUMP JUMPDEST JUMPDEST PUSH1 0x1 DUP6 MUL DUP4 ADD SWAP2 POP DUP5 DUP7 SUB SWAP1 POP SWAP5 POP SWAP5 SWAP3 POP POP POP JUMP JUMPDEST PUSH1 0x0 DUP3 SWAP1 POP SWAP3 SWAP2 POP POP JUMP JUMPDEST PUSH1 0x0 PUSH32 0xFFFFFFFF00000000000000000000000000000000000000000000000000000000 DUP3 AND SWAP1 POP SWAP2 SWAP1 POP JUMP JUMPDEST PUSH1 0x0 DUP3 DUP3 SHL SWAP1 POP SWAP3 SWAP2 POP POP JUMP JUMPDEST PUSH1 0x0 PUSH2 0x3780 DUP4 DUP4 PUSH2 0x3730 JUMP JUMPDEST DUP3 PUSH2 0x378B DUP2 CALLDATALOAD PUSH2 0x373B JUMP JUMPDEST SWAP3 POP PUSH1 0x4 DUP3 LT ISZERO PUSH2 0x37CB JUMPI PUSH2 0x37C6 PUSH32 0xFFFFFFFF00000000000000000000000000000000000000000000000000000000 DUP4 PUSH1 0x4 SUB PUSH1 0x8 MUL PUSH2 0x3767 JUMP JUMPDEST DUP4 AND SWAP3 POP JUMPDEST POP POP SWAP3 SWAP2 POP POP JUMP JUMPDEST PUSH32 0x4D756C7469636861696E547261646550726F78793A2054686973207472616465 PUSH1 0x0 DUP3 ADD MSTORE PUSH32 0x50726F7879206E6F7420737570706F727420746F20706172736520706172616D PUSH1 0x20 DUP3 ADD MSTORE PUSH32 0x2064617461210000000000000000000000000000000000000000000000000000 PUSH1 0x40 DUP3 ADD MSTORE POP JUMP JUMPDEST PUSH1 0x0 PUSH2 0x3855 PUSH1 0x46 DUP4 PUSH2 0x366E JUMP JUMPDEST SWAP2 POP PUSH2 0x3860 DUP3 PUSH2 0x37D3 JUMP JUMPDEST PUSH1 0x60 DUP3 ADD SWAP1 POP SWAP2 SWAP1 POP JUMP JUMPDEST PUSH1 0x0 PUSH1 0x20 DUP3 ADD SWAP1 POP DUP2 DUP2 SUB PUSH1 0x0 DUP4 ADD MSTORE PUSH2 0x3884 DUP2 PUSH2 0x3848 JUMP JUMPDEST SWAP1 POP SWAP2 SWAP1 POP JUMP JUMPDEST PUSH32 0x4D50433A206D706320697320746865207A65726F206164647265737300000000 PUSH1 0x0 DUP3 ADD MSTORE POP JUMP JUMPDEST PUSH1 0x0 PUSH2 0x38C1 PUSH1 0x1C DUP4 PUSH2 0x366E JUMP JUMPDEST SWAP2 POP PUSH2 0x38CC DUP3 PUSH2 0x388B JUMP JUMPDEST PUSH1 0x20 DUP3 ADD SWAP1 POP SWAP2 SWAP1 POP JUMP JUMPDEST PUSH1 0x0 PUSH1 0x20 DUP3 ADD SWAP1 POP DUP2 DUP2 SUB PUSH1 0x0 DUP4 ADD MSTORE PUSH2 0x38F0 DUP2 PUSH2 0x38B4 JUMP JUMPDEST SWAP1 POP SWAP2 SWAP1 POP JUMP JUMPDEST PUSH32 0x4E487B7100000000000000000000000000000000000000000000000000000000 PUSH1 0x0 MSTORE PUSH1 0x11 PUSH1 0x4 MSTORE PUSH1 0x24 PUSH1 0x0 REVERT JUMPDEST PUSH1 0x0 PUSH2 0x3931 DUP3 PUSH2 0x34A7 JUMP JUMPDEST SWAP2 POP PUSH2 0x393C DUP4 PUSH2 0x34A7 JUMP JUMPDEST SWAP3 POP DUP3 PUSH32 0xFFFFFFFFFFFFFFFFFFFFFFFFFFFFFFFFFFFFFFFFFFFFFFFFFFFFFFFFFFFFFFFF SUB DUP3 GT ISZERO PUSH2 0x3971 JUMPI PUSH2 0x3970 PUSH2 0x38F7 JUMP JUMPDEST JUMPDEST DUP3 DUP3 ADD SWAP1 POP SWAP3 SWAP2 POP POP JUMP JUMPDEST PUSH32 0x4D50433A206F6E6C792070656E64696E67206D70630000000000000000000000 PUSH1 0x0 DUP3 ADD MSTORE POP JUMP JUMPDEST PUSH1 0x0 PUSH2 0x39B2 PUSH1 0x15 DUP4 PUSH2 0x366E JUMP JUMPDEST SWAP2 POP PUSH2 0x39BD DUP3 PUSH2 0x397C JUMP JUMPDEST PUSH1 0x20 DUP3 ADD SWAP1 POP SWAP2 SWAP1 POP JUMP JUMPDEST PUSH1 0x0 PUSH1 0x20 DUP3 ADD SWAP1 POP DUP2 DUP2 SUB PUSH1 0x0 DUP4 ADD MSTORE PUSH2 0x39E1 DUP2 PUSH2 0x39A5 JUMP JUMPDEST SWAP1 POP SWAP2 SWAP1 POP JUMP JUMPDEST PUSH32 0x4D50433A2074696D65206265666F72652064656C61794D504300000000000000 PUSH1 0x0 DUP3 ADD MSTORE POP JUMP JUMPDEST PUSH1 0x0 PUSH2 0x3A1E PUSH1 0x19 DUP4 PUSH2 0x366E JUMP JUMPDEST SWAP2 POP PUSH2 0x3A29 DUP3 PUSH2 0x39E8 JUMP JUMPDEST PUSH1 0x20 DUP3 ADD SWAP1 POP SWAP2 SWAP1 POP JUMP JUMPDEST PUSH1 0x0 PUSH1 0x20 DUP3 ADD SWAP1 POP DUP2 DUP2 SUB PUSH1 0x0 DUP4 ADD MSTORE PUSH2 0x3A4D DUP2 PUSH2 0x3A11 JUMP JUMPDEST SWAP1 POP SWAP2 SWAP1 POP JUMP JUMPDEST PUSH1 0x0 PUSH1 0x1F NOT PUSH1 0x1F DUP4 ADD AND SWAP1 POP SWAP2 SWAP1 POP JUMP JUMPDEST PUSH32 0x4E487B7100000000000000000000000000000000000000000000000000000000 PUSH1 0x0 MSTORE PUSH1 0x41 PUSH1 0x4 MSTORE PUSH1 0x24 PUSH1 0x0 REVERT JUMPDEST PUSH2 0x3A9D DUP3 PUSH2 0x3A54 JUMP JUMPDEST DUP2 ADD DUP2 DUP2 LT PUSH8 0xFFFFFFFFFFFFFFFF DUP3 GT OR ISZERO PUSH2 0x3ABC JUMPI PUSH2 0x3ABB PUSH2 0x3A65 JUMP JUMPDEST JUMPDEST DUP1 PUSH1 0x40 MSTORE POP POP POP JUMP JUMPDEST PUSH1 0x0 PUSH2 0x3ACF PUSH2 0x3435 JUMP JUMPDEST SWAP1 POP PUSH2 0x3ADB DUP3 DUP3 PUSH2 0x3A94 JUMP JUMPDEST SWAP2 SWAP1 POP JUMP JUMPDEST PUSH1 0x0 PUSH8 0xFFFFFFFFFFFFFFFF DUP3 GT ISZERO PUSH2 0x3AFB JUMPI PUSH2 0x3AFA PUSH2 0x3A65 JUMP JUMPDEST JUMPDEST PUSH1 0x20 DUP3 MUL SWAP1 POP PUSH1 0x20 DUP2 ADD SWAP1 POP SWAP2 SWAP1 POP JUMP JUMPDEST PUSH1 0x0 PUSH2 0x3B1F PUSH2 0x3B1A DUP5 PUSH2 0x3AE0 JUMP JUMPDEST PUSH2 0x3AC5 JUMP JUMPDEST SWAP1 POP DUP1 DUP4 DUP3 MSTORE PUSH1 0x20 DUP3 ADD SWAP1 POP PUSH1 0x20 DUP5 MUL DUP4 ADD DUP6 DUP2 GT ISZERO PUSH2 0x3B42 JUMPI PUSH2 0x3B41 PUSH2 0x34E7 JUMP JUMPDEST JUMPDEST DUP4 JUMPDEST DUP2 DUP2 LT ISZERO PUSH2 0x3B6B JUMPI DUP1 PUSH2 0x3B57 DUP9 DUP3 PUSH2 0x3492 JUMP JUMPDEST DUP5 MSTORE PUSH1 0x20 DUP5 ADD SWAP4 POP POP PUSH1 0x20 DUP2 ADD SWAP1 POP PUSH2 0x3B44 JUMP JUMPDEST POP POP POP SWAP4 SWAP3 POP POP POP JUMP JUMPDEST PUSH1 0x0 DUP3 PUSH1 0x1F DUP4 ADD SLT PUSH2 0x3B8A JUMPI PUSH2 0x3B89 PUSH2 0x34DD JUMP JUMPDEST JUMPDEST DUP2 CALLDATALOAD PUSH2 0x3B9A DUP5 DUP3 PUSH1 0x20 DUP7 ADD PUSH2 0x3B0C JUMP JUMPDEST SWAP2 POP POP SWAP3 SWAP2 POP POP JUMP JUMPDEST PUSH1 0x0 PUSH2 0x3BAE DUP3 PUSH2 0x3449 JUMP JUMPDEST SWAP1 POP SWAP2 SWAP1 POP JUMP JUMPDEST PUSH2 0x3BBE DUP2 PUSH2 0x3BA3 JUMP JUMPDEST DUP2 EQ PUSH2 0x3BC9 JUMPI PUSH1 0x0 DUP1 REVERT JUMPDEST POP JUMP JUMPDEST PUSH1 0x0 DUP2 CALLDATALOAD SWAP1 POP PUSH2 0x3BDB DUP2 PUSH2 0x3BB5 JUMP JUMPDEST SWAP3 SWAP2 POP POP JUMP JUMPDEST PUSH1 0x0 DUP1 PUSH1 0x0 DUP1 PUSH1 0x0 PUSH1 0xA0 DUP7 DUP9 SUB SLT ISZERO PUSH2 0x3BFD JUMPI PUSH2 0x3BFC PUSH2 0x343F JUMP JUMPDEST JUMPDEST PUSH1 0x0 PUSH2 0x3C0B DUP9 DUP3 DUP10 ADD PUSH2 0x34C8 JUMP JUMPDEST SWAP6 POP POP PUSH1 0x20 PUSH2 0x3C1C DUP9 DUP3 DUP10 ADD PUSH2 0x34C8 JUMP JUMPDEST SWAP5 POP POP PUSH1 0x40 DUP7 ADD CALLDATALOAD PUSH8 0xFFFFFFFFFFFFFFFF DUP2 GT ISZERO PUSH2 0x3C3D JUMPI PUSH2 0x3C3C PUSH2 0x3444 JUMP JUMPDEST JUMPDEST PUSH2 0x3C49 DUP9 DUP3 DUP10 ADD PUSH2 0x3B75 JUMP JUMPDEST SWAP4 POP POP PUSH1 0x60 PUSH2 0x3C5A DUP9 DUP3 DUP10 ADD PUSH2 0x3BCC JUMP JUMPDEST SWAP3 POP POP PUSH1 0x80 PUSH2 0x3C6B DUP9 DUP3 DUP10 ADD PUSH2 0x34C8 JUMP JUMPDEST SWAP2 POP POP SWAP3 SWAP6 POP SWAP3 SWAP6 SWAP1 SWAP4 POP JUMP JUMPDEST PUSH32 0x4D756C7469636861696E547261646550726F78793A20616D6F756E74496E206D PUSH1 0x0 DUP3 ADD MSTORE PUSH32 0x757374206C657373207468616E20616D6F756E74000000000000000000000000 PUSH1 0x20 DUP3 ADD MSTORE POP JUMP JUMPDEST PUSH1 0x0 PUSH2 0x3CD4 PUSH1 0x34 DUP4 PUSH2 0x366E JUMP JUMPDEST SWAP2 POP PUSH2 0x3CDF DUP3 PUSH2 0x3C78 JUMP JUMPDEST PUSH1 0x40 DUP3 ADD SWAP1 POP SWAP2 SWAP1 POP JUMP JUMPDEST PUSH1 0x0 PUSH1 0x20 DUP3 ADD SWAP1 POP DUP2 DUP2 SUB PUSH1 0x0 DUP4 ADD MSTORE PUSH2 0x3D03 DUP2 PUSH2 0x3CC7 JUMP JUMPDEST SWAP1 POP SWAP2 SWAP1 POP JUMP JUMPDEST PUSH32 0x4E487B7100000000000000000000000000000000000000000000000000000000 PUSH1 0x0 MSTORE PUSH1 0x32 PUSH1 0x4 MSTORE PUSH1 0x24 PUSH1 0x0 REVERT JUMPDEST PUSH32 0x4D756C7469636861696E547261646550726F78793A20696E70757420746F6B65 PUSH1 0x0 DUP3 ADD MSTORE PUSH32 0x6E206E6F7420657175616C7320706174685B305D000000000000000000000000 PUSH1 0x20 DUP3 ADD MSTORE POP JUMP JUMPDEST PUSH1 0x0 PUSH2 0x3D95 PUSH1 0x34 DUP4 PUSH2 0x366E JUMP JUMPDEST SWAP2 POP PUSH2 0x3DA0 DUP3 PUSH2 0x3D39 JUMP JUMPDEST PUSH1 0x40 DUP3 ADD SWAP1 POP SWAP2 SWAP1 POP JUMP JUMPDEST PUSH1 0x0 PUSH1 0x20 DUP3 ADD SWAP1 POP DUP2 DUP2 SUB PUSH1 0x0 DUP4 ADD MSTORE PUSH2 0x3DC4 DUP2 PUSH2 0x3D88 JUMP JUMPDEST SWAP1 POP SWAP2 SWAP1 POP JUMP JUMPDEST PUSH32 0x4D756C7469636861696E547261646550726F78793A20616D6F756E74496E4D61 PUSH1 0x0 DUP3 ADD MSTORE PUSH32 0x78206D757374206C657373207468616E20616D6F756E74000000000000000000 PUSH1 0x20 DUP3 ADD MSTORE POP JUMP JUMPDEST PUSH1 0x0 PUSH2 0x3E27 PUSH1 0x37 DUP4 PUSH2 0x366E JUMP JUMPDEST SWAP2 POP PUSH2 0x3E32 DUP3 PUSH2 0x3DCB JUMP JUMPDEST PUSH1 0x40 DUP3 ADD SWAP1 POP SWAP2 SWAP1 POP JUMP JUMPDEST PUSH1 0x0 PUSH1 0x20 DUP3 ADD SWAP1 POP DUP2 DUP2 SUB PUSH1 0x0 DUP4 ADD MSTORE PUSH2 0x3E56 DUP2 PUSH2 0x3E1A JUMP JUMPDEST SWAP1 POP SWAP2 SWAP1 POP JUMP JUMPDEST PUSH32 0x4D756C7469636861696E547261646550726F78793A207377617020616D6F756E PUSH1 0x0 DUP3 ADD MSTORE PUSH32 0x7420686173206572726F72000000000000000000000000000000000000000000 PUSH1 0x20 DUP3 ADD MSTORE POP JUMP JUMPDEST PUSH1 0x0 PUSH2 0x3EB9 PUSH1 0x2B DUP4 PUSH2 0x366E JUMP JUMPDEST SWAP2 POP PUSH2 0x3EC4 DUP3 PUSH2 0x3E5D JUMP JUMPDEST PUSH1 0x40 DUP3 ADD SWAP1 POP SWAP2 SWAP1 POP JUMP JUMPDEST PUSH1 0x0 PUSH1 0x20 DUP3 ADD SWAP1 POP DUP2 DUP2 SUB PUSH1 0x0 DUP4 ADD MSTORE PUSH2 0x3EE8 DUP2 PUSH2 0x3EAC JUMP JUMPDEST SWAP1 POP SWAP2 SWAP1 POP JUMP JUMPDEST PUSH32 0x4D756C7469636861696E547261646550726F78793A207377617020746F6B656E PUSH1 0x0 DUP3 ADD MSTORE PUSH32 0x20686173206572726F7200000000000000000000000000000000000000000000 PUSH1 0x20 DUP3 ADD MSTORE POP JUMP JUMPDEST PUSH1 0x0 PUSH2 0x3F4B PUSH1 0x2A DUP4 PUSH2 0x366E JUMP JUMPDEST SWAP2 POP PUSH2 0x3F56 DUP3 PUSH2 0x3EEF JUMP JUMPDEST PUSH1 0x40 DUP3 ADD SWAP1 POP SWAP2 SWAP1 POP JUMP JUMPDEST PUSH1 0x0 PUSH1 0x20 DUP3 ADD SWAP1 POP DUP2 DUP2 SUB PUSH1 0x0 DUP4 ADD MSTORE PUSH2 0x3F7A DUP2 PUSH2 0x3F3E JUMP JUMPDEST SWAP1 POP SWAP2 SWAP1 POP JUMP JUMPDEST PUSH32 0x556E69737761705632526F757465723A20455850495245440000000000000000 PUSH1 0x0 DUP3 ADD MSTORE POP JUMP JUMPDEST PUSH1 0x0 PUSH2 0x3FB7 PUSH1 0x18 DUP4 PUSH2 0x366E JUMP JUMPDEST SWAP2 POP PUSH2 0x3FC2 DUP3 PUSH2 0x3F81 JUMP JUMPDEST PUSH1 0x20 DUP3 ADD SWAP1 POP SWAP2 SWAP1 POP JUMP JUMPDEST PUSH1 0x0 PUSH1 0x20 DUP3 ADD SWAP1 POP DUP2 DUP2 SUB PUSH1 0x0 DUP4 ADD MSTORE PUSH2 0x3FE6 DUP2 PUSH2 0x3FAA JUMP JUMPDEST SWAP1 POP SWAP2 SWAP1 POP JUMP JUMPDEST PUSH1 0x0 PUSH2 0x3FF8 DUP3 PUSH2 0x34A7 JUMP JUMPDEST SWAP2 POP PUSH2 0x4003 DUP4 PUSH2 0x34A7 JUMP JUMPDEST SWAP3 POP DUP3 DUP3 LT ISZERO PUSH2 0x4016 JUMPI PUSH2 0x4015 PUSH2 0x38F7 JUMP JUMPDEST JUMPDEST DUP3 DUP3 SUB SWAP1 POP SWAP3 SWAP2 POP POP JUMP JUMPDEST PUSH32 0x4D756C7469636861696E547261646550726F78793A20494E5355464649434945 PUSH1 0x0 DUP3 ADD MSTORE PUSH32 0x4E545F4F55545055545F414D4F554E5400000000000000000000000000000000 PUSH1 0x20 DUP3 ADD MSTORE POP JUMP JUMPDEST PUSH1 0x0 PUSH2 0x407D PUSH1 0x30 DUP4 PUSH2 0x366E JUMP JUMPDEST SWAP2 POP PUSH2 0x4088 DUP3 PUSH2 0x4021 JUMP JUMPDEST PUSH1 0x40 DUP3 ADD SWAP1 POP SWAP2 SWAP1 POP JUMP JUMPDEST PUSH1 0x0 PUSH1 0x20 DUP3 ADD SWAP1 POP DUP2 DUP2 SUB PUSH1 0x0 DUP4 ADD MSTORE PUSH2 0x40AC DUP2 PUSH2 0x4070 JUMP JUMPDEST SWAP1 POP SWAP2 SWAP1 POP JUMP JUMPDEST PUSH32 0x556E69737761705632526F757465723A204558434553534956455F494E505554 PUSH1 0x0 DUP3 ADD MSTORE PUSH32 0x5F414D4F554E5400000000000000000000000000000000000000000000000000 PUSH1 0x20 DUP3 ADD MSTORE POP JUMP JUMPDEST PUSH1 0x0 PUSH2 0x410F PUSH1 0x27 DUP4 PUSH2 0x366E JUMP JUMPDEST SWAP2 POP PUSH2 0x411A DUP3 PUSH2 0x40B3 JUMP JUMPDEST PUSH1 0x40 DUP3 ADD SWAP1 POP SWAP2 SWAP1 POP JUMP JUMPDEST PUSH1 0x0 PUSH1 0x20 DUP3 ADD SWAP1 POP DUP2 DUP2 SUB PUSH1 0x0 DUP4 ADD MSTORE PUSH2 0x413E DUP2 PUSH2 0x4102 JUMP JUMPDEST SWAP1 POP SWAP2 SWAP1 POP JUMP JUMPDEST PUSH32 0x556E69737761705632526F757465723A20494E56414C49445F50415448000000 PUSH1 0x0 DUP3 ADD MSTORE POP JUMP JUMPDEST PUSH1 0x0 PUSH2 0x417B PUSH1 0x1D DUP4 PUSH2 0x366E JUMP JUMPDEST SWAP2 POP PUSH2 0x4186 DUP3 PUSH2 0x4145 JUMP JUMPDEST PUSH1 0x20 DUP3 ADD SWAP1 POP SWAP2 SWAP1 POP JUMP JUMPDEST PUSH1 0x0 PUSH1 0x20 DUP3 ADD SWAP1 POP DUP2 DUP2 SUB PUSH1 0x0 DUP4 ADD MSTORE PUSH2 0x41AA DUP2 PUSH2 0x416E JUMP JUMPDEST SWAP1 POP SWAP2 SWAP1 POP JUMP JUMPDEST PUSH32 0x556E69737761705632526F757465723A20494E53554646494349454E545F4F55 PUSH1 0x0 DUP3 ADD MSTORE PUSH32 0x545055545F414D4F554E54000000000000000000000000000000000000000000 PUSH1 0x20 DUP3 ADD MSTORE POP JUMP JUMPDEST PUSH1 0x0 PUSH2 0x420D PUSH1 0x2B DUP4 PUSH2 0x366E JUMP JUMPDEST SWAP2 POP PUSH2 0x4218 DUP3 PUSH2 0x41B1 JUMP JUMPDEST PUSH1 0x40 DUP3 ADD SWAP1 POP SWAP2 SWAP1 POP JUMP JUMPDEST PUSH1 0x0 PUSH1 0x20 DUP3 ADD SWAP1 POP DUP2 DUP2 SUB PUSH1 0x0 DUP4 ADD MSTORE PUSH2 0x423C DUP2 PUSH2 0x4200 JUMP JUMPDEST SWAP1 POP SWAP2 SWAP1 POP JUMP JUMPDEST PUSH1 0x0 DUP2 MLOAD SWAP1 POP PUSH2 0x4252 DUP2 PUSH2 0x34B1 JUMP JUMPDEST SWAP3 SWAP2 POP POP JUMP JUMPDEST PUSH1 0x0 PUSH1 0x20 DUP3 DUP5 SUB SLT ISZERO PUSH2 0x426E JUMPI PUSH2 0x426D PUSH2 0x343F JUMP JUMPDEST JUMPDEST PUSH1 0x0 PUSH2 0x427C DUP5 DUP3 DUP6 ADD PUSH2 0x4243 JUMP JUMPDEST SWAP2 POP POP SWAP3 SWAP2 POP POP JUMP JUMPDEST PUSH32 0x556E697377617056324C6962726172793A20494E56414C49445F504154480000 PUSH1 0x0 DUP3 ADD MSTORE POP JUMP JUMPDEST PUSH1 0x0 PUSH2 0x42BB PUSH1 0x1E DUP4 PUSH2 0x366E JUMP JUMPDEST SWAP2 POP PUSH2 0x42C6 DUP3 PUSH2 0x4285 JUMP JUMPDEST PUSH1 0x20 DUP3 ADD SWAP1 POP SWAP2 SWAP1 POP JUMP JUMPDEST PUSH1 0x0 PUSH1 0x20 DUP3 ADD SWAP1 POP DUP2 DUP2 SUB PUSH1 0x0 DUP4 ADD MSTORE PUSH2 0x42EA DUP2 PUSH2 0x42AE JUMP JUMPDEST SWAP1 POP SWAP2 SWAP1 POP JUMP JUMPDEST PUSH1 0x0 PUSH2 0x42FC DUP3 PUSH2 0x34A7 JUMP JUMPDEST SWAP2 POP PUSH32 0xFFFFFFFFFFFFFFFFFFFFFFFFFFFFFFFFFFFFFFFFFFFFFFFFFFFFFFFFFFFFFFFF DUP3 EQ ISZERO PUSH2 0x432F JUMPI PUSH2 0x432E PUSH2 0x38F7 JUMP JUMPDEST JUMPDEST PUSH1 0x1 DUP3 ADD SWAP1 POP SWAP2 SWAP1 POP JUMP JUMPDEST PUSH1 0x0 PUSH1 0x40 DUP3 ADD SWAP1 POP PUSH2 0x434F PUSH1 0x0 DUP4 ADD DUP6 PUSH2 0x35B6 JUMP JUMPDEST PUSH2 0x435C PUSH1 0x20 DUP4 ADD DUP5 PUSH2 0x35B6 JUMP JUMPDEST SWAP4 SWAP3 POP POP POP JUMP JUMPDEST PUSH1 0x0 DUP2 MLOAD SWAP1 POP PUSH2 0x4372 DUP2 PUSH2 0x347B JUMP JUMPDEST SWAP3 SWAP2 POP POP JUMP JUMPDEST PUSH1 0x0 PUSH1 0x20 DUP3 DUP5 SUB SLT ISZERO PUSH2 0x438E JUMPI PUSH2 0x438D PUSH2 0x343F JUMP JUMPDEST JUMPDEST PUSH1 0x0 PUSH2 0x439C DUP5 DUP3 DUP6 ADD PUSH2 0x4363 JUMP JUMPDEST SWAP2 POP POP SWAP3 SWAP2 POP POP JUMP JUMPDEST PUSH1 0x0 PUSH1 0x40 DUP3 ADD SWAP1 POP PUSH2 0x43BA PUSH1 0x0 DUP4 ADD DUP6 PUSH2 0x35B6 JUMP JUMPDEST PUSH2 0x43C7 PUSH1 0x20 DUP4 ADD DUP5 PUSH2 0x35C5 JUMP JUMPDEST SWAP4 SWAP3 POP POP POP JUMP JUMPDEST PUSH1 0x0 DUP2 MLOAD SWAP1 POP SWAP2 SWAP1 POP JUMP JUMPDEST PUSH1 0x0 DUP2 SWAP1 POP SWAP3 SWAP2 POP POP JUMP JUMPDEST PUSH1 0x0 JUMPDEST DUP4 DUP2 LT ISZERO PUSH2 0x4402 JUMPI DUP1 DUP3 ADD MLOAD DUP2 DUP5 ADD MSTORE PUSH1 0x20 DUP2 ADD SWAP1 POP PUSH2 0x43E7 JUMP JUMPDEST DUP4 DUP2 GT ISZERO PUSH2 0x4411 JUMPI PUSH1 0x0 DUP5 DUP5 ADD MSTORE JUMPDEST POP POP POP POP JUMP JUMPDEST PUSH1 0x0 PUSH2 0x4422 DUP3 PUSH2 0x43CE JUMP JUMPDEST PUSH2 0x442C DUP2 DUP6 PUSH2 0x43D9 JUMP JUMPDEST SWAP4 POP PUSH2 0x443C DUP2 DUP6 PUSH1 0x20 DUP7 ADD PUSH2 0x43E4 JUMP JUMPDEST DUP1 DUP5 ADD SWAP2 POP POP SWAP3 SWAP2 POP POP JUMP JUMPDEST PUSH1 0x0 PUSH2 0x4454 DUP3 DUP5 PUSH2 0x4417 JUMP JUMPDEST SWAP2 POP DUP2 SWAP1 POP SWAP3 SWAP2 POP POP JUMP JUMPDEST PUSH1 0x0 DUP2 ISZERO ISZERO SWAP1 POP SWAP2 SWAP1 POP JUMP JUMPDEST PUSH2 0x4474 DUP2 PUSH2 0x445F JUMP JUMPDEST DUP2 EQ PUSH2 0x447F JUMPI PUSH1 0x0 DUP1 REVERT JUMPDEST POP JUMP JUMPDEST PUSH1 0x0 DUP2 MLOAD SWAP1 POP PUSH2 0x4491 DUP2 PUSH2 0x446B JUMP JUMPDEST SWAP3 SWAP2 POP POP JUMP JUMPDEST PUSH1 0x0 PUSH1 0x20 DUP3 DUP5 SUB SLT ISZERO PUSH2 0x44AD JUMPI PUSH2 0x44AC PUSH2 0x343F JUMP JUMPDEST JUMPDEST PUSH1 0x0 PUSH2 0x44BB DUP5 DUP3 DUP6 ADD PUSH2 0x4482 JUMP JUMPDEST SWAP2 POP POP SWAP3 SWAP2 POP POP JUMP JUMPDEST PUSH32 0x5472616E7366657248656C7065723A205452414E534645525F4641494C454400 PUSH1 0x0 DUP3 ADD MSTORE POP JUMP JUMPDEST PUSH1 0x0 PUSH2 0x44FA PUSH1 0x1F DUP4 PUSH2 0x366E JUMP JUMPDEST SWAP2 POP PUSH2 0x4505 DUP3 PUSH2 0x44C4 JUMP JUMPDEST PUSH1 0x20 DUP3 ADD SWAP1 POP SWAP2 SWAP1 POP JUMP JUMPDEST PUSH1 0x0 PUSH1 0x20 DUP3 ADD SWAP1 POP DUP2 DUP2 SUB PUSH1 0x0 DUP4 ADD MSTORE PUSH2 0x4529 DUP2 PUSH2 0x44ED JUMP JUMPDEST SWAP1 POP SWAP2 SWAP1 POP JUMP JUMPDEST PUSH1 0x0 DUP3 DUP3 MSTORE PUSH1 0x20 DUP3 ADD SWAP1 POP SWAP3 SWAP2 POP POP JUMP JUMPDEST PUSH1 0x0 PUSH2 0x454C DUP3 PUSH2 0x43CE JUMP JUMPDEST PUSH2 0x4556 DUP2 DUP6 PUSH2 0x4530 JUMP JUMPDEST SWAP4 POP PUSH2 0x4566 DUP2 DUP6 PUSH1 0x20 DUP7 ADD PUSH2 0x43E4 JUMP JUMPDEST PUSH2 0x456F DUP2 PUSH2 0x3A54 JUMP JUMPDEST DUP5 ADD SWAP2 POP POP SWAP3 SWAP2 POP POP JUMP JUMPDEST PUSH1 0x0 PUSH1 0x80 DUP3 ADD SWAP1 POP PUSH2 0x458F PUSH1 0x0 DUP4 ADD DUP8 PUSH2 0x35C5 JUMP JUMPDEST PUSH2 0x459C PUSH1 0x20 DUP4 ADD DUP7 PUSH2 0x35C5 JUMP JUMPDEST PUSH2 0x45A9 PUSH1 0x40 DUP4 ADD DUP6 PUSH2 0x35B6 JUMP JUMPDEST DUP2 DUP2 SUB PUSH1 0x60 DUP4 ADD MSTORE PUSH2 0x45BB DUP2 DUP5 PUSH2 0x4541 JUMP JUMPDEST SWAP1 POP SWAP6 SWAP5 POP POP POP POP POP JUMP JUMPDEST PUSH1 0x0 PUSH2 0x45D1 DUP3 PUSH2 0x34A7 JUMP JUMPDEST SWAP2 POP PUSH1 0x0 DUP3 EQ ISZERO PUSH2 0x45E5 JUMPI PUSH2 0x45E4 PUSH2 0x38F7 JUMP JUMPDEST JUMPDEST PUSH1 0x1 DUP3 SUB SWAP1 POP SWAP2 SWAP1 POP JUMP JUMPDEST PUSH32 0x5472616E7366657248656C7065723A204554485F5452414E534645525F464149 PUSH1 0x0 DUP3 ADD MSTORE PUSH32 0x4C45440000000000000000000000000000000000000000000000000000000000 PUSH1 0x20 DUP3 ADD MSTORE POP JUMP JUMPDEST PUSH1 0x0 PUSH2 0x464C PUSH1 0x23 DUP4 PUSH2 0x366E JUMP JUMPDEST SWAP2 POP PUSH2 0x4657 DUP3 PUSH2 0x45F0 JUMP JUMPDEST PUSH1 0x40 DUP3 ADD SWAP1 POP SWAP2 SWAP1 POP JUMP JUMPDEST PUSH1 0x0 PUSH1 0x20 DUP3 ADD SWAP1 POP DUP2 DUP2 SUB PUSH1 0x0 DUP4 ADD MSTORE PUSH2 0x467B DUP2 PUSH2 0x463F JUMP JUMPDEST SWAP1 POP SWAP2 SWAP1 POP JUMP JUMPDEST PUSH1 0x0 PUSH14 0xFFFFFFFFFFFFFFFFFFFFFFFFFFFF DUP3 AND SWAP1 POP SWAP2 SWAP1 POP JUMP JUMPDEST PUSH2 0x46A5 DUP2 PUSH2 0x4682 JUMP JUMPDEST DUP2 EQ PUSH2 0x46B0 JUMPI PUSH1 0x0 DUP1 REVERT JUMPDEST POP JUMP JUMPDEST PUSH1 0x0 DUP2 MLOAD SWAP1 POP PUSH2 0x46C2 DUP2 PUSH2 0x469C JUMP JUMPDEST SWAP3 SWAP2 POP POP JUMP JUMPDEST PUSH1 0x0 PUSH4 0xFFFFFFFF DUP3 AND SWAP1 POP SWAP2 SWAP1 POP JUMP JUMPDEST PUSH2 0x46E1 DUP2 PUSH2 0x46C8 JUMP JUMPDEST DUP2 EQ PUSH2 0x46EC JUMPI PUSH1 0x0 DUP1 REVERT JUMPDEST POP JUMP JUMPDEST PUSH1 0x0 DUP2 MLOAD SWAP1 POP PUSH2 0x46FE DUP2 PUSH2 0x46D8 JUMP JUMPDEST SWAP3 SWAP2 POP POP JUMP JUMPDEST PUSH1 0x0 DUP1 PUSH1 0x0 PUSH1 0x60 DUP5 DUP7 SUB SLT ISZERO PUSH2 0x471D JUMPI PUSH2 0x471C PUSH2 0x343F JUMP JUMPDEST JUMPDEST PUSH1 0x0 PUSH2 0x472B DUP7 DUP3 DUP8 ADD PUSH2 0x46B3 JUMP JUMPDEST SWAP4 POP POP PUSH1 0x20 PUSH2 0x473C DUP7 DUP3 DUP8 ADD PUSH2 0x46B3 JUMP JUMPDEST SWAP3 POP POP PUSH1 0x40 PUSH2 0x474D DUP7 DUP3 DUP8 ADD PUSH2 0x46EF JUMP JUMPDEST SWAP2 POP POP SWAP3 POP SWAP3 POP SWAP3 JUMP JUMPDEST PUSH32 0x64732D6D6174682D7375622D756E646572666C6F770000000000000000000000 PUSH1 0x0 DUP3 ADD MSTORE POP JUMP JUMPDEST PUSH1 0x0 PUSH2 0x478D PUSH1 0x15 DUP4 PUSH2 0x366E JUMP JUMPDEST SWAP2 POP PUSH2 0x4798 DUP3 PUSH2 0x4757 JUMP JUMPDEST PUSH1 0x20 DUP3 ADD SWAP1 POP SWAP2 SWAP1 POP JUMP JUMPDEST PUSH1 0x0 PUSH1 0x20 DUP3 ADD SWAP1 POP DUP2 DUP2 SUB PUSH1 0x0 DUP4 ADD MSTORE PUSH2 0x47BC DUP2 PUSH2 0x4780 JUMP JUMPDEST SWAP1 POP SWAP2 SWAP1 POP JUMP JUMPDEST PUSH32 0x556E697377617056324C6962726172793A20494E53554646494349454E545F49 PUSH1 0x0 DUP3 ADD MSTORE PUSH32 0x4E5055545F414D4F554E54000000000000000000000000000000000000000000 PUSH1 0x20 DUP3 ADD MSTORE POP JUMP JUMPDEST PUSH1 0x0 PUSH2 0x481F PUSH1 0x2B DUP4 PUSH2 0x366E JUMP JUMPDEST SWAP2 POP PUSH2 0x482A DUP3 PUSH2 0x47C3 JUMP JUMPDEST PUSH1 0x40 DUP3 ADD SWAP1 POP SWAP2 SWAP1 POP JUMP JUMPDEST PUSH1 0x0 PUSH1 0x20 DUP3 ADD SWAP1 POP DUP2 DUP2 SUB PUSH1 0x0 DUP4 ADD MSTORE PUSH2 0x484E DUP2 PUSH2 0x4812 JUMP JUMPDEST SWAP1 POP SWAP2 SWAP1 POP JUMP JUMPDEST PUSH32 0x556E697377617056324C6962726172793A20494E53554646494349454E545F4C PUSH1 0x0 DUP3 ADD MSTORE PUSH32 0x4951554944495459000000000000000000000000000000000000000000000000 PUSH1 0x20 DUP3 ADD MSTORE POP JUMP JUMPDEST PUSH1 0x0 PUSH2 0x48B1 PUSH1 0x28 DUP4 PUSH2 0x366E JUMP JUMPDEST SWAP2 POP PUSH2 0x48BC DUP3 PUSH2 0x4855 JUMP JUMPDEST PUSH1 0x40 DUP3 ADD SWAP1 POP SWAP2 SWAP1 POP JUMP JUMPDEST PUSH1 0x0 PUSH1 0x20 DUP3 ADD SWAP1 POP DUP2 DUP2 SUB PUSH1 0x0 DUP4 ADD MSTORE PUSH2 0x48E0 DUP2 PUSH2 0x48A4 JUMP JUMPDEST SWAP1 POP SWAP2 SWAP1 POP JUMP JUMPDEST PUSH32 0x4E487B7100000000000000000000000000000000000000000000000000000000 PUSH1 0x0 MSTORE PUSH1 0x12 PUSH1 0x4 MSTORE PUSH1 0x24 PUSH1 0x0 REVERT JUMPDEST PUSH1 0x0 PUSH2 0x4921 DUP3 PUSH2 0x34A7 JUMP JUMPDEST SWAP2 POP PUSH2 0x492C DUP4 PUSH2 0x34A7 JUMP JUMPDEST SWAP3 POP DUP3 PUSH2 0x493C JUMPI PUSH2 0x493B PUSH2 0x48E7 JUMP JUMPDEST JUMPDEST DUP3 DUP3 DIV SWAP1 POP SWAP3 SWAP2 POP POP JUMP JUMPDEST PUSH32 0x556E697377617056324C6962726172793A204944454E544943414C5F41444452 PUSH1 0x0 DUP3 ADD MSTORE PUSH32 0x4553534553000000000000000000000000000000000000000000000000000000 PUSH1 0x20 DUP3 ADD MSTORE POP JUMP JUMPDEST PUSH1 0x0 PUSH2 0x49A3 PUSH1 0x25 DUP4 PUSH2 0x366E JUMP JUMPDEST SWAP2 POP PUSH2 0x49AE DUP3 PUSH2 0x4947 JUMP JUMPDEST PUSH1 0x40 DUP3 ADD SWAP1 POP SWAP2 SWAP1 POP JUMP JUMPDEST PUSH1 0x0 PUSH1 0x20 DUP3 ADD SWAP1 POP DUP2 DUP2 SUB PUSH1 0x0 DUP4 ADD MSTORE PUSH2 0x49D2 DUP2 PUSH2 0x4996 JUMP JUMPDEST SWAP1 POP SWAP2 SWAP1 POP JUMP JUMPDEST PUSH32 0x556E697377617056324C6962726172793A205A45524F5F414444524553530000 PUSH1 0x0 DUP3 ADD MSTORE POP JUMP JUMPDEST PUSH1 0x0 PUSH2 0x4A0F PUSH1 0x1E DUP4 PUSH2 0x366E JUMP JUMPDEST SWAP2 POP PUSH2 0x4A1A DUP3 PUSH2 0x49D9 JUMP JUMPDEST PUSH1 0x20 DUP3 ADD SWAP1 POP SWAP2 SWAP1 POP JUMP JUMPDEST PUSH1 0x0 PUSH1 0x20 DUP3 ADD SWAP1 POP DUP2 DUP2 SUB PUSH1 0x0 DUP4 ADD MSTORE PUSH2 0x4A3E DUP2 PUSH2 0x4A02 JUMP JUMPDEST SWAP1 POP SWAP2 SWAP1 POP JUMP JUMPDEST PUSH32 0x556E697377617056324C6962726172793A20494E53554646494349454E545F4F PUSH1 0x0 DUP3 ADD MSTORE PUSH32 0x55545055545F414D4F554E540000000000000000000000000000000000000000 PUSH1 0x20 DUP3 ADD MSTORE POP JUMP JUMPDEST PUSH1 0x0 PUSH2 0x4AA1 PUSH1 0x2C DUP4 PUSH2 0x366E JUMP JUMPDEST SWAP2 POP PUSH2 0x4AAC DUP3 PUSH2 0x4A45 JUMP JUMPDEST PUSH1 0x40 DUP3 ADD SWAP1 POP SWAP2 SWAP1 POP JUMP JUMPDEST PUSH1 0x0 PUSH1 0x20 DUP3 ADD SWAP1 POP DUP2 DUP2 SUB PUSH1 0x0 DUP4 ADD MSTORE PUSH2 0x4AD0 DUP2 PUSH2 0x4A94 JUMP JUMPDEST SWAP1 POP SWAP2 SWAP1 POP JUMP JUMPDEST PUSH1 0x0 PUSH2 0x4AE2 DUP3 PUSH2 0x34A7 JUMP JUMPDEST SWAP2 POP PUSH2 0x4AED DUP4 PUSH2 0x34A7 JUMP JUMPDEST SWAP3 POP DUP2 PUSH32 0xFFFFFFFFFFFFFFFFFFFFFFFFFFFFFFFFFFFFFFFFFFFFFFFFFFFFFFFFFFFFFFFF DIV DUP4 GT DUP3 ISZERO ISZERO AND ISZERO PUSH2 0x4B26 JUMPI PUSH2 0x4B25 PUSH2 0x38F7 JUMP JUMPDEST JUMPDEST DUP3 DUP3 MUL SWAP1 POP SWAP3 SWAP2 POP POP JUMP JUMPDEST PUSH32 0x64732D6D6174682D6D756C2D6F766572666C6F77000000000000000000000000 PUSH1 0x0 DUP3 ADD MSTORE POP JUMP JUMPDEST PUSH1 0x0 PUSH2 0x4B67 PUSH1 0x14 DUP4 PUSH2 0x366E JUMP JUMPDEST SWAP2 POP PUSH2 0x4B72 DUP3 PUSH2 0x4B31 JUMP JUMPDEST PUSH1 0x20 DUP3 ADD SWAP1 POP SWAP2 SWAP1 POP JUMP JUMPDEST PUSH1 0x0 PUSH1 0x20 DUP3 ADD SWAP1 POP DUP2 DUP2 SUB PUSH1 0x0 DUP4 ADD MSTORE PUSH2 0x4B96 DUP2 PUSH2 0x4B5A JUMP JUMPDEST SWAP1 POP SWAP2 SWAP1 POP JUMP JUMPDEST PUSH32 0x64732D6D6174682D6164642D6F766572666C6F77000000000000000000000000 PUSH1 0x0 DUP3 ADD MSTORE POP JUMP JUMPDEST PUSH1 0x0 PUSH2 0x4BD3 PUSH1 0x14 DUP4 PUSH2 0x366E JUMP JUMPDEST SWAP2 POP PUSH2 0x4BDE DUP3 PUSH2 0x4B9D JUMP JUMPDEST PUSH1 0x20 DUP3 ADD SWAP1 POP SWAP2 SWAP1 POP JUMP JUMPDEST PUSH1 0x0 PUSH1 0x20 DUP3 ADD SWAP1 POP DUP2 DUP2 SUB PUSH1 0x0 DUP4 ADD MSTORE PUSH2 0x4C02 DUP2 PUSH2 0x4BC6 JUMP JUMPDEST SWAP1 POP SWAP2 SWAP1 POP JUMP INVALID LOG2 PUSH5 0x6970667358 0x22 SLT KECCAK256 0x4F 0xC9 LOG2 PUSH27 0x1DF03FAAAFCB838D7C222471F5429EAE68454A04387451564AF8B6 0xBB PUSH5 0x736F6C6343 STOP ADDMOD 0xC STOP CALLER "
		},
		"gasEstimates": {
			"creation": {
				"codeDepositCost": "3903800",
				"executionCost": "infinite",
				"totalCost": "infinite"
			},
			"external": {
				"SushiV2Factory()": "infinite",
				"WETH()": "infinite",
				"applyMPC()": "75519",
				"changeMPC(address)": "infinite",
				"delay()": "396",
				"delayMPC()": "2452",
				"exec(address,uint256,bytes)": "infinite",
				"mpc()": "2577",
				"pendingMPC()": "2602"
			},
			"internal": {
				"_swap(uint256[] memory,address[] memory,address)": "infinite",
				"_swapExactTokensForETH(uint256,uint256,address[] memory,address,uint256)": "infinite",
				"_swapExactTokensForETHSupportingFeeOnTransferTokens(uint256,uint256,address[] memory,address,uint256)": "infinite",
				"_swapExactTokensForTokens(uint256,uint256,address[] memory,address,uint256)": "infinite",
				"_swapExactTokensForTokensSupportingFeeOnTransferTokens(uint256,uint256,address[] memory,address,uint256)": "infinite",
				"_swapSupportingFeeOnTransferTokens(address[] memory,address)": "infinite",
				"_swapTokensForExactETH(uint256,uint256,address[] memory,address,uint256)": "infinite",
				"_swapTokensForExactTokens(uint256,uint256,address[] memory,address,uint256)": "infinite",
				"swapExactTokensForETH(address,uint256,bytes calldata)": "infinite",
				"swapExactTokensForETHSupportingFeeOnTransferTokens(address,uint256,bytes calldata)": "infinite",
				"swapExactTokensForTokens(address,uint256,bytes calldata)": "infinite",
				"swapExactTokensForTokensSupportingFeeOnTransferTokens(address,uint256,bytes calldata)": "infinite",
				"swapTokensForExactETH(address,uint256,bytes calldata)": "infinite",
				"swapTokensForExactTokens(address,uint256,bytes calldata)": "infinite"
			}
		},
		"methodIdentifiers": {
			"SushiV2Factory()": "703d2bb7",
			"WETH()": "ad5c4648",
			"applyMPC()": "b63b38d0",
			"changeMPC(address)": "5b7b018c",
			"delay()": "6a42b8f8",
			"delayMPC()": "160f1053",
			"exec(address,uint256,bytes)": "0565bb67",
			"mpc()": "f75c2664",
			"pendingMPC()": "f830e7b4"
		}
	},
	"abi": [
		{
			"inputs": [
				{
					"internalType": "address",
					"name": "mpc_",
					"type": "address"
				},
				{
					"internalType": "address",
					"name": "sushiV2Factory_",
					"type": "address"
				},
				{
					"internalType": "address",
					"name": "weth_",
					"type": "address"
				}
			],
			"stateMutability": "nonpayable",
			"type": "constructor"
		},
		{
			"anonymous": false,
			"inputs": [
				{
					"indexed": true,
					"internalType": "address",
					"name": "oldMPC",
					"type": "address"
				},
				{
					"indexed": true,
					"internalType": "address",
					"name": "newMPC",
					"type": "address"
				},
				{
					"indexed": false,
					"internalType": "uint256",
					"name": "applyTime",
					"type": "uint256"
				}
			],
			"name": "LogApplyMPC",
			"type": "event"
		},
		{
			"anonymous": false,
			"inputs": [
				{
					"indexed": true,
					"internalType": "address",
					"name": "oldMPC",
					"type": "address"
				},
				{
					"indexed": true,
					"internalType": "address",
					"name": "newMPC",
					"type": "address"
				},
				{
					"indexed": false,
					"internalType": "uint256",
					"name": "effectiveTime",
					"type": "uint256"
				}
			],
			"name": "LogChangeMPC",
			"type": "event"
		},
		{
			"inputs": [],
			"name": "SushiV2Factory",
			"outputs": [
				{
					"internalType": "address",
					"name": "",
					"type": "address"
				}
			],
			"stateMutability": "view",
			"type": "function"
		},
		{
			"inputs": [],
			"name": "WETH",
			"outputs": [
				{
					"internalType": "address",
					"name": "",
					"type": "address"
				}
			],
			"stateMutability": "view",
			"type": "function"
		},
		{
			"inputs": [],
			"name": "applyMPC",
			"outputs": [],
			"stateMutability": "nonpayable",
			"type": "function"
		},
		{
			"inputs": [
				{
					"internalType": "address",
					"name": "_mpc",
					"type": "address"
				}
			],
			"name": "changeMPC",
			"outputs": [],
			"stateMutability": "nonpayable",
			"type": "function"
		},
		{
			"inputs": [],
			"name": "delay",
			"outputs": [
				{
					"internalType": "uint256",
					"name": "",
					"type": "uint256"
				}
			],
			"stateMutability": "view",
			"type": "function"
		},
		{
			"inputs": [],
			"name": "delayMPC",
			"outputs": [
				{
					"internalType": "uint256",
					"name": "",
					"type": "uint256"
				}
			],
			"stateMutability": "view",
			"type": "function"
		},
		{
			"inputs": [
				{
					"internalType": "address",
					"name": "token",
					"type": "address"
				},
				{
					"internalType": "uint256",
					"name": "amount",
					"type": "uint256"
				},
				{
					"internalType": "bytes",
					"name": "data",
					"type": "bytes"
				}
			],
			"name": "exec",
			"outputs": [
				{
					"internalType": "address",
					"name": "recvToken",
					"type": "address"
				},
				{
					"internalType": "address",
					"name": "receiver",
					"type": "address"
				},
				{
					"internalType": "uint256",
					"name": "recvAmount",
					"type": "uint256"
				}
			],
			"stateMutability": "nonpayable",
			"type": "function"
		},
		{
			"inputs": [],
			"name": "mpc",
			"outputs": [
				{
					"internalType": "address",
					"name": "",
					"type": "address"
				}
			],
			"stateMutability": "view",
			"type": "function"
		},
		{
			"inputs": [],
			"name": "pendingMPC",
			"outputs": [
				{
					"internalType": "address",
					"name": "",
					"type": "address"
				}
			],
			"stateMutability": "view",
			"type": "function"
		}
	]
}